{
  "address": "0x29037DCe9fF2EB848403a090C7d4EbE4d8D6320F",
  "abi": [
    {
      "inputs": [
        {
          "internalType": "address",
          "name": "_ssov",
          "type": "address"
        },
        {
          "internalType": "address",
          "name": "_vbnb",
          "type": "address"
        }
      ],
      "stateMutability": "nonpayable",
      "type": "constructor"
    },
    {
      "inputs": [
        {
          "internalType": "uint256",
          "name": "_strikeIndex",
          "type": "uint256"
        },
        {
          "internalType": "address",
          "name": "_to",
          "type": "address"
        }
      ],
      "name": "deposit",
      "outputs": [
        {
          "internalType": "bool",
          "name": "",
          "type": "bool"
        }
      ],
      "stateMutability": "payable",
      "type": "function"
    },
    {
      "inputs": [
        {
          "internalType": "uint256[]",
          "name": "_strikeIndices",
          "type": "uint256[]"
        },
        {
          "internalType": "uint256[]",
          "name": "_amounts",
          "type": "uint256[]"
        },
        {
          "internalType": "address",
          "name": "_to",
          "type": "address"
        }
      ],
      "name": "depositMultiple",
      "outputs": [
        {
          "internalType": "bool",
          "name": "",
          "type": "bool"
        }
      ],
      "stateMutability": "payable",
      "type": "function"
    },
    {
      "inputs": [
        {
          "internalType": "uint256",
          "name": "_strikeIndex",
          "type": "uint256"
        },
        {
          "internalType": "uint256",
          "name": "_amount",
          "type": "uint256"
        },
        {
          "internalType": "address",
          "name": "_to",
          "type": "address"
        }
      ],
      "name": "purchase",
      "outputs": [
        {
          "internalType": "uint256",
          "name": "",
          "type": "uint256"
        },
        {
          "internalType": "uint256",
          "name": "",
          "type": "uint256"
        }
      ],
      "stateMutability": "payable",
      "type": "function"
    },
    {
      "inputs": [],
      "name": "ssov",
      "outputs": [
        {
          "internalType": "contract IERC20SSOV",
          "name": "",
          "type": "address"
        }
      ],
      "stateMutability": "view",
      "type": "function"
    },
    {
      "inputs": [],
      "name": "vbnb",
      "outputs": [
        {
          "internalType": "address",
          "name": "",
          "type": "address"
        }
      ],
      "stateMutability": "view",
      "type": "function"
    },
    {
      "stateMutability": "payable",
      "type": "receive"
    }
  ],
  "transactionHash": "0xead15f054108bb1f3fdf0a7574cb24dcecef3d3347b3c18c8169d027af0a09ca",
  "args": [
    "0x43a5cfB83d0DEcAaead90E0CC6DCA60A2405442B",
    "0xa07c5b74c9b40447a954e1466938b865b6bbea36"
  ],
  "numDeployments": 1,
  "solcInputHash": "450a94a1d9dad975029872e8b2b81bcb",
  "bytecode": "0x60c060405234801561001057600080fd5b506040516112b53803806112b583398101604081905261002f91610062565b6001600160a01b039182166080521660a052610095565b80516001600160a01b038116811461005d57600080fd5b919050565b6000806040838503121561007557600080fd5b61007e83610046565b915061008c60208401610046565b90509250929050565b60805160a0516111856101306000396000818161011b01528181610141015281816101c90152818161025c015281816103f20152818161047a015281816105be015281816106ca01528181610752015281816107e5015281816109f40152610a9401526000818160a70152818161027e015281816102d3015281816105e00152818161061f01528181610807015261085e01526111856000f3fe60806040526004361061004e5760003560e01c80636e553f651461005a5780638144eeba146100825780638355fc5414610095578063ea3bd5df146100e1578063f6961bef1461010957600080fd5b3661005557005b600080fd5b61006d610068366004610dfc565b61013d565b60405190151581526020015b60405180910390f35b61006d610090366004610e74565b610363565b3480156100a157600080fd5b506100c97f000000000000000000000000000000000000000000000000000000000000000081565b6040516001600160a01b039091168152602001610079565b6100f46100ef366004610ef5565b6106c5565b60408051928352602083019190915201610079565b34801561011557600080fd5b506100c97f000000000000000000000000000000000000000000000000000000000000000081565b60007f00000000000000000000000000000000000000000000000000000000000000006001600160a01b0316631249c58b346040518263ffffffff1660e01b81526004016000604051808303818588803b15801561019a57600080fd5b505af11580156101ae573d6000803e3d6000fd5b50506040516370a0823160e01b8152306004820152600093507f00000000000000000000000000000000000000000000000000000000000000006001600160a01b031692506370a08231915060240160206040518083038186803b15801561021557600080fd5b505afa158015610229573d6000803e3d6000fd5b505050506040513d601f19601f8201168201806040525081019061024d9190610f2a565b90506102a36001600160a01b037f0000000000000000000000000000000000000000000000000000000000000000167f0000000000000000000000000000000000000000000000000000000000000000836108f2565b604051638dbdbe6d60e01b815260048101859052602481018290526001600160a01b0384811660448301526000917f000000000000000000000000000000000000000000000000000000000000000090911690638dbdbe6d90606401602060405180830381600087803b15801561031957600080fd5b505af115801561032d573d6000803e3d6000fd5b505050506040513d601f19601f820116820180604052508101906103519190610f43565b905061035b6109dc565b949350505050565b60008060005b848110156103a95785858281811061038357610383610f65565b90506020020135826103959190610f91565b9150806103a181610fa9565b915050610369565b50803410156103f05760405162461bcd60e51b815260206004820152600e60248201526d125b9d985b1a5908185b5bdd5b9d60921b60448201526064015b60405180910390fd5b7f00000000000000000000000000000000000000000000000000000000000000006001600160a01b0316631249c58b346040518263ffffffff1660e01b81526004016000604051808303818588803b15801561044b57600080fd5b505af115801561045f573d6000803e3d6000fd5b50506040516370a0823160e01b8152306004820152600093507f00000000000000000000000000000000000000000000000000000000000000006001600160a01b031692506370a08231915060240160206040518083038186803b1580156104c657600080fd5b505afa1580156104da573d6000803e3d6000fd5b505050506040513d601f19601f820116820180604052508101906104fe9190610f2a565b905060008567ffffffffffffffff81111561051b5761051b610fc4565b604051908082528060200260200182016040528015610544578160200160208202803683370190505b50905060005b868110156105b0578388888381811061056557610565610f65565b90506020020135846105779190610fda565b6105819190610ff9565b82828151811061059357610593610f65565b6020908102919091010152806105a881610fa9565b91505061054a565b506106056001600160a01b037f0000000000000000000000000000000000000000000000000000000000000000167f0000000000000000000000000000000000000000000000000000000000000000846108f2565b6040516340a2775d60e11b81526000906001600160a01b037f00000000000000000000000000000000000000000000000000000000000000001690638144eeba9061065a908d908d9087908c9060040161101b565b602060405180830381600087803b15801561067457600080fd5b505af1158015610688573d6000803e3d6000fd5b505050506040513d601f19601f820116820180604052508101906106ac9190610f43565b90506106b66109dc565b93505050505b95945050505050565b6000807f00000000000000000000000000000000000000000000000000000000000000006001600160a01b0316631249c58b346040518263ffffffff1660e01b81526004016000604051808303818588803b15801561072357600080fd5b505af1158015610737573d6000803e3d6000fd5b50506040516370a0823160e01b8152306004820152600093507f00000000000000000000000000000000000000000000000000000000000000006001600160a01b031692506370a08231915060240160206040518083038186803b15801561079e57600080fd5b505afa1580156107b2573d6000803e3d6000fd5b505050506040513d601f19601f820116820180604052508101906107d69190610f2a565b905061082c6001600160a01b037f0000000000000000000000000000000000000000000000000000000000000000167f0000000000000000000000000000000000000000000000000000000000000000836108f2565b60405163ea3bd5df60e01b815260048101879052602481018690526001600160a01b03858116604483015260009182917f0000000000000000000000000000000000000000000000000000000000000000169063ea3bd5df906064016040805180830381600087803b1580156108a157600080fd5b505af11580156108b5573d6000803e3d6000fd5b505050506040513d601f19601f820116820180604052508101906108d991906110b0565b915091506108e56109dc565b9097909650945050505050565b604051636eb1769f60e11b81523060048201526001600160a01b0383811660248301526000916109819184919087169063dd62ed3e9060440160206040518083038186803b15801561094357600080fd5b505afa158015610957573d6000803e3d6000fd5b505050506040513d601f19601f8201168201806040525081019061097b9190610f2a565b90610bf0565b604080516001600160a01b038616602482015260448082018490528251808303909101815260649091019091526020810180516001600160e01b031663095ea7b360e01b1790529091506109d6908590610c03565b50505050565b6040516370a0823160e01b81523060048201526000907f00000000000000000000000000000000000000000000000000000000000000006001600160a01b0316906370a082319060240160206040518083038186803b158015610a3e57600080fd5b505afa158015610a52573d6000803e3d6000fd5b505050506040513d601f19601f82011682018060405250810190610a769190610f2a565b90508015610bed5760405163db006a7560e01b8152600481018290527f00000000000000000000000000000000000000000000000000000000000000006001600160a01b03169063db006a7590602401602060405180830381600087803b158015610ae057600080fd5b505af1158015610af4573d6000803e3d6000fd5b505050506040513d601f19601f82011682018060405250810190610b189190610f2a565b15610b555760405162461bcd60e51b815260206004820152600d60248201526c14995919595b4819985a5b1959609a1b60448201526064016103e7565b478015610beb57604051600090339083908381818185875af1925050503d8060008114610b9e576040519150601f19603f3d011682016040523d82523d6000602084013e610ba3565b606091505b5050905080610be95760405162461bcd60e51b81526020600482015260126024820152712ab730b13632903a379039b2b7321021272160711b60448201526064016103e7565b505b505b50565b6000610bfc8284610f91565b9392505050565b6000610c58826040518060400160405280602081526020017f5361666545524332303a206c6f772d6c6576656c2063616c6c206661696c6564815250856001600160a01b0316610cd59092919063ffffffff16565b805190915015610be95780806020019051810190610c769190610f43565b610be95760405162461bcd60e51b815260206004820152602a60248201527f5361666545524332303a204552433230206f7065726174696f6e20646964206e6044820152691bdd081cdd58d8d9595960b21b60648201526084016103e7565b606061035b848460008585843b610d2e5760405162461bcd60e51b815260206004820152601d60248201527f416464726573733a2063616c6c20746f206e6f6e2d636f6e747261637400000060448201526064016103e7565b600080866001600160a01b03168587604051610d4a9190611100565b60006040518083038185875af1925050503d8060008114610d87576040519150601f19603f3d011682016040523d82523d6000602084013e610d8c565b606091505b5091509150610d9c828286610da7565b979650505050505050565b60608315610db6575081610bfc565b825115610dc65782518084602001fd5b8160405162461bcd60e51b81526004016103e7919061111c565b80356001600160a01b0381168114610df757600080fd5b919050565b60008060408385031215610e0f57600080fd5b82359150610e1f60208401610de0565b90509250929050565b60008083601f840112610e3a57600080fd5b50813567ffffffffffffffff811115610e5257600080fd5b6020830191508360208260051b8501011115610e6d57600080fd5b9250929050565b600080600080600060608688031215610e8c57600080fd5b853567ffffffffffffffff80821115610ea457600080fd5b610eb089838a01610e28565b90975095506020880135915080821115610ec957600080fd5b50610ed688828901610e28565b9094509250610ee9905060408701610de0565b90509295509295909350565b600080600060608486031215610f0a57600080fd5b8335925060208401359150610f2160408501610de0565b90509250925092565b600060208284031215610f3c57600080fd5b5051919050565b600060208284031215610f5557600080fd5b81518015158114610bfc57600080fd5b634e487b7160e01b600052603260045260246000fd5b634e487b7160e01b600052601160045260246000fd5b60008219821115610fa457610fa4610f7b565b500190565b6000600019821415610fbd57610fbd610f7b565b5060010190565b634e487b7160e01b600052604160045260246000fd5b6000816000190483118215151615610ff457610ff4610f7b565b500290565b60008261101657634e487b7160e01b600052601260045260246000fd5b500490565b6060808252810184905260006001600160fb1b0385111561103b57600080fd5b8460051b808760808501378083019050608081016000815260206080858403018186015281875180845260a0850191508289019450600093505b808410156110955784518252938201936001939093019290820190611075565b506001600160a01b038716604087015293506106bc92505050565b600080604083850312156110c357600080fd5b505080516020909101519092909150565b60005b838110156110ef5781810151838201526020016110d7565b838111156109d65750506000910152565b600082516111128184602087016110d4565b9190910192915050565b602081526000825180602084015261113b8160408501602087016110d4565b601f01601f1916919091016040019291505056fea26469706673582212200aaccf67d145ea52512a358b008562a7d4afd05c54d87f31179c611a94c29fcf64736f6c63430008090033",
  "devdoc": {
    "kind": "dev",
    "methods": {
      "constructor": {
        "params": {
          "_ssov": "address of SSOV",
          "_vbnb": "VBNB address"
        }
      },
      "deposit(uint256,address)": {
        "params": {
          "_strikeIndex": "Index of strike",
          "_to": "Address of the user to deposit for"
        },
        "returns": {
          "_0": "Whether deposit was successful"
        }
      },
      "depositMultiple(uint256[],uint256[],address)": {
        "params": {
          "_amounts": "Amount of BNB to deposit into each strike index",
          "_strikeIndices": "Indices of strikes to deposit into",
          "_to": "Address of the user to deposit for"
        },
        "returns": {
          "_0": "Whether deposits went through successfully"
        }
      },
      "purchase(uint256,uint256,address)": {
        "params": {
          "_amount": "Amount of calls to purchase",
          "_strikeIndex": "Strike index for current epoch",
          "_to": "User to purchase options for"
        },
        "returns": {
          "_0": "Whether purchase was successful"
        }
      }
    },
    "version": 1
  },
  "userdoc": {
    "kind": "user",
    "methods": {
      "constructor": {
        "notice": "Constructor"
      },
      "deposit(uint256,address)": {
        "notice": "Deposits BNB into the ssov to mint options in the next epoch for selected strikes"
      },
      "depositMultiple(uint256[],uint256[],address)": {
        "notice": "Deposit BNB multiple times into different strike"
      },
      "purchase(uint256,uint256,address)": {
        "notice": "Purchases calls for the current epoch"
      }
    },
    "version": 1
  },
  "storageLayout": {
    "storage": [],
    "types": null
  }
}