{
  "address": "0x32Eb7902D4134bf98A28b963D26de779AF92A212",
  "abi": [
    {
      "anonymous": false,
      "inputs": [
        {
          "indexed": true,
          "internalType": "address",
          "name": "previousOwner",
          "type": "address"
        },
        {
          "indexed": true,
          "internalType": "address",
          "name": "newOwner",
          "type": "address"
        }
      ],
      "name": "OwnershipTransferred",
      "type": "event"
    },
    {
      "anonymous": false,
      "inputs": [
        {
          "indexed": false,
          "internalType": "uint256",
          "name": "newVolatility",
          "type": "uint256"
        }
      ],
      "name": "VolatilityUpdate",
      "type": "event"
    },
    {
      "inputs": [],
      "name": "getVolatility",
      "outputs": [
        {
          "internalType": "uint256",
          "name": "",
          "type": "uint256"
        }
      ],
      "stateMutability": "view",
      "type": "function"
    },
    {
      "inputs": [],
      "name": "lastVolatility",
      "outputs": [
        {
          "internalType": "uint256",
          "name": "",
          "type": "uint256"
        }
      ],
      "stateMutability": "view",
      "type": "function"
    },
    {
      "inputs": [],
      "name": "owner",
      "outputs": [
        {
          "internalType": "address",
          "name": "",
          "type": "address"
        }
      ],
      "stateMutability": "view",
      "type": "function"
    },
    {
      "inputs": [],
      "name": "renounceOwnership",
      "outputs": [],
      "stateMutability": "nonpayable",
      "type": "function"
    },
    {
      "inputs": [
        {
          "internalType": "address",
          "name": "newOwner",
          "type": "address"
        }
      ],
      "name": "transferOwnership",
      "outputs": [],
      "stateMutability": "nonpayable",
      "type": "function"
    },
    {
      "inputs": [
        {
          "internalType": "uint256",
          "name": "v",
          "type": "uint256"
        }
      ],
      "name": "updateVolatility",
      "outputs": [
        {
          "internalType": "uint256",
          "name": "",
          "type": "uint256"
        }
      ],
      "stateMutability": "nonpayable",
      "type": "function"
    }
  ],
  "transactionHash": "0xde2f6aaad016a7977c88fc16ddd8ad0bab722ee6dfe4d97e1a9106d3e8cfef5e",
  "args": [],
  "numDeployments": 1,
  "solcInputHash": "aad356ede4a703c545806b0eb0b81dbb",
  "bytecode": "0x608060405234801561001057600080fd5b5061001a3361001f565b61006f565b600080546001600160a01b038381166001600160a01b0319831681178455604051919092169283917f8be0079c531659141344cd1fd0a4f28419497f9722a3daafe3b4186f6b6457e09190a35050565b6103e48061007e6000396000f3fe608060405234801561001057600080fd5b50600436106100625760003560e01c80632834a7c8146100675780633af2888b1461008d578063715018a6146100955780638843be741461009f5780638da5cb5b146100a8578063f2fde38b146100c3575b600080fd5b61007a610075366004610330565b6100d6565b6040519081526020015b60405180910390f35b61007a6101a4565b61009d61020f565b005b61007a60015481565b6000546040516001600160a01b039091168152602001610084565b61009d6100d1366004610349565b610245565b600080546001600160a01b0316331461010a5760405162461bcd60e51b815260040161010190610379565b60405180910390fd5b816101685760405162461bcd60e51b815260206004820152602860248201527f566f6c6174696c6974794f7261636c653a20566f6c6174696c6974792063616e60448201526706e6f7420626520360c41b6064820152608401610101565b60018290556040518281527f40d3ce1236721e7aa94257339f8985d708ed215f5cad2069220201f20b7a89c49060200160405180910390a15090565b6000600154600014156102085760405162461bcd60e51b815260206004820152602660248201527f566f6c6174696c6974794f7261636c653a204c61737420766f6c6174696c6974604482015265079203d3d20360d41b6064820152608401610101565b5060015490565b6000546001600160a01b031633146102395760405162461bcd60e51b815260040161010190610379565b61024360006102e0565b565b6000546001600160a01b0316331461026f5760405162461bcd60e51b815260040161010190610379565b6001600160a01b0381166102d45760405162461bcd60e51b815260206004820152602660248201527f4f776e61626c653a206e6577206f776e657220697320746865207a65726f206160448201526564647265737360d01b6064820152608401610101565b6102dd816102e0565b50565b600080546001600160a01b038381166001600160a01b0319831681178455604051919092169283917f8be0079c531659141344cd1fd0a4f28419497f9722a3daafe3b4186f6b6457e09190a35050565b60006020828403121561034257600080fd5b5035919050565b60006020828403121561035b57600080fd5b81356001600160a01b038116811461037257600080fd5b9392505050565b6020808252818101527f4f776e61626c653a2063616c6c6572206973206e6f7420746865206f776e657260408201526060019056fea2646970667358221220b6aef4fa3a04963ae0f751c0266230a1e47a86e11c2274fb2aa08a942065c79264736f6c63430008090033",
  "devdoc": {
    "kind": "dev",
    "methods": {
      "getVolatility()": {
        "returns": {
          "_0": "volatility"
        }
      },
      "owner()": {
        "details": "Returns the address of the current owner."
      },
      "renounceOwnership()": {
        "details": "Leaves the contract without owner. It will not be possible to call `onlyOwner` functions anymore. Can only be called by the current owner. NOTE: Renouncing ownership will leave the contract without an owner, thereby removing any functionality that is only available to the owner."
      },
      "transferOwnership(address)": {
        "details": "Transfers ownership of the contract to a new account (`newOwner`). Can only be called by the current owner."
      },
      "updateVolatility(uint256)": {
        "params": {
          "v": "volatility"
        },
        "returns": {
          "_0": "volatility of BNB"
        }
      }
    },
    "version": 1
  },
  "userdoc": {
    "kind": "user",
    "methods": {
      "getVolatility()": {
        "notice": "Gets the volatility of BNB"
      },
      "updateVolatility(uint256)": {
        "notice": "Updates the last volatility for BNB"
      }
    },
    "version": 1
  },
  "storageLayout": {
    "storage": [
      {
        "astId": 3344,
        "contract": "contracts/oracle/BnbVolatilityOracle.sol:BnbVolatilityOracle",
        "label": "_owner",
        "offset": 0,
        "slot": "0",
        "type": "t_address"
      },
      {
        "astId": 46990,
        "contract": "contracts/oracle/BnbVolatilityOracle.sol:BnbVolatilityOracle",
        "label": "lastVolatility",
        "offset": 0,
        "slot": "1",
        "type": "t_uint256"
      }
    ],
    "types": {
      "t_address": {
        "encoding": "inplace",
        "label": "address",
        "numberOfBytes": "20"
      },
      "t_uint256": {
        "encoding": "inplace",
        "label": "uint256",
        "numberOfBytes": "32"
      }
    }
  }
}