{
  "address": "0xb574A027E57e5Da9F6eE4E46077DA29d2b6D1071",
  "abi": [
    {
      "inputs": [
        {
          "internalType": "address",
          "name": "_asset",
          "type": "address"
        },
        {
          "internalType": "address",
          "name": "_aggregator",
          "type": "address"
        }
      ],
      "stateMutability": "nonpayable",
      "type": "constructor"
    },
    {
      "anonymous": false,
      "inputs": [
        {
          "indexed": false,
          "internalType": "address",
          "name": "asset",
          "type": "address"
        },
        {
          "indexed": false,
          "internalType": "uint256",
          "name": "newPrice",
          "type": "uint256"
        }
      ],
      "name": "PriceUpdated",
      "type": "event"
    },
    {
      "inputs": [],
      "name": "aggregator",
      "outputs": [
        {
          "internalType": "contract IChainlinkV3Aggregator",
          "name": "",
          "type": "address"
        }
      ],
      "stateMutability": "view",
      "type": "function"
    },
    {
      "inputs": [],
      "name": "asset",
      "outputs": [
        {
          "internalType": "address",
          "name": "",
          "type": "address"
        }
      ],
      "stateMutability": "view",
      "type": "function"
    },
    {
      "inputs": [],
      "name": "getPriceInUSD",
      "outputs": [
        {
          "internalType": "uint256",
          "name": "price",
          "type": "uint256"
        }
      ],
      "stateMutability": "nonpayable",
      "type": "function"
    },
    {
      "inputs": [],
      "name": "viewPriceInUSD",
      "outputs": [
        {
          "internalType": "uint256",
          "name": "",
          "type": "uint256"
        }
      ],
      "stateMutability": "view",
      "type": "function"
    }
  ],
  "transactionHash": "0x25fd225539d29f4d6adc87081c4695246b54f1ca9038ee92bc8de84bd93d612c",
  "args": [
    "0xc02aaa39b223fe8d0a0e5c4f27ead9083c756cc2",
    "0x5f4eC3Df9cbd43714FE2740f5E3616155c5b8419"
  ],
  "solcInputHash": "e36b2af622afba709349df547e98e9e8",
  "bytecode": "0x60c060405234801561001057600080fd5b5060405161063c38038061063c83398101604081905261002f916100b1565b6001600160a01b03811661007e5760405162461bcd60e51b815260206004820152601260248201527134b73b30b634b21030b3b3b932b3b0ba37b960711b604482015260640160405180910390fd5b6001600160a01b039182166080521660a0526100e4565b80516001600160a01b03811681146100ac57600080fd5b919050565b600080604083850312156100c457600080fd5b6100cd83610095565b91506100db60208401610095565b90509250929050565b60805160a05161052161011b6000396000818160560152818160df015261017a015260008181609a015261022301526105216000f3fe608060405234801561001057600080fd5b506004361061004c5760003560e01c8063245a7bfc1461005157806338d52e0f14610095578063e1aa6036146100bc578063f55fa17f146100d2575b600080fd5b6100787f000000000000000000000000000000000000000000000000000000000000000081565b6040516001600160a01b0390911681526020015b60405180910390f35b6100787f000000000000000000000000000000000000000000000000000000000000000081565b6100c46100da565b60405190815260200161008c565b6000546100c4565b6000807f00000000000000000000000000000000000000000000000000000000000000006001600160a01b031663feaf968c6040518163ffffffff1660e01b815260040160a06040518083038186803b15801561013657600080fd5b505afa15801561014a573d6000803e3d6000fd5b505050506040513d601f19601f8201168201806040525081019061016e9190610309565b505050915050610210817f00000000000000000000000000000000000000000000000000000000000000006001600160a01b031663313ce5676040518163ffffffff1660e01b815260040160206040518083038186803b1580156101d157600080fd5b505afa1580156101e5573d6000803e3d6000fd5b505050506040513d601f19601f820116820180604052508101906102099190610359565b600861027e565b6000819055604080516001600160a01b037f0000000000000000000000000000000000000000000000000000000000000000168152602081018390529193507f0d86730737b142fc160892fa8a0f2db687a92a0e294d1ad70624cf5acef03b84910160405180910390a15090565b8260ff80841690831610156102b3576102978284610392565b6102a290600a61049b565b6102ac90826104aa565b90506102e3565b8260ff168260ff1611156102e3576102cb8383610392565b6102d690600a61049b565b6102e090826104cc565b90505b9392505050565b805169ffffffffffffffffffff8116811461030457600080fd5b919050565b600080600080600060a0868803121561032157600080fd5b61032a866102ea565b945060208601519350604086015192506060860151915061034d608087016102ea565b90509295509295909350565b60006020828403121561036b57600080fd5b815160ff811681146102e357600080fd5b634e487b7160e01b600052601160045260246000fd5b600060ff821660ff8416808210156103ac576103ac61037c565b90039392505050565b600181815b808511156103f05781600019048211156103d6576103d661037c565b808516156103e357918102915b93841c93908002906103ba565b509250929050565b60008261040757506001610495565b8161041457506000610495565b816001811461042a576002811461043457610450565b6001915050610495565b60ff8411156104455761044561037c565b50506001821b610495565b5060208310610133831016604e8410600b8410161715610473575081810a610495565b61047d83836103b5565b80600019048211156104915761049161037c565b0290505b92915050565b60006102e360ff8416836103f8565b6000826104c757634e487b7160e01b600052601260045260246000fd5b500490565b60008160001904831182151516156104e6576104e661037c565b50029056fea26469706673582212201c8bc0ac097dc5e7740f9fa6c19e580fe79a8dd43c95031e5ee62551c327329264736f6c63430008090033",
  "devdoc": {
    "kind": "dev",
    "methods": {
      "getPriceInUSD()": {
        "details": "returns price of asset in 1e8"
      },
      "viewPriceInUSD()": {
        "details": "returns the latest price of asset"
      }
    },
    "stateVariables": {
      "latestAnswer": {
        "details": "the latestAnser returned"
      }
    },
    "version": 1
  },
  "userdoc": {
    "kind": "user",
    "methods": {
      "aggregator()": {
        "notice": "chainlink aggregator with price in USD"
      },
      "asset()": {
        "notice": "the asset with the price oracle"
      }
    },
    "version": 1
  },
  "storageLayout": {
    "storage": [
      {
        "astId": 28013,
        "contract": "contracts/oracle/ChainlinkUSDAdapter.sol:ChainlinkUSDAdapter",
        "label": "latestAnswer",
        "offset": 0,
        "slot": "0",
        "type": "t_uint256"
      }
    ],
    "types": {
      "t_uint256": {
        "encoding": "inplace",
        "label": "uint256",
        "numberOfBytes": "32"
      }
    }
  }
}