{
  "address": "0x9baDE4013a7601aA1f3e9f1361a4ebE60D91B1B5",
  "abi": [
    {
      "inputs": [
        {
          "internalType": "uint256",
          "name": "_volatilityCap",
          "type": "uint256"
        },
        {
          "internalType": "uint256",
          "name": "_minOptionPricePercentage",
          "type": "uint256"
        }
      ],
      "stateMutability": "nonpayable",
      "type": "constructor"
    },
    {
      "anonymous": false,
      "inputs": [
        {
          "indexed": true,
          "internalType": "address",
          "name": "previousOwner",
          "type": "address"
        },
        {
          "indexed": true,
          "internalType": "address",
          "name": "newOwner",
          "type": "address"
        }
      ],
      "name": "OwnershipTransferred",
      "type": "event"
    },
    {
      "inputs": [
        {
          "internalType": "bool",
          "name": "isPut",
          "type": "bool"
        },
        {
          "internalType": "uint256",
          "name": "expiry",
          "type": "uint256"
        },
        {
          "internalType": "uint256",
          "name": "strike",
          "type": "uint256"
        },
        {
          "internalType": "uint256",
          "name": "lastPrice",
          "type": "uint256"
        },
        {
          "internalType": "uint256",
          "name": "volatility",
          "type": "uint256"
        }
      ],
      "name": "getOptionPrice",
      "outputs": [
        {
          "internalType": "uint256",
          "name": "",
          "type": "uint256"
        }
      ],
      "stateMutability": "view",
      "type": "function"
    },
    {
      "inputs": [],
      "name": "minOptionPricePercentage",
      "outputs": [
        {
          "internalType": "uint256",
          "name": "",
          "type": "uint256"
        }
      ],
      "stateMutability": "view",
      "type": "function"
    },
    {
      "inputs": [],
      "name": "owner",
      "outputs": [
        {
          "internalType": "address",
          "name": "",
          "type": "address"
        }
      ],
      "stateMutability": "view",
      "type": "function"
    },
    {
      "inputs": [],
      "name": "renounceOwnership",
      "outputs": [],
      "stateMutability": "nonpayable",
      "type": "function"
    },
    {
      "inputs": [
        {
          "internalType": "address",
          "name": "newOwner",
          "type": "address"
        }
      ],
      "name": "transferOwnership",
      "outputs": [],
      "stateMutability": "nonpayable",
      "type": "function"
    },
    {
      "inputs": [
        {
          "internalType": "uint256",
          "name": "_minOptionPricePercentage",
          "type": "uint256"
        }
      ],
      "name": "updateMinOptionPricePercentage",
      "outputs": [
        {
          "internalType": "bool",
          "name": "",
          "type": "bool"
        }
      ],
      "stateMutability": "nonpayable",
      "type": "function"
    },
    {
      "inputs": [
        {
          "internalType": "uint256",
          "name": "_volatilityCap",
          "type": "uint256"
        }
      ],
      "name": "updateVolatilityCap",
      "outputs": [
        {
          "internalType": "bool",
          "name": "",
          "type": "bool"
        }
      ],
      "stateMutability": "nonpayable",
      "type": "function"
    },
    {
      "inputs": [],
      "name": "volatilityCap",
      "outputs": [
        {
          "internalType": "uint256",
          "name": "",
          "type": "uint256"
        }
      ],
      "stateMutability": "view",
      "type": "function"
    }
  ],
  "transactionHash": "0x4440061458cad519032d25515de0bdf950ff5f60b5fb4a4f224ab4b6df1f584b",
  "args": [
    "500",
    "50000000"
  ],
  "solcInputHash": "e36b2af622afba709349df547e98e9e8",
  "bytecode": "0x60806040523480156200001157600080fd5b5060405162002ba038038062002ba083398101604081905262000034916200009e565b6200003f336200004e565b600191909155600255620000c3565b600080546001600160a01b038381166001600160a01b0319831681178455604051919092169283917f8be0079c531659141344cd1fd0a4f28419497f9722a3daafe3b4186f6b6457e09190a35050565b60008060408385031215620000b257600080fd5b505080516020909101519092909150565b612acd80620000d36000396000f3fe608060405234801561001057600080fd5b50600436106100885760003560e01c8063715018a61161005b578063715018a6146100e85780638da5cb5b146100f2578063ad1ad5dc1461010d578063f2fde38b1461012057600080fd5b806305e927df1461008d57806325b2a93b146100a9578063326611f8146100b25780635b7b6d88146100d5575b600080fd5b61009660015481565b6040519081526020015b60405180910390f35b61009660025481565b6100c56100c036600461293d565b610133565b60405190151581526020016100a0565b6100966100e3366004612956565b610170565b6100f06101f9565b005b6000546040516001600160a01b0390911681526020016100a0565b6100c561011b36600461293d565b61022f565b6100f061012e36600461299f565b610263565b600080546001600160a01b031633146101675760405162461bcd60e51b815260040161015e906129c8565b60405180910390fd5b50600255600190565b60008061018961036061018388426102fe565b90610313565b905060006101b5662386f26fc100006101838a6101a75760006101aa565b60015b888a8760008b61031f565b905060006101d76402540be4006101836002548961047090919063ffffffff16565b9050818111156101eb5792506101f0915050565b509150505b95945050505050565b6000546001600160a01b031633146102235760405162461bcd60e51b815260040161015e906129c8565b61022d600061047c565b565b600080546001600160a01b0316331461025a5760405162461bcd60e51b815260040161015e906129c8565b50600190815590565b6000546001600160a01b0316331461028d5760405162461bcd60e51b815260040161015e906129c8565b6001600160a01b0381166102f25760405162461bcd60e51b815260206004820152602660248201527f4f776e61626c653a206e6577206f776e657220697320746865207a65726f206160448201526564647265737360d01b606482015260840161015e565b6102fb8161047c565b50565b600061030a8284612a13565b90505b92915050565b600061030a8284612a40565b60008061032b876104cc565b90506000610338876104cc565b90506000610358610348886104cc565b610353618e946104cc565b610530565b90506000610373610368886104cc565b6103536127106104cc565b9050600061038d610383886104cc565b61035360646104cc565b905060006103df6103d26103a96103a48989610530565b6107e8565b6103c76103cc876103c7886103c28a61035360026104cc565b61080b565b610a66565b8861080b565b610353846103c288610e26565b905060006103f9826103f4856103c289610e26565b610ff8565b905060ff8e1661043a5761042c61042761041789858a898b8861100a565b6103c2662386f26fc100006104cc565b61104f565b975050505050505050610466565b60ff8e166001141561045a5761042c610427610417888789868d896110d3565b60009750505050505050505b9695505050505050565b600061030a8284612a62565b600080546001600160a01b038381166001600160a01b0319831681178455604051919092169283917f8be0079c531659141344cd1fd0a4f28419497f9722a3daafe3b4186f6b6457e09190a35050565b6000816104db57506000919050565b8160006104e782611132565b90506070811015610500578060700382901b9150610513565b6070811115610513576070810382901c91505b613fff0160701b6001600160701b03919091161760801b92915050565b6000617fff60f084811c8216919084901c8116908214156105765780617fff1415610565575061ffff60ef1b915061030d9050565b505050600160ff1b8116821861030d565b80617fff14156105ba576dffffffffffffffffffffffffffff60801b8416156105a9575061ffff60ef1b915061030d9050565b505050808218600160ff1b1661030d565b600160801b600160ff1b03841661060457600160801b600160ff1b0385166105ec575061ffff60ef1b915061030d9050565b505050808218600160ff1b16617fff60f01b1761030d565b6001600160701b03608085901c16816106205760019150610627565b600160701b175b6001600160701b03608087901c168361066657801561066157600061064b82611132565b6001955060e20393840160711901939190911b90505b610670565b600160701b1760721b5b81818161067f5761067f612a2a565b049050806106ac57600160ff1b8787181661069b5760006106a1565b600160ff1b5b94505050505061030d565b6001606c1b8110156106c0576106c0612a81565b6000600160731b8210156106ff57600160721b8210156106f457600160711b8210156106ed5760706106f7565b60716106f7565b60725b60ff16610708565b61070882611132565b90508361407101818601111561072657617fff9450600091506107b9565b83818601613ffc0110156107415760009450600091506107b9565b83818601613f8c01101561078e578385613ffc01111561076c578385613ffc010382901b9150610785565b8385613ffc01101561078557613ffc8585030382901c91505b600094506107b9565b60708111156107a1576070810382901c91505b6001600160701b038216915083818601613f8d010394505b81607086901b888a186001607f1b60801b1660801c6001600160801b0316171760801b9550505050505061030d565b600061030d6107f6836111d0565b6f3ffe62e42fefa39ef35793c7673007e560801b5b6000617fff60f084811c8216919084901c8116908214156108aa5780617fff1415610889576001600160801b0319858116908516141561085657505050600160ff1b8116821861030d565b600160ff1b6001600160801b03198686181614156108795750505081811761030d565b5061ffff60ef1b915061030d9050565b600160801b600160ff1b038416610565575061ffff60ef1b915061030d9050565b80617fff14156108e657600160801b600160ff1b0385166108d5575061ffff60ef1b915061030d9050565b505050600160ff1b8216811861030d565b6001600160701b03608086901c16826109025760019250610909565b600160701b175b6001600160701b03608086901c1682610925576001925061092c565b600160701b175b908102908161094957600160ff1b8787181661069b5760006106a1565b928201926000600160e11b83101561097c57600160e01b8310156109755761097083611132565b61097f565b60e061097f565b60e15b9050614070818601101561099a576000945060009250610a37565b6140e081860110156109dd576140708510156109bf57846140700383901c92506109d4565b6140708511156109d457614070850383901b92505b60009450610a37565b61c0dd81860111156109f757617fff945060009250610a37565b6070811115610a0e576070810383901c9250610a21565b6070811015610a21578060700383901b92505b6001600160701b03831692506140df8186010394505b82607086901b888a186001607f1b60801b1660801c6001600160801b0316171760801b9550505050505061030d565b6000617fff60f084811c8216919084901c811690821415610ab45780617fff1415610aaa576001600160801b0319858116908516141561087957849250505061030d565b849250505061030d565b80617fff1415610ac857839250505061030d565b6001607f1b608086901c90811015906001600160701b031683610aee5760019350610af5565b600160701b175b6001607f1b608087901c90811015906001600160701b031684610b1b5760019450610b22565b600160701b175b82610b52576001600160801b03198816600160ff1b14610b425787610b45565b60005b965050505050505061030d565b80610b72576001600160801b03198916600160ff1b14610b425788610b45565b8486038415158315151415610c7d576070811315610b99578997505050505050505061030d565b6000811315610bab5790811c90610bda565b606f19811215610bc4578897505050505050505061030d565b6000811215610bda578060000384901c93508596505b92810192600160711b8410610bf5576001968701969390931c925b86617fff1415610c275784610c0f57617fff60f01b610c19565b6001600160f01b03195b97505050505050505061030d565b600160701b841015610c3c5760009650610c49565b6001600160701b03841693505b83607088901b86610c5b576000610c61565b6001607f1b5b6001600160801b0316171760801b97505050505050505061030d565b6000811315610c9857600184901b9350600187039650610caf565b6000811215610caf57600182901b91506001860396505b6070811315610cc15760019150610d0e565b6001811315610cde576001810360018303901c6001019150610d0e565b606f19811215610cf15760019350610d0e565b600019811215610d0e576001816000030360018503901c60010193505b818410610d1f578184039350610d28565b83820393508294505b83610d3e57506000965061030d95505050505050565b6000610d4985611132565b90508060711415610d6f57600185901c6001600160701b03169450600188019750610dbe565b6070811015610db157607081900380891115610d9e578086901b6001600160701b031695508089039850610dab565b600098600019019590951b945b50610dbe565b6001600160701b03851694505b87617fff1415610df15785610dd857617fff60f01b610de2565b6001600160f01b03195b9850505050505050505061030d565b84607089901b87610e03576000610e09565b6001607f1b5b6001600160801b0316171760801b9850505050505050505061030d565b60006001607f1b608083901c1115610e44575061ffff60ef1b919050565b617fff60f083901c811690811415610e5d575090919050565b6001600160701b03608084901c1681610e795760019150610e80565b600160701b175b80610e8f575060009392505050565b613fff8201600190811c9216158015610ee157600160701b8210610eb957607182901b9150610f1c565b6000610ec483611132565b60e20360fe16606f19810160011c909403939290921b9150610f1c565b600160701b8210610ef857607082901b9150610f1c565b6000610f0383611132565b60e10360fe16606f19810160011c909403939290921b91505b600160701b80830401600190811c90818481610f3a57610f3a612a2a565b048201901c90506001818481610f5257610f52612a2a565b048201901c90506001818481610f6a57610f6a612a2a565b048201901c90506001818481610f8257610f82612a2a565b048201901c90506001818481610f9a57610f9a612a2a565b048201901c90506001818481610fb257610fb2612a2a565b048201901c90506000818481610fca57610fca612a2a565b04905081811015610fd9578091505b816001600160701b0316607086901b1760801b95505050505050919050565b600061030a83600160ff1b8418610a66565b600061104461101c886103c289611383565b6103f461103b886103c2611036600160ff1b8b188a61080b565b61141e565b6103c286611383565b979650505050505050565b6000617fff60f083901c16613fff81101561106d5750600092915050565b6001607f1b608084901c1061108157600080fd5b6140fe81111561109057600080fd5b600160701b6001600160701b03608085901c161761406f8210156110ba5761406f8290031c6110cc565b61406f8211156110cc5761406e1982011b5b9392505050565b6000806110ff6110f0896103c2611036600160ff1b8c188b61080b565b6103c2600160ff1b8818611383565b90506000611116856103c2600160ff1b8718611383565b905060006111248383610ff8565b9a9950505050505050505050565b600080821161114057600080fd5b6000600160801b831061115557608092831c92015b600160401b831061116857604092831c92015b640100000000831061117c57602092831c92015b62010000831061118e57601092831c92015b610100831061119f57600892831c92015b601083106111af57600492831c92015b600483106111bf57600292831c92015b6002831061030d5760010192915050565b60006001607f1b608083901c11156111ee575061ffff60ef1b919050565b613fff60f01b6001600160801b03198316141561120d57506000919050565b617fff60f083901c811690811415611226575090919050565b6001600160701b03608084901c16816112425760019150611249565b600160701b175b8061125f57506001600160f01b03199392505050565b600061406f81613fff85106112855750600f9290921b9160009150613ffe1984016112c4565b60019250600160701b84106112a75784613ffe039050600f84901b93506112c4565b60006112b285611132565b607f8190039590951b9461406d039150505b836001607f1b14156112fb5782156112da576001015b60006112e582611132565b60700390508082901b9150808303925050611349565b60008361130957600061130c565b60015b60ff1690505b600160701b8210156113475793800260ff81901c607f81019190911c94600019939093019260019290921b9082180190611312565b505b806001600160701b0316607083901b8461136457600061136a565b6001607f1b5b6001600160801b0316171760801b979650505050505050565b60008061138f83611445565b12156113b15761030d6113a260016104cc565b6103f4600160ff1b8518611383565b60006113f36113c060016104cc565b6103536113cd60016104cc565b6103c76103cc6113e366083ac553a55e006104cc565b610353662386f26fc100006104cc565b9050600061140182856114ec565b905061141661141060016104cc565b82610ff8565b949350505050565b600061030d611440836f1fffb8aa3b295c17f0bbbe87fed0691d60811b61080b565b611503565b6000617fff60f083901c166140fe81111561145f57600080fd5b613fff8110156114725750600092915050565b600160701b6001600160701b03608085901c161761406f82101561149c5761406f8290031c6114ae565b61406f8211156114ae5761406e1982011b5b6001607f1b608085901c106114d857600160ff1b8111156114ce57600080fd5b6000039392505050565b6001600160ff1b038111156110cc57600080fd5b600061030a6114fa83612855565b6103c28561289d565b60006001607f1b608083901c90811190617fff60f085901c8116916001600160701b0316908214801561153557508015155b15611549575061ffff60ef1b949350505050565b61400d82111561156e578261156357617fff60f01b6101f0565b600095945050505050565b613f7f8210156115875750613fff60f01b949350505050565b81611595576001915061159c565b600160701b175b613fef8211156115b257613fee1982011b6115c4565b613fef8210156115c457613fef8290031c5b8280156115d5575061203760811b81115b156115e557506000949350505050565b821580156116045750713fffffffffffffffffffffffffffffffffff81115b156116185750617fff60f01b949350505050565b6001600160801b0381169060801c83801561163257508115155b1561163e579019906001015b6001607f1b828116156116625770016a09e667f3bcc908b2fb1366ea957d3e0260801c5b6001607e1b831615611685577001306fe0a31b7152de8d5a46305c85edec0260801c5b6001607d1b8316156116a8577001172b83c7d517adcdf7c8c50eb14a791f0260801c5b6001607c1b8316156116cb5770010b5586cf9890f6298b92b71842a983630260801c5b6001607b1b8316156116ee577001059b0d31585743ae7c548eb68ca417fd0260801c5b6001607a1b83161561171157700102c9a3e778060ee6f7caca4f7a29bde80260801c5b600160791b8316156117345770010163da9fb33356d84a66ae336dcdfa3f0260801c5b600160781b83161561175757700100b1afa5abcbed6129ab13ec11dc95430260801c5b600160771b83161561177a5770010058c86da1c09ea1ff19d294cf2f679b0260801c5b600160761b83161561179d577001002c605e2e8cec506d21bfc89a23a00f0260801c5b600160751b8316156117c057700100162f3904051fa128bca9c55c31e5df0260801c5b600160741b8316156117e3577001000b175effdc76ba38e31671ca9397250260801c5b600160731b83161561180657700100058ba01fb9f96d6cacd4b180917c3d0260801c5b600160721b8316156118295770010002c5cc37da9491d0985c348c68e7b30260801c5b600160711b83161561184c577001000162e525ee054754457d59952920260260801c5b600160701b83161561186f5770010000b17255775c040618bf4a4ade83fc0260801c5b6001606f1b831615611892577001000058b91b5bc9ae2eed81e9b7d4cfab0260801c5b6001606e1b8316156118b557700100002c5c89d5ec6ca4d7c8acc017b7c90260801c5b6001606d1b8316156118d85770010000162e43f4f831060e02d839a9d16d0260801c5b6001606c1b8316156118fb57700100000b1721bcfc99d9f890ea069117630260801c5b6001606b1b83161561191e5770010000058b90cf1e6d97f9ca14dbcc16280260801c5b6001606a1b831615611941577001000002c5c863b73f016468f6bac5ca2b0260801c5b600160691b83161561196457700100000162e430e5a18f6119e3c02282a50260801c5b600160681b831615611987577001000000b1721835514b86e6d96efd1bfe0260801c5b600160671b8316156119aa57700100000058b90c0b48c6be5df846c5b2ef0260801c5b600160661b8316156119cd5770010000002c5c8601cc6b9e94213c72737a0260801c5b600160651b8316156119f0577001000000162e42fff037df38aa2b219f060260801c5b600160641b831615611a135770010000000b17217fba9c739aa5819f44f90260801c5b600160631b831615611a36577001000000058b90bfcdee5acd3c1cedc8230260801c5b600160621b831615611a5957700100000002c5c85fe31f35a6a30da1be500260801c5b600160611b831615611a7c5770010000000162e42ff0999ce3541b9fffcf0260801c5b600160601b831615611a9f57700100000000b17217f80f4ef5aadda455540260801c5b6001605f1b831615611ac25770010000000058b90bfbf8479bd5a81b51ad0260801c5b6001605e1b831615611ae5577001000000002c5c85fdf84bd62ae30a74cc0260801c5b6001605d1b831615611b0857700100000000162e42fefb2fed257559bdaa0260801c5b6001605c1b831615611b2b577001000000000b17217f7d5a7716bba4a9ae0260801c5b6001605b1b831615611b4e57700100000000058b90bfbe9ddbac5e109cce0260801c5b6001605a1b831615611b715770010000000002c5c85fdf4b15de6f17eb0d0260801c5b600160591b831615611b94577001000000000162e42fefa494f1478fde050260801c5b600160581b831615611bb75770010000000000b17217f7d20cf927c8e94c0260801c5b600160571b831615611bda577001000000000058b90bfbe8f71cb4e4b33d0260801c5b600160561b831615611bfd57700100000000002c5c85fdf477b662b269450260801c5b600160551b831615611c205770010000000000162e42fefa3ae53369388c0260801c5b600160541b831615611c4357700100000000000b17217f7d1d351a389d400260801c5b600160531b831615611c665770010000000000058b90bfbe8e8b2d3d4ede0260801c5b600160521b831615611c89577001000000000002c5c85fdf4741bea6e77e0260801c5b600160511b831615611cac57700100000000000162e42fefa39fe95583c20260801c5b600160501b831615611ccf577001000000000000b17217f7d1cfb72b45e10260801c5b6980000000000000000000831615611cf857700100000000000058b90bfbe8e7cc35c3f00260801c5b6940000000000000000000831615611d215770010000000000002c5c85fdf473e242ea380260801c5b6920000000000000000000831615611d4a577001000000000000162e42fefa39f02b772c0260801c5b6910000000000000000000831615611d735770010000000000000b17217f7d1cf7d83c1a0260801c5b6908000000000000000000831615611d9c577001000000000000058b90bfbe8e7bdcbe2e0260801c5b6904000000000000000000831615611dc557700100000000000002c5c85fdf473dea871f0260801c5b6902000000000000000000831615611dee5770010000000000000162e42fefa39ef44d910260801c5b6901000000000000000000831615611e1757700100000000000000b17217f7d1cf79e9490260801c5b68800000000000000000831615611e3f5770010000000000000058b90bfbe8e7bce5440260801c5b68400000000000000000831615611e67577001000000000000002c5c85fdf473de6eca0260801c5b68200000000000000000831615611e8f57700100000000000000162e42fefa39ef366f0260801c5b68100000000000000000831615611eb7577001000000000000000b17217f7d1cf79afa0260801c5b68080000000000000000831615611edf57700100000000000000058b90bfbe8e7bcd6d0260801c5b68040000000000000000831615611f075770010000000000000002c5c85fdf473de6b20260801c5b68020000000000000000831615611f2f577001000000000000000162e42fefa39ef3580260801c5b600160401b831615611f525770010000000000000000b17217f7d1cf79ab0260801c5b678000000000000000831615611f79577001000000000000000058b90bfbe8e7bcd50260801c5b674000000000000000831615611fa057700100000000000000002c5c85fdf473de6a0260801c5b672000000000000000831615611fc75770010000000000000000162e42fefa39ef340260801c5b671000000000000000831615611fee57700100000000000000000b17217f7d1cf7990260801c5b6708000000000000008316156120155770010000000000000000058b90bfbe8e7bcc0260801c5b67040000000000000083161561203c577001000000000000000002c5c85fdf473de50260801c5b67020000000000000083161561206357700100000000000000000162e42fefa39ef20260801c5b67010000000000000083161561208a577001000000000000000000b17217f7d1cf780260801c5b66800000000000008316156120b057700100000000000000000058b90bfbe8e7bb0260801c5b66400000000000008316156120d65770010000000000000000002c5c85fdf473dd0260801c5b66200000000000008316156120fc577001000000000000000000162e42fefa39ee0260801c5b66100000000000008316156121225770010000000000000000000b17217f7d1cf60260801c5b6608000000000000831615612148577001000000000000000000058b90bfbe8e7a0260801c5b660400000000000083161561216e57700100000000000000000002c5c85fdf473c0260801c5b66020000000000008316156121945770010000000000000000000162e42fefa39d0260801c5b66010000000000008316156121ba57700100000000000000000000b17217f7d1ce0260801c5b658000000000008316156121df5770010000000000000000000058b90bfbe8e60260801c5b65400000000000831615612204577001000000000000000000002c5c85fdf4720260801c5b6520000000000083161561222957700100000000000000000000162e42fefa380260801c5b6510000000000083161561224e577001000000000000000000000b17217f7d1b0260801c5b6508000000000083161561227357700100000000000000000000058b90bfbe8d0260801c5b650400000000008316156122985770010000000000000000000002c5c85fdf460260801c5b650200000000008316156122bd577001000000000000000000000162e42fefa20260801c5b650100000000008316156122e25770010000000000000000000000b17217f7d00260801c5b648000000000831615612306577001000000000000000000000058b90bfbe70260801c5b64400000000083161561232a57700100000000000000000000002c5c85fdf30260801c5b64200000000083161561234e5770010000000000000000000000162e42fef90260801c5b64100000000083161561237257700100000000000000000000000b17217f7c0260801c5b6408000000008316156123965770010000000000000000000000058b90bfbd0260801c5b6404000000008316156123ba577001000000000000000000000002c5c85fde0260801c5b6402000000008316156123de57700100000000000000000000000162e42fee0260801c5b640100000000831615612402577001000000000000000000000000b17217f60260801c5b638000000083161561242557700100000000000000000000000058b90bfa0260801c5b63400000008316156124485770010000000000000000000000002c5c85fc0260801c5b632000000083161561246b577001000000000000000000000000162e42fd0260801c5b631000000083161561248e5770010000000000000000000000000b17217e0260801c5b63080000008316156124b1577001000000000000000000000000058b90be0260801c5b63040000008316156124d457700100000000000000000000000002c5c85e0260801c5b63020000008316156124f75770010000000000000000000000000162e42e0260801c5b630100000083161561251a57700100000000000000000000000000b172160260801c5b6280000083161561253c5770010000000000000000000000000058b90a0260801c5b6240000083161561255e577001000000000000000000000000002c5c840260801c5b6220000083161561258057700100000000000000000000000000162e410260801c5b621000008316156125a2577001000000000000000000000000000b17200260801c5b620800008316156125c457700100000000000000000000000000058b8f0260801c5b620400008316156125e65770010000000000000000000000000002c5c70260801c5b62020000831615612608577001000000000000000000000000000162e30260801c5b6201000083161561262a5770010000000000000000000000000000b1710260801c5b61800083161561264b577001000000000000000000000000000058b80260801c5b61400083161561266c57700100000000000000000000000000002c5b0260801c5b61200083161561268d5770010000000000000000000000000000162d0260801c5b6110008316156126ae57700100000000000000000000000000000b160260801c5b6108008316156126cf5770010000000000000000000000000000058a0260801c5b6104008316156126f0577001000000000000000000000000000002c40260801c5b610200831615612711577001000000000000000000000000000001610260801c5b610100831615612732577001000000000000000000000000000000b00260801c5b6080831615612752577001000000000000000000000000000000570260801c5b60408316156127725770010000000000000000000000000000002b0260801c5b6020831615612792577001000000000000000000000000000000150260801c5b60108316156127b25770010000000000000000000000000000000a0260801c5b60088316156127d2577001000000000000000000000000000000040260801c5b60048316156127f2577001000000000000000000000000000000010260801c5b8461281357600f81901c6001600160701b03169050613fff82019150612842565b613ffe821161283857600f81901c6001600160701b0316905081613fff039150612842565b600091613fee19011c5b60709190911b1760801b95945050505050565b600061030d612875611036600160ff1b85186103c28661035360026104cc565b61035361289861288560026104cc565b6103c26113e3666f9c9e651c44806104cc565b610e26565b600061030d6129016128b86113e3660b58c2126f49006104cc565b6103c7856103c26128de6128d56113e3660caaedbfa8a7006104cc565b600160ff1b1890565b6103c7896103c26128f86113e3663f4a728c19ce806104cc565b6103c78d612907565b8361080b565b600061030d826103c26129266128d56113e36640b43a042331006104cc565b6103c7866103c26113e3662f42c683f17c806104cc565b60006020828403121561294f57600080fd5b5035919050565b600080600080600060a0868803121561296e57600080fd5b8535801515811461297e57600080fd5b97602087013597506040870135966060810135965060800135945092505050565b6000602082840312156129b157600080fd5b81356001600160a01b03811681146110cc57600080fd5b6020808252818101527f4f776e61626c653a2063616c6c6572206973206e6f7420746865206f776e6572604082015260600190565b634e487b7160e01b600052601160045260246000fd5b600082821015612a2557612a256129fd565b500390565b634e487b7160e01b600052601260045260246000fd5b600082612a5d57634e487b7160e01b600052601260045260246000fd5b500490565b6000816000190483118215151615612a7c57612a7c6129fd565b500290565b634e487b7160e01b600052600160045260246000fdfea26469706673582212206c862d0e308452298a5a0081ce1bf6705b0ccdfc8b2f3b4da2fdc04de9d5f52764736f6c63430008090033",
  "devdoc": {
    "kind": "dev",
    "methods": {
      "getOptionPrice(bool,uint256,uint256,uint256,uint256)": {
        "params": {
          "expiry": "expiry timestamp",
          "isPut": "is put option",
          "lastPrice": "current price",
          "strike": "strike price",
          "volatility": "volatility"
        }
      },
      "owner()": {
        "details": "Returns the address of the current owner."
      },
      "renounceOwnership()": {
        "details": "Leaves the contract without owner. It will not be possible to call `onlyOwner` functions anymore. Can only be called by the current owner. NOTE: Renouncing ownership will leave the contract without an owner, thereby removing any functionality that is only available to the owner."
      },
      "transferOwnership(address)": {
        "details": "Transfers ownership of the contract to a new account (`newOwner`). Can only be called by the current owner."
      },
      "updateMinOptionPricePercentage(uint256)": {
        "params": {
          "_minOptionPricePercentage": "the new %"
        },
        "returns": {
          "_0": "whether % was updated"
        }
      },
      "updateVolatilityCap(uint256)": {
        "params": {
          "_volatilityCap": "the new volatility cap"
        },
        "returns": {
          "_0": "whether volatility cap was updated"
        }
      }
    },
    "version": 1
  },
  "userdoc": {
    "kind": "user",
    "methods": {
      "getOptionPrice(bool,uint256,uint256,uint256,uint256)": {
        "notice": "computes the option price (with liquidity multiplier)"
      },
      "updateMinOptionPricePercentage(uint256)": {
        "notice": "updates % of the price of asset which is the minimum option price possible"
      },
      "updateVolatilityCap(uint256)": {
        "notice": "updates volatility cap for an option pool"
      }
    },
    "version": 1
  },
  "storageLayout": {
    "storage": [
      {
        "astId": 3344,
        "contract": "contracts/pricing/OptionPricingSimple.sol:OptionPricingSimple",
        "label": "_owner",
        "offset": 0,
        "slot": "0",
        "type": "t_address"
      },
      {
        "astId": 28925,
        "contract": "contracts/pricing/OptionPricingSimple.sol:OptionPricingSimple",
        "label": "volatilityCap",
        "offset": 0,
        "slot": "1",
        "type": "t_uint256"
      },
      {
        "astId": 28927,
        "contract": "contracts/pricing/OptionPricingSimple.sol:OptionPricingSimple",
        "label": "minOptionPricePercentage",
        "offset": 0,
        "slot": "2",
        "type": "t_uint256"
      }
    ],
    "types": {
      "t_address": {
        "encoding": "inplace",
        "label": "address",
        "numberOfBytes": "20"
      },
      "t_uint256": {
        "encoding": "inplace",
        "label": "uint256",
        "numberOfBytes": "32"
      }
    }
  }
}