{
  "address": "0x99211CaFe3162C1FfcF3b393E2dE5b9A230C168c",
  "abi": [
    {
      "anonymous": false,
      "inputs": [
        {
          "indexed": true,
          "internalType": "address",
          "name": "previousOwner",
          "type": "address"
        },
        {
          "indexed": true,
          "internalType": "address",
          "name": "newOwner",
          "type": "address"
        }
      ],
      "name": "OwnershipTransferred",
      "type": "event"
    },
    {
      "anonymous": false,
      "inputs": [
        {
          "indexed": false,
          "internalType": "address",
          "name": "token",
          "type": "address"
        },
        {
          "indexed": false,
          "internalType": "contract IOracle",
          "name": "oracle",
          "type": "address"
        }
      ],
      "name": "UpdateOracle",
      "type": "event"
    },
    {
      "inputs": [
        {
          "internalType": "address",
          "name": "",
          "type": "address"
        }
      ],
      "name": "assetToOracle",
      "outputs": [
        {
          "internalType": "contract IOracle",
          "name": "",
          "type": "address"
        }
      ],
      "stateMutability": "view",
      "type": "function"
    },
    {
      "inputs": [
        {
          "internalType": "address",
          "name": "_token",
          "type": "address"
        }
      ],
      "name": "getPriceInUSD",
      "outputs": [
        {
          "internalType": "uint256",
          "name": "",
          "type": "uint256"
        }
      ],
      "stateMutability": "nonpayable",
      "type": "function"
    },
    {
      "inputs": [],
      "name": "owner",
      "outputs": [
        {
          "internalType": "address",
          "name": "",
          "type": "address"
        }
      ],
      "stateMutability": "view",
      "type": "function"
    },
    {
      "inputs": [],
      "name": "renounceOwnership",
      "outputs": [],
      "stateMutability": "nonpayable",
      "type": "function"
    },
    {
      "inputs": [
        {
          "internalType": "address",
          "name": "newOwner",
          "type": "address"
        }
      ],
      "name": "transferOwnership",
      "outputs": [],
      "stateMutability": "nonpayable",
      "type": "function"
    },
    {
      "inputs": [
        {
          "internalType": "address",
          "name": "_asset",
          "type": "address"
        },
        {
          "internalType": "contract IOracle",
          "name": "_oracle",
          "type": "address"
        }
      ],
      "name": "updateOracleForAsset",
      "outputs": [],
      "stateMutability": "nonpayable",
      "type": "function"
    },
    {
      "inputs": [
        {
          "internalType": "address",
          "name": "_token",
          "type": "address"
        }
      ],
      "name": "viewPriceInUSD",
      "outputs": [
        {
          "internalType": "uint256",
          "name": "",
          "type": "uint256"
        }
      ],
      "stateMutability": "view",
      "type": "function"
    }
  ],
  "transactionHash": "0x58c37b215b3abfc7bfaf35ef134664a1064ab601c12aec7f23dcb0871b3e7e4a",
  "args": [],
  "solcInputHash": "e36b2af622afba709349df547e98e9e8",
  "bytecode": "0x608060405234801561001057600080fd5b5061001a3361001f565b61006f565b600080546001600160a01b038381166001600160a01b0319831681178455604051919092169283917f8be0079c531659141344cd1fd0a4f28419497f9722a3daafe3b4186f6b6457e09190a35050565b6106648061007e6000396000f3fe608060405234801561001057600080fd5b506004361061007d5760003560e01c8063715018a61161005b578063715018a6146100fe5780638da5cb5b14610106578063eb9d14a914610117578063f2fde38b1461012a57600080fd5b806302266147146100825780632e00d245146100a85780635df52114146100e9575b600080fd5b610095610090366004610526565b61013d565b6040519081526020015b60405180910390f35b6100d16100b6366004610526565b6001602052600090815260409020546001600160a01b031681565b6040516001600160a01b03909116815260200161009f565b6100fc6100f736600461054a565b610273565b005b6100fc61032e565b6000546001600160a01b03166100d1565b610095610125366004610526565b610364565b6100fc610138366004610526565b610426565b6001600160a01b0381811660009081526001602052604081205490911661017f5760405162461bcd60e51b815260040161017690610583565b60405180910390fd5b6001600160a01b0380831660009081526001602090815260408083205481516370d5301b60e11b815291519394169263e1aa60369260048084019391929182900301818787803b1580156101d257600080fd5b505af11580156101e6573d6000803e3d6000fd5b505050506040513d601f19601f8201168201806040525081019061020a91906105e0565b90506000811161026d5760405162461bcd60e51b815260206004820152602860248201527f50726963654f7261636c6541676772656761746f723a2050726963652063616e60448201526706e6f7420626520360c41b6064820152608401610176565b92915050565b6000546001600160a01b0316331461029d5760405162461bcd60e51b8152600401610176906105f9565b6001600160a01b0381166102c35760405162461bcd60e51b815260040161017690610583565b6001600160a01b0382811660008181526001602090815260409182902080546001600160a01b031916948616948517905581519283528201929092527fb1d1442dba579887e297ac433e5716c847abf2dc052ee9de4869b7b1b8f6206d910160405180910390a15050565b6000546001600160a01b031633146103585760405162461bcd60e51b8152600401610176906105f9565b61036260006104c1565b565b6001600160a01b0381811660009081526001602052604081205490911661039d5760405162461bcd60e51b815260040161017690610583565b6001600160a01b0380831660009081526001602090815260409182902054825163f55fa17f60e01b8152925193169263f55fa17f926004808201939291829003018186803b1580156103ee57600080fd5b505afa158015610402573d6000803e3d6000fd5b505050506040513d601f19601f8201168201806040525081019061026d91906105e0565b6000546001600160a01b031633146104505760405162461bcd60e51b8152600401610176906105f9565b6001600160a01b0381166104b55760405162461bcd60e51b815260206004820152602660248201527f4f776e61626c653a206e6577206f776e657220697320746865207a65726f206160448201526564647265737360d01b6064820152608401610176565b6104be816104c1565b50565b600080546001600160a01b038381166001600160a01b0319831681178455604051919092169283917f8be0079c531659141344cd1fd0a4f28419497f9722a3daafe3b4186f6b6457e09190a35050565b6001600160a01b03811681146104be57600080fd5b60006020828403121561053857600080fd5b813561054381610511565b9392505050565b6000806040838503121561055d57600080fd5b823561056881610511565b9150602083013561057881610511565b809150509250929050565b6020808252603c908201527f50726963654f7261636c6541676772656761746f723a204f7261636c6520616460408201527f64726573732063616e6e6f74206265207a65726f206164647265737300000000606082015260800190565b6000602082840312156105f257600080fd5b5051919050565b6020808252818101527f4f776e61626c653a2063616c6c6572206973206e6f7420746865206f776e657260408201526060019056fea2646970667358221220f9b695b6989ac33a02a694c0a2539b96e66c6a65b413ddaea5152d0b301dc3e264736f6c63430008090033",
  "devdoc": {
    "kind": "dev",
    "methods": {
      "getPriceInUSD(address)": {
        "params": {
          "_token": "token to fetch price"
        }
      },
      "owner()": {
        "details": "Returns the address of the current owner."
      },
      "renounceOwnership()": {
        "details": "Leaves the contract without owner. It will not be possible to call `onlyOwner` functions anymore. Can only be called by the current owner. NOTE: Renouncing ownership will leave the contract without an owner, thereby removing any functionality that is only available to the owner."
      },
      "transferOwnership(address)": {
        "details": "Transfers ownership of the contract to a new account (`newOwner`). Can only be called by the current owner."
      },
      "updateOracleForAsset(address,address)": {
        "params": {
          "_asset": "the oracle for the asset",
          "_oracle": "the oracle address"
        }
      },
      "viewPriceInUSD(address)": {
        "params": {
          "_token": "view price of token"
        }
      }
    },
    "version": 1
  },
  "userdoc": {
    "kind": "user",
    "methods": {
      "assetToOracle(address)": {
        "notice": "token to the oracle address"
      },
      "getPriceInUSD(address)": {
        "notice": "returns price of token in USD in 1e8 decimals"
      },
      "updateOracleForAsset(address,address)": {
        "notice": "adds oracle for an asset e.g. ETH"
      },
      "viewPriceInUSD(address)": {
        "notice": "returns price of token in USD"
      }
    },
    "version": 1
  },
  "storageLayout": {
    "storage": [
      {
        "astId": 3344,
        "contract": "contracts/oracle/PriceOracleAggregator.sol:PriceOracleAggregator",
        "label": "_owner",
        "offset": 0,
        "slot": "0",
        "type": "t_address"
      },
      {
        "astId": 28162,
        "contract": "contracts/oracle/PriceOracleAggregator.sol:PriceOracleAggregator",
        "label": "assetToOracle",
        "offset": 0,
        "slot": "1",
        "type": "t_mapping(t_address,t_contract(IOracle)25975)"
      }
    ],
    "types": {
      "t_address": {
        "encoding": "inplace",
        "label": "address",
        "numberOfBytes": "20"
      },
      "t_contract(IOracle)25975": {
        "encoding": "inplace",
        "label": "contract IOracle",
        "numberOfBytes": "20"
      },
      "t_mapping(t_address,t_contract(IOracle)25975)": {
        "encoding": "mapping",
        "key": "t_address",
        "label": "mapping(address => contract IOracle)",
        "numberOfBytes": "32",
        "value": "t_contract(IOracle)25975"
      }
    }
  }
}