{
  "address": "0x252C07E0356d3B1a8cE273E39885b094053137b9",
  "abi": [
    {
      "anonymous": false,
      "inputs": [
        {
          "indexed": true,
          "internalType": "address",
          "name": "previousOwner",
          "type": "address"
        },
        {
          "indexed": true,
          "internalType": "address",
          "name": "newOwner",
          "type": "address"
        }
      ],
      "name": "OwnershipTransferred",
      "type": "event"
    },
    {
      "inputs": [],
      "name": "getPriceInUSD",
      "outputs": [
        {
          "internalType": "uint256",
          "name": "",
          "type": "uint256"
        }
      ],
      "stateMutability": "view",
      "type": "function"
    },
    {
      "inputs": [],
      "name": "lastPrice",
      "outputs": [
        {
          "internalType": "uint256",
          "name": "",
          "type": "uint256"
        }
      ],
      "stateMutability": "view",
      "type": "function"
    },
    {
      "inputs": [],
      "name": "owner",
      "outputs": [
        {
          "internalType": "address",
          "name": "",
          "type": "address"
        }
      ],
      "stateMutability": "view",
      "type": "function"
    },
    {
      "inputs": [],
      "name": "renounceOwnership",
      "outputs": [],
      "stateMutability": "nonpayable",
      "type": "function"
    },
    {
      "inputs": [
        {
          "internalType": "address",
          "name": "newOwner",
          "type": "address"
        }
      ],
      "name": "transferOwnership",
      "outputs": [],
      "stateMutability": "nonpayable",
      "type": "function"
    },
    {
      "inputs": [
        {
          "internalType": "uint256",
          "name": "price",
          "type": "uint256"
        }
      ],
      "name": "updatePrice",
      "outputs": [
        {
          "internalType": "uint256",
          "name": "",
          "type": "uint256"
        }
      ],
      "stateMutability": "nonpayable",
      "type": "function"
    }
  ],
  "transactionHash": "0x4b1868dca8bbf6c63d0a320e9bded8dab34e9de14390d21c08ba5c1321fc70f6",
  "args": [],
  "solcInputHash": "db96b77978a7c02731df41a84f4c409b",
  "bytecode": "0x608060405234801561001057600080fd5b5061001a3361001f565b61006f565b600080546001600160a01b038381166001600160a01b0319831681178455604051919092169283917f8be0079c531659141344cd1fd0a4f28419497f9722a3daafe3b4186f6b6457e09190a35050565b6103af8061007e6000396000f3fe608060405234801561001057600080fd5b50600436106100625760003560e01c8063053f14da14610067578063715018a6146100835780638d6cc56d1461008d5780638da5cb5b146100a0578063e1aa6036146100bb578063f2fde38b146100c3575b600080fd5b61007060015481565b6040519081526020015b60405180910390f35b61008b6100d6565b005b61007061009b3660046102fb565b610115565b6000546040516001600160a01b03909116815260200161007a565b6100706101a9565b61008b6100d1366004610314565b610210565b6000546001600160a01b031633146101095760405162461bcd60e51b815260040161010090610344565b60405180910390fd5b61011360006102ab565b565b600080546001600160a01b031633146101405760405162461bcd60e51b815260040161010090610344565b816101a05760405162461bcd60e51b815260206004820152602a60248201527f437573746f6d50726963654f7261636c653a20546f6b656e20707269636520636044820152690616e6e6f7420626520360b41b6064820152608401610100565b50600181905590565b6000600154600014156102095760405162461bcd60e51b815260206004820152602260248201527f437573746f6d50726963654f7261636c653a204c617374207072696365203d3d604482015261020360f41b6064820152608401610100565b5060015490565b6000546001600160a01b0316331461023a5760405162461bcd60e51b815260040161010090610344565b6001600160a01b03811661029f5760405162461bcd60e51b815260206004820152602660248201527f4f776e61626c653a206e6577206f776e657220697320746865207a65726f206160448201526564647265737360d01b6064820152608401610100565b6102a8816102ab565b50565b600080546001600160a01b038381166001600160a01b0319831681178455604051919092169283917f8be0079c531659141344cd1fd0a4f28419497f9722a3daafe3b4186f6b6457e09190a35050565b60006020828403121561030d57600080fd5b5035919050565b60006020828403121561032657600080fd5b81356001600160a01b038116811461033d57600080fd5b9392505050565b6020808252818101527f4f776e61626c653a2063616c6c6572206973206e6f7420746865206f776e657260408201526060019056fea2646970667358221220337ee1e6939380e00e4aaefbc7e13a5a3e7418cf9a7e4185f9032f96c05d950f64736f6c63430008090033",
  "devdoc": {
    "kind": "dev",
    "methods": {
      "getPriceInUSD()": {
        "returns": {
          "_0": "price"
        }
      },
      "owner()": {
        "details": "Returns the address of the current owner."
      },
      "renounceOwnership()": {
        "details": "Leaves the contract without owner. It will not be possible to call `onlyOwner` functions anymore. Can only be called by the current owner. NOTE: Renouncing ownership will leave the contract without an owner, thereby removing any functionality that is only available to the owner."
      },
      "transferOwnership(address)": {
        "details": "Transfers ownership of the contract to a new account (`newOwner`). Can only be called by the current owner."
      },
      "updatePrice(uint256)": {
        "params": {
          "price": "price"
        },
        "returns": {
          "_0": "price of the token"
        }
      }
    },
    "version": 1
  },
  "userdoc": {
    "kind": "user",
    "methods": {
      "getPriceInUSD()": {
        "notice": "Gets the price of the token"
      },
      "updatePrice(uint256)": {
        "notice": "Updates the last price of the token"
      }
    },
    "version": 1
  },
  "storageLayout": {
    "storage": [
      {
        "astId": 3344,
        "contract": "contracts/oracle/DpxCustomPriceOracle.sol:DpxCustomPriceOracle",
        "label": "_owner",
        "offset": 0,
        "slot": "0",
        "type": "t_address"
      },
      {
        "astId": 30568,
        "contract": "contracts/oracle/DpxCustomPriceOracle.sol:DpxCustomPriceOracle",
        "label": "lastPrice",
        "offset": 0,
        "slot": "1",
        "type": "t_uint256"
      }
    ],
    "types": {
      "t_address": {
        "encoding": "inplace",
        "label": "address",
        "numberOfBytes": "20"
      },
      "t_uint256": {
        "encoding": "inplace",
        "label": "uint256",
        "numberOfBytes": "32"
      }
    }
  }
}