{
  "address": "0x0359B4dcd2412ff0dafa8B020bcb57aA8Bd13A33",
  "abi": [
    {
      "inputs": [
        {
          "internalType": "address",
          "name": "_dpx",
          "type": "address"
        },
        {
          "internalType": "address",
          "name": "_rdpx",
          "type": "address"
        },
        {
          "internalType": "address",
          "name": "_stakingRewards",
          "type": "address"
        },
        {
          "internalType": "address",
          "name": "_optionPricing",
          "type": "address"
        },
        {
          "internalType": "address",
          "name": "_priceOracleAggregator",
          "type": "address"
        },
        {
          "internalType": "address",
          "name": "_volatilityOracle",
          "type": "address"
        },
        {
          "internalType": "address",
          "name": "_feeDistributor",
          "type": "address"
        }
      ],
      "stateMutability": "nonpayable",
      "type": "constructor"
    },
    {
      "anonymous": false,
      "inputs": [
        {
          "indexed": true,
          "internalType": "address",
          "name": "_contract",
          "type": "address"
        }
      ],
      "name": "AddToContractWhitelist",
      "type": "event"
    },
    {
      "anonymous": false,
      "inputs": [
        {
          "indexed": true,
          "internalType": "bytes32",
          "name": "name",
          "type": "bytes32"
        },
        {
          "indexed": true,
          "internalType": "address",
          "name": "destination",
          "type": "address"
        }
      ],
      "name": "AddressSet",
      "type": "event"
    },
    {
      "anonymous": false,
      "inputs": [
        {
          "indexed": false,
          "internalType": "uint256",
          "name": "epoch",
          "type": "uint256"
        }
      ],
      "name": "Bootstrap",
      "type": "event"
    },
    {
      "anonymous": false,
      "inputs": [
        {
          "indexed": false,
          "internalType": "uint256",
          "name": "epoch",
          "type": "uint256"
        },
        {
          "indexed": false,
          "internalType": "uint256",
          "name": "rewards",
          "type": "uint256"
        },
        {
          "indexed": false,
          "internalType": "uint256",
          "name": "oldBalance",
          "type": "uint256"
        },
        {
          "indexed": false,
          "internalType": "uint256",
          "name": "newBalance",
          "type": "uint256"
        }
      ],
      "name": "Compound",
      "type": "event"
    },
    {
      "anonymous": false,
      "inputs": [
        {
          "indexed": false,
          "internalType": "address",
          "name": "sender",
          "type": "address"
        },
        {
          "indexed": false,
          "internalType": "uint256",
          "name": "dpxWithdrawn",
          "type": "uint256"
        },
        {
          "indexed": false,
          "internalType": "uint256",
          "name": "rdpxWithdrawn",
          "type": "uint256"
        }
      ],
      "name": "EmergencyWithdraw",
      "type": "event"
    },
    {
      "anonymous": false,
      "inputs": [
        {
          "indexed": false,
          "internalType": "uint256",
          "name": "epoch",
          "type": "uint256"
        },
        {
          "indexed": false,
          "internalType": "uint256",
          "name": "strike",
          "type": "uint256"
        },
        {
          "indexed": false,
          "internalType": "uint256",
          "name": "amount",
          "type": "uint256"
        },
        {
          "indexed": false,
          "internalType": "address",
          "name": "user",
          "type": "address"
        },
        {
          "indexed": false,
          "internalType": "address",
          "name": "sender",
          "type": "address"
        }
      ],
      "name": "NewDeposit",
      "type": "event"
    },
    {
      "anonymous": false,
      "inputs": [
        {
          "indexed": false,
          "internalType": "uint256",
          "name": "epoch",
          "type": "uint256"
        },
        {
          "indexed": false,
          "internalType": "uint256",
          "name": "strike",
          "type": "uint256"
        },
        {
          "indexed": false,
          "internalType": "uint256",
          "name": "amount",
          "type": "uint256"
        },
        {
          "indexed": false,
          "internalType": "uint256",
          "name": "premium",
          "type": "uint256"
        },
        {
          "indexed": false,
          "internalType": "uint256",
          "name": "fee",
          "type": "uint256"
        },
        {
          "indexed": false,
          "internalType": "address",
          "name": "user",
          "type": "address"
        },
        {
          "indexed": false,
          "internalType": "address",
          "name": "sender",
          "type": "address"
        }
      ],
      "name": "NewPurchase",
      "type": "event"
    },
    {
      "anonymous": false,
      "inputs": [
        {
          "indexed": false,
          "internalType": "uint256",
          "name": "epoch",
          "type": "uint256"
        },
        {
          "indexed": false,
          "internalType": "uint256",
          "name": "strike",
          "type": "uint256"
        },
        {
          "indexed": false,
          "internalType": "address",
          "name": "user",
          "type": "address"
        },
        {
          "indexed": false,
          "internalType": "uint256",
          "name": "amount",
          "type": "uint256"
        },
        {
          "indexed": false,
          "internalType": "uint256",
          "name": "pnl",
          "type": "uint256"
        }
      ],
      "name": "NewSettle",
      "type": "event"
    },
    {
      "anonymous": false,
      "inputs": [
        {
          "indexed": false,
          "internalType": "uint256",
          "name": "epoch",
          "type": "uint256"
        },
        {
          "indexed": false,
          "internalType": "uint256",
          "name": "strike",
          "type": "uint256"
        }
      ],
      "name": "NewStrike",
      "type": "event"
    },
    {
      "anonymous": false,
      "inputs": [
        {
          "indexed": false,
          "internalType": "uint256",
          "name": "epoch",
          "type": "uint256"
        },
        {
          "indexed": false,
          "internalType": "uint256",
          "name": "strike",
          "type": "uint256"
        },
        {
          "indexed": false,
          "internalType": "address",
          "name": "user",
          "type": "address"
        },
        {
          "indexed": false,
          "internalType": "uint256",
          "name": "amount",
          "type": "uint256"
        },
        {
          "indexed": false,
          "internalType": "uint256",
          "name": "rdpxAmount",
          "type": "uint256"
        }
      ],
      "name": "NewWithdraw",
      "type": "event"
    },
    {
      "anonymous": false,
      "inputs": [
        {
          "indexed": true,
          "internalType": "address",
          "name": "previousOwner",
          "type": "address"
        },
        {
          "indexed": true,
          "internalType": "address",
          "name": "newOwner",
          "type": "address"
        }
      ],
      "name": "OwnershipTransferred",
      "type": "event"
    },
    {
      "anonymous": false,
      "inputs": [
        {
          "indexed": false,
          "internalType": "address",
          "name": "account",
          "type": "address"
        }
      ],
      "name": "Paused",
      "type": "event"
    },
    {
      "anonymous": false,
      "inputs": [
        {
          "indexed": false,
          "internalType": "uint256",
          "name": "newFee",
          "type": "uint256"
        }
      ],
      "name": "PurchaseFeePercentageUpdate",
      "type": "event"
    },
    {
      "anonymous": false,
      "inputs": [
        {
          "indexed": true,
          "internalType": "address",
          "name": "_contract",
          "type": "address"
        }
      ],
      "name": "RemoveFromContractWhitelist",
      "type": "event"
    },
    {
      "anonymous": false,
      "inputs": [
        {
          "indexed": false,
          "internalType": "address",
          "name": "account",
          "type": "address"
        }
      ],
      "name": "Unpaused",
      "type": "event"
    },
    {
      "inputs": [
        {
          "internalType": "address",
          "name": "_contract",
          "type": "address"
        }
      ],
      "name": "addToContractWhitelist",
      "outputs": [
        {
          "internalType": "bool",
          "name": "",
          "type": "bool"
        }
      ],
      "stateMutability": "nonpayable",
      "type": "function"
    },
    {
      "inputs": [
        {
          "internalType": "bytes32",
          "name": "",
          "type": "bytes32"
        }
      ],
      "name": "addresses",
      "outputs": [
        {
          "internalType": "address",
          "name": "",
          "type": "address"
        }
      ],
      "stateMutability": "view",
      "type": "function"
    },
    {
      "inputs": [],
      "name": "bootstrap",
      "outputs": [
        {
          "internalType": "bool",
          "name": "",
          "type": "bool"
        }
      ],
      "stateMutability": "nonpayable",
      "type": "function"
    },
    {
      "inputs": [
        {
          "internalType": "uint256",
          "name": "price",
          "type": "uint256"
        },
        {
          "internalType": "uint256",
          "name": "strike",
          "type": "uint256"
        },
        {
          "internalType": "uint256",
          "name": "amount",
          "type": "uint256"
        }
      ],
      "name": "calculateFees",
      "outputs": [
        {
          "internalType": "uint256",
          "name": "",
          "type": "uint256"
        }
      ],
      "stateMutability": "view",
      "type": "function"
    },
    {
      "inputs": [
        {
          "internalType": "uint256",
          "name": "price",
          "type": "uint256"
        },
        {
          "internalType": "uint256",
          "name": "strike",
          "type": "uint256"
        },
        {
          "internalType": "uint256",
          "name": "amount",
          "type": "uint256"
        }
      ],
      "name": "calculatePnl",
      "outputs": [
        {
          "internalType": "uint256",
          "name": "",
          "type": "uint256"
        }
      ],
      "stateMutability": "pure",
      "type": "function"
    },
    {
      "inputs": [],
      "name": "compound",
      "outputs": [
        {
          "internalType": "bool",
          "name": "",
          "type": "bool"
        }
      ],
      "stateMutability": "nonpayable",
      "type": "function"
    },
    {
      "inputs": [],
      "name": "currentEpoch",
      "outputs": [
        {
          "internalType": "uint256",
          "name": "",
          "type": "uint256"
        }
      ],
      "stateMutability": "view",
      "type": "function"
    },
    {
      "inputs": [
        {
          "internalType": "uint256",
          "name": "strikeIndex",
          "type": "uint256"
        },
        {
          "internalType": "uint256",
          "name": "amount",
          "type": "uint256"
        },
        {
          "internalType": "address",
          "name": "user",
          "type": "address"
        }
      ],
      "name": "deposit",
      "outputs": [
        {
          "internalType": "bool",
          "name": "",
          "type": "bool"
        }
      ],
      "stateMutability": "nonpayable",
      "type": "function"
    },
    {
      "inputs": [
        {
          "internalType": "uint256[]",
          "name": "strikeIndices",
          "type": "uint256[]"
        },
        {
          "internalType": "uint256[]",
          "name": "amounts",
          "type": "uint256[]"
        },
        {
          "internalType": "address",
          "name": "user",
          "type": "address"
        }
      ],
      "name": "depositMultiple",
      "outputs": [
        {
          "internalType": "bool",
          "name": "",
          "type": "bool"
        }
      ],
      "stateMutability": "nonpayable",
      "type": "function"
    },
    {
      "inputs": [],
      "name": "emergencyWithdraw",
      "outputs": [
        {
          "internalType": "bool",
          "name": "",
          "type": "bool"
        }
      ],
      "stateMutability": "nonpayable",
      "type": "function"
    },
    {
      "inputs": [
        {
          "internalType": "uint256",
          "name": "",
          "type": "uint256"
        }
      ],
      "name": "epochStartTimes",
      "outputs": [
        {
          "internalType": "uint256",
          "name": "",
          "type": "uint256"
        }
      ],
      "stateMutability": "view",
      "type": "function"
    },
    {
      "inputs": [
        {
          "internalType": "uint256",
          "name": "",
          "type": "uint256"
        },
        {
          "internalType": "uint256",
          "name": "",
          "type": "uint256"
        }
      ],
      "name": "epochStrikeTokens",
      "outputs": [
        {
          "internalType": "address",
          "name": "",
          "type": "address"
        }
      ],
      "stateMutability": "view",
      "type": "function"
    },
    {
      "inputs": [
        {
          "internalType": "uint256",
          "name": "",
          "type": "uint256"
        },
        {
          "internalType": "uint256",
          "name": "",
          "type": "uint256"
        }
      ],
      "name": "epochStrikes",
      "outputs": [
        {
          "internalType": "uint256",
          "name": "",
          "type": "uint256"
        }
      ],
      "stateMutability": "view",
      "type": "function"
    },
    {
      "inputs": [],
      "name": "erc20Implementation",
      "outputs": [
        {
          "internalType": "address",
          "name": "",
          "type": "address"
        }
      ],
      "stateMutability": "view",
      "type": "function"
    },
    {
      "inputs": [],
      "name": "expireEpoch",
      "outputs": [
        {
          "internalType": "bool",
          "name": "",
          "type": "bool"
        }
      ],
      "stateMutability": "nonpayable",
      "type": "function"
    },
    {
      "inputs": [
        {
          "internalType": "bytes32",
          "name": "name",
          "type": "bytes32"
        }
      ],
      "name": "getAddress",
      "outputs": [
        {
          "internalType": "address",
          "name": "",
          "type": "address"
        }
      ],
      "stateMutability": "view",
      "type": "function"
    },
    {
      "inputs": [
        {
          "internalType": "uint256",
          "name": "epoch",
          "type": "uint256"
        }
      ],
      "name": "getEpochStrikeTokens",
      "outputs": [
        {
          "internalType": "address[]",
          "name": "",
          "type": "address[]"
        }
      ],
      "stateMutability": "view",
      "type": "function"
    },
    {
      "inputs": [
        {
          "internalType": "uint256",
          "name": "epoch",
          "type": "uint256"
        }
      ],
      "name": "getEpochStrikes",
      "outputs": [
        {
          "internalType": "uint256[]",
          "name": "",
          "type": "uint256[]"
        }
      ],
      "stateMutability": "view",
      "type": "function"
    },
    {
      "inputs": [
        {
          "internalType": "uint256",
          "name": "epoch",
          "type": "uint256"
        }
      ],
      "name": "getEpochTimes",
      "outputs": [
        {
          "internalType": "uint256",
          "name": "start",
          "type": "uint256"
        },
        {
          "internalType": "uint256",
          "name": "end",
          "type": "uint256"
        }
      ],
      "stateMutability": "view",
      "type": "function"
    },
    {
      "inputs": [
        {
          "internalType": "uint256",
          "name": "timestamp",
          "type": "uint256"
        }
      ],
      "name": "getMonthlyExpiryFromTimestamp",
      "outputs": [
        {
          "internalType": "uint256",
          "name": "",
          "type": "uint256"
        }
      ],
      "stateMutability": "pure",
      "type": "function"
    },
    {
      "inputs": [
        {
          "internalType": "uint256",
          "name": "epoch",
          "type": "uint256"
        }
      ],
      "name": "getTotalEpochCallsPurchased",
      "outputs": [
        {
          "internalType": "uint256[]",
          "name": "",
          "type": "uint256[]"
        }
      ],
      "stateMutability": "view",
      "type": "function"
    },
    {
      "inputs": [
        {
          "internalType": "uint256",
          "name": "epoch",
          "type": "uint256"
        }
      ],
      "name": "getTotalEpochPremium",
      "outputs": [
        {
          "internalType": "uint256[]",
          "name": "",
          "type": "uint256[]"
        }
      ],
      "stateMutability": "view",
      "type": "function"
    },
    {
      "inputs": [
        {
          "internalType": "uint256",
          "name": "epoch",
          "type": "uint256"
        }
      ],
      "name": "getTotalEpochStrikeDeposits",
      "outputs": [
        {
          "internalType": "uint256[]",
          "name": "",
          "type": "uint256[]"
        }
      ],
      "stateMutability": "view",
      "type": "function"
    },
    {
      "inputs": [
        {
          "internalType": "address",
          "name": "_token",
          "type": "address"
        }
      ],
      "name": "getUsdPrice",
      "outputs": [
        {
          "internalType": "uint256",
          "name": "",
          "type": "uint256"
        }
      ],
      "stateMutability": "nonpayable",
      "type": "function"
    },
    {
      "inputs": [
        {
          "internalType": "uint256",
          "name": "epoch",
          "type": "uint256"
        },
        {
          "internalType": "address",
          "name": "user",
          "type": "address"
        }
      ],
      "name": "getUserEpochCallsPurchased",
      "outputs": [
        {
          "internalType": "uint256[]",
          "name": "",
          "type": "uint256[]"
        }
      ],
      "stateMutability": "view",
      "type": "function"
    },
    {
      "inputs": [
        {
          "internalType": "uint256",
          "name": "epoch",
          "type": "uint256"
        },
        {
          "internalType": "address",
          "name": "user",
          "type": "address"
        }
      ],
      "name": "getUserEpochDeposits",
      "outputs": [
        {
          "internalType": "uint256[]",
          "name": "",
          "type": "uint256[]"
        }
      ],
      "stateMutability": "view",
      "type": "function"
    },
    {
      "inputs": [
        {
          "internalType": "uint256",
          "name": "epoch",
          "type": "uint256"
        },
        {
          "internalType": "address",
          "name": "user",
          "type": "address"
        }
      ],
      "name": "getUserEpochPremium",
      "outputs": [
        {
          "internalType": "uint256[]",
          "name": "",
          "type": "uint256[]"
        }
      ],
      "stateMutability": "view",
      "type": "function"
    },
    {
      "inputs": [
        {
          "internalType": "address",
          "name": "addr",
          "type": "address"
        }
      ],
      "name": "isContract",
      "outputs": [
        {
          "internalType": "bool",
          "name": "",
          "type": "bool"
        }
      ],
      "stateMutability": "view",
      "type": "function"
    },
    {
      "inputs": [
        {
          "internalType": "uint256",
          "name": "",
          "type": "uint256"
        }
      ],
      "name": "isEpochExpired",
      "outputs": [
        {
          "internalType": "bool",
          "name": "",
          "type": "bool"
        }
      ],
      "stateMutability": "view",
      "type": "function"
    },
    {
      "inputs": [
        {
          "internalType": "uint256",
          "name": "",
          "type": "uint256"
        }
      ],
      "name": "isVaultReady",
      "outputs": [
        {
          "internalType": "bool",
          "name": "",
          "type": "bool"
        }
      ],
      "stateMutability": "view",
      "type": "function"
    },
    {
      "inputs": [],
      "name": "owner",
      "outputs": [
        {
          "internalType": "address",
          "name": "",
          "type": "address"
        }
      ],
      "stateMutability": "view",
      "type": "function"
    },
    {
      "inputs": [],
      "name": "pause",
      "outputs": [
        {
          "internalType": "bool",
          "name": "",
          "type": "bool"
        }
      ],
      "stateMutability": "nonpayable",
      "type": "function"
    },
    {
      "inputs": [],
      "name": "paused",
      "outputs": [
        {
          "internalType": "bool",
          "name": "",
          "type": "bool"
        }
      ],
      "stateMutability": "view",
      "type": "function"
    },
    {
      "inputs": [
        {
          "internalType": "uint256",
          "name": "strikeIndex",
          "type": "uint256"
        },
        {
          "internalType": "uint256",
          "name": "amount",
          "type": "uint256"
        },
        {
          "internalType": "address",
          "name": "user",
          "type": "address"
        }
      ],
      "name": "purchase",
      "outputs": [
        {
          "internalType": "uint256",
          "name": "",
          "type": "uint256"
        },
        {
          "internalType": "uint256",
          "name": "",
          "type": "uint256"
        }
      ],
      "stateMutability": "nonpayable",
      "type": "function"
    },
    {
      "inputs": [],
      "name": "purchaseFeePercentage",
      "outputs": [
        {
          "internalType": "uint256",
          "name": "",
          "type": "uint256"
        }
      ],
      "stateMutability": "view",
      "type": "function"
    },
    {
      "inputs": [
        {
          "internalType": "address",
          "name": "_contract",
          "type": "address"
        }
      ],
      "name": "removeFromContractWhitelist",
      "outputs": [
        {
          "internalType": "bool",
          "name": "",
          "type": "bool"
        }
      ],
      "stateMutability": "nonpayable",
      "type": "function"
    },
    {
      "inputs": [],
      "name": "renounceOwnership",
      "outputs": [],
      "stateMutability": "nonpayable",
      "type": "function"
    },
    {
      "inputs": [
        {
          "internalType": "bytes32[]",
          "name": "names",
          "type": "bytes32[]"
        },
        {
          "internalType": "address[]",
          "name": "destinations",
          "type": "address[]"
        }
      ],
      "name": "setAddresses",
      "outputs": [
        {
          "internalType": "bool",
          "name": "",
          "type": "bool"
        }
      ],
      "stateMutability": "nonpayable",
      "type": "function"
    },
    {
      "inputs": [
        {
          "internalType": "uint256[]",
          "name": "strikes",
          "type": "uint256[]"
        }
      ],
      "name": "setStrikes",
      "outputs": [
        {
          "internalType": "bool",
          "name": "",
          "type": "bool"
        }
      ],
      "stateMutability": "nonpayable",
      "type": "function"
    },
    {
      "inputs": [
        {
          "internalType": "uint256",
          "name": "strikeIndex",
          "type": "uint256"
        },
        {
          "internalType": "uint256",
          "name": "amount",
          "type": "uint256"
        },
        {
          "internalType": "uint256",
          "name": "epoch",
          "type": "uint256"
        }
      ],
      "name": "settle",
      "outputs": [
        {
          "internalType": "uint256",
          "name": "pnl",
          "type": "uint256"
        }
      ],
      "stateMutability": "nonpayable",
      "type": "function"
    },
    {
      "inputs": [
        {
          "internalType": "uint256",
          "name": "",
          "type": "uint256"
        }
      ],
      "name": "settlementPrices",
      "outputs": [
        {
          "internalType": "uint256",
          "name": "",
          "type": "uint256"
        }
      ],
      "stateMutability": "view",
      "type": "function"
    },
    {
      "inputs": [
        {
          "internalType": "uint256",
          "name": "",
          "type": "uint256"
        }
      ],
      "name": "totalEpochBalance",
      "outputs": [
        {
          "internalType": "uint256",
          "name": "",
          "type": "uint256"
        }
      ],
      "stateMutability": "view",
      "type": "function"
    },
    {
      "inputs": [
        {
          "internalType": "uint256",
          "name": "",
          "type": "uint256"
        },
        {
          "internalType": "uint256",
          "name": "",
          "type": "uint256"
        }
      ],
      "name": "totalEpochCallsPurchased",
      "outputs": [
        {
          "internalType": "uint256",
          "name": "",
          "type": "uint256"
        }
      ],
      "stateMutability": "view",
      "type": "function"
    },
    {
      "inputs": [
        {
          "internalType": "uint256",
          "name": "",
          "type": "uint256"
        }
      ],
      "name": "totalEpochDeposits",
      "outputs": [
        {
          "internalType": "uint256",
          "name": "",
          "type": "uint256"
        }
      ],
      "stateMutability": "view",
      "type": "function"
    },
    {
      "inputs": [
        {
          "internalType": "uint256",
          "name": "",
          "type": "uint256"
        },
        {
          "internalType": "uint256",
          "name": "",
          "type": "uint256"
        }
      ],
      "name": "totalEpochPremium",
      "outputs": [
        {
          "internalType": "uint256",
          "name": "",
          "type": "uint256"
        }
      ],
      "stateMutability": "view",
      "type": "function"
    },
    {
      "inputs": [
        {
          "internalType": "uint256",
          "name": "",
          "type": "uint256"
        },
        {
          "internalType": "uint256",
          "name": "",
          "type": "uint256"
        }
      ],
      "name": "totalEpochStrikeBalance",
      "outputs": [
        {
          "internalType": "uint256",
          "name": "",
          "type": "uint256"
        }
      ],
      "stateMutability": "view",
      "type": "function"
    },
    {
      "inputs": [
        {
          "internalType": "uint256",
          "name": "",
          "type": "uint256"
        },
        {
          "internalType": "uint256",
          "name": "",
          "type": "uint256"
        }
      ],
      "name": "totalEpochStrikeDeposits",
      "outputs": [
        {
          "internalType": "uint256",
          "name": "",
          "type": "uint256"
        }
      ],
      "stateMutability": "view",
      "type": "function"
    },
    {
      "inputs": [
        {
          "internalType": "uint256",
          "name": "",
          "type": "uint256"
        },
        {
          "internalType": "uint256",
          "name": "",
          "type": "uint256"
        }
      ],
      "name": "totalEpochStrikeDpxBalance",
      "outputs": [
        {
          "internalType": "uint256",
          "name": "",
          "type": "uint256"
        }
      ],
      "stateMutability": "view",
      "type": "function"
    },
    {
      "inputs": [
        {
          "internalType": "uint256",
          "name": "",
          "type": "uint256"
        },
        {
          "internalType": "uint256",
          "name": "",
          "type": "uint256"
        }
      ],
      "name": "totalEpochStrikeRdpxBalance",
      "outputs": [
        {
          "internalType": "uint256",
          "name": "",
          "type": "uint256"
        }
      ],
      "stateMutability": "view",
      "type": "function"
    },
    {
      "inputs": [
        {
          "internalType": "address",
          "name": "newOwner",
          "type": "address"
        }
      ],
      "name": "transferOwnership",
      "outputs": [],
      "stateMutability": "nonpayable",
      "type": "function"
    },
    {
      "inputs": [],
      "name": "unpause",
      "outputs": [
        {
          "internalType": "bool",
          "name": "",
          "type": "bool"
        }
      ],
      "stateMutability": "nonpayable",
      "type": "function"
    },
    {
      "inputs": [
        {
          "internalType": "uint256",
          "name": "newFee",
          "type": "uint256"
        }
      ],
      "name": "updatePurchaseFeePercentage",
      "outputs": [
        {
          "internalType": "bool",
          "name": "",
          "type": "bool"
        }
      ],
      "stateMutability": "nonpayable",
      "type": "function"
    },
    {
      "inputs": [
        {
          "internalType": "uint256",
          "name": "",
          "type": "uint256"
        },
        {
          "internalType": "bytes32",
          "name": "",
          "type": "bytes32"
        }
      ],
      "name": "userEpochCallsPurchased",
      "outputs": [
        {
          "internalType": "uint256",
          "name": "",
          "type": "uint256"
        }
      ],
      "stateMutability": "view",
      "type": "function"
    },
    {
      "inputs": [
        {
          "internalType": "uint256",
          "name": "",
          "type": "uint256"
        },
        {
          "internalType": "bytes32",
          "name": "",
          "type": "bytes32"
        }
      ],
      "name": "userEpochDeposits",
      "outputs": [
        {
          "internalType": "uint256",
          "name": "",
          "type": "uint256"
        }
      ],
      "stateMutability": "view",
      "type": "function"
    },
    {
      "inputs": [
        {
          "internalType": "uint256",
          "name": "",
          "type": "uint256"
        },
        {
          "internalType": "bytes32",
          "name": "",
          "type": "bytes32"
        }
      ],
      "name": "userEpochPremium",
      "outputs": [
        {
          "internalType": "uint256",
          "name": "",
          "type": "uint256"
        }
      ],
      "stateMutability": "view",
      "type": "function"
    },
    {
      "inputs": [
        {
          "internalType": "address",
          "name": "",
          "type": "address"
        }
      ],
      "name": "whitelistedContracts",
      "outputs": [
        {
          "internalType": "bool",
          "name": "",
          "type": "bool"
        }
      ],
      "stateMutability": "view",
      "type": "function"
    },
    {
      "inputs": [
        {
          "internalType": "uint256",
          "name": "withdrawEpoch",
          "type": "uint256"
        },
        {
          "internalType": "uint256",
          "name": "strikeIndex",
          "type": "uint256"
        }
      ],
      "name": "withdraw",
      "outputs": [
        {
          "internalType": "uint256[2]",
          "name": "",
          "type": "uint256[2]"
        }
      ],
      "stateMutability": "nonpayable",
      "type": "function"
    }
  ],
  "transactionHash": "0xd1095e3b7557e5231f0cb6c029db4e39c3e82e41949961e6c5fc45e831265d64",
  "args": [
    "0x6c2c06790b3e3e3c38e12ee22f8183b37a13ee55",
    "0x32eb7902d4134bf98a28b963d26de779af92a212",
    "0xc6D714170fE766691670f12c2b45C1f34405AAb6",
    "0x2b99e3d67dad973c1b9747da742b7e26c8bdd67b",
    "0x1ab57eb61f1661e1f013c86caa30b31ae7cc4fdd",
    "0xb6645813567bB5beEa8f62e793D075fE6d3Be0B1",
    "0x55594cCe8cC0014eA08C49fd820D731308f204c1"
  ],
  "solcInputHash": "87acf48fc4c73b7f6a3a23d9dfbc28b0",
  "bytecode": "0x60a060405262bebc206004553480156200001857600080fd5b5060405162007a7538038062007a758339810160408190526200003b91620007c9565b620000463362000385565b6002805460ff191690556001600160a01b038716620000915760405162461bcd60e51b8152602060048201526002602482015261453160f01b60448201526064015b60405180910390fd5b6001600160a01b038616620000ce5760405162461bcd60e51b8152602060048201526002602482015261453160f01b604482015260640162000088565b6001600160a01b0385166200010b5760405162461bcd60e51b8152602060048201526002602482015261453160f01b604482015260640162000088565b6001600160a01b038416620001485760405162461bcd60e51b8152602060048201526002602482015261453160f01b604482015260640162000088565b6001600160a01b038316620001855760405162461bcd60e51b8152602060048201526002602482015261453160f01b604482015260640162000088565b60056020527fccc88b330c22465d54da85345ca7fd42d1073ea97c5696e33432b63c081923d980546001600160a01b03199081166001600160a01b038481169190911790925560008051602062007a35833981519152805482168a84161790557f76418bd9033fcb3d7cf104f4b8a0c7f3193da6e5dec806b4a1fe6a5457c27bcd8054821689841617905560008051602062007a55833981519152805482168884161790557fa34895bf08a03c19903f153b83bd840ec96aae5ac855d19e36ace94ce537d650805482168784161790557f2e550f9990e8f0cadb4b4824800979b5767e37f76f3a14dde48cc1d77b2ddad1805482168684161790557f6c8d5cbdd8e467916e2737c29f79ca89a665f8bae1b1f2a63b3c4bff7df8a435805482169285169290921790915569476f7665726e616e636560b01b6000527fa3c20e4cfcdbe0796697a05f5cc56e3d568bc2f08a21308461ccefe56b2fecb58054339216919091179055604051620002fa906200079e565b604051809103906000f08015801562000317573d6000803e3d6000fd5b506001600160a01b039081166080526005602090815260008051602062007a558339815191525462088a0b60eb1b60005260008051602062007a35833981519152546200037893908116929116906000199062003714620003d5821b17901c565b5050505050505062000922565b600080546001600160a01b038381166001600160a01b0319831681178455604051919092169283917f8be0079c531659141344cd1fd0a4f28419497f9722a3daafe3b4186f6b6457e09190a35050565b801580620004635750604051636eb1769f60e11b81523060048201526001600160a01b03838116602483015284169063dd62ed3e9060440160206040518083038186803b1580156200042657600080fd5b505afa1580156200043b573d6000803e3d6000fd5b505050506040513d601f19601f820116820180604052508101906200046191906200085e565b155b620004d75760405162461bcd60e51b815260206004820152603660248201527f5361666545524332303a20617070726f76652066726f6d206e6f6e2d7a65726f60448201527f20746f206e6f6e2d7a65726f20616c6c6f77616e636500000000000000000000606482015260840162000088565b604080516001600160a01b038416602482015260448082018490528251808303909101815260649091019091526020810180516001600160e01b0390811663095ea7b360e01b179091526200052f9185916200053416565b505050565b600062000590826040518060400160405280602081526020017f5361666545524332303a206c6f772d6c6576656c2063616c6c206661696c6564815250856001600160a01b03166200061260201b62003870179092919060201c565b8051909150156200052f5780806020019051810190620005b1919062000878565b6200052f5760405162461bcd60e51b815260206004820152602a60248201527f5361666545524332303a204552433230206f7065726174696f6e20646964206e6044820152691bdd081cdd58d8d9595960b21b606482015260840162000088565b60606200062384846000856200062d565b90505b9392505050565b606082471015620006905760405162461bcd60e51b815260206004820152602660248201527f416464726573733a20696e73756666696369656e742062616c616e636520666f6044820152651c8818d85b1b60d21b606482015260840162000088565b843b620006e05760405162461bcd60e51b815260206004820152601d60248201527f416464726573733a2063616c6c20746f206e6f6e2d636f6e7472616374000000604482015260640162000088565b600080866001600160a01b03168587604051620006fe9190620008cf565b60006040518083038185875af1925050503d80600081146200073d576040519150601f19603f3d011682016040523d82523d6000602084013e62000742565b606091505b5090925090506200075582828662000760565b979650505050505050565b606083156200077157508162000626565b825115620007825782518084602001fd5b8160405162461bcd60e51b8152600401620000889190620008ed565b611ed68062005b5f83390190565b80516001600160a01b0381168114620007c457600080fd5b919050565b600080600080600080600060e0888a031215620007e557600080fd5b620007f088620007ac565b96506200080060208901620007ac565b95506200081060408901620007ac565b94506200082060608901620007ac565b93506200083060808901620007ac565b92506200084060a08901620007ac565b91506200085060c08901620007ac565b905092959891949750929550565b6000602082840312156200087157600080fd5b5051919050565b6000602082840312156200088b57600080fd5b815180151581146200062657600080fd5b60005b83811015620008b95781810151838201526020016200089f565b83811115620008c9576000848401525b50505050565b60008251620008e38184602087016200089c565b9190910192915050565b60208152600082518060208401526200090e8160408501602087016200089c565b601f01601f19169190910160400192915050565b60805161521a62000945600039600081816107490152613576015261521a6000f3fe608060405234801561001057600080fd5b50600436106103835760003560e01c80638144eeba116101de578063b12daf691161010f578063d7e15131116100ad578063f2fde38b1161007c578063f2fde38b1461090f578063f306694a14610922578063f69e20461461094d578063fb969b0a1461095557600080fd5b8063d7e15131146108c1578063db2e21bc146108e1578063ea3bd5df146108e9578063ec856816146108fc57600080fd5b8063c3d9ed39116100e9578063c3d9ed3914610875578063cb8d1e4714610888578063cd653df61461089b578063d3e3e352146108ae57600080fd5b8063b12daf691461080c578063bf434b7a14610837578063c300fd641461086257600080fd5b80638e143ccb1161017c5780639bbce478116101565780639bbce4781461078e578063a6fe2b9e146107ae578063acc3a006146107ce578063b0f48cf7146107e157600080fd5b80638e143ccb14610731578063901be0411461074457806393c82c751461076b57600080fd5b806388e18e13116101b857806388e18e13146106cf5780638990d045146106e25780638da5cb5b1461070d5780638dbdbe6d1461071e57600080fd5b80638144eeba14610694578063823c1512146106a75780638456cb59146106c757600080fd5b8063574cdded116102b85780636a77845411610256578063715018a611610230578063715018a614610643578063766718081461064d578063781ed978146106565780637e36701f1461068157600080fd5b80636a778454146106005780636db29f6d146106135780636f56f56f1461061b57600080fd5b80635daa2c55116102925780635daa2c551461059e57806361560c99146105b15780636274d49d146105c4578063699f200f146105d757600080fd5b8063574cdded146105555780635ba0bee1146105685780635c975abb1461059357600080fd5b8063391feebb116103255780633f83b8a5116102ff5780633f83b8a5146104cb578063441a3e70146104ee578063470f42241461050e5780634ab01f5b1461054257600080fd5b8063391feebb146104975780633df8cd72146104ba5780633f4ba83a146104c357600080fd5b80632807b9a8116103615780632807b9a81461040057806329520cae146104395780632dc96c8e1461044c578063344afb5f1461047757600080fd5b806315943b991461038857806316279055146103b157806321f8a721146103d5575b600080fd5b61039b61039636600461499a565b61095d565b6040516103a891906149b3565b60405180910390f35b6103c56103bf366004614a0e565b3b151590565b60405190151581526020016103a8565b6103e86103e336600461499a565b6109ea565b6040516001600160a01b0390911681526020016103a8565b61042b61040e366004614a29565b601360209081526000928352604080842090915290825290205481565b6040519081526020016103a8565b6103c561044736600461499a565b610a05565b61042b61045a366004614a29565b601160209081526000928352604080842090915290825290205481565b61042b61048536600461499a565b600e6020526000908152604090205481565b6103c56104a5366004614a0e565b60016020526000908152604090205460ff1681565b61042b60045481565b6103c5610a71565b6103c56104d936600461499a565b60086020526000908152604090205460ff1681565b6105016104fc366004614a29565b610ac7565b6040516103a89190614a4b565b6103e861051c366004614a29565b600a6020908152600092835260408084209091529082529020546001600160a01b031681565b6103c5610550366004614ac7565b610dc4565b61042b610563366004614b32565b610eeb565b61042b610576366004614a29565b601560209081526000928352604080842090915290825290205481565b60025460ff166103c5565b61042b6105ac366004614b32565b611239565b61039b6105bf366004614b5e565b6112b8565b61039b6105d2366004614b5e565b6113ec565b6103e86105e536600461499a565b6005602052600090815260409020546001600160a01b031681565b61039b61060e36600461499a565b611516565b6103c5611617565b61062e61062936600461499a565b611720565b604080519283526020830191909152016103a8565b61064b611766565b005b61042b60035481565b61042b610664366004614a29565b601060209081526000928352604080842090915290825290205481565b61042b61068f366004614a29565b61179c565b6103c56106a2366004614c2f565b6117cd565b6106ba6106b536600461499a565b611895565b6040516103a89190614ca2565b6103c56119ad565b61042b6106dd366004614b32565b611a07565b61042b6106f0366004614a29565b600f60209081526000928352604080842090915290825290205481565b6000546001600160a01b03166103e8565b6103c561072c366004614ce3565b611a37565b61042b61073f36600461499a565b611db2565b6103e87f000000000000000000000000000000000000000000000000000000000000000081565b6103c561077936600461499a565b60076020526000908152604090205460ff1681565b61042b61079c36600461499a565b60166020526000908152604090205481565b61042b6107bc36600461499a565b60066020526000908152604090205481565b6103c56107dc366004614a0e565b611ee6565b61042b6107ef366004614a29565b601460209081526000928352604080842090915290825290205481565b61042b61081a366004614a29565b600b60209081526000928352604080842090915290825290205481565b61042b610845366004614a29565b601260209081526000928352604080842090915290825290205481565b61039b61087036600461499a565b612052565b6103c5610883366004614a0e565b61214a565b61042b610896366004614a0e565b612214565b61039b6108a936600461499a565b6122ba565b6103c56108bc366004614d0f565b6123b2565b61042b6108cf36600461499a565b600c6020526000908152604090205481565b6103c5612555565b61062e6108f7366004614ce3565b61277c565b61039b61090a366004614b5e565b612d20565b61064b61091d366004614a0e565b612e4a565b61042b610930366004614a29565b600d60209081526000928352604080842090915290825290205481565b6103c5612ee5565b6103c5613385565b606081600081116109895760405162461bcd60e51b815260040161098090614d43565b60405180910390fd5b600083815260096020908152604091829020805483518184028101840190945280845290918301828280156109dd57602002820191906000526020600020905b8154815260200190600101908083116109c9575b5050505050915050919050565b6000908152600560205260409020546001600160a01b031690565b600080546001600160a01b03163314610a305760405162461bcd60e51b815260040161098090614d60565b60048290556040518281527f88c8f67db38a241af42dba37213346faea29bb6f89bce646dbcd9f99ee3526909060200160405180910390a15060015b919050565b6000610a8969476f7665726e616e636560b01b6109ea565b6001600160a01b0316336001600160a01b031614610ab95760405162461bcd60e51b815260040161098090614d95565b610ac161387f565b50600190565b610acf61491c565b60025460ff1615610af25760405162461bcd60e51b815260040161098090614db2565b333b15610b28573360009081526001602052604090205460ff16610b285760405162461bcd60e51b815260040161098090614ddc565b60008381526007602052604090205460ff16610b6c5760405162461bcd60e51b815260206004820152600360248201526245313760e81b6044820152606401610980565b6000838152600960205260409020548210610b995760405162461bcd60e51b815260040161098090614e2b565b6000838152600960205260408120805484908110610bb957610bb9614e48565b906000526020600020015490508060001415610be75760405162461bcd60e51b815260040161098090614e5e565b60003382604051602001610bfc929190614e7b565b60408051601f1981840301815291815281516020928301206000888152600f845282812082825290935291205490915080610c5f5760405162461bcd60e51b815260206004820152600360248201526208a62760eb1b6044820152606401610980565b6000610c71630e488a0b60e31b6109ea565b6000888152600b602090815260408083208884528252808320548b8452601183528184208985529092528220549293509091610cae908590614eb3565b610cb89190614ee8565b90506000610ccb62088a0b60eb1b6109ea565b60008a8152600b602090815260408083208a84528252808320548d8452601083528184208b85529092528220549293509091610d08908790614eb3565b610d129190614ee8565b60008b8152600f602090815260408083208a84529091528120559050610d426001600160a01b0385163385613912565b610d566001600160a01b0383163383613912565b604080518b8152602081018990523381830152606081018790526080810185905290517fbe7586dfb192ca07af28bcc9fc95e78619abff84853e614ba95a4864e955c5929181900360a00190a160408051808201909152908152602081019290925250979650505050505050565b600080546001600160a01b03163314610def5760405162461bcd60e51b815260040161098090614d60565b838214610e235760405162461bcd60e51b8152602060048201526002602482015261229960f11b6044820152606401610980565b60005b84811015610edf576000868683818110610e4257610e42614e48565b9050602002013590506000858584818110610e5f57610e5f614e48565b9050602002016020810190610e749190614a0e565b60008381526005602052604080822080546001600160a01b0319166001600160a01b03851690811790915590519293509184917fb37614c7d254ea8d16eb81fa11dddaeb266aa8ba4917980859c7740aff30c69191a350508080610ed790614efc565b915050610e26565b50600195945050505050565b6000610ef960025460ff1690565b15610f165760405162461bcd60e51b815260040161098090614db2565b333b15610f4c573360009081526001602052604090205460ff16610f4c5760405162461bcd60e51b815260040161098090614ddc565b60008281526007602052604090205460ff16610f905760405162461bcd60e51b815260206004820152600360248201526245313760e81b6044820152606401610980565b6000828152600960205260409020548410610fbd5760405162461bcd60e51b815260040161098090614e2b565b60008311610fdd5760405162461bcd60e51b815260040161098090614f17565b6000828152600960205260408120805486908110610ffd57610ffd614e48565b90600052602060002001549050806000141561102b5760405162461bcd60e51b815260040161098090614e5e565b6000838152600a60209081526040808320848452909152908190205490516370a0823160e01b815233600482015285916001600160a01b0316906370a082319060240160206040518083038186803b15801561108657600080fd5b505afa15801561109a573d6000803e3d6000fd5b505050506040513d601f19601f820116820180604052508101906110be9190614f34565b10156110f25760405162461bcd60e51b815260206004820152600360248201526222989b60e91b6044820152606401610980565b60008381526016602052604090205461110c908286611a07565b9150600082116111445760405162461bcd60e51b815260206004820152600360248201526245313560e81b6044820152606401610980565b6000838152600a602090815260408083208484529091529081902054905163079cc67960e41b8152336004820152602481018690526001600160a01b03909116906379cc679090604401600060405180830381600087803b1580156111a857600080fd5b505af11580156111bc573d6000803e3d6000fd5b505050506111e433836111d462088a0b60eb1b6109ea565b6001600160a01b03169190613912565b60408051848152602081018390523381830152606081018690526080810184905290517f170d93e3a85ba1c08f72d2c0ebd8835178a9b9f444c318ab404506c743d925bd9181900360a00190a1509392505050565b6000806402540be400836004546112509190614eb3565b61125a9190614ee8565b9050838510156112ae5760006064866112738783614eb3565b61127d9190614ee8565b6112879190614f4d565b611292906064614f64565b905060646112a08383614eb3565b6112aa9190614ee8565b9150505b90505b9392505050565b606082600081116112db5760405162461bcd60e51b815260040161098090614d43565b60008481526009602052604081205490816001600160401b0381111561130357611303614b8a565b60405190808252806020026020018201604052801561132c578160200160208202803683370190505b50905060005b828110156113e257600087815260096020526040812080548390811061135a5761135a614e48565b906000526020600020015490506000878260405160200161137c929190614e7b565b60408051601f19818403018152918152815160209283012060008c8152601584528281208282529093529120548551919250908590859081106113c1576113c1614e48565b602002602001018181525050505080806113da90614efc565b915050611332565b5095945050505050565b6060826000811161140f5760405162461bcd60e51b815260040161098090614d43565b60008481526009602052604081205490816001600160401b0381111561143757611437614b8a565b604051908082528060200260200182016040528015611460578160200160208202803683370190505b50905060005b828110156113e257600087815260096020526040812080548390811061148e5761148e614e48565b90600052602060002001549050600087826040516020016114b0929190614e7b565b60408051601f19818403018152918152815160209283012060008c8152600f84528281208282529093529120548551919250908590859081106114f5576114f5614e48565b6020026020010181815250505050808061150e90614efc565b915050611466565b606081600081116115395760405162461bcd60e51b815260040161098090614d43565b60008381526009602052604081205490816001600160401b0381111561156157611561614b8a565b60405190808252806020026020018201604052801561158a578160200160208202803683370190505b50905060005b8281101561160e576000868152601260209081526040808320600990925282208054919291849081106115c5576115c5614e48565b90600052602060002001548152602001908152602001600020548282815181106115f1576115f1614e48565b60209081029190910101528061160681614efc565b915050611590565b50949350505050565b600061162560025460ff1690565b156116425760405162461bcd60e51b815260040161098090614db2565b60035460009081526007602052604090205460ff16156116895760405162461bcd60e51b8152602060048201526002602482015261453360f01b6044820152606401610980565b6000611696600354611720565b915050804210156116ce5760405162461bcd60e51b8152602060048201526002602482015261114d60f21b6044820152606401610980565b6003546000908152600760205260409020805460ff191660011790556116fc61089662088a0b60eb1b6109ea565b6003546000908152601660205260409020556117186001613942565b600191505090565b60008082600081116117445760405162461bcd60e51b815260040161098090614d43565b60008481526006602052604090205461175c81611db2565b9250925050915091565b6000546001600160a01b031633146117905760405162461bcd60e51b815260040161098090614d60565b61179a600061409d565b565b600960205281600052604060002081815481106117b857600080fd5b90600052602060002001600091509150505481565b60006117db60025460ff1690565b156117f85760405162461bcd60e51b815260040161098090614db2565b825184511461182e5760405162461bcd60e51b8152602060048201526002602482015261229960f11b6044820152606401610980565b60005b845181101561188a5761187785828151811061184f5761184f614e48565b602002602001015185838151811061186957611869614e48565b602002602001015185611a37565b508061188281614efc565b915050611831565b506001949350505050565b606081600081116118b85760405162461bcd60e51b815260040161098090614d43565b60008381526009602052604081205490816001600160401b038111156118e0576118e0614b8a565b604051908082528060200260200182016040528015611909578160200160208202803683370190505b50905060005b8281101561160e576000868152600a602090815260408083206009909252822080549192918490811061194457611944614e48565b9060005260206000200154815260200190815260200160002060009054906101000a90046001600160a01b031682828151811061198357611983614e48565b6001600160a01b0390921660209283029190910190910152806119a581614efc565b91505061190f565b60006119c569476f7665726e616e636560b01b6109ea565b6001600160a01b0316336001600160a01b0316146119f55760405162461bcd60e51b815260040161098090614d95565b6119fd6140ed565b610ac16000613942565b6000828411611a175760006112ae565b8382611a238583614f4d565b611a2d9190614eb3565b6112ae9190614ee8565b6000611a4560025460ff1690565b15611a625760405162461bcd60e51b815260040161098090614db2565b333b15611a98573360009081526001602052604090205460ff16611a985760405162461bcd60e51b815260040161098090614ddc565b60006003546001611aa99190614f64565b60035490915015611b165760035460009081526007602052604090205460ff168015611ae4575060008181526008602052604090205460ff16155b611b165760405162461bcd60e51b815260206004820152600360248201526245313960e81b6044820152606401610980565b6000818152600960205260409020548510611b435760405162461bcd60e51b815260040161098090614e2b565b60008411611b635760405162461bcd60e51b815260040161098090614f17565b6000818152600960205260408120805487908110611b8357611b83614e48565b906000526020600020015490508060001415611bb15760405162461bcd60e51b815260040161098090614e5e565b60008482604051602001611bc6929190614e7b565b604051602081830303815290604052805190602001209050611c04333088611bf362088a0b60eb1b6109ea565b6001600160a01b0316929190614145565b6000838152600f6020908152604080832084845290915281208054889290611c2d908490614f64565b90915550506000838152600b6020908152604080832085845290915281208054889290611c5b908490614f64565b90915550506000838152600c602052604081208054889290611c7e908490614f64565b90915550506000838152600d6020908152604080832085845290915281208054889290611cac908490614f64565b90915550506000838152600e602052604081208054889290611ccf908490614f64565b90915550611cef90506d5374616b696e675265776172647360901b6109ea565b6001600160a01b031663a694fc3a876040518263ffffffff1660e01b8152600401611d1c91815260200190565b600060405180830381600087803b158015611d3657600080fd5b505af1158015611d4a573d6000803e3d6000fd5b505060408051868152602081018690529081018990526001600160a01b03881660608201523360808201527fcaa9001342572663a8f7c22e7c6f0331a45254407418d9f993ed2d1485adc205925060a001905060405180910390a15060019695505050505050565b600080611ddc611dc184614183565b611dca856141a3565b611dd5906001614f64565b60006141bd565b90506005611de9826141d8565b1015611e2157611e1e611dfb82614183565b611e04836141a3565b6007611e0f8561420c565b611e199190614f4d565b6141bd565b90505b6000611e69611e2f83614183565b611e38846141a3565b611e41856141d8565b611e4a8661420c565b611e55906005614f64565b611e5f9190614f4d565b6008600080614226565b90508381116112b1576000611e94611e8086614183565b611e89876141a3565b611dd5906002614f64565b90506005611ea1826141d8565b1015611eb657611eb3611dfb82614183565b90505b611edd611ec282614183565b611ecb836141a3565b611ed4846141d8565b611e4a8561420c565b95945050505050565b600080546001600160a01b03163314611f115760405162461bcd60e51b815260040161098090614d60565b813b611f7d5760405162461bcd60e51b815260206004820152603560248201527f436f6e747261637457686974656c6973743a2041646472657373206d757374206044820152746265206120636f6e7472616374206164647265737360581b6064820152608401610980565b6001600160a01b03821660009081526001602052604090205460ff1615611ffe5760405162461bcd60e51b815260206004820152602f60248201527f436f6e747261637457686974656c6973743a20436f6e747261637420616c726560448201526e18591e481dda1a5d195b1a5cdd1959608a1b6064820152608401610980565b6001600160a01b0382166000818152600160208190526040808320805460ff1916909217909155517ffbd3cde7ff522a917e485c8ed2a6e87590887ab399f5ac312307903f498543079190a2506001919050565b606081600081116120755760405162461bcd60e51b815260040161098090614d43565b60008381526009602052604081205490816001600160401b0381111561209d5761209d614b8a565b6040519080825280602002602001820160405280156120c6578160200160208202803683370190505b50905060005b8281101561160e576000868152600b602090815260408083206009909252822080549192918490811061210157612101614e48565b906000526020600020015481526020019081526020016000205482828151811061212d5761212d614e48565b60209081029190910101528061214281614efc565b9150506120cc565b6001600160a01b03811660009081526001602052604081205460ff166121c65760405162461bcd60e51b815260206004820152602b60248201527f436f6e747261637457686974656c6973743a20436f6e7472616374206e6f742060448201526a1dda1a5d195b1a5cdd195960aa1b6064820152608401610980565b6001600160a01b038216600081815260016020526040808220805460ff19169055517f8e81447740597754af5db3e176253a36f7981a9549f48ace3f0cb233913f9d859190a2506001919050565b600061223774283934b1b2a7b930b1b632a0b3b3b932b3b0ba37b960591b6109ea565b604051630226614760e01b81526001600160a01b0384811660048301529190911690630226614790602401602060405180830381600087803b15801561227c57600080fd5b505af1158015612290573d6000803e3d6000fd5b505050506040513d601f19601f820116820180604052508101906122b49190614f34565b92915050565b606081600081116122dd5760405162461bcd60e51b815260040161098090614d43565b60008381526009602052604081205490816001600160401b0381111561230557612305614b8a565b60405190808252806020026020018201604052801561232e578160200160208202803683370190505b50905060005b8281101561160e5760008681526014602090815260408083206009909252822080549192918490811061236957612369614e48565b906000526020600020015481526020019081526020016000205482828151811061239557612395614e48565b6020908102919091010152806123aa81614efc565b915050612334565b600080546001600160a01b031633146123dd5760405162461bcd60e51b815260040161098090614d60565b60025460ff16156124005760405162461bcd60e51b815260040161098090614db2565b600060035460016124119190614f64565b6000818152600c6020526040902054909150156124555760405162461bcd60e51b815260206004820152600260248201526108a760f31b6044820152606401610980565b600354156124a357600061246a600354611720565b9150508042116124a15760405162461bcd60e51b8152602060048201526002602482015261453960f01b6044820152606401610980565b505b600081815260096020908152604090912084516124c29286019061493a565b5060008181526006602052604081204290555b835181101561254b577f5185be10ef2a03e926961817be495a630ded54bceffb3ba11f6af477c9c766828285838151811061251257612512614e48565b6020026020010151604051612531929190918252602082015260400190565b60405180910390a18061254381614efc565b9150506124d5565b5060019392505050565b600061256d69476f7665726e616e636560b01b6109ea565b6001600160a01b0316336001600160a01b03161461259d5760405162461bcd60e51b815260040161098090614d95565b60025460ff166125e65760405162461bcd60e51b815260206004820152601460248201527314185d5cd8589b194e881b9bdd081c185d5cd95960621b6044820152606401610980565b60006125f762088a0b60eb1b6109ea565b9050600061260b630e488a0b60e31b6109ea565b6040516370a0823160e01b81523060048201529091506000906001600160a01b038416906370a082319060240160206040518083038186803b15801561265057600080fd5b505afa158015612664573d6000803e3d6000fd5b505050506040513d601f19601f820116820180604052508101906126889190614f34565b6040516370a0823160e01b81523060048201529091506000906001600160a01b038416906370a082319060240160206040518083038186803b1580156126cd57600080fd5b505afa1580156126e1573d6000803e3d6000fd5b505050506040513d601f19601f820116820180604052508101906127059190614f34565b905061271b6001600160a01b0385163384613912565b61272f6001600160a01b0384163383613912565b60408051338152602081018490529081018290527fbb757047c2b5f3974fe26b7c10f732e7bce710b0952a71082702781e62ae0595906060015b60405180910390a1600194505050505090565b60008061278b60025460ff1690565b156127a85760405162461bcd60e51b815260040161098090614db2565b333b156127de573360009081526001602052604090205460ff166127de5760405162461bcd60e51b815260040161098090614ddc565b60035460009081526008602052604090205460ff166128255760405162461bcd60e51b815260206004820152600360248201526204532360ec1b6044820152606401610980565b60035460009081526009602052604090205485106128555760405162461bcd60e51b815260040161098090614e2b565b600084116128755760405162461bcd60e51b815260040161098090614f17565b600354600090815260096020526040812080548790811061289857612898614e48565b9060005260206000200154905080600014156128c65760405162461bcd60e51b815260040161098090614e5e565b600084826040516020016128db929190614e7b565b604051602081830303815290604052805190602001209050600061290462088a0b60eb1b6109ea565b9050600061291182612214565b9050600081896129306c4f7074696f6e50726963696e6760981b6109ea565b6001600160a01b0316635b7b6d88600061294942611db2565b8a886129676f566f6c6174696c6974794f7261636c6560801b6109ea565b6001600160a01b0316633af2888b6040518163ffffffff1660e01b8152600401602060405180830381600087803b1580156129a157600080fd5b505af11580156129b5573d6000803e3d6000fd5b505050506040513d601f19601f820116820180604052508101906129d99190614f34565b6040516001600160e01b031960e088901b1681529415156004860152602485019390935260448401919091526064830152608482015260a40160206040518083038186803b158015612a2a57600080fd5b505afa158015612a3e573d6000803e3d6000fd5b505050506040513d601f19601f82011682018060405250810190612a629190614f34565b612a6c9190614eb3565b612a769190614ee8565b90506000612a8583878c611239565b60035460009081526012602090815260408083208a8452909152812080549293508c92909190612ab6908490614f64565b90915550506003546000908152601360209081526040808320888452909152812080548c9290612ae7908490614f64565b9091555050600354600090815260146020908152604080832089845290915281208054849290612b18908490614f64565b9091555050600354600090815260156020908152604080832088845290915281208054849290612b49908490614f64565b90915550612b579050612ee5565b506003546000908152600d6020908152604080832089845290915281208054849290612b84908490614f64565b90915550506003546000908152600e602052604081208054849290612baa908490614f64565b90915550612bd190503330612bbf8486614f64565b6001600160a01b038816929190614145565b612bff612bee6d2332b2a234b9ba3934b13aba37b960911b6109ea565b6001600160a01b0386169083613912565b6003546000908152600a60209081526040808320898452909152902054612c30906001600160a01b03168a8c613912565b612c4a6d5374616b696e675265776172647360901b6109ea565b6001600160a01b031663a694fc3a836040518263ffffffff1660e01b8152600401612c7791815260200190565b600060405180830381600087803b158015612c9157600080fd5b505af1158015612ca5573d6000803e3d6000fd5b505060035460408051918252602082018a905281018d905260608101859052608081018490526001600160a01b038c1660a08201523360c08201527f78de8c82973d11415ea2004f458680aa6d5826c3e8a798496a61db56fa66417b925060e001905060405180910390a1909a909950975050505050505050565b60608260008111612d435760405162461bcd60e51b815260040161098090614d43565b60008481526009602052604081205490816001600160401b03811115612d6b57612d6b614b8a565b604051908082528060200260200182016040528015612d94578160200160208202803683370190505b50905060005b828110156113e2576000878152600960205260408120805483908110612dc257612dc2614e48565b9060005260206000200154905060008782604051602001612de4929190614e7b565b60408051601f19818403018152918152815160209283012060008c815260138452828120828252909352912054855191925090859085908110612e2957612e29614e48565b60200260200101818152505050508080612e4290614efc565b915050612d9a565b6000546001600160a01b03163314612e745760405162461bcd60e51b815260040161098090614d60565b6001600160a01b038116612ed95760405162461bcd60e51b815260206004820152602660248201527f4f776e61626c653a206e6577206f776e657220697320746865207a65726f206160448201526564647265737360d01b6064820152608401610980565b612ee28161409d565b50565b6000612ef360025460ff1690565b15612f105760405162461bcd60e51b815260040161098090614db2565b60035460009081526007602052604090205460ff1615612f575760405162461bcd60e51b8152602060048201526002602482015261453360f01b6044820152606401610980565b60035460009081526008602052604090205460ff16612f9e5760405162461bcd60e51b815260206004820152600360248201526204532360ec1b6044820152606401610980565b6000612fba6d5374616b696e675265776172647360901b6109ea565b6040516370a0823160e01b81523060048201529091506000906001600160a01b038316906370a082319060240160206040518083038186803b158015612fff57600080fd5b505afa158015613013573d6000803e3d6000fd5b505050506040513d601f19601f820116820180604052508101906130379190614f34565b6040516246613160e11b81523060048201529091506000906001600160a01b03841690628cc26290602401604080518083038186803b15801561307957600080fd5b505afa15801561308d573d6000803e3d6000fd5b505050506040513d601f19601f820116820180604052508101906130b19190614f7c565b509050600060096000600354815260200190815260200160002080548060200260200160405190810160405280929190818152602001828054801561311557602002820191906000526020600020905b815481526020019060010190808311613101575b5050505050905060005b8151811015613243576003546000908152600e6020908152604080832054600d90925282208451839086908690811061315a5761315a614e48565b60200260200101518152602001908152602001600020548561317c9190614eb3565b6131869190614ee8565b90508060106000600354815260200190815260200160002060008585815181106131b2576131b2614e48565b6020026020010151815260200190815260200160002060008282546131d79190614f64565b90915550506003546000908152600d60205260408120845183929086908690811061320457613204614e48565b6020026020010151815260200190815260200160002060008282546132299190614f64565b9091555082915061323b905081614efc565b91505061311f565b506003546000908152600e602052604081208054849290613265908490614f64565b909155505081156132c457836001600160a01b031663f69e20466040518163ffffffff1660e01b8152600401600060405180830381600087803b1580156132ab57600080fd5b505af11580156132bf573d6000803e3d6000fd5b505050505b6003546040516370a0823160e01b81523060048201527f5af10a4040aa7915142a090ccc9255ef57ae8241526de1c25a8cc33e473956b09190849086906001600160a01b038916906370a082319060240160206040518083038186803b15801561332d57600080fd5b505afa158015613341573d6000803e3d6000fd5b505050506040513d601f19601f820116820180604052508101906133659190614f34565b604080519485526020850193909352918301526060820152608001612769565b600080546001600160a01b031633146133b05760405162461bcd60e51b815260040161098090614d60565b60025460ff16156133d35760405162461bcd60e51b815260040161098090614db2565b600060035460016133e49190614f64565b60008181526008602052604090205490915060ff161561342b5760405162461bcd60e51b8152602060048201526002602482015261453560f01b6044820152606401610980565b60008181526009602052604090205461346b5760405162461bcd60e51b8152602060048201526002602482015261229b60f11b6044820152606401610980565b600354156134b95760035460009081526007602052604090205460ff166134b95760405162461bcd60e51b8152602060048201526002602482015261453760f01b6044820152606401610980565b60005b6000828152600960205260409020548110156136b35760008281526009602052604081208054839081106134f2576134f2614e48565b906000526020600020015490506000613533604051806040016040528060088152602001671114160b50d0531360c21b81525061352e84614282565b61437f565b905061355e81604051806040016040528060078152602001662d45504f43482d60c81b81525061437f565b905061356d8161352e86614282565b9050600061359a7f00000000000000000000000000000000000000000000000000000000000000006143ab565b60405163266c45bb60e11b81529091506001600160a01b03821690634cd88b76906135cb9085908190600401614ff8565b600060405180830381600087803b1580156135e557600080fd5b505af11580156135f9573d6000803e3d6000fd5b5050506000868152600a60209081526040808320878452825280832080546001600160a01b0319166001600160a01b038716908117909155898452600b8352818420888552909252918290205491516340c10f1960e01b8152306004820152602481019290925291506340c10f1990604401600060405180830381600087803b15801561368557600080fd5b505af1158015613699573d6000803e3d6000fd5b5050505050505080806136ab90614efc565b9150506134bc565b5060008181526008602052604090819020805460ff191660011790556003829055517fb5ca1ca1b7b47549eb8af476f3ef702fc63bcd8b8c01dc163b009bb818f97997906137049083815260200190565b60405180910390a1600191505090565b80158061379d5750604051636eb1769f60e11b81523060048201526001600160a01b03838116602483015284169063dd62ed3e9060440160206040518083038186803b15801561376357600080fd5b505afa158015613777573d6000803e3d6000fd5b505050506040513d601f19601f8201168201806040525081019061379b9190614f34565b155b6138085760405162461bcd60e51b815260206004820152603660248201527f5361666545524332303a20617070726f76652066726f6d206e6f6e2d7a65726f60448201527520746f206e6f6e2d7a65726f20616c6c6f77616e636560501b6064820152608401610980565b6040516001600160a01b03831660248201526044810182905261386b90849063095ea7b360e01b906064015b60408051601f198184030181529190526020810180516001600160e01b03166001600160e01b031990931692909217909152614443565b505050565b60606112ae8484600085614515565b60025460ff166138c85760405162461bcd60e51b815260206004820152601460248201527314185d5cd8589b194e881b9bdd081c185d5cd95960621b6044820152606401610980565b6002805460ff191690557f5db9ee0a495bf2e6ff9c91a7834c1ba4fdd244a5e8aa4e537bd38aeae4b073aa335b6040516001600160a01b03909116815260200160405180910390a1565b6040516001600160a01b03831660248201526044810182905261386b90849063a9059cbb60e01b90606401613834565b600061395e6d5374616b696e675265776172647360901b6109ea565b9050600061397162088a0b60eb1b6109ea565b90506000613985630e488a0b60e31b6109ea565b6040516370a0823160e01b81523060048201529091506000906001600160a01b038516906370a082319060240160206040518083038186803b1580156139ca57600080fd5b505afa1580156139de573d6000803e3d6000fd5b505050506040513d601f19601f82011682018060405250810190613a029190614f34565b1115613ad8576040516370a0823160e01b81523060048201526001600160a01b03841690632e1a7d4d9082906370a082319060240160206040518083038186803b158015613a4f57600080fd5b505afa158015613a63573d6000803e3d6000fd5b505050506040513d601f19601f82011682018060405250810190613a879190614f34565b6040518263ffffffff1660e01b8152600401613aa591815260200190565b600060405180830381600087803b158015613abf57600080fd5b505af1158015613ad3573d6000803e3d6000fd5b505050505b6040516370a0823160e01b81523060048201526000906001600160a01b038416906370a082319060240160206040518083038186803b158015613b1a57600080fd5b505afa158015613b2e573d6000803e3d6000fd5b505050506040513d601f19601f82011682018060405250810190613b529190614f34565b6040516370a0823160e01b81523060048201529091506000906001600160a01b038416906370a082319060240160206040518083038186803b158015613b9757600080fd5b505afa158015613bab573d6000803e3d6000fd5b505050506040513d601f19601f82011682018060405250810190613bcf9190614f34565b604051631c4b774b60e01b8152600260048201529091506001600160a01b03861690631c4b774b90602401600060405180830381600087803b158015613c1457600080fd5b505af1158015613c28573d6000803e3d6000fd5b50506040516370a0823160e01b81523060048201528492506001600160a01b03871691506370a082319060240160206040518083038186803b158015613c6d57600080fd5b505afa158015613c81573d6000803e3d6000fd5b505050506040513d601f19601f82011682018060405250810190613ca59190614f34565b613caf9190614f4d565b6040516370a0823160e01b815230600482015290925081906001600160a01b038516906370a082319060240160206040518083038186803b158015613cf357600080fd5b505afa158015613d07573d6000803e3d6000fd5b505050506040513d601f19601f82011682018060405250810190613d2b9190614f34565b613d359190614f4d565b6003546000908152600e60205260409020549091501561409557600354600090815260096020908152604080832080548251818502810185019093528083529192909190830182828015613da857602002820191906000526020600020905b815481526020019060010190808311613d94575b5050505050905060005b8151811015614092576003546000908152600e6020908152604080832054600d909252822084518390869086908110613ded57613ded614e48565b602002602001015181526020019081526020016000205486613e0f9190614eb3565b613e199190614ee8565b90506000613e9560166000600354815260200190815260200160002054858581518110613e4857613e48614e48565b60200260200101516012600060035481526020019081526020016000206000888881518110613e7957613e79614e48565b6020026020010151815260200190815260200160002054611a07565b90508082600b600060035481526020019081526020016000206000878781518110613ec257613ec2614e48565b6020026020010151815260200190815260200160002054613ee39190614f64565b613eed9190614f4d565b6010600060035481526020019081526020016000206000868681518110613f1657613f16614e48565b602002602001015181526020019081526020016000206000828254613f3b9190614f64565b90915550508915613fda576014600060035481526020019081526020016000206000858581518110613f6f57613f6f614e48565b60200260200101518152602001908152602001600020546010600060035481526020019081526020016000206000868681518110613faf57613faf614e48565b602002602001015181526020019081526020016000206000828254613fd49190614f64565b90915550505b6003546000908152600e6020908152604080832054600d909252822086519192909187908790811061400e5761400e614e48565b6020026020010151815260200190815260200160002054866140309190614eb3565b61403a9190614ee8565b601160006003548152602001908152602001600020600086868151811061406357614063614e48565b60200260200101518152602001908152602001600020819055505050808061408a90614efc565b915050613db2565b50505b505050505050565b600080546001600160a01b038381166001600160a01b0319831681178455604051919092169283917f8be0079c531659141344cd1fd0a4f28419497f9722a3daafe3b4186f6b6457e09190a35050565b60025460ff16156141105760405162461bcd60e51b815260040161098090614db2565b6002805460ff191660011790557f62e78cea01bee320cd4e420270b5ea74000d11b0c9f74754ebdbfc544b05a2586138f53390565b6040516001600160a01b038085166024830152831660448201526064810182905261417d9085906323b872dd60e01b90608401613834565b50505050565b600061419a6141956201518084614ee8565b614632565b50909392505050565b60006141b56141956201518084614ee8565b509392505050565b6000620151806141ce8585856147a6565b6112ae9190614eb3565b6000806141e86201518084614ee8565b905060076141f7826003614f64565b614201919061501d565b6112b1906001614f64565b600061421e6141956201518084614ee8565b949350505050565b600081614234603c85614eb3565b614240610e1087614eb3565b6201518061424f8b8b8b6147a6565b6142599190614eb3565b6142639190614f64565b61426d9190614f64565b6142779190614f64565b979650505050505050565b6060816142a65750506040805180820190915260018152600360fc1b602082015290565b8160005b81156142d057806142ba81614efc565b91506142c99050600a83614ee8565b91506142aa565b6000816001600160401b038111156142ea576142ea614b8a565b6040519080825280601f01601f191660200182016040528015614314576020820181803683370190505b5090505b841561421e57614329600183614f4d565b9150614336600a8661501d565b614341906030614f64565b60f81b81838151811061435657614356614e48565b60200101906001600160f81b031916908160001a905350614378600a86614ee8565b9450614318565b60608282604051602001614394929190615031565b604051602081830303815290604052905092915050565b6000604051733d602d80600a3d3981f3363d3d373d3d3d363d7360601b81528260601b60148201526e5af43d82803e903d91602b57fd5bf360881b60288201526037816000f09150506001600160a01b038116610a6c5760405162461bcd60e51b8152602060048201526016602482015275115490cc4c4d8dce8818dc99585d194819985a5b195960521b6044820152606401610980565b6000614498826040518060400160405280602081526020017f5361666545524332303a206c6f772d6c6576656c2063616c6c206661696c6564815250856001600160a01b03166138709092919063ffffffff16565b80519091501561386b57808060200190518101906144b69190615060565b61386b5760405162461bcd60e51b815260206004820152602a60248201527f5361666545524332303a204552433230206f7065726174696f6e20646964206e6044820152691bdd081cdd58d8d9595960b21b6064820152608401610980565b6060824710156145765760405162461bcd60e51b815260206004820152602660248201527f416464726573733a20696e73756666696369656e742062616c616e636520666f6044820152651c8818d85b1b60d21b6064820152608401610980565b843b6145c45760405162461bcd60e51b815260206004820152601d60248201527f416464726573733a2063616c6c20746f206e6f6e2d636f6e74726163740000006044820152606401610980565b600080866001600160a01b031685876040516145e09190615082565b60006040518083038185875af1925050503d806000811461461d576040519150601f19603f3d011682016040523d82523d6000602084013e614622565b606091505b50915091506142778282866148e3565b60008080838162253d8c6146498362010bd961509e565b614653919061509e565b9050600062023ab16146668360046150df565b6146709190615164565b905060046146818262023ab16150df565b61468c90600361509e565b6146969190615164565b6146a09083615192565b9150600062164b096146b384600161509e565b6146bf90610fa06150df565b6146c99190615164565b905060046146d9826105b56150df565b6146e39190615164565b6146ed9084615192565b6146f890601f61509e565b9250600061098f61470a8560506150df565b6147149190615164565b9050600060506147268361098f6150df565b6147309190615164565b61473a9086615192565b9050614747600b83615164565b945061475485600c6150df565b61475f83600261509e565b6147699190615192565b91508483614778603187615192565b6147839060646150df565b61478d919061509e565b614797919061509e565b9a919950975095505050505050565b60006107b28410156147b757600080fd5b838383600062253d8c60046064600c6147d1600e88615192565b6147db9190615164565b6147e78861132461509e565b6147f1919061509e565b6147fb9190615164565b6148069060036150df565b6148109190615164565b600c8061481e600e88615192565b6148289190615164565b61483390600c6150df565b61483e600288615192565b6148489190615192565b6148549061016f6150df565b61485e9190615164565b6004600c61486d600e89615192565b6148779190615164565b614883896112c061509e565b61488d919061509e565b614899906105b56150df565b6148a39190615164565b6148af617d4b87615192565b6148b9919061509e565b6148c3919061509e565b6148cd9190615192565b6148d79190615192565b98975050505050505050565b606083156148f25750816112b1565b8251156149025782518084602001fd5b8160405162461bcd60e51b815260040161098091906151d1565b60405180604001604052806002906020820280368337509192915050565b828054828255906000526020600020908101928215614975579160200282015b8281111561497557825182559160200191906001019061495a565b50614981929150614985565b5090565b5b808211156149815760008155600101614986565b6000602082840312156149ac57600080fd5b5035919050565b6020808252825182820181905260009190848201906040850190845b818110156149eb578351835292840192918401916001016149cf565b50909695505050505050565b80356001600160a01b0381168114610a6c57600080fd5b600060208284031215614a2057600080fd5b6112b1826149f7565b60008060408385031215614a3c57600080fd5b50508035926020909101359150565b60408101818360005b6002811015614a73578151835260209283019290910190600101614a54565b50505092915050565b60008083601f840112614a8e57600080fd5b5081356001600160401b03811115614aa557600080fd5b6020830191508360208260051b8501011115614ac057600080fd5b9250929050565b60008060008060408587031215614add57600080fd5b84356001600160401b0380821115614af457600080fd5b614b0088838901614a7c565b90965094506020870135915080821115614b1957600080fd5b50614b2687828801614a7c565b95989497509550505050565b600080600060608486031215614b4757600080fd5b505081359360208301359350604090920135919050565b60008060408385031215614b7157600080fd5b82359150614b81602084016149f7565b90509250929050565b634e487b7160e01b600052604160045260246000fd5b600082601f830112614bb157600080fd5b813560206001600160401b0380831115614bcd57614bcd614b8a565b8260051b604051601f19603f83011681018181108482111715614bf257614bf2614b8a565b604052938452858101830193838101925087851115614c1057600080fd5b83870191505b8482101561427757813583529183019190830190614c16565b600080600060608486031215614c4457600080fd5b83356001600160401b0380821115614c5b57600080fd5b614c6787838801614ba0565b94506020860135915080821115614c7d57600080fd5b50614c8a86828701614ba0565b925050614c99604085016149f7565b90509250925092565b6020808252825182820181905260009190848201906040850190845b818110156149eb5783516001600160a01b031683529284019291840191600101614cbe565b600080600060608486031215614cf857600080fd5b8335925060208401359150614c99604085016149f7565b600060208284031215614d2157600080fd5b81356001600160401b03811115614d3757600080fd5b61421e84828501614ba0565b60208082526003908201526245313360e81b604082015260600190565b6020808252818101527f4f776e61626c653a2063616c6c6572206973206e6f7420746865206f776e6572604082015260600190565b60208082526003908201526222991960e91b604082015260600190565b60208082526010908201526f14185d5cd8589b194e881c185d5cd95960821b604082015260600190565b6020808252602f908201527f436f6e747261637457686974656c6973743a20436f6e7472616374206d75737460408201526e081899481dda1a5d195b1a5cdd1959608a1b606082015260800190565b60208082526003908201526204531360ec1b604082015260600190565b634e487b7160e01b600052603260045260246000fd5b60208082526003908201526222989960e91b604082015260600190565b60609290921b6bffffffffffffffffffffffff19168252601482015260340190565b634e487b7160e01b600052601160045260246000fd5b6000816000190483118215151615614ecd57614ecd614e9d565b500290565b634e487b7160e01b600052601260045260246000fd5b600082614ef757614ef7614ed2565b500490565b6000600019821415614f1057614f10614e9d565b5060010190565b60208082526003908201526245313160e81b604082015260600190565b600060208284031215614f4657600080fd5b5051919050565b600082821015614f5f57614f5f614e9d565b500390565b60008219821115614f7757614f77614e9d565b500190565b60008060408385031215614f8f57600080fd5b505080516020909101519092909150565b60005b83811015614fbb578181015183820152602001614fa3565b8381111561417d5750506000910152565b60008151808452614fe4816020860160208601614fa0565b601f01601f19169290920160200192915050565b60408152600061500b6040830185614fcc565b8281036020840152611edd8185614fcc565b60008261502c5761502c614ed2565b500690565b60008351615043818460208801614fa0565b835190830190615057818360208801614fa0565b01949350505050565b60006020828403121561507257600080fd5b815180151581146112b157600080fd5b60008251615094818460208701614fa0565b9190910192915050565b600080821280156001600160ff1b03849003851316156150c0576150c0614e9d565b600160ff1b83900384128116156150d9576150d9614e9d565b50500190565b60006001600160ff1b038184138284138082168684048611161561510557615105614e9d565b600160ff1b600087128281168783058912161561512457615124614e9d565b6000871292508782058712848416161561514057615140614e9d565b8785058712818416161561515657615156614e9d565b505050929093029392505050565b60008261517357615173614ed2565b600160ff1b82146000198414161561518d5761518d614e9d565b500590565b60008083128015600160ff1b8501841216156151b0576151b0614e9d565b6001600160ff1b03840183138116156151cb576151cb614e9d565b50500390565b6020815260006112b16020830184614fcc56fea264697066735822122080eb24ff8f27ae5494826a09698564ad79ce045dcc910c87e0ec4324eda5e4bc64736f6c63430008090033608060405234801561001057600080fd5b50611eb6806100206000396000f3fe608060405234801561001057600080fd5b50600436106101cf5760003560e01c80635c975abb11610104578063a217fddf116100a2578063d539139311610071578063d5391393146103ce578063d547741f146103f5578063dd62ed3e14610408578063e63ab1e91461044157600080fd5b8063a217fddf1461038d578063a457c2d714610395578063a9059cbb146103a8578063ca15c873146103bb57600080fd5b80638456cb59116100de5780638456cb591461033f5780639010d07c1461034757806391d148541461037257806395d89b411461038557600080fd5b80635c975abb146102f757806370a082311461030357806379cc67901461032c57600080fd5b8063313ce567116101715780633f4ba83a1161014b5780633f4ba83a146102b657806340c10f19146102be57806342966c68146102d15780634cd88b76146102e457600080fd5b8063313ce5671461028157806336568abe1461029057806339509351146102a357600080fd5b806318160ddd116101ad57806318160ddd1461022457806323b872dd14610236578063248a9ca3146102495780632f2ff15d1461026c57600080fd5b806301ffc9a7146101d457806306fdde03146101fc578063095ea7b314610211575b600080fd5b6101e76101e23660046119fd565b610456565b60405190151581526020015b60405180910390f35b610204610481565b6040516101f39190611a53565b6101e761021f366004611aa2565b610513565b60cb545b6040519081526020016101f3565b6101e7610244366004611acc565b610529565b610228610257366004611b08565b60009081526065602052604090206001015490565b61027f61027a366004611b21565b6105d8565b005b604051601281526020016101f3565b61027f61029e366004611b21565b610603565b6101e76102b1366004611aa2565b610681565b61027f6106bd565b61027f6102cc366004611aa2565b610751565b61027f6102df366004611b08565b6107f0565b61027f6102f2366004611bf0565b6107fd565b61012d5460ff166101e7565b610228610311366004611c54565b6001600160a01b0316600090815260c9602052604090205490565b61027f61033a366004611aa2565b610874565b61027f6108f5565b61035a610355366004611c6f565b610987565b6040516001600160a01b0390911681526020016101f3565b6101e7610380366004611b21565b6109a6565b6102046109d1565b610228600081565b6101e76103a3366004611aa2565b6109e0565b6101e76103b6366004611aa2565b610a79565b6102286103c9366004611b08565b610a86565b6102287f9f2df0fed2c77648de5860a4cc508cd0818c85b8b8a1ab4ceeef8d981c8956a681565b61027f610403366004611b21565b610a9d565b610228610416366004611c91565b6001600160a01b03918216600090815260ca6020908152604080832093909416825291909152205490565b610228600080516020611e6183398151915281565b60006001600160e01b03198216635a05180f60e01b148061047b575061047b82610ac3565b92915050565b606060cc805461049090611cbb565b80601f01602080910402602001604051908101604052809291908181526020018280546104bc90611cbb565b80156105095780601f106104de57610100808354040283529160200191610509565b820191906000526020600020905b8154815290600101906020018083116104ec57829003601f168201915b5050505050905090565b6000610520338484610af8565b50600192915050565b6000610536848484610c1c565b6001600160a01b038416600090815260ca60209081526040808320338452909152902054828110156105c05760405162461bcd60e51b815260206004820152602860248201527f45524332303a207472616e7366657220616d6f756e74206578636565647320616044820152676c6c6f77616e636560c01b60648201526084015b60405180910390fd5b6105cd8533858403610af8565b506001949350505050565b6000828152606560205260409020600101546105f48133610df7565b6105fe8383610e5b565b505050565b6001600160a01b03811633146106735760405162461bcd60e51b815260206004820152602f60248201527f416363657373436f6e74726f6c3a2063616e206f6e6c792072656e6f756e636560448201526e103937b632b9903337b91039b2b63360891b60648201526084016105b7565b61067d8282610e7d565b5050565b33600081815260ca602090815260408083206001600160a01b038716845290915281205490916105209185906106b8908690611d0c565b610af8565b6106d5600080516020611e61833981519152336109a6565b6107475760405162461bcd60e51b815260206004820152603960248201527f45524332305072657365744d696e7465725061757365723a206d75737420686160448201527f76652070617573657220726f6c6520746f20756e70617573650000000000000060648201526084016105b7565b61074f610e9f565b565b61077b7f9f2df0fed2c77648de5860a4cc508cd0818c85b8b8a1ab4ceeef8d981c8956a6336109a6565b6107e65760405162461bcd60e51b815260206004820152603660248201527f45524332305072657365744d696e7465725061757365723a206d7573742068616044820152751d99481b5a5b9d195c881c9bdb19481d1bc81b5a5b9d60521b60648201526084016105b7565b61067d8282610f34565b6107fa338261101f565b50565b600054610100900460ff1680610816575060005460ff16155b6108325760405162461bcd60e51b81526004016105b790611d24565b600054610100900460ff16158015610854576000805461ffff19166101011790555b61085e8383611179565b80156105fe576000805461ff0019169055505050565b60006108808333610416565b9050818110156108de5760405162461bcd60e51b8152602060048201526024808201527f45524332303a206275726e20616d6f756e74206578636565647320616c6c6f77604482015263616e636560e01b60648201526084016105b7565b6108eb8333848403610af8565b6105fe838361101f565b61090d600080516020611e61833981519152336109a6565b61097f5760405162461bcd60e51b815260206004820152603760248201527f45524332305072657365744d696e7465725061757365723a206d75737420686160448201527f76652070617573657220726f6c6520746f20706175736500000000000000000060648201526084016105b7565b61074f61121c565b600082815260976020526040812061099f9083611299565b9392505050565b60009182526065602090815260408084206001600160a01b0393909316845291905290205460ff1690565b606060cd805461049090611cbb565b33600090815260ca602090815260408083206001600160a01b038616845290915281205482811015610a625760405162461bcd60e51b815260206004820152602560248201527f45524332303a2064656372656173656420616c6c6f77616e63652062656c6f77604482015264207a65726f60d81b60648201526084016105b7565b610a6f3385858403610af8565b5060019392505050565b6000610520338484610c1c565b600081815260976020526040812061047b906112a5565b600082815260656020526040902060010154610ab98133610df7565b6105fe8383610e7d565b60006001600160e01b03198216637965db0b60e01b148061047b57506301ffc9a760e01b6001600160e01b031983161461047b565b6001600160a01b038316610b5a5760405162461bcd60e51b8152602060048201526024808201527f45524332303a20617070726f76652066726f6d20746865207a65726f206164646044820152637265737360e01b60648201526084016105b7565b6001600160a01b038216610bbb5760405162461bcd60e51b815260206004820152602260248201527f45524332303a20617070726f766520746f20746865207a65726f206164647265604482015261737360f01b60648201526084016105b7565b6001600160a01b03838116600081815260ca602090815260408083209487168084529482529182902085905590518481527f8c5be1e5ebec7d5bd14f71427d1e84f3dd0314c0f7b2291e5b200ac8c7c3b925910160405180910390a3505050565b6001600160a01b038316610c805760405162461bcd60e51b815260206004820152602560248201527f45524332303a207472616e736665722066726f6d20746865207a65726f206164604482015264647265737360d81b60648201526084016105b7565b6001600160a01b038216610ce25760405162461bcd60e51b815260206004820152602360248201527f45524332303a207472616e7366657220746f20746865207a65726f206164647260448201526265737360e81b60648201526084016105b7565b610ced8383836112af565b6001600160a01b038316600090815260c9602052604090205481811015610d655760405162461bcd60e51b815260206004820152602660248201527f45524332303a207472616e7366657220616d6f756e7420657863656564732062604482015265616c616e636560d01b60648201526084016105b7565b6001600160a01b03808516600090815260c96020526040808220858503905591851681529081208054849290610d9c908490611d0c565b92505081905550826001600160a01b0316846001600160a01b03167fddf252ad1be2c89b69c2b068fc378daa952ba7f163c4a11628f55a4df523b3ef84604051610de891815260200190565b60405180910390a35b50505050565b610e0182826109a6565b61067d57610e19816001600160a01b031660146112ba565b610e248360206112ba565b604051602001610e35929190611d72565b60408051601f198184030181529082905262461bcd60e51b82526105b791600401611a53565b610e658282611456565b60008281526097602052604090206105fe90826114dc565b610e8782826114f1565b60008281526097602052604090206105fe9082611558565b61012d5460ff16610ee95760405162461bcd60e51b815260206004820152601460248201527314185d5cd8589b194e881b9bdd081c185d5cd95960621b60448201526064016105b7565b61012d805460ff191690557f5db9ee0a495bf2e6ff9c91a7834c1ba4fdd244a5e8aa4e537bd38aeae4b073aa335b6040516001600160a01b03909116815260200160405180910390a1565b6001600160a01b038216610f8a5760405162461bcd60e51b815260206004820152601f60248201527f45524332303a206d696e7420746f20746865207a65726f20616464726573730060448201526064016105b7565b610f96600083836112af565b8060cb6000828254610fa89190611d0c565b90915550506001600160a01b038216600090815260c9602052604081208054839290610fd5908490611d0c565b90915550506040518181526001600160a01b038316906000907fddf252ad1be2c89b69c2b068fc378daa952ba7f163c4a11628f55a4df523b3ef9060200160405180910390a35050565b6001600160a01b03821661107f5760405162461bcd60e51b815260206004820152602160248201527f45524332303a206275726e2066726f6d20746865207a65726f206164647265736044820152607360f81b60648201526084016105b7565b61108b826000836112af565b6001600160a01b038216600090815260c96020526040902054818110156110ff5760405162461bcd60e51b815260206004820152602260248201527f45524332303a206275726e20616d6f756e7420657863656564732062616c616e604482015261636560f01b60648201526084016105b7565b6001600160a01b038316600090815260c960205260408120838303905560cb805484929061112e908490611de7565b90915550506040518281526000906001600160a01b038516907fddf252ad1be2c89b69c2b068fc378daa952ba7f163c4a11628f55a4df523b3ef9060200160405180910390a3505050565b600054610100900460ff1680611192575060005460ff16155b6111ae5760405162461bcd60e51b81526004016105b790611d24565b600054610100900460ff161580156111d0576000805461ffff19166101011790555b6111d861156d565b6111e061156d565b6111e861156d565b6111f061156d565b6111fa83836115d8565b61120261156d565b61120a61166d565b61121261156d565b61085e83836116e3565b61012d5460ff16156112635760405162461bcd60e51b815260206004820152601060248201526f14185d5cd8589b194e881c185d5cd95960821b60448201526064016105b7565b61012d805460ff191660011790557f62e78cea01bee320cd4e420270b5ea74000d11b0c9f74754ebdbfc544b05a258610f173390565b600061099f8383611787565b600061047b825490565b6105fe8383836117b1565b606060006112c9836002611dfe565b6112d4906002611d0c565b67ffffffffffffffff8111156112ec576112ec611b4d565b6040519080825280601f01601f191660200182016040528015611316576020820181803683370190505b509050600360fc1b8160008151811061133157611331611e1d565b60200101906001600160f81b031916908160001a905350600f60fb1b8160018151811061136057611360611e1d565b60200101906001600160f81b031916908160001a9053506000611384846002611dfe565b61138f906001611d0c565b90505b6001811115611407576f181899199a1a9b1b9c1cb0b131b232b360811b85600f16601081106113c3576113c3611e1d565b1a60f81b8282815181106113d9576113d9611e1d565b60200101906001600160f81b031916908160001a90535060049490941c9361140081611e33565b9050611392565b50831561099f5760405162461bcd60e51b815260206004820181905260248201527f537472696e67733a20686578206c656e67746820696e73756666696369656e7460448201526064016105b7565b61146082826109a6565b61067d5760008281526065602090815260408083206001600160a01b03851684529091529020805460ff191660011790556114983390565b6001600160a01b0316816001600160a01b0316837f2f8788117e7eff1d82e926ec794901d17c78024a50270940304540a733656f0d60405160405180910390a45050565b600061099f836001600160a01b038416611818565b6114fb82826109a6565b1561067d5760008281526065602090815260408083206001600160a01b0385168085529252808320805460ff1916905551339285917ff6391f5c32d9c69d2a47ea670b442974b53935d1edc7fd64eb21e047a839171b9190a45050565b600061099f836001600160a01b038416611867565b600054610100900460ff1680611586575060005460ff16155b6115a25760405162461bcd60e51b81526004016105b790611d24565b600054610100900460ff161580156115c4576000805461ffff19166101011790555b80156107fa576000805461ff001916905550565b600054610100900460ff16806115f1575060005460ff16155b61160d5760405162461bcd60e51b81526004016105b790611d24565b600054610100900460ff1615801561162f576000805461ffff19166101011790555b82516116429060cc906020860190611964565b5081516116569060cd906020850190611964565b5080156105fe576000805461ff0019169055505050565b600054610100900460ff1680611686575060005460ff16155b6116a25760405162461bcd60e51b81526004016105b790611d24565b600054610100900460ff161580156116c4576000805461ffff19166101011790555b61012d805460ff1916905580156107fa576000805461ff001916905550565b600054610100900460ff16806116fc575060005460ff16155b6117185760405162461bcd60e51b81526004016105b790611d24565b600054610100900460ff1615801561173a576000805461ffff19166101011790555b61174560003361195a565b61176f7f9f2df0fed2c77648de5860a4cc508cd0818c85b8b8a1ab4ceeef8d981c8956a63361195a565b61085e600080516020611e618339815191523361195a565b600082600001828154811061179e5761179e611e1d565b9060005260206000200154905092915050565b61012d5460ff16156105fe5760405162461bcd60e51b815260206004820152602a60248201527f45524332305061757361626c653a20746f6b656e207472616e736665722077686044820152691a5b19481c185d5cd95960b21b60648201526084016105b7565b600081815260018301602052604081205461185f5750815460018181018455600084815260208082209093018490558454848252828601909352604090209190915561047b565b50600061047b565b6000818152600183016020526040812054801561195057600061188b600183611de7565b855490915060009061189f90600190611de7565b90508181146119045760008660000182815481106118bf576118bf611e1d565b90600052602060002001549050808760000184815481106118e2576118e2611e1d565b6000918252602080832090910192909255918252600188019052604090208390555b855486908061191557611915611e4a565b60019003818190600052602060002001600090559055856001016000868152602001908152602001600020600090556001935050505061047b565b600091505061047b565b61067d8282610e5b565b82805461197090611cbb565b90600052602060002090601f01602090048101928261199257600085556119d8565b82601f106119ab57805160ff19168380011785556119d8565b828001600101855582156119d8579182015b828111156119d85782518255916020019190600101906119bd565b506119e49291506119e8565b5090565b5b808211156119e457600081556001016119e9565b600060208284031215611a0f57600080fd5b81356001600160e01b03198116811461099f57600080fd5b60005b83811015611a42578181015183820152602001611a2a565b83811115610df15750506000910152565b6020815260008251806020840152611a72816040850160208701611a27565b601f01601f19169190910160400192915050565b80356001600160a01b0381168114611a9d57600080fd5b919050565b60008060408385031215611ab557600080fd5b611abe83611a86565b946020939093013593505050565b600080600060608486031215611ae157600080fd5b611aea84611a86565b9250611af860208501611a86565b9150604084013590509250925092565b600060208284031215611b1a57600080fd5b5035919050565b60008060408385031215611b3457600080fd5b82359150611b4460208401611a86565b90509250929050565b634e487b7160e01b600052604160045260246000fd5b600082601f830112611b7457600080fd5b813567ffffffffffffffff80821115611b8f57611b8f611b4d565b604051601f8301601f19908116603f01168101908282118183101715611bb757611bb7611b4d565b81604052838152866020858801011115611bd057600080fd5b836020870160208301376000602085830101528094505050505092915050565b60008060408385031215611c0357600080fd5b823567ffffffffffffffff80821115611c1b57600080fd5b611c2786838701611b63565b93506020850135915080821115611c3d57600080fd5b50611c4a85828601611b63565b9150509250929050565b600060208284031215611c6657600080fd5b61099f82611a86565b60008060408385031215611c8257600080fd5b50508035926020909101359150565b60008060408385031215611ca457600080fd5b611cad83611a86565b9150611b4460208401611a86565b600181811c90821680611ccf57607f821691505b60208210811415611cf057634e487b7160e01b600052602260045260246000fd5b50919050565b634e487b7160e01b600052601160045260246000fd5b60008219821115611d1f57611d1f611cf6565b500190565b6020808252602e908201527f496e697469616c697a61626c653a20636f6e747261637420697320616c72656160408201526d191e481a5b9a5d1a585b1a5e995960921b606082015260800190565b7f416363657373436f6e74726f6c3a206163636f756e7420000000000000000000815260008351611daa816017850160208801611a27565b7001034b99036b4b9b9b4b733903937b6329607d1b6017918401918201528351611ddb816028840160208801611a27565b01602801949350505050565b600082821015611df957611df9611cf6565b500390565b6000816000190483118215151615611e1857611e18611cf6565b500290565b634e487b7160e01b600052603260045260246000fd5b600081611e4257611e42611cf6565b506000190190565b634e487b7160e01b600052603160045260246000fdfe65d7a28e3265b37a6474929f336521b332c1681b933f6cb9f3376673440d862aa26469706673582212201e8e71d04321c61cbea798e0c220b88d5e37b921bdfb67b7e07db65b7fd1d00064736f6c634300080900337fb289d74e89aa951d6df036f505e04569b46feac2c37a0db801b8f4a2d8c930c40232d6f4f9db98646b81c9aad97cdb6e05b0eadb60d604217501b86e93e87a",
  "devdoc": {
    "kind": "dev",
    "methods": {
      "addToContractWhitelist(address)": {
        "details": "add to the contract whitelist",
        "params": {
          "_contract": "the address of the contract to add to the contract whitelist"
        },
        "returns": {
          "_0": "whether the contract was successfully added to the whitelist"
        }
      },
      "bootstrap()": {
        "returns": {
          "_0": "Whether bootstrap was successful"
        }
      },
      "calculateFees(uint256,uint256,uint256)": {
        "params": {
          "amount": "amount of options being bought",
          "price": "price of DPX",
          "strike": "strike price of the the DPX option"
        }
      },
      "calculatePnl(uint256,uint256,uint256)": {
        "params": {
          "amount": "amount of options",
          "price": "price of DPX",
          "strike": "strike price of the the DPX option"
        }
      },
      "compound()": {
        "returns": {
          "_0": "Whether compound was successful"
        }
      },
      "deposit(uint256,uint256,address)": {
        "params": {
          "amount": "Amout of DPX to deposit",
          "strikeIndex": "Index of strike",
          "user": "Address of the user to deposit for"
        },
        "returns": {
          "_0": "Whether deposit was successful"
        }
      },
      "depositMultiple(uint256[],uint256[],address)": {
        "params": {
          "amounts": "Amount of DPX to deposit into each strike index",
          "strikeIndices": "Indices of strikes to deposit into",
          "user": "Address of the user to deposit for"
        },
        "returns": {
          "_0": "Whether deposits went through successfully"
        }
      },
      "emergencyWithdraw()": {
        "details": "Can only be called by governance",
        "returns": {
          "_0": "Whether emergency withdraw was successful"
        }
      },
      "expireEpoch()": {
        "returns": {
          "_0": "Whether expire was successful"
        }
      },
      "getAddress(bytes32)": {
        "params": {
          "name": "Name of the contract"
        },
        "returns": {
          "_0": "The address of the contract"
        }
      },
      "getEpochStrikeTokens(uint256)": {
        "params": {
          "epoch": "Target epoch"
        }
      },
      "getEpochStrikes(uint256)": {
        "params": {
          "epoch": "Target epoch"
        }
      },
      "getEpochTimes(uint256)": {
        "params": {
          "epoch": "Target epoch"
        }
      },
      "getMonthlyExpiryFromTimestamp(uint256)": {
        "params": {
          "timestamp": "Timestamp from which the monthly expiry is to be calculated"
        },
        "returns": {
          "_0": "The monthly expiry"
        }
      },
      "getTotalEpochCallsPurchased(uint256)": {
        "params": {
          "epoch": "Target epoch"
        }
      },
      "getTotalEpochPremium(uint256)": {
        "params": {
          "epoch": "Target epoch"
        }
      },
      "getTotalEpochStrikeDeposits(uint256)": {
        "params": {
          "epoch": "Target epoch"
        }
      },
      "getUsdPrice(address)": {
        "params": {
          "_token": "Address of the token"
        }
      },
      "getUserEpochCallsPurchased(uint256,address)": {
        "params": {
          "epoch": "Target epoch",
          "user": "Address of the user"
        }
      },
      "getUserEpochDeposits(uint256,address)": {
        "params": {
          "epoch": "Target epoch",
          "user": "Address of the user"
        }
      },
      "getUserEpochPremium(uint256,address)": {
        "params": {
          "epoch": "Target epoch",
          "user": "Address of the user"
        }
      },
      "isContract(address)": {
        "details": "checks for contract or eoa addresses",
        "params": {
          "addr": "the address to check"
        },
        "returns": {
          "_0": "whether the passed address is a contract address"
        }
      },
      "owner()": {
        "details": "Returns the address of the current owner."
      },
      "pause()": {
        "details": "Can only be called by governance",
        "returns": {
          "_0": "Whether it was successfully paused"
        }
      },
      "paused()": {
        "details": "Returns true if the contract is paused, and false otherwise."
      },
      "purchase(uint256,uint256,address)": {
        "params": {
          "amount": "Amount of calls to purchase",
          "strikeIndex": "Strike index for current epoch",
          "user": "User to purchase options for"
        },
        "returns": {
          "_0": "Whether purchase was successful"
        }
      },
      "removeFromContractWhitelist(address)": {
        "details": "remove from  the contract whitelist",
        "params": {
          "_contract": "the address of the contract to remove from the contract whitelist"
        },
        "returns": {
          "_0": "whether the contract was successfully removed from the whitelist"
        }
      },
      "renounceOwnership()": {
        "details": "Leaves the contract without owner. It will not be possible to call `onlyOwner` functions anymore. Can only be called by the current owner. NOTE: Renouncing ownership will leave the contract without an owner, thereby removing any functionality that is only available to the owner."
      },
      "setAddresses(bytes32[],address[])": {
        "params": {
          "destinations": "Addresses of the contract",
          "names": "Names of the contracts"
        },
        "returns": {
          "_0": "Whether the addresses were set"
        }
      },
      "setStrikes(uint256[])": {
        "params": {
          "strikes": "Strikes to set for next epoch"
        },
        "returns": {
          "_0": "Whether strikes were set"
        }
      },
      "settle(uint256,uint256,uint256)": {
        "params": {
          "amount": "Amount of options",
          "epoch": "The epoch",
          "strikeIndex": "Strike index"
        },
        "returns": {
          "pnl": "pnl"
        }
      },
      "transferOwnership(address)": {
        "details": "Transfers ownership of the contract to a new account (`newOwner`). Can only be called by the current owner."
      },
      "unpause()": {
        "details": "Can only be called by governance",
        "returns": {
          "_0": "Whether it was successfully unpaused"
        }
      },
      "updatePurchaseFeePercentage(uint256)": {
        "details": "Can only be called by owner",
        "params": {
          "newFee": "The new fee"
        },
        "returns": {
          "_0": "Whether it was successfully updated"
        }
      },
      "withdraw(uint256,uint256)": {
        "params": {
          "strikeIndex": "Index of strike",
          "withdrawEpoch": "Epoch to withdraw from"
        },
        "returns": {
          "_0": "DPX and rDPX withdrawn"
        }
      }
    },
    "stateVariables": {
      "addresses": {
        "details": "The list of contract addresses the contract uses"
      },
      "currentEpoch": {
        "details": "Current epoch for ssov"
      },
      "epochStartTimes": {
        "details": "epoch => the epoch start time"
      },
      "epochStrikeTokens": {
        "details": "Mapping of (epoch => (strike => tokens))"
      },
      "epochStrikes": {
        "details": "Mapping of strikes for each epoch"
      },
      "erc20Implementation": {
        "details": "ERC20PresetMinterPauserUpgradeable implementation address"
      },
      "isEpochExpired": {
        "details": "epoch => whether the epoch is expired"
      },
      "isVaultReady": {
        "details": "epoch => whether the vault is ready (boostrapped)"
      },
      "purchaseFeePercentage": {
        "details": "Purchase Fee: x% of the price of the underlying asset * the amount of options being bought * OTM Fee Multiplier"
      },
      "settlementPrices": {
        "details": "epoch => settlement price"
      },
      "totalEpochBalance": {
        "details": "mapping (epoch => deposits)"
      },
      "totalEpochCallsPurchased": {
        "details": "mapping (epoch => (strike => calls purchased))"
      },
      "totalEpochDeposits": {
        "details": "mapping (epoch => deposits)"
      },
      "totalEpochPremium": {
        "details": "mapping (epoch => (strike => premium))"
      },
      "totalEpochStrikeBalance": {
        "details": "mapping (epoch => (strike => deposits))"
      },
      "totalEpochStrikeDeposits": {
        "details": "mapping (epoch => (strike => deposits))"
      },
      "totalEpochStrikeDpxBalance": {
        "details": "mapping (epoch => (strike => balance))"
      },
      "totalEpochStrikeRdpxBalance": {
        "details": "mapping (epoch => (strike => balance))"
      },
      "userEpochCallsPurchased": {
        "details": "mapping (epoch => (abi.encodePacked(user, strike) => user calls purchased))"
      },
      "userEpochDeposits": {
        "details": "mapping (epoch => (abi.encodePacked(user, strike) => user deposits))"
      },
      "userEpochPremium": {
        "details": "mapping (epoch => (abi.encodePacked(user, strike) => user premium))"
      }
    },
    "version": 1
  },
  "userdoc": {
    "kind": "user",
    "methods": {
      "bootstrap()": {
        "notice": "Bootstraps a new epoch and mints option tokens equivalent to user deposits for the epoch"
      },
      "calculateFees(uint256,uint256,uint256)": {
        "notice": "Calculate Fees for purchase"
      },
      "calculatePnl(uint256,uint256,uint256)": {
        "notice": "Calculate Pnl"
      },
      "compound()": {
        "notice": "Allows anyone to call compound()"
      },
      "deposit(uint256,uint256,address)": {
        "notice": "Deposits dpx into the ssov to mint options in the next epoch for selected strikes"
      },
      "depositMultiple(uint256[],uint256[],address)": {
        "notice": "Deposit DPX multiple times"
      },
      "emergencyWithdraw()": {
        "notice": "Transfers all funds to msg.sender"
      },
      "expireEpoch()": {
        "notice": "Sets the current epoch as expired."
      },
      "getAddress(bytes32)": {
        "notice": "Gets the address of a set contract"
      },
      "getEpochStrikeTokens(uint256)": {
        "notice": "Returns epoch strike tokens array for an epoch"
      },
      "getEpochStrikes(uint256)": {
        "notice": "Returns epoch strikes array for an epoch"
      },
      "getEpochTimes(uint256)": {
        "notice": "Returns start and end times for an epoch"
      },
      "getMonthlyExpiryFromTimestamp(uint256)": {
        "notice": "Calculates the monthly expiry from a solidity date"
      },
      "getTotalEpochCallsPurchased(uint256)": {
        "notice": "Returns total epoch calls purchased array for an epoch"
      },
      "getTotalEpochPremium(uint256)": {
        "notice": "Returns total epoch premium array for an epoch"
      },
      "getTotalEpochStrikeDeposits(uint256)": {
        "notice": "Returns total epoch strike deposits array for an epoch"
      },
      "getUsdPrice(address)": {
        "notice": "Update & Returns token's price in USD"
      },
      "getUserEpochCallsPurchased(uint256,address)": {
        "notice": "Returns user epoch calls purchased array for an epoch"
      },
      "getUserEpochDeposits(uint256,address)": {
        "notice": "Returns user epoch deposits array for an epoch"
      },
      "getUserEpochPremium(uint256,address)": {
        "notice": "Returns user epoch premium array for an epoch"
      },
      "isEpochExpired(uint256)": {
        "notice": "Is epoch expired"
      },
      "isVaultReady(uint256)": {
        "notice": "Is vault ready for next epoch"
      },
      "pause()": {
        "notice": "Pauses the vault for emergency cases"
      },
      "purchase(uint256,uint256,address)": {
        "notice": "Purchases calls for the current epoch"
      },
      "setAddresses(bytes32[],address[])": {
        "notice": "Sets (adds) a list of addresses to the address list"
      },
      "setStrikes(uint256[])": {
        "notice": "Sets strikes for next epoch"
      },
      "settle(uint256,uint256,uint256)": {
        "notice": "Settle calculates the PnL for the user and withdraws the PnL in DPX to the user. Will also the burn the option tokens from the user."
      },
      "totalEpochBalance(uint256)": {
        "notice": "Total epoch deposits across all strikes including premiums and rewards"
      },
      "totalEpochDeposits(uint256)": {
        "notice": "Total epoch deposits across all strikes"
      },
      "totalEpochPremium(uint256,uint256)": {
        "notice": "Premium collected per strike for an epoch"
      },
      "totalEpochStrikeBalance(uint256,uint256)": {
        "notice": "Total epoch deposits for specific strikes including premiums and rewards"
      },
      "totalEpochStrikeDeposits(uint256,uint256)": {
        "notice": "Total epoch deposits for specific strikes"
      },
      "totalEpochStrikeDpxBalance(uint256,uint256)": {
        "notice": "Epoch DPX balance per strike after accounting for rewards"
      },
      "totalEpochStrikeRdpxBalance(uint256,uint256)": {
        "notice": "Epoch rDPX balance per strike after accounting for rewards"
      },
      "unpause()": {
        "notice": "Unpauses the vault"
      },
      "updatePurchaseFeePercentage(uint256)": {
        "notice": "Update the purchase fee percentage"
      },
      "userEpochCallsPurchased(uint256,bytes32)": {
        "notice": "Calls purchased by user for each strike"
      },
      "userEpochDeposits(uint256,bytes32)": {
        "notice": "Epoch deposits by user for each strike"
      },
      "userEpochPremium(uint256,bytes32)": {
        "notice": "User premium collected per strike for an epoch"
      },
      "withdraw(uint256,uint256)": {
        "notice": "Withdraws balances for a strike in a completed epoch"
      }
    },
    "version": 1
  },
  "storageLayout": {
    "storage": [
      {
        "astId": 3344,
        "contract": "contracts/SSOV/DpxSSOV.sol:DpxSSOV",
        "label": "_owner",
        "offset": 0,
        "slot": "0",
        "type": "t_address"
      },
      {
        "astId": 27686,
        "contract": "contracts/SSOV/DpxSSOV.sol:DpxSSOV",
        "label": "whitelistedContracts",
        "offset": 0,
        "slot": "1",
        "type": "t_mapping(t_address,t_bool)"
      },
      {
        "astId": 3585,
        "contract": "contracts/SSOV/DpxSSOV.sol:DpxSSOV",
        "label": "_paused",
        "offset": 0,
        "slot": "2",
        "type": "t_bool"
      },
      {
        "astId": 8848,
        "contract": "contracts/SSOV/DpxSSOV.sol:DpxSSOV",
        "label": "currentEpoch",
        "offset": 0,
        "slot": "3",
        "type": "t_uint256"
      },
      {
        "astId": 8854,
        "contract": "contracts/SSOV/DpxSSOV.sol:DpxSSOV",
        "label": "purchaseFeePercentage",
        "offset": 0,
        "slot": "4",
        "type": "t_uint256"
      },
      {
        "astId": 8859,
        "contract": "contracts/SSOV/DpxSSOV.sol:DpxSSOV",
        "label": "addresses",
        "offset": 0,
        "slot": "5",
        "type": "t_mapping(t_bytes32,t_address)"
      },
      {
        "astId": 8864,
        "contract": "contracts/SSOV/DpxSSOV.sol:DpxSSOV",
        "label": "epochStartTimes",
        "offset": 0,
        "slot": "6",
        "type": "t_mapping(t_uint256,t_uint256)"
      },
      {
        "astId": 8869,
        "contract": "contracts/SSOV/DpxSSOV.sol:DpxSSOV",
        "label": "isEpochExpired",
        "offset": 0,
        "slot": "7",
        "type": "t_mapping(t_uint256,t_bool)"
      },
      {
        "astId": 8874,
        "contract": "contracts/SSOV/DpxSSOV.sol:DpxSSOV",
        "label": "isVaultReady",
        "offset": 0,
        "slot": "8",
        "type": "t_mapping(t_uint256,t_bool)"
      },
      {
        "astId": 8880,
        "contract": "contracts/SSOV/DpxSSOV.sol:DpxSSOV",
        "label": "epochStrikes",
        "offset": 0,
        "slot": "9",
        "type": "t_mapping(t_uint256,t_array(t_uint256)dyn_storage)"
      },
      {
        "astId": 8887,
        "contract": "contracts/SSOV/DpxSSOV.sol:DpxSSOV",
        "label": "epochStrikeTokens",
        "offset": 0,
        "slot": "10",
        "type": "t_mapping(t_uint256,t_mapping(t_uint256,t_address))"
      },
      {
        "astId": 8894,
        "contract": "contracts/SSOV/DpxSSOV.sol:DpxSSOV",
        "label": "totalEpochStrikeDeposits",
        "offset": 0,
        "slot": "11",
        "type": "t_mapping(t_uint256,t_mapping(t_uint256,t_uint256))"
      },
      {
        "astId": 8899,
        "contract": "contracts/SSOV/DpxSSOV.sol:DpxSSOV",
        "label": "totalEpochDeposits",
        "offset": 0,
        "slot": "12",
        "type": "t_mapping(t_uint256,t_uint256)"
      },
      {
        "astId": 8906,
        "contract": "contracts/SSOV/DpxSSOV.sol:DpxSSOV",
        "label": "totalEpochStrikeBalance",
        "offset": 0,
        "slot": "13",
        "type": "t_mapping(t_uint256,t_mapping(t_uint256,t_uint256))"
      },
      {
        "astId": 8911,
        "contract": "contracts/SSOV/DpxSSOV.sol:DpxSSOV",
        "label": "totalEpochBalance",
        "offset": 0,
        "slot": "14",
        "type": "t_mapping(t_uint256,t_uint256)"
      },
      {
        "astId": 8918,
        "contract": "contracts/SSOV/DpxSSOV.sol:DpxSSOV",
        "label": "userEpochDeposits",
        "offset": 0,
        "slot": "15",
        "type": "t_mapping(t_uint256,t_mapping(t_bytes32,t_uint256))"
      },
      {
        "astId": 8925,
        "contract": "contracts/SSOV/DpxSSOV.sol:DpxSSOV",
        "label": "totalEpochStrikeDpxBalance",
        "offset": 0,
        "slot": "16",
        "type": "t_mapping(t_uint256,t_mapping(t_uint256,t_uint256))"
      },
      {
        "astId": 8932,
        "contract": "contracts/SSOV/DpxSSOV.sol:DpxSSOV",
        "label": "totalEpochStrikeRdpxBalance",
        "offset": 0,
        "slot": "17",
        "type": "t_mapping(t_uint256,t_mapping(t_uint256,t_uint256))"
      },
      {
        "astId": 8939,
        "contract": "contracts/SSOV/DpxSSOV.sol:DpxSSOV",
        "label": "totalEpochCallsPurchased",
        "offset": 0,
        "slot": "18",
        "type": "t_mapping(t_uint256,t_mapping(t_uint256,t_uint256))"
      },
      {
        "astId": 8946,
        "contract": "contracts/SSOV/DpxSSOV.sol:DpxSSOV",
        "label": "userEpochCallsPurchased",
        "offset": 0,
        "slot": "19",
        "type": "t_mapping(t_uint256,t_mapping(t_bytes32,t_uint256))"
      },
      {
        "astId": 8953,
        "contract": "contracts/SSOV/DpxSSOV.sol:DpxSSOV",
        "label": "totalEpochPremium",
        "offset": 0,
        "slot": "20",
        "type": "t_mapping(t_uint256,t_mapping(t_uint256,t_uint256))"
      },
      {
        "astId": 8960,
        "contract": "contracts/SSOV/DpxSSOV.sol:DpxSSOV",
        "label": "userEpochPremium",
        "offset": 0,
        "slot": "21",
        "type": "t_mapping(t_uint256,t_mapping(t_bytes32,t_uint256))"
      },
      {
        "astId": 8965,
        "contract": "contracts/SSOV/DpxSSOV.sol:DpxSSOV",
        "label": "settlementPrices",
        "offset": 0,
        "slot": "22",
        "type": "t_mapping(t_uint256,t_uint256)"
      }
    ],
    "types": {
      "t_address": {
        "encoding": "inplace",
        "label": "address",
        "numberOfBytes": "20"
      },
      "t_array(t_uint256)dyn_storage": {
        "base": "t_uint256",
        "encoding": "dynamic_array",
        "label": "uint256[]",
        "numberOfBytes": "32"
      },
      "t_bool": {
        "encoding": "inplace",
        "label": "bool",
        "numberOfBytes": "1"
      },
      "t_bytes32": {
        "encoding": "inplace",
        "label": "bytes32",
        "numberOfBytes": "32"
      },
      "t_mapping(t_address,t_bool)": {
        "encoding": "mapping",
        "key": "t_address",
        "label": "mapping(address => bool)",
        "numberOfBytes": "32",
        "value": "t_bool"
      },
      "t_mapping(t_bytes32,t_address)": {
        "encoding": "mapping",
        "key": "t_bytes32",
        "label": "mapping(bytes32 => address)",
        "numberOfBytes": "32",
        "value": "t_address"
      },
      "t_mapping(t_bytes32,t_uint256)": {
        "encoding": "mapping",
        "key": "t_bytes32",
        "label": "mapping(bytes32 => uint256)",
        "numberOfBytes": "32",
        "value": "t_uint256"
      },
      "t_mapping(t_uint256,t_address)": {
        "encoding": "mapping",
        "key": "t_uint256",
        "label": "mapping(uint256 => address)",
        "numberOfBytes": "32",
        "value": "t_address"
      },
      "t_mapping(t_uint256,t_array(t_uint256)dyn_storage)": {
        "encoding": "mapping",
        "key": "t_uint256",
        "label": "mapping(uint256 => uint256[])",
        "numberOfBytes": "32",
        "value": "t_array(t_uint256)dyn_storage"
      },
      "t_mapping(t_uint256,t_bool)": {
        "encoding": "mapping",
        "key": "t_uint256",
        "label": "mapping(uint256 => bool)",
        "numberOfBytes": "32",
        "value": "t_bool"
      },
      "t_mapping(t_uint256,t_mapping(t_bytes32,t_uint256))": {
        "encoding": "mapping",
        "key": "t_uint256",
        "label": "mapping(uint256 => mapping(bytes32 => uint256))",
        "numberOfBytes": "32",
        "value": "t_mapping(t_bytes32,t_uint256)"
      },
      "t_mapping(t_uint256,t_mapping(t_uint256,t_address))": {
        "encoding": "mapping",
        "key": "t_uint256",
        "label": "mapping(uint256 => mapping(uint256 => address))",
        "numberOfBytes": "32",
        "value": "t_mapping(t_uint256,t_address)"
      },
      "t_mapping(t_uint256,t_mapping(t_uint256,t_uint256))": {
        "encoding": "mapping",
        "key": "t_uint256",
        "label": "mapping(uint256 => mapping(uint256 => uint256))",
        "numberOfBytes": "32",
        "value": "t_mapping(t_uint256,t_uint256)"
      },
      "t_mapping(t_uint256,t_uint256)": {
        "encoding": "mapping",
        "key": "t_uint256",
        "label": "mapping(uint256 => uint256)",
        "numberOfBytes": "32",
        "value": "t_uint256"
      },
      "t_uint256": {
        "encoding": "inplace",
        "label": "uint256",
        "numberOfBytes": "32"
      }
    }
  }
}