{
  "address": "0x60E07B25Ba79bf8D40831cdbDA60CF49571c7Ee0",
  "abi": [
    {
      "anonymous": false,
      "inputs": [
        {
          "indexed": true,
          "internalType": "address",
          "name": "previousOwner",
          "type": "address"
        },
        {
          "indexed": true,
          "internalType": "address",
          "name": "newOwner",
          "type": "address"
        }
      ],
      "name": "OwnershipTransferred",
      "type": "event"
    },
    {
      "anonymous": false,
      "inputs": [
        {
          "indexed": false,
          "internalType": "uint32",
          "name": "_twapPeriod",
          "type": "uint32"
        }
      ],
      "name": "TwapPeriodUpdate",
      "type": "event"
    },
    {
      "inputs": [],
      "name": "ethChainlinkAggregator",
      "outputs": [
        {
          "internalType": "address",
          "name": "",
          "type": "address"
        }
      ],
      "stateMutability": "view",
      "type": "function"
    },
    {
      "inputs": [],
      "name": "getETHPriceInUSD",
      "outputs": [
        {
          "internalType": "uint256",
          "name": "",
          "type": "uint256"
        }
      ],
      "stateMutability": "view",
      "type": "function"
    },
    {
      "inputs": [
        {
          "internalType": "uint32",
          "name": "_twapPeriod",
          "type": "uint32"
        }
      ],
      "name": "getPriceInETH",
      "outputs": [
        {
          "internalType": "uint256",
          "name": "",
          "type": "uint256"
        }
      ],
      "stateMutability": "view",
      "type": "function"
    },
    {
      "inputs": [],
      "name": "getPriceInUSD",
      "outputs": [
        {
          "internalType": "uint256",
          "name": "",
          "type": "uint256"
        }
      ],
      "stateMutability": "view",
      "type": "function"
    },
    {
      "inputs": [],
      "name": "gmx",
      "outputs": [
        {
          "internalType": "address",
          "name": "",
          "type": "address"
        }
      ],
      "stateMutability": "view",
      "type": "function"
    },
    {
      "inputs": [],
      "name": "gmxWethUniV3Pool",
      "outputs": [
        {
          "internalType": "address",
          "name": "",
          "type": "address"
        }
      ],
      "stateMutability": "view",
      "type": "function"
    },
    {
      "inputs": [],
      "name": "owner",
      "outputs": [
        {
          "internalType": "address",
          "name": "",
          "type": "address"
        }
      ],
      "stateMutability": "view",
      "type": "function"
    },
    {
      "inputs": [],
      "name": "renounceOwnership",
      "outputs": [],
      "stateMutability": "nonpayable",
      "type": "function"
    },
    {
      "inputs": [
        {
          "internalType": "address",
          "name": "newOwner",
          "type": "address"
        }
      ],
      "name": "transferOwnership",
      "outputs": [],
      "stateMutability": "nonpayable",
      "type": "function"
    },
    {
      "inputs": [],
      "name": "twapPeriod",
      "outputs": [
        {
          "internalType": "uint32",
          "name": "",
          "type": "uint32"
        }
      ],
      "stateMutability": "view",
      "type": "function"
    },
    {
      "inputs": [
        {
          "internalType": "uint32",
          "name": "_twapPeriod",
          "type": "uint32"
        }
      ],
      "name": "updateTwapPeriod",
      "outputs": [],
      "stateMutability": "nonpayable",
      "type": "function"
    },
    {
      "inputs": [],
      "name": "weth",
      "outputs": [
        {
          "internalType": "address",
          "name": "",
          "type": "address"
        }
      ],
      "stateMutability": "view",
      "type": "function"
    }
  ],
  "transactionHash": "0xc7eebd916334bd5bbb483b4e52a54944d60f1e42bd4becca7e222deb7d8fdc10",
  "args": [],
  "numDeployments": 1,
  "solcInputHash": "e91cfbbe69b15ffd0623fafc82c375af",
  "bytecode": "0x60806040526000805463ffffffff60a01b191660e160a31b17905534801561002657600080fd5b5061003761003261003c565b610040565b610090565b3390565b600080546001600160a01b038381166001600160a01b0319831681178455604051919092169283917f8be0079c531659141344cd1fd0a4f28419497f9722a3daafe3b4186f6b6457e09190a35050565b610e6b8061009f6000396000f3fe608060405234801561001057600080fd5b50600436106100b45760003560e01c8063b62e3c5a11610071578063b62e3c5a14610134578063d7ddccc81461013c578063e1aa60361461015f578063e2100ae814610167578063f2fde38b1461016f578063f620732614610195576100b4565b8063025f2201146100b957806331e67c71146100ee5780633fc8cef31461011257806364d23c1a1461011a578063715018a6146101225780638da5cb5b1461012c575b600080fd5b6100dc600480360360208110156100cf57600080fd5b503563ffffffff166101b6565b60408051918252519081900360200190f35b6100f661021d565b604080516001600160a01b039092168252519081900360200190f35b6100f6610235565b6100f661024d565b61012a610265565b005b6100f66102e5565b6100dc6102f4565b61012a6004803603602081101561015257600080fd5b503563ffffffff16610379565b6100dc610447565b6100f6610484565b61012a6004803603602081101561018557600080fd5b50356001600160a01b031661049c565b61019d610561565b6040805163ffffffff9092168252519081900360200190f35b6000806101d77380a9ae39310abf666a87c743d6ebbd0e8c42158e84610574565b50905061021681670de0b6b3a764000073fc5a1a6eb076a2c7ad06ed22c90d7e710e35ad0a7382af49447d8a07e3bd95bd0d56f35241523fbab16108e3565b9392505050565b73fc5a1a6eb076a2c7ad06ed22c90d7e710e35ad0a81565b7382af49447d8a07e3bd95bd0d56f35241523fbab181565b73639fe6ab55c921f74e7fac1ee960c0b6293ba61281565b61026d6109da565b6001600160a01b031661027e6102e5565b6001600160a01b0316146102d9576040805162461bcd60e51b815260206004820181905260248201527f4f776e61626c653a2063616c6c6572206973206e6f7420746865206f776e6572604482015290519081900360640190fd5b6102e360006109de565b565b6000546001600160a01b031690565b60008073639fe6ab55c921f74e7fac1ee960c0b6293ba6126001600160a01b031663feaf968c6040518163ffffffff1660e01b815260040160a06040518083038186803b15801561034457600080fd5b505afa158015610358573d6000803e3d6000fd5b505050506040513d60a081101561036e57600080fd5b506020015191505090565b6103816109da565b6001600160a01b03166103926102e5565b6001600160a01b0316146103ed576040805162461bcd60e51b815260206004820181905260248201527f4f776e61626c653a2063616c6c6572206973206e6f7420746865206f776e6572604482015290519081900360640190fd5b6000805463ffffffff8316600160a01b810263ffffffff60a01b199092169190911790915560408051918252517fe720081ed3c39a88528c675f87db5b453f8bc475153d43bd4c7e8898267b24729181900360200190a150565b60008054819061046390600160a01b900463ffffffff166101b6565b9050600061046f6102f4565b670de0b6b3a764000092029190910492915050565b7380a9ae39310abf666a87c743d6ebbd0e8c42158e81565b6104a46109da565b6001600160a01b03166104b56102e5565b6001600160a01b031614610510576040805162461bcd60e51b815260206004820181905260248201527f4f776e61626c653a2063616c6c6572206973206e6f7420746865206f776e6572604482015290519081900360640190fd5b6001600160a01b0381166105555760405162461bcd60e51b8152600401808060200182810382526026815260200180610e106026913960400191505060405180910390fd5b61055e816109de565b50565b600054600160a01b900463ffffffff1681565b60008063ffffffff83166105b4576040805162461bcd60e51b8152602060048201526002602482015261042560f41b604482015290519081900360640190fd5b604080516002808252606080830184529260208301908036833701905050905083816000815181106105e257fe5b602002602001019063ffffffff16908163ffffffff168152505060008160018151811061060b57fe5b63ffffffff90921660209283029190910182015260405163883bdbfd60e01b81526004810182815283516024830152835160609384936001600160a01b038b169363883bdbfd93889391928392604490910191858201910280838360005b83811015610681578181015183820152602001610669565b505050509050019250505060006040518083038186803b1580156106a457600080fd5b505afa1580156106b8573d6000803e3d6000fd5b505050506040513d6000823e601f3d908101601f1916820160409081528110156106e157600080fd5b810190808051604051939291908464010000000082111561070157600080fd5b90830190602082018581111561071657600080fd5b825186602082028301116401000000008211171561073357600080fd5b82525081516020918201928201910280838360005b83811015610760578181015183820152602001610748565b505050509050016040526020018051604051939291908464010000000082111561078957600080fd5b90830190602082018581111561079e57600080fd5b82518660208202830111640100000000821117156107bb57600080fd5b82525081516020918201928201910280838360005b838110156107e85781810151838201526020016107d0565b505050509050016040525050509150915060008260008151811061080857fe5b60200260200101518360018151811061081d57fe5b602002602001015103905060008260008151811061083757fe5b60200260200101518360018151811061084c57fe5b60200260200101510390508763ffffffff168260060b8161086957fe5b05965060008260060b12801561089357508763ffffffff168260060b8161088c57fe5b0760060b15155b156108a057600019909601955b63ffffffff88166001600160a01b0302640100000000600160c01b03602083901b166001600160c01b038216816108d357fe5b0496505050505050509250929050565b6000806108ef86610a2e565b90506001600160801b036001600160a01b0382161161095e576001600160a01b038082168002908481169086161061093e57610939600160c01b876001600160801b031683610d60565b610956565b61095681876001600160801b0316600160c01b610d60565b9250506109d1565b600061097d6001600160a01b0383168068010000000000000000610d60565b9050836001600160a01b0316856001600160a01b0316106109b5576109b0600160801b876001600160801b031683610d60565b6109cd565b6109cd81876001600160801b0316600160801b610d60565b9250505b50949350505050565b3390565b600080546001600160a01b038381166001600160a01b0319831681178455604051919092169283917f8be0079c531659141344cd1fd0a4f28419497f9722a3daafe3b4186f6b6457e09190a35050565b60008060008360020b12610a45578260020b610a4d565b8260020b6000035b9050620d89e8811115610a8b576040805162461bcd60e51b81526020600482015260016024820152601560fa1b604482015290519081900360640190fd5b600060018216610a9f57600160801b610ab1565b6ffffcb933bd6fad37aa2d162d1a5940015b70ffffffffffffffffffffffffffffffffff1690506002821615610ae5576ffff97272373d413259a46990580e213a0260801c5b6004821615610b04576ffff2e50f5f656932ef12357cf3c7fdcc0260801c5b6008821615610b23576fffe5caca7e10e4e61c3624eaa0941cd00260801c5b6010821615610b42576fffcb9843d60f6159c9db58835c9266440260801c5b6020821615610b61576fff973b41fa98c081472e6896dfb254c00260801c5b6040821615610b80576fff2ea16466c96a3843ec78b326b528610260801c5b6080821615610b9f576ffe5dee046a99a2a811c461f1969c30530260801c5b610100821615610bbf576ffcbe86c7900a88aedcffc83b479aa3a40260801c5b610200821615610bdf576ff987a7253ac413176f2b074cf7815e540260801c5b610400821615610bff576ff3392b0822b70005940c7a398e4b70f30260801c5b610800821615610c1f576fe7159475a2c29b7443b29c7fa6e889d90260801c5b611000821615610c3f576fd097f3bdfd2022b8845ad8f792aa58250260801c5b612000821615610c5f576fa9f746462d870fdf8a65dc1f90e061e50260801c5b614000821615610c7f576f70d869a156d2a1b890bb3df62baf32f70260801c5b618000821615610c9f576f31be135f97d08fd981231505542fcfa60260801c5b62010000821615610cc0576f09aa508b5b7a84e1c677de54f3e99bc90260801c5b62020000821615610ce0576e5d6af8dedb81196699c329225ee6040260801c5b62040000821615610cff576d2216e584f5fa1ea926041bedfe980260801c5b62080000821615610d1c576b048a170391f7dc42444e8fa20260801c5b60008460020b1315610d37578060001981610d3357fe5b0490505b640100000000810615610d4b576001610d4e565b60005b60ff16602082901c0192505050919050565b6000808060001985870986860292508281109083900303905080610d965760008411610d8b57600080fd5b508290049050610216565b808411610da257600080fd5b6000848688096000868103871696879004966002600389028118808a02820302808a02820302808a02820302808a02820302808a02820302808a0290910302918190038190046001018684119095039490940291909403929092049190911791909102915050939250505056fe4f776e61626c653a206e6577206f776e657220697320746865207a65726f2061646472657373a26469706673582212208a9c911829357f8a3484947720a7682e3d16162456f84ebb2d2344245045f80564736f6c634300060c0033",
  "devdoc": {
    "kind": "dev",
    "methods": {
      "owner()": {
        "details": "Returns the address of the current owner."
      },
      "renounceOwnership()": {
        "details": "Leaves the contract without owner. It will not be possible to call `onlyOwner` functions anymore. Can only be called by the current owner. NOTE: Renouncing ownership will leave the contract without an owner, thereby removing any functionality that is only available to the owner."
      },
      "transferOwnership(address)": {
        "details": "Transfers ownership of the contract to a new account (`newOwner`). Can only be called by the current owner."
      }
    },
    "version": 1
  },
  "userdoc": {
    "kind": "user",
    "methods": {},
    "version": 1
  },
  "storageLayout": {
    "storage": [
      {
        "astId": 1703,
        "contract": "contracts/oracle/GmxPriceOracle.sol:GmxPriceOracle",
        "label": "_owner",
        "offset": 0,
        "slot": "0",
        "type": "t_address"
      },
      {
        "astId": 1842,
        "contract": "contracts/oracle/GmxPriceOracle.sol:GmxPriceOracle",
        "label": "twapPeriod",
        "offset": 20,
        "slot": "0",
        "type": "t_uint32"
      }
    ],
    "types": {
      "t_address": {
        "encoding": "inplace",
        "label": "address",
        "numberOfBytes": "20"
      },
      "t_uint32": {
        "encoding": "inplace",
        "label": "uint32",
        "numberOfBytes": "4"
      }
    }
  }
}