{
  "address": "0x04996AFcf40A14D0892B00C816874F9C1A52C93B",
  "abi": [
    {
      "inputs": [
        {
          "internalType": "bytes32[]",
          "name": "sources",
          "type": "bytes32[]"
        },
        {
          "internalType": "address[]",
          "name": "destinations",
          "type": "address[]"
        }
      ],
      "stateMutability": "nonpayable",
      "type": "constructor"
    },
    {
      "inputs": [
        {
          "internalType": "bytes32",
          "name": "source",
          "type": "bytes32"
        },
        {
          "internalType": "address",
          "name": "destination",
          "type": "address"
        }
      ],
      "name": "ZeroAddress",
      "type": "error"
    },
    {
      "anonymous": false,
      "inputs": [
        {
          "indexed": true,
          "internalType": "address",
          "name": "_contract",
          "type": "address"
        }
      ],
      "name": "AddToContractWhitelist",
      "type": "event"
    },
    {
      "anonymous": false,
      "inputs": [
        {
          "indexed": true,
          "internalType": "bytes32",
          "name": "name",
          "type": "bytes32"
        },
        {
          "indexed": true,
          "internalType": "address",
          "name": "destination",
          "type": "address"
        }
      ],
      "name": "AddressSet",
      "type": "event"
    },
    {
      "anonymous": false,
      "inputs": [
        {
          "indexed": false,
          "internalType": "uint256",
          "name": "epoch",
          "type": "uint256"
        }
      ],
      "name": "Bootstrap",
      "type": "event"
    },
    {
      "anonymous": false,
      "inputs": [
        {
          "indexed": false,
          "internalType": "address",
          "name": "sender",
          "type": "address"
        },
        {
          "indexed": false,
          "internalType": "uint256",
          "name": "gmxWithdrawn",
          "type": "uint256"
        }
      ],
      "name": "EmergencyWithdraw",
      "type": "event"
    },
    {
      "anonymous": false,
      "inputs": [
        {
          "indexed": false,
          "internalType": "uint256",
          "name": "expireDelayTolerance",
          "type": "uint256"
        }
      ],
      "name": "ExpireDelayToleranceUpdate",
      "type": "event"
    },
    {
      "anonymous": false,
      "inputs": [
        {
          "indexed": false,
          "internalType": "uint256",
          "name": "epoch",
          "type": "uint256"
        },
        {
          "indexed": false,
          "internalType": "uint256",
          "name": "strike",
          "type": "uint256"
        },
        {
          "indexed": false,
          "internalType": "uint256",
          "name": "amount",
          "type": "uint256"
        },
        {
          "indexed": false,
          "internalType": "address",
          "name": "user",
          "type": "address"
        },
        {
          "indexed": false,
          "internalType": "address",
          "name": "sender",
          "type": "address"
        }
      ],
      "name": "NewDeposit",
      "type": "event"
    },
    {
      "anonymous": false,
      "inputs": [
        {
          "indexed": false,
          "internalType": "uint256",
          "name": "epoch",
          "type": "uint256"
        },
        {
          "indexed": false,
          "internalType": "uint256",
          "name": "strike",
          "type": "uint256"
        },
        {
          "indexed": false,
          "internalType": "uint256",
          "name": "amount",
          "type": "uint256"
        },
        {
          "indexed": false,
          "internalType": "uint256",
          "name": "premium",
          "type": "uint256"
        },
        {
          "indexed": false,
          "internalType": "uint256",
          "name": "fee",
          "type": "uint256"
        },
        {
          "indexed": false,
          "internalType": "address",
          "name": "user",
          "type": "address"
        },
        {
          "indexed": false,
          "internalType": "address",
          "name": "sender",
          "type": "address"
        }
      ],
      "name": "NewPurchase",
      "type": "event"
    },
    {
      "anonymous": false,
      "inputs": [
        {
          "indexed": false,
          "internalType": "uint256",
          "name": "epoch",
          "type": "uint256"
        },
        {
          "indexed": false,
          "internalType": "uint256",
          "name": "strike",
          "type": "uint256"
        },
        {
          "indexed": false,
          "internalType": "address",
          "name": "user",
          "type": "address"
        },
        {
          "indexed": false,
          "internalType": "uint256",
          "name": "amount",
          "type": "uint256"
        },
        {
          "indexed": false,
          "internalType": "uint256",
          "name": "pnl",
          "type": "uint256"
        }
      ],
      "name": "NewSettle",
      "type": "event"
    },
    {
      "anonymous": false,
      "inputs": [
        {
          "indexed": false,
          "internalType": "uint256",
          "name": "epoch",
          "type": "uint256"
        },
        {
          "indexed": false,
          "internalType": "uint256",
          "name": "strike",
          "type": "uint256"
        }
      ],
      "name": "NewStrike",
      "type": "event"
    },
    {
      "anonymous": false,
      "inputs": [
        {
          "indexed": false,
          "internalType": "uint256",
          "name": "epoch",
          "type": "uint256"
        },
        {
          "indexed": false,
          "internalType": "uint256",
          "name": "strike",
          "type": "uint256"
        },
        {
          "indexed": false,
          "internalType": "address",
          "name": "user",
          "type": "address"
        },
        {
          "indexed": false,
          "internalType": "uint256",
          "name": "amount",
          "type": "uint256"
        },
        {
          "indexed": false,
          "internalType": "uint256",
          "name": "gmxAmount",
          "type": "uint256"
        }
      ],
      "name": "NewWithdraw",
      "type": "event"
    },
    {
      "anonymous": false,
      "inputs": [
        {
          "indexed": true,
          "internalType": "address",
          "name": "previousOwner",
          "type": "address"
        },
        {
          "indexed": true,
          "internalType": "address",
          "name": "newOwner",
          "type": "address"
        }
      ],
      "name": "OwnershipTransferred",
      "type": "event"
    },
    {
      "anonymous": false,
      "inputs": [
        {
          "indexed": false,
          "internalType": "address",
          "name": "account",
          "type": "address"
        }
      ],
      "name": "Paused",
      "type": "event"
    },
    {
      "anonymous": false,
      "inputs": [
        {
          "indexed": true,
          "internalType": "address",
          "name": "_contract",
          "type": "address"
        }
      ],
      "name": "RemoveFromContractWhitelist",
      "type": "event"
    },
    {
      "anonymous": false,
      "inputs": [
        {
          "indexed": false,
          "internalType": "address",
          "name": "account",
          "type": "address"
        }
      ],
      "name": "Unpaused",
      "type": "event"
    },
    {
      "inputs": [
        {
          "internalType": "address",
          "name": "_contract",
          "type": "address"
        }
      ],
      "name": "addToContractWhitelist",
      "outputs": [
        {
          "internalType": "bool",
          "name": "",
          "type": "bool"
        }
      ],
      "stateMutability": "nonpayable",
      "type": "function"
    },
    {
      "inputs": [
        {
          "internalType": "bytes32",
          "name": "",
          "type": "bytes32"
        }
      ],
      "name": "addresses",
      "outputs": [
        {
          "internalType": "address",
          "name": "",
          "type": "address"
        }
      ],
      "stateMutability": "view",
      "type": "function"
    },
    {
      "inputs": [],
      "name": "bootstrap",
      "outputs": [
        {
          "internalType": "bool",
          "name": "",
          "type": "bool"
        }
      ],
      "stateMutability": "nonpayable",
      "type": "function"
    },
    {
      "inputs": [
        {
          "internalType": "uint256",
          "name": "price",
          "type": "uint256"
        },
        {
          "internalType": "uint256",
          "name": "strike",
          "type": "uint256"
        },
        {
          "internalType": "uint256",
          "name": "amount",
          "type": "uint256"
        }
      ],
      "name": "calculatePnl",
      "outputs": [
        {
          "internalType": "uint256",
          "name": "",
          "type": "uint256"
        }
      ],
      "stateMutability": "pure",
      "type": "function"
    },
    {
      "inputs": [
        {
          "internalType": "uint256",
          "name": "_strike",
          "type": "uint256"
        },
        {
          "internalType": "uint256",
          "name": "_amount",
          "type": "uint256"
        }
      ],
      "name": "calculatePremium",
      "outputs": [
        {
          "internalType": "uint256",
          "name": "premium",
          "type": "uint256"
        }
      ],
      "stateMutability": "view",
      "type": "function"
    },
    {
      "inputs": [
        {
          "internalType": "uint256",
          "name": "price",
          "type": "uint256"
        },
        {
          "internalType": "uint256",
          "name": "strike",
          "type": "uint256"
        },
        {
          "internalType": "uint256",
          "name": "amount",
          "type": "uint256"
        }
      ],
      "name": "calculatePurchaseFees",
      "outputs": [
        {
          "internalType": "uint256",
          "name": "",
          "type": "uint256"
        }
      ],
      "stateMutability": "view",
      "type": "function"
    },
    {
      "inputs": [
        {
          "internalType": "uint256",
          "name": "settlementPrice",
          "type": "uint256"
        },
        {
          "internalType": "uint256",
          "name": "pnl",
          "type": "uint256"
        },
        {
          "internalType": "uint256",
          "name": "amount",
          "type": "uint256"
        }
      ],
      "name": "calculateSettlementFees",
      "outputs": [
        {
          "internalType": "uint256",
          "name": "",
          "type": "uint256"
        }
      ],
      "stateMutability": "view",
      "type": "function"
    },
    {
      "inputs": [],
      "name": "compound",
      "outputs": [
        {
          "internalType": "bool",
          "name": "",
          "type": "bool"
        }
      ],
      "stateMutability": "nonpayable",
      "type": "function"
    },
    {
      "inputs": [],
      "name": "currentEpoch",
      "outputs": [
        {
          "internalType": "uint256",
          "name": "",
          "type": "uint256"
        }
      ],
      "stateMutability": "view",
      "type": "function"
    },
    {
      "inputs": [
        {
          "internalType": "uint256",
          "name": "strikeIndex",
          "type": "uint256"
        },
        {
          "internalType": "uint256",
          "name": "amount",
          "type": "uint256"
        },
        {
          "internalType": "address",
          "name": "user",
          "type": "address"
        }
      ],
      "name": "deposit",
      "outputs": [
        {
          "internalType": "bool",
          "name": "",
          "type": "bool"
        }
      ],
      "stateMutability": "nonpayable",
      "type": "function"
    },
    {
      "inputs": [
        {
          "internalType": "uint256[]",
          "name": "strikeIndices",
          "type": "uint256[]"
        },
        {
          "internalType": "uint256[]",
          "name": "amounts",
          "type": "uint256[]"
        },
        {
          "internalType": "address",
          "name": "user",
          "type": "address"
        }
      ],
      "name": "depositMultiple",
      "outputs": [
        {
          "internalType": "bool",
          "name": "",
          "type": "bool"
        }
      ],
      "stateMutability": "nonpayable",
      "type": "function"
    },
    {
      "inputs": [],
      "name": "emergencyWithdraw",
      "outputs": [
        {
          "internalType": "bool",
          "name": "",
          "type": "bool"
        }
      ],
      "stateMutability": "nonpayable",
      "type": "function"
    },
    {
      "inputs": [
        {
          "internalType": "uint256",
          "name": "",
          "type": "uint256"
        }
      ],
      "name": "epochStartTimes",
      "outputs": [
        {
          "internalType": "uint256",
          "name": "",
          "type": "uint256"
        }
      ],
      "stateMutability": "view",
      "type": "function"
    },
    {
      "inputs": [
        {
          "internalType": "uint256",
          "name": "",
          "type": "uint256"
        },
        {
          "internalType": "uint256",
          "name": "",
          "type": "uint256"
        }
      ],
      "name": "epochStrikeTokens",
      "outputs": [
        {
          "internalType": "address",
          "name": "",
          "type": "address"
        }
      ],
      "stateMutability": "view",
      "type": "function"
    },
    {
      "inputs": [
        {
          "internalType": "uint256",
          "name": "",
          "type": "uint256"
        },
        {
          "internalType": "uint256",
          "name": "",
          "type": "uint256"
        }
      ],
      "name": "epochStrikes",
      "outputs": [
        {
          "internalType": "uint256",
          "name": "",
          "type": "uint256"
        }
      ],
      "stateMutability": "view",
      "type": "function"
    },
    {
      "inputs": [],
      "name": "erc20Implementation",
      "outputs": [
        {
          "internalType": "address",
          "name": "",
          "type": "address"
        }
      ],
      "stateMutability": "view",
      "type": "function"
    },
    {
      "inputs": [],
      "name": "expireDelayTolerance",
      "outputs": [
        {
          "internalType": "uint256",
          "name": "",
          "type": "uint256"
        }
      ],
      "stateMutability": "view",
      "type": "function"
    },
    {
      "inputs": [],
      "name": "expireEpoch",
      "outputs": [
        {
          "internalType": "bool",
          "name": "",
          "type": "bool"
        }
      ],
      "stateMutability": "nonpayable",
      "type": "function"
    },
    {
      "inputs": [
        {
          "internalType": "uint256",
          "name": "settlementPrice",
          "type": "uint256"
        }
      ],
      "name": "expireEpoch",
      "outputs": [
        {
          "internalType": "bool",
          "name": "",
          "type": "bool"
        }
      ],
      "stateMutability": "nonpayable",
      "type": "function"
    },
    {
      "inputs": [
        {
          "internalType": "bytes32",
          "name": "name",
          "type": "bytes32"
        }
      ],
      "name": "getAddress",
      "outputs": [
        {
          "internalType": "address",
          "name": "",
          "type": "address"
        }
      ],
      "stateMutability": "view",
      "type": "function"
    },
    {
      "inputs": [
        {
          "internalType": "uint256",
          "name": "epoch",
          "type": "uint256"
        }
      ],
      "name": "getEpochStrikeTokens",
      "outputs": [
        {
          "internalType": "address[]",
          "name": "",
          "type": "address[]"
        }
      ],
      "stateMutability": "view",
      "type": "function"
    },
    {
      "inputs": [
        {
          "internalType": "uint256",
          "name": "epoch",
          "type": "uint256"
        }
      ],
      "name": "getEpochStrikes",
      "outputs": [
        {
          "internalType": "uint256[]",
          "name": "",
          "type": "uint256[]"
        }
      ],
      "stateMutability": "view",
      "type": "function"
    },
    {
      "inputs": [
        {
          "internalType": "uint256",
          "name": "epoch",
          "type": "uint256"
        }
      ],
      "name": "getEpochTimes",
      "outputs": [
        {
          "internalType": "uint256",
          "name": "start",
          "type": "uint256"
        },
        {
          "internalType": "uint256",
          "name": "end",
          "type": "uint256"
        }
      ],
      "stateMutability": "view",
      "type": "function"
    },
    {
      "inputs": [
        {
          "internalType": "uint256",
          "name": "timestamp",
          "type": "uint256"
        }
      ],
      "name": "getMonthlyExpiryFromTimestamp",
      "outputs": [
        {
          "internalType": "uint256",
          "name": "",
          "type": "uint256"
        }
      ],
      "stateMutability": "pure",
      "type": "function"
    },
    {
      "inputs": [
        {
          "internalType": "uint256",
          "name": "epoch",
          "type": "uint256"
        }
      ],
      "name": "getTotalEpochCallsPurchased",
      "outputs": [
        {
          "internalType": "uint256[]",
          "name": "",
          "type": "uint256[]"
        }
      ],
      "stateMutability": "view",
      "type": "function"
    },
    {
      "inputs": [
        {
          "internalType": "uint256",
          "name": "epoch",
          "type": "uint256"
        }
      ],
      "name": "getTotalEpochPremium",
      "outputs": [
        {
          "internalType": "uint256[]",
          "name": "",
          "type": "uint256[]"
        }
      ],
      "stateMutability": "view",
      "type": "function"
    },
    {
      "inputs": [
        {
          "internalType": "uint256",
          "name": "epoch",
          "type": "uint256"
        }
      ],
      "name": "getTotalEpochStrikeDeposits",
      "outputs": [
        {
          "internalType": "uint256[]",
          "name": "",
          "type": "uint256[]"
        }
      ],
      "stateMutability": "view",
      "type": "function"
    },
    {
      "inputs": [],
      "name": "getUsdPrice",
      "outputs": [
        {
          "internalType": "uint256",
          "name": "",
          "type": "uint256"
        }
      ],
      "stateMutability": "view",
      "type": "function"
    },
    {
      "inputs": [
        {
          "internalType": "uint256",
          "name": "epoch",
          "type": "uint256"
        },
        {
          "internalType": "address",
          "name": "user",
          "type": "address"
        }
      ],
      "name": "getUserEpochCallsPurchased",
      "outputs": [
        {
          "internalType": "uint256[]",
          "name": "",
          "type": "uint256[]"
        }
      ],
      "stateMutability": "view",
      "type": "function"
    },
    {
      "inputs": [
        {
          "internalType": "uint256",
          "name": "epoch",
          "type": "uint256"
        },
        {
          "internalType": "address",
          "name": "user",
          "type": "address"
        }
      ],
      "name": "getUserEpochDeposits",
      "outputs": [
        {
          "internalType": "uint256[]",
          "name": "",
          "type": "uint256[]"
        }
      ],
      "stateMutability": "view",
      "type": "function"
    },
    {
      "inputs": [
        {
          "internalType": "uint256",
          "name": "epoch",
          "type": "uint256"
        },
        {
          "internalType": "address",
          "name": "user",
          "type": "address"
        }
      ],
      "name": "getUserEpochPremium",
      "outputs": [
        {
          "internalType": "uint256[]",
          "name": "",
          "type": "uint256[]"
        }
      ],
      "stateMutability": "view",
      "type": "function"
    },
    {
      "inputs": [
        {
          "internalType": "uint256",
          "name": "withdrawEpoch",
          "type": "uint256"
        },
        {
          "internalType": "address",
          "name": "receiver",
          "type": "address"
        }
      ],
      "name": "initiateEsGmxRewardsTransfer",
      "outputs": [
        {
          "internalType": "uint256",
          "name": "",
          "type": "uint256"
        }
      ],
      "stateMutability": "nonpayable",
      "type": "function"
    },
    {
      "inputs": [
        {
          "internalType": "address",
          "name": "addr",
          "type": "address"
        }
      ],
      "name": "isContract",
      "outputs": [
        {
          "internalType": "bool",
          "name": "",
          "type": "bool"
        }
      ],
      "stateMutability": "view",
      "type": "function"
    },
    {
      "inputs": [
        {
          "internalType": "uint256",
          "name": "",
          "type": "uint256"
        }
      ],
      "name": "isEpochExpired",
      "outputs": [
        {
          "internalType": "bool",
          "name": "",
          "type": "bool"
        }
      ],
      "stateMutability": "view",
      "type": "function"
    },
    {
      "inputs": [
        {
          "internalType": "uint256",
          "name": "",
          "type": "uint256"
        }
      ],
      "name": "isVaultReady",
      "outputs": [
        {
          "internalType": "bool",
          "name": "",
          "type": "bool"
        }
      ],
      "stateMutability": "view",
      "type": "function"
    },
    {
      "inputs": [],
      "name": "owner",
      "outputs": [
        {
          "internalType": "address",
          "name": "",
          "type": "address"
        }
      ],
      "stateMutability": "view",
      "type": "function"
    },
    {
      "inputs": [],
      "name": "pause",
      "outputs": [
        {
          "internalType": "bool",
          "name": "",
          "type": "bool"
        }
      ],
      "stateMutability": "nonpayable",
      "type": "function"
    },
    {
      "inputs": [],
      "name": "paused",
      "outputs": [
        {
          "internalType": "bool",
          "name": "",
          "type": "bool"
        }
      ],
      "stateMutability": "view",
      "type": "function"
    },
    {
      "inputs": [
        {
          "internalType": "uint256",
          "name": "strikeIndex",
          "type": "uint256"
        },
        {
          "internalType": "uint256",
          "name": "amount",
          "type": "uint256"
        },
        {
          "internalType": "address",
          "name": "user",
          "type": "address"
        }
      ],
      "name": "purchase",
      "outputs": [
        {
          "internalType": "uint256",
          "name": "",
          "type": "uint256"
        },
        {
          "internalType": "uint256",
          "name": "",
          "type": "uint256"
        }
      ],
      "stateMutability": "nonpayable",
      "type": "function"
    },
    {
      "inputs": [
        {
          "internalType": "address",
          "name": "_contract",
          "type": "address"
        }
      ],
      "name": "removeFromContractWhitelist",
      "outputs": [
        {
          "internalType": "bool",
          "name": "",
          "type": "bool"
        }
      ],
      "stateMutability": "nonpayable",
      "type": "function"
    },
    {
      "inputs": [],
      "name": "renounceOwnership",
      "outputs": [],
      "stateMutability": "nonpayable",
      "type": "function"
    },
    {
      "inputs": [
        {
          "internalType": "bytes32[]",
          "name": "names",
          "type": "bytes32[]"
        },
        {
          "internalType": "address[]",
          "name": "destinations",
          "type": "address[]"
        }
      ],
      "name": "setAddresses",
      "outputs": [
        {
          "internalType": "bool",
          "name": "",
          "type": "bool"
        }
      ],
      "stateMutability": "nonpayable",
      "type": "function"
    },
    {
      "inputs": [
        {
          "internalType": "uint256[]",
          "name": "strikes",
          "type": "uint256[]"
        }
      ],
      "name": "setStrikes",
      "outputs": [
        {
          "internalType": "bool",
          "name": "",
          "type": "bool"
        }
      ],
      "stateMutability": "nonpayable",
      "type": "function"
    },
    {
      "inputs": [
        {
          "internalType": "uint256",
          "name": "strikeIndex",
          "type": "uint256"
        },
        {
          "internalType": "uint256",
          "name": "amount",
          "type": "uint256"
        },
        {
          "internalType": "uint256",
          "name": "epoch",
          "type": "uint256"
        }
      ],
      "name": "settle",
      "outputs": [
        {
          "internalType": "uint256",
          "name": "pnl",
          "type": "uint256"
        }
      ],
      "stateMutability": "nonpayable",
      "type": "function"
    },
    {
      "inputs": [
        {
          "internalType": "uint256",
          "name": "",
          "type": "uint256"
        }
      ],
      "name": "settlementPrices",
      "outputs": [
        {
          "internalType": "uint256",
          "name": "",
          "type": "uint256"
        }
      ],
      "stateMutability": "view",
      "type": "function"
    },
    {
      "inputs": [
        {
          "internalType": "uint256",
          "name": "",
          "type": "uint256"
        }
      ],
      "name": "totalEpochBalance",
      "outputs": [
        {
          "internalType": "uint256",
          "name": "",
          "type": "uint256"
        }
      ],
      "stateMutability": "view",
      "type": "function"
    },
    {
      "inputs": [
        {
          "internalType": "uint256",
          "name": "",
          "type": "uint256"
        },
        {
          "internalType": "uint256",
          "name": "",
          "type": "uint256"
        }
      ],
      "name": "totalEpochCallsPurchased",
      "outputs": [
        {
          "internalType": "uint256",
          "name": "",
          "type": "uint256"
        }
      ],
      "stateMutability": "view",
      "type": "function"
    },
    {
      "inputs": [
        {
          "internalType": "uint256",
          "name": "",
          "type": "uint256"
        }
      ],
      "name": "totalEpochDeposits",
      "outputs": [
        {
          "internalType": "uint256",
          "name": "",
          "type": "uint256"
        }
      ],
      "stateMutability": "view",
      "type": "function"
    },
    {
      "inputs": [
        {
          "internalType": "uint256",
          "name": "",
          "type": "uint256"
        },
        {
          "internalType": "uint256",
          "name": "",
          "type": "uint256"
        }
      ],
      "name": "totalEpochPremium",
      "outputs": [
        {
          "internalType": "uint256",
          "name": "",
          "type": "uint256"
        }
      ],
      "stateMutability": "view",
      "type": "function"
    },
    {
      "inputs": [
        {
          "internalType": "uint256",
          "name": "",
          "type": "uint256"
        },
        {
          "internalType": "uint256",
          "name": "",
          "type": "uint256"
        }
      ],
      "name": "totalEpochStrikeBalance",
      "outputs": [
        {
          "internalType": "uint256",
          "name": "",
          "type": "uint256"
        }
      ],
      "stateMutability": "view",
      "type": "function"
    },
    {
      "inputs": [
        {
          "internalType": "uint256",
          "name": "",
          "type": "uint256"
        },
        {
          "internalType": "uint256",
          "name": "",
          "type": "uint256"
        }
      ],
      "name": "totalEpochStrikeDeposits",
      "outputs": [
        {
          "internalType": "uint256",
          "name": "",
          "type": "uint256"
        }
      ],
      "stateMutability": "view",
      "type": "function"
    },
    {
      "inputs": [
        {
          "internalType": "uint256",
          "name": "",
          "type": "uint256"
        },
        {
          "internalType": "uint256",
          "name": "",
          "type": "uint256"
        }
      ],
      "name": "totalEpochStrikeGmxBalance",
      "outputs": [
        {
          "internalType": "uint256",
          "name": "",
          "type": "uint256"
        }
      ],
      "stateMutability": "view",
      "type": "function"
    },
    {
      "inputs": [
        {
          "internalType": "uint256",
          "name": "",
          "type": "uint256"
        }
      ],
      "name": "totalEsGmxClaimed",
      "outputs": [
        {
          "internalType": "uint256",
          "name": "",
          "type": "uint256"
        }
      ],
      "stateMutability": "view",
      "type": "function"
    },
    {
      "inputs": [
        {
          "internalType": "uint256",
          "name": "",
          "type": "uint256"
        }
      ],
      "name": "totalGmxFeesClaimed",
      "outputs": [
        {
          "internalType": "uint256",
          "name": "",
          "type": "uint256"
        }
      ],
      "stateMutability": "view",
      "type": "function"
    },
    {
      "inputs": [
        {
          "internalType": "address",
          "name": "newOwner",
          "type": "address"
        }
      ],
      "name": "transferOwnership",
      "outputs": [],
      "stateMutability": "nonpayable",
      "type": "function"
    },
    {
      "inputs": [],
      "name": "unpause",
      "outputs": [
        {
          "internalType": "bool",
          "name": "",
          "type": "bool"
        }
      ],
      "stateMutability": "nonpayable",
      "type": "function"
    },
    {
      "inputs": [
        {
          "internalType": "uint256",
          "name": "_expireDelayTolerance",
          "type": "uint256"
        }
      ],
      "name": "updateExpireDelayTolerance",
      "outputs": [
        {
          "internalType": "bool",
          "name": "",
          "type": "bool"
        }
      ],
      "stateMutability": "nonpayable",
      "type": "function"
    },
    {
      "inputs": [
        {
          "internalType": "uint256",
          "name": "",
          "type": "uint256"
        },
        {
          "internalType": "bytes32",
          "name": "",
          "type": "bytes32"
        }
      ],
      "name": "userEpochCallsPurchased",
      "outputs": [
        {
          "internalType": "uint256",
          "name": "",
          "type": "uint256"
        }
      ],
      "stateMutability": "view",
      "type": "function"
    },
    {
      "inputs": [
        {
          "internalType": "uint256",
          "name": "",
          "type": "uint256"
        },
        {
          "internalType": "bytes32",
          "name": "",
          "type": "bytes32"
        }
      ],
      "name": "userEpochDeposits",
      "outputs": [
        {
          "internalType": "uint256",
          "name": "",
          "type": "uint256"
        }
      ],
      "stateMutability": "view",
      "type": "function"
    },
    {
      "inputs": [
        {
          "internalType": "uint256",
          "name": "",
          "type": "uint256"
        },
        {
          "internalType": "bytes32",
          "name": "",
          "type": "bytes32"
        }
      ],
      "name": "userEpochPremium",
      "outputs": [
        {
          "internalType": "uint256",
          "name": "",
          "type": "uint256"
        }
      ],
      "stateMutability": "view",
      "type": "function"
    },
    {
      "inputs": [
        {
          "internalType": "address",
          "name": "",
          "type": "address"
        }
      ],
      "name": "whitelistedContracts",
      "outputs": [
        {
          "internalType": "bool",
          "name": "",
          "type": "bool"
        }
      ],
      "stateMutability": "view",
      "type": "function"
    },
    {
      "inputs": [
        {
          "internalType": "uint256",
          "name": "withdrawEpoch",
          "type": "uint256"
        },
        {
          "internalType": "uint256",
          "name": "strikeIndex",
          "type": "uint256"
        }
      ],
      "name": "withdraw",
      "outputs": [
        {
          "internalType": "uint256[2]",
          "name": "",
          "type": "uint256[2]"
        }
      ],
      "stateMutability": "nonpayable",
      "type": "function"
    }
  ],
  "transactionHash": "0x4987ffe86f80366030f851dba51c176bc67c84c53a588d63cf62bc39416fdd95",
  "args": [
    [
      "0x474d580000000000000000000000000000000000000000000000000000000000",
      "0x6573474d58000000000000000000000000000000000000000000000000000000",
      "0x5745544800000000000000000000000000000000000000000000000000000000",
      "0x526577617264526f757465725632000000000000000000000000000000000000",
      "0x5374616b6564476d78547261636b657200000000000000000000000000000000",
      "0x426f6e7573476d78547261636b65720000000000000000000000000000000000",
      "0x466565476d78547261636b657200000000000000000000000000000000000000",
      "0x4f7074696f6e50726963696e6700000000000000000000000000000000000000",
      "0x476d7850726963654f7261636c65000000000000000000000000000000000000",
      "0x566f6c6174696c6974794f7261636c6500000000000000000000000000000000",
      "0x4665654469737472696275746f72000000000000000000000000000000000000",
      "0x4665655374726174656779000000000000000000000000000000000000000000"
    ],
    [
      "0xfc5A1A6EB076a2C7aD06eD22C90d7E710E35ad0a",
      "0xf42Ae1D54fd613C9bb14810b0588FaAa09a426cA",
      "0x82af49447d8a07e3bd95bd0d56f35241523fbab1",
      "0xA906F338CB21815cBc4Bc87ace9e68c87eF8d8F1",
      "0x908c4d94d34924765f1edc22a1dd098397c59dd4",
      "0x4d268a7d4c16ceb5a606c173bd974984343fea13",
      "0xd2d1162512f927a7e282ef43a362659e4f2a728f",
      "0x2b99e3D67dAD973c1B9747Da742B7E26c8Bdd67B",
      "0xF92009a73D810798cB71651a73e4c33A3033c3E7",
      "0x83A5b587Ae36F342d405A7e5971941168E0adB5d",
      "0x55594cCe8cC0014eA08C49fd820D731308f204c1",
      "0x3F3c58CCb0655Fa9161D0B4B49B217b3f6478D5A"
    ]
  ],
  "numDeployments": 1,
  "solcInputHash": "11c25e625a07cea66a6969aec3e4f8a3",
  "bytecode": "0x60a060405261012c6004553480156200001757600080fd5b5060405162007c1a38038062007c1a8339810160408190526200003a91620008fa565b6200004533620003da565b6002805460ff1916905580518251146200008c5760405162461bcd60e51b815260206004820152600360248201526222991b60e91b60448201526064015b60405180910390fd5b60005b8151811015620001bf5760006001600160a01b0316828281518110620000b957620000b9620009c1565b60200260200101516001600160a01b031614156200013957828181518110620000e657620000e6620009c1565b6020026020010151828281518110620001035762000103620009c1565b60200260200101516040516337c178ab60e01b8152600401620000839291909182526001600160a01b0316602082015260400190565b8181815181106200014e576200014e620009c1565b6020026020010151600560008584815181106200016f576200016f620009c1565b6020026020010151815260200190815260200160002060006101000a8154816001600160a01b0302191690836001600160a01b031602179055508080620001b690620009d7565b9150506200008f565b5069476f7665726e616e636560b01b60005260056020527fa3c20e4cfcdbe0796697a05f5cc56e3d568bc2f08a21308461ccefe56b2fecb580546001600160a01b031916331790556040516200021590620007f3565b604051809103906000f08015801562000232573d6000803e3d6000fd5b506001600160a01b039081166080526f29ba30b5b2b223b6bc2a3930b1b5b2b960811b600052600560205260008051602062007bfa83398151915254620002d291165b6208e9ab60eb1b60005260056020527fd8354cf2337f6ac01ea1d0584132e023fe2fb15ceb8670e7a28e1cf3fe692ac954600019906001600160a01b03165b6001600160a01b03166200042a60201b620038cd179092919060201c565b6e2137b73ab9a3b6bc2a3930b1b5b2b960891b60005260056020527f317a49ce4750747146cbbd12c3c39e6ed580eb8610fa56533b97fca3ab1c07925462000323906001600160a01b031662000275565b6c2332b2a3b6bc2a3930b1b5b2b960991b60005260056020527f7a79dbd092679d0017fce600fb4e162ffd567fa0134ca16e3b97dc0deae24d765462000372906001600160a01b031662000275565b600560205260008051602062007bfa83398151915254640cae68e9ab60db1b6000527f02dbbc89ede4d6e9e9a76dbf6c2ef2d95056be9005527c25f27b162585d13d4254620003d2916001600160a01b03908116916000199116620002b4565b505062000ac5565b600080546001600160a01b038381166001600160a01b0319831681178455604051919092169283917f8be0079c531659141344cd1fd0a4f28419497f9722a3daafe3b4186f6b6457e09190a35050565b801580620004b85750604051636eb1769f60e11b81523060048201526001600160a01b03838116602483015284169063dd62ed3e9060440160206040518083038186803b1580156200047b57600080fd5b505afa15801562000490573d6000803e3d6000fd5b505050506040513d601f19601f82011682018060405250810190620004b6919062000a01565b155b6200052c5760405162461bcd60e51b815260206004820152603660248201527f5361666545524332303a20617070726f76652066726f6d206e6f6e2d7a65726f60448201527f20746f206e6f6e2d7a65726f20616c6c6f77616e636500000000000000000000606482015260840162000083565b604080516001600160a01b038416602482015260448082018490528251808303909101815260649091019091526020810180516001600160e01b0390811663095ea7b360e01b17909152620005849185916200058916565b505050565b6000620005e5826040518060400160405280602081526020017f5361666545524332303a206c6f772d6c6576656c2063616c6c206661696c6564815250856001600160a01b03166200066760201b62003a29179092919060201c565b80519091501562000584578080602001905181019062000606919062000a1b565b620005845760405162461bcd60e51b815260206004820152602a60248201527f5361666545524332303a204552433230206f7065726174696f6e20646964206e6044820152691bdd081cdd58d8d9595960b21b606482015260840162000083565b606062000678848460008562000682565b90505b9392505050565b606082471015620006e55760405162461bcd60e51b815260206004820152602660248201527f416464726573733a20696e73756666696369656e742062616c616e636520666f6044820152651c8818d85b1b60d21b606482015260840162000083565b843b620007355760405162461bcd60e51b815260206004820152601d60248201527f416464726573733a2063616c6c20746f206e6f6e2d636f6e7472616374000000604482015260640162000083565b600080866001600160a01b0316858760405162000753919062000a72565b60006040518083038185875af1925050503d806000811462000792576040519150601f19603f3d011682016040523d82523d6000602084013e62000797565b606091505b509092509050620007aa828286620007b5565b979650505050505050565b60608315620007c65750816200067b565b825115620007d75782518084602001fd5b8160405162461bcd60e51b815260040162000083919062000a90565b611ed68062005d2483390190565b634e487b7160e01b600052604160045260246000fd5b604051601f8201601f191681016001600160401b038111828210171562000842576200084262000801565b604052919050565b60006001600160401b0382111562000866576200086662000801565b5060051b60200190565b600082601f8301126200088257600080fd5b815160206200089b62000895836200084a565b62000817565b82815260059290921b84018101918181019086841115620008bb57600080fd5b8286015b84811015620008ef5780516001600160a01b0381168114620008e15760008081fd5b8352918301918301620008bf565b509695505050505050565b600080604083850312156200090e57600080fd5b82516001600160401b03808211156200092657600080fd5b818501915085601f8301126200093b57600080fd5b815160206200094e62000895836200084a565b82815260059290921b840181019181810190898411156200096e57600080fd5b948201945b838610156200098e5785518252948201949082019062000973565b91880151919650909350505080821115620009a857600080fd5b50620009b78582860162000870565b9150509250929050565b634e487b7160e01b600052603260045260246000fd5b6000600019821415620009fa57634e487b7160e01b600052601160045260246000fd5b5060010190565b60006020828403121562000a1457600080fd5b5051919050565b60006020828403121562000a2e57600080fd5b815180151581146200067b57600080fd5b60005b8381101562000a5c57818101518382015260200162000a42565b8381111562000a6c576000848401525b50505050565b6000825162000a8681846020870162000a3f565b9190910192915050565b602081526000825180602084015262000ab181604085016020870162000a3f565b601f01601f19169190910160400192915050565b60805161523c62000ae86000396000818161072d015261372f015261523c6000f3fe608060405234801561001057600080fd5b50600436106103b95760003560e01c80638990d045116101f4578063c300fd641161011a578063ec856816116100ad578063f6ac84881161007c578063f6ac84881461098c578063f72bf8fe1461099f578063fb969b0a146109b2578063fe3b9be7146109ba57600080fd5b8063ec85681614610933578063f2fde38b14610946578063f306694a14610959578063f69e20461461098457600080fd5b8063d7e15131116100e9578063d7e15131146108e5578063db2e21bc14610905578063e8468ee41461090d578063ea3bd5df1461092057600080fd5b8063c300fd6414610899578063c3d9ed39146108ac578063cd653df6146108bf578063d3e3e352146108d257600080fd5b80639deb837e11610192578063acc3a00611610161578063acc3a00614610805578063b0f48cf714610818578063b12daf6914610843578063bf434b7a1461086e57600080fd5b80639deb837e14610792578063a6fe2b9e146107b2578063a88afabb146107d2578063ab2150cf146107f257600080fd5b80638e143ccb116101ce5780638e143ccb14610715578063901be0411461072857806393c82c751461074f5780639bbce4781461077257600080fd5b80638990d045146106c65780638da5cb5b146106f15780638dbdbe6d1461070257600080fd5b80635ba0bee1116102e45780636f56f56f116102775780638144eeba116102465780638144eeba14610678578063823c15121461068b5780638456cb59146106ab57806388e18e13146106b357600080fd5b80636f56f56f1461062a578063715018a614610652578063766718081461065c5780637e36701f1461066557600080fd5b80636274d49d116102b35780636274d49d146105d3578063699f200f146105e65780636a7784541461060f5780636db29f6d1461062257600080fd5b80635ba0bee1146105815780635c975abb146105ac57806361560c99146105b757806361644373146105ca57600080fd5b8063391feebb1161035c578063441a3e701161032b578063441a3e7014610507578063470f4224146105275780634ab01f5b1461055b578063574cdded1461056e57600080fd5b8063391feebb146104a657806339e0e760146104c95780633f4ba83a146104dc5780633f83b8a5146104e457600080fd5b80631acf5582116103985780631acf55821461042857806321f8a721146104305780632807b9a81461045b578063344afb5f1461048657600080fd5b806212100c146103be57806315943b99146103e45780631627905514610404575b600080fd5b6103d16103cc3660046149a7565b6109e5565b6040519081526020015b60405180910390f35b6103f76103f23660046149c9565b610b59565b6040516103db91906149e2565b610418610412366004614a3d565b3b151590565b60405190151581526020016103db565b6103d1610be6565b61044361043e3660046149c9565b610c77565b6040516001600160a01b0390911681526020016103db565b6103d16104693660046149a7565b601260209081526000928352604080842090915290825290205481565b6103d16104943660046149c9565b600e6020526000908152604090205481565b6104186104b4366004614a3d565b60016020526000908152604090205460ff1681565b6103d16104d7366004614a58565b610c92565b610418610ee2565b6104186104f23660046149c9565b60086020526000908152604090205460ff1681565b61051a6105153660046149a7565b610f38565b6040516103db9190614a84565b6104436105353660046149a7565b600a6020908152600092835260408084209091529082529020546001600160a01b031681565b610418610569366004614b00565b611232565b6103d161057c366004614b6b565b611359565b6103d161058f3660046149a7565b601460209081526000928352604080842090915290825290205481565b60025460ff16610418565b6103f76105c5366004614a58565b6116bf565b6103d160045481565b6103f76105e1366004614a58565b6117f3565b6104436105f43660046149c9565b6005602052600090815260409020546001600160a01b031681565b6103f761061d3660046149c9565b61191d565b610418611a1e565b61063d6106383660046149c9565b611b80565b604080519283526020830191909152016103db565b61065a611bc6565b005b6103d160035481565b6103d16106733660046149a7565b611bfc565b610418610686366004614c3c565b611c2d565b61069e6106993660046149c9565b611cf7565b6040516103db9190614caf565b610418611e0f565b6103d16106c1366004614b6b565b611e69565b6103d16106d43660046149a7565b600f60209081526000928352604080842090915290825290205481565b6000546001600160a01b0316610443565b610418610710366004614cf0565b611e85565b6103d16107233660046149c9565b612200565b6104437f000000000000000000000000000000000000000000000000000000000000000081565b61041861075d3660046149c9565b60076020526000908152604090205460ff1681565b6103d16107803660046149c9565b60156020526000908152604090205481565b6103d16107a03660046149c9565b60176020526000908152604090205481565b6103d16107c03660046149c9565b60066020526000908152604090205481565b6103d16107e03660046149c9565b60166020526000908152604090205481565b6104186108003660046149c9565b612334565b610418610813366004614a3d565b6123bd565b6103d16108263660046149a7565b601360209081526000928352604080842090915290825290205481565b6103d16108513660046149a7565b600b60209081526000928352604080842090915290825290205481565b6103d161087c3660046149a7565b601160209081526000928352604080842090915290825290205481565b6103f76108a73660046149c9565b612529565b6104186108ba366004614a3d565b612621565b6103f76108cd3660046149c9565b6126eb565b6104186108e0366004614d1c565b6127e3565b6103d16108f33660046149c9565b600c6020526000908152604090205481565b610418612986565b6103d161091b366004614b6b565b612ba4565b61063d61092e366004614cf0565b612c46565b6103f7610941366004614a58565b6130d4565b61065a610954366004614a3d565b6131fe565b6103d16109673660046149a7565b600d60209081526000928352604080842090915290825290205481565b610418613299565b61041861099a3660046149c9565b6133b6565b6103d16109ad366004614b6b565b6134e8565b61041861353e565b6103d16109c83660046149a7565b601060209081526000928352604080842090915290825290205481565b6000806109f0610be6565b90508083610a0d6c4f7074696f6e50726963696e6760981b610c77565b6001600160a01b0316635b7b6d886000610a2642612200565b8987610a446f566f6c6174696c6974794f7261636c6560801b610c77565b6001600160a01b0316633af2888b6040518163ffffffff1660e01b815260040160206040518083038186803b158015610a7c57600080fd5b505afa158015610a90573d6000803e3d6000fd5b505050506040513d601f19601f82011682018060405250810190610ab49190614d50565b6040516001600160e01b031960e088901b1681529415156004860152602485019390935260448401919091526064830152608482015260a40160206040518083038186803b158015610b0557600080fd5b505afa158015610b19573d6000803e3d6000fd5b505050506040513d601f19601f82011682018060405250810190610b3d9190614d50565b610b479190614d7f565b610b519190614db4565b949350505050565b60608160008111610b855760405162461bcd60e51b8152600401610b7c90614dc8565b60405180910390fd5b60008381526009602090815260409182902080548351818402810184019094528084529091830182828015610bd957602002820191906000526020600020905b815481526020019060010190808311610bc5575b5050505050915050919050565b6000610c026d476d7850726963654f7261636c6560901b610c77565b6001600160a01b031663e1aa60366040518163ffffffff1660e01b815260040160206040518083038186803b158015610c3a57600080fd5b505afa158015610c4e573d6000803e3d6000fd5b505050506040513d601f19601f82011682018060405250810190610c729190614d50565b905090565b6000908152600560205260409020546001600160a01b031690565b6000610ca060025460ff1690565b15610cbd5760405162461bcd60e51b8152600401610b7c90614de5565b6000546001600160a01b03163314610ce75760405162461bcd60e51b8152600401610b7c90614e0f565b6000610cfa640cae68e9ab60db1b610c77565b6040516370a0823160e01b81523060048201529091506000906001600160a01b038316906370a082319060240160206040518083038186803b158015610d3f57600080fd5b505afa158015610d53573d6000803e3d6000fd5b505050506040513d601f19601f82011682018060405250810190610d779190614d50565b60008681526007602052604090205490915060ff16610da85760405162461bcd60e51b8152600401610b7c90614e44565b80610ddb5760405162461bcd60e51b815260206004820152600360248201526245323560e81b6044820152606401610b7c565b6001600160a01b038416610e315760405162461bcd60e51b815260206004820152601f60248201527f43616e6e6f74207472616e7366657220746f207a65726f2061646472657373006044820152606401610b7c565b6000610e4d6d2932bbb0b9322937baba32b92b1960911b610c77565b9050610e7d610e6c6d2932bbb0b9322937baba32b92b1960911b610c77565b6001600160a01b03851690846138cd565b60405163ef9aacfd60e01b81526001600160a01b03868116600483015282169063ef9aacfd90602401600060405180830381600087803b158015610ec057600080fd5b505af1158015610ed4573d6000803e3d6000fd5b509398975050505050505050565b6000610efa69476f7665726e616e636560b01b610c77565b6001600160a01b0316336001600160a01b031614610f2a5760405162461bcd60e51b8152600401610b7c90614e61565b610f32613a38565b50600190565b610f40614929565b60025460ff1615610f635760405162461bcd60e51b8152600401610b7c90614de5565b333b15610f99573360009081526001602052604090205460ff16610f995760405162461bcd60e51b8152600401610b7c90614e7e565b60008381526007602052604090205460ff16610fc75760405162461bcd60e51b8152600401610b7c90614e44565b6000838152600960205260409020548210610ff45760405162461bcd60e51b8152600401610b7c90614ecd565b600083815260096020526040812080548490811061101457611014614eea565b9060005260206000200154905080600014156110425760405162461bcd60e51b8152600401610b7c90614f00565b60003382604051602001611057929190614f1d565b60408051601f1981840301815291815281516020928301206000888152600f8452828120828252909352912054909150806110ba5760405162461bcd60e51b815260206004820152600360248201526208a62760eb1b6044820152606401610b7c565b6000868152600b60209081526040808320868452825280832054898452601083528184208785529092528220546110f2908490614d7f565b6110fc9190614db4565b6000888152600f602090815260408083208784528252808320839055600354835260168252808320548b8452600c835281842054600b84528285208a8652909352908320549394509261114f9084614d7f565b6111599190614db4565b60008a8152600b602090815260408083208a8452909152812054919250906111818684614d7f565b61118b9190614db4565b90506111b133856111a16208e9ab60eb1b610c77565b6001600160a01b03169190613acb565b6111c633826111a1630ae8aa8960e31b610c77565b604080518b8152602081018990523381830152606081018790526080810186905290517fbe7586dfb192ca07af28bcc9fc95e78619abff84853e614ba95a4864e955c5929181900360a00190a16040805180820190915293845260208401525090979650505050505050565b600080546001600160a01b0316331461125d5760405162461bcd60e51b8152600401610b7c90614e0f565b8382146112915760405162461bcd60e51b8152602060048201526002602482015261229960f11b6044820152606401610b7c565b60005b8481101561134d5760008686838181106112b0576112b0614eea565b90506020020135905060008585848181106112cd576112cd614eea565b90506020020160208101906112e29190614a3d565b60008381526005602052604080822080546001600160a01b0319166001600160a01b03851690811790915590519293509184917fb37614c7d254ea8d16eb81fa11dddaeb266aa8ba4917980859c7740aff30c69191a35050808061134590614f3f565b915050611294565b50600195945050505050565b600061136760025460ff1690565b156113845760405162461bcd60e51b8152600401610b7c90614de5565b333b156113ba573360009081526001602052604090205460ff166113ba5760405162461bcd60e51b8152600401610b7c90614e7e565b60008281526007602052604090205460ff166113e85760405162461bcd60e51b8152600401610b7c90614e44565b60008281526009602052604090205484106114155760405162461bcd60e51b8152600401610b7c90614ecd565b600083116114355760405162461bcd60e51b8152600401610b7c90614f5a565b600082815260096020526040812080548690811061145557611455614eea565b9060005260206000200154905080600014156114835760405162461bcd60e51b8152600401610b7c90614f00565b6000838152600a60209081526040808320848452909152908190205490516370a0823160e01b815233600482015285916001600160a01b0316906370a082319060240160206040518083038186803b1580156114de57600080fd5b505afa1580156114f2573d6000803e3d6000fd5b505050506040513d601f19601f820116820180604052508101906115169190614d50565b101561154a5760405162461bcd60e51b815260206004820152600360248201526222989b60e91b6044820152606401610b7c565b600083815260156020526040902054611564908286611e69565b600084815260156020526040812054919350906115829084876134e8565b9050600083116115ba5760405162461bcd60e51b815260206004820152600360248201526245313560e81b6044820152606401610b7c565b6000848152600a602090815260408083208584529091529081902054905163079cc67960e41b8152336004820152602481018790526001600160a01b03909116906379cc679090604401600060405180830381600087803b15801561161e57600080fd5b505af1158015611632573d6000803e3d6000fd5b5050505060006116476208e9ab60eb1b610c77565b9050611668336116578487614f77565b6001600160a01b0384169190613acb565b60408051868152602081018590523381830152606081018890526080810186905290517f170d93e3a85ba1c08f72d2c0ebd8835178a9b9f444c318ab404506c743d925bd9181900360a00190a15050509392505050565b606082600081116116e25760405162461bcd60e51b8152600401610b7c90614dc8565b60008481526009602052604081205490816001600160401b0381111561170a5761170a614b97565b604051908082528060200260200182016040528015611733578160200160208202803683370190505b50905060005b828110156117e957600087815260096020526040812080548390811061176157611761614eea565b9060005260206000200154905060008782604051602001611783929190614f1d565b60408051601f19818403018152918152815160209283012060008c8152601484528281208282529093529120548551919250908590859081106117c8576117c8614eea565b602002602001018181525050505080806117e190614f3f565b915050611739565b5095945050505050565b606082600081116118165760405162461bcd60e51b8152600401610b7c90614dc8565b60008481526009602052604081205490816001600160401b0381111561183e5761183e614b97565b604051908082528060200260200182016040528015611867578160200160208202803683370190505b50905060005b828110156117e957600087815260096020526040812080548390811061189557611895614eea565b90600052602060002001549050600087826040516020016118b7929190614f1d565b60408051601f19818403018152918152815160209283012060008c8152600f84528281208282529093529120548551919250908590859081106118fc576118fc614eea565b6020026020010181815250505050808061191590614f3f565b91505061186d565b606081600081116119405760405162461bcd60e51b8152600401610b7c90614dc8565b60008381526009602052604081205490816001600160401b0381111561196857611968614b97565b604051908082528060200260200182016040528015611991578160200160208202803683370190505b50905060005b82811015611a15576000868152601160209081526040808320600990925282208054919291849081106119cc576119cc614eea565b90600052602060002001548152602001908152602001600020548282815181106119f8576119f8614eea565b602090810291909101015280611a0d81614f3f565b915050611997565b50949350505050565b6000611a2c60025460ff1690565b15611a495760405162461bcd60e51b8152600401610b7c90614de5565b333b15611a7f573360009081526001602052604090205460ff16611a7f5760405162461bcd60e51b8152600401610b7c90614e7e565b60035460009081526007602052604090205460ff1615611ab15760405162461bcd60e51b8152600401610b7c90614f8e565b6000611abe600354611b80565b91505080421015611af65760405162461bcd60e51b8152602060048201526002602482015261114d60f21b6044820152606401610b7c565b600454611b039082614faa565b421115611b385760405162461bcd60e51b815260206004820152600360248201526245323360e81b6044820152606401610b7c565b611b40610be6565b600354600090815260156020526040902055611b5c6001613afb565b50506003546000908152600760205260409020805460ff1916600190811790915590565b6000808260008111611ba45760405162461bcd60e51b8152600401610b7c90614dc8565b600084815260066020526040902054611bbc81612200565b9250925050915091565b6000546001600160a01b03163314611bf05760405162461bcd60e51b8152600401610b7c90614e0f565b611bfa60006140b2565b565b60096020528160005260406000208181548110611c1857600080fd5b90600052602060002001600091509150505481565b6000611c3b60025460ff1690565b15611c585760405162461bcd60e51b8152600401610b7c90614de5565b8251845114611c8e5760405162461bcd60e51b8152602060048201526002602482015261229960f11b6044820152606401610b7c565b60005b8451811015611cea57611cd7858281518110611caf57611caf614eea565b6020026020010151858381518110611cc957611cc9614eea565b602002602001015185611e85565b5080611ce281614f3f565b915050611c91565b50600190505b9392505050565b60608160008111611d1a5760405162461bcd60e51b8152600401610b7c90614dc8565b60008381526009602052604081205490816001600160401b03811115611d4257611d42614b97565b604051908082528060200260200182016040528015611d6b578160200160208202803683370190505b50905060005b82811015611a15576000868152600a6020908152604080832060099092528220805491929184908110611da657611da6614eea565b9060005260206000200154815260200190815260200160002060009054906101000a90046001600160a01b0316828281518110611de557611de5614eea565b6001600160a01b039092166020928302919091019091015280611e0781614f3f565b915050611d71565b6000611e2769476f7665726e616e636560b01b610c77565b6001600160a01b0316336001600160a01b031614611e575760405162461bcd60e51b8152600401610b7c90614e61565b611e5f614102565b610f326000613afb565b6000828411611e79576000610b51565b8382610b3d8583614f77565b6000611e9360025460ff1690565b15611eb05760405162461bcd60e51b8152600401610b7c90614de5565b333b15611ee6573360009081526001602052604090205460ff16611ee65760405162461bcd60e51b8152600401610b7c90614e7e565b60006003546001611ef79190614faa565b60035490915015611f645760035460009081526007602052604090205460ff168015611f32575060008181526008602052604090205460ff16155b611f645760405162461bcd60e51b815260206004820152600360248201526245313960e81b6044820152606401610b7c565b6000818152600960205260409020548510611f915760405162461bcd60e51b8152600401610b7c90614ecd565b60008411611fb15760405162461bcd60e51b8152600401610b7c90614f5a565b6000818152600960205260408120805487908110611fd157611fd1614eea565b906000526020600020015490508060001415611fff5760405162461bcd60e51b8152600401610b7c90614f00565b60008482604051602001612014929190614f1d565b60408051601f1981840301815291815281516020928301206000868152600f8452828120828252909352908220805491935088929091612055908490614faa565b90915550506000838152600b6020908152604080832085845290915281208054889290612083908490614faa565b90915550506000838152600c6020526040812080548892906120a6908490614faa565b90915550506000838152600d60209081526040808320858452909152812080548892906120d4908490614faa565b90915550506000838152600e6020526040812080548892906120f7908490614faa565b9091555061212390503330886121126208e9ab60eb1b610c77565b6001600160a01b031692919061415a565b61213d6d2932bbb0b9322937baba32b92b1960911b610c77565b6001600160a01b031663f3daeacc876040518263ffffffff1660e01b815260040161216a91815260200190565b600060405180830381600087803b15801561218457600080fd5b505af1158015612198573d6000803e3d6000fd5b505060408051868152602081018690529081018990526001600160a01b03881660608201523360808201527fcaa9001342572663a8f7c22e7c6f0331a45254407418d9f993ed2d1485adc205925060a001905060405180910390a15060019695505050505050565b60008061222a61220f84614198565b612218856141b8565b612223906001614faa565b60006141d2565b90506005612237826141ed565b101561226f5761226c61224982614198565b612252836141b8565b600761225d85614221565b6122679190614f77565b6141d2565b90505b60006122b761227d83614198565b612286846141b8565b61228f856141ed565b61229886614221565b6122a3906005614faa565b6122ad9190614f77565b6008600080614233565b9050838111611cf05760006122e26122ce86614198565b6122d7876141b8565b612223906002614faa565b905060056122ef826141ed565b10156123045761230161224982614198565b90505b61232b61231082614198565b612319836141b8565b612322846141ed565b61229885614221565b95945050505050565b600061234c69476f7665726e616e636560b01b610c77565b6001600160a01b0316336001600160a01b03161461237c5760405162461bcd60e51b8152600401610b7c90614e61565b60048290556040518281527f5259439c9ac2029585dd4a349897aa1e8298d26537c3b57453f275126db919189060200160405180910390a15060015b919050565b600080546001600160a01b031633146123e85760405162461bcd60e51b8152600401610b7c90614e0f565b813b6124545760405162461bcd60e51b815260206004820152603560248201527f436f6e747261637457686974656c6973743a2041646472657373206d757374206044820152746265206120636f6e7472616374206164647265737360581b6064820152608401610b7c565b6001600160a01b03821660009081526001602052604090205460ff16156124d55760405162461bcd60e51b815260206004820152602f60248201527f436f6e747261637457686974656c6973743a20436f6e747261637420616c726560448201526e18591e481dda1a5d195b1a5cdd1959608a1b6064820152608401610b7c565b6001600160a01b0382166000818152600160208190526040808320805460ff1916909217909155517ffbd3cde7ff522a917e485c8ed2a6e87590887ab399f5ac312307903f498543079190a2506001919050565b6060816000811161254c5760405162461bcd60e51b8152600401610b7c90614dc8565b60008381526009602052604081205490816001600160401b0381111561257457612574614b97565b60405190808252806020026020018201604052801561259d578160200160208202803683370190505b50905060005b82811015611a15576000868152600b60209081526040808320600990925282208054919291849081106125d8576125d8614eea565b906000526020600020015481526020019081526020016000205482828151811061260457612604614eea565b60209081029190910101528061261981614f3f565b9150506125a3565b6001600160a01b03811660009081526001602052604081205460ff1661269d5760405162461bcd60e51b815260206004820152602b60248201527f436f6e747261637457686974656c6973743a20436f6e7472616374206e6f742060448201526a1dda1a5d195b1a5cdd195960aa1b6064820152608401610b7c565b6001600160a01b038216600081815260016020526040808220805460ff19169055517f8e81447740597754af5db3e176253a36f7981a9549f48ace3f0cb233913f9d859190a2506001919050565b6060816000811161270e5760405162461bcd60e51b8152600401610b7c90614dc8565b60008381526009602052604081205490816001600160401b0381111561273657612736614b97565b60405190808252806020026020018201604052801561275f578160200160208202803683370190505b50905060005b82811015611a155760008681526013602090815260408083206009909252822080549192918490811061279a5761279a614eea565b90600052602060002001548152602001908152602001600020548282815181106127c6576127c6614eea565b6020908102919091010152806127db81614f3f565b915050612765565b600080546001600160a01b0316331461280e5760405162461bcd60e51b8152600401610b7c90614e0f565b60025460ff16156128315760405162461bcd60e51b8152600401610b7c90614de5565b600060035460016128429190614faa565b6000818152600c6020526040902054909150156128865760405162461bcd60e51b815260206004820152600260248201526108a760f31b6044820152606401610b7c565b600354156128d457600061289b600354611b80565b9150508042116128d25760405162461bcd60e51b8152602060048201526002602482015261453960f01b6044820152606401610b7c565b505b600081815260096020908152604090912084516128f392860190614947565b5060008181526006602052604081204290555b835181101561297c577f5185be10ef2a03e926961817be495a630ded54bceffb3ba11f6af477c9c766828285838151811061294357612943614eea565b6020026020010151604051612962929190918252602082015260400190565b60405180910390a18061297481614f3f565b915050612906565b5060019392505050565b600061299e69476f7665726e616e636560b01b610c77565b6001600160a01b0316336001600160a01b0316146129ce5760405162461bcd60e51b8152600401610b7c90614e61565b60025460ff16612a175760405162461bcd60e51b815260206004820152601460248201527314185d5cd8589b194e881b9bdd081c185d5cd95960621b6044820152606401610b7c565b6000612a286208e9ab60eb1b610c77565b90506000612a3c630ae8aa8960e31b610c77565b6040516370a0823160e01b81523060048201529091506000906001600160a01b038416906370a082319060240160206040518083038186803b158015612a8157600080fd5b505afa158015612a95573d6000803e3d6000fd5b505050506040513d601f19601f82011682018060405250810190612ab99190614d50565b6040516370a0823160e01b81523060048201529091506000906001600160a01b038416906370a082319060240160206040518083038186803b158015612afe57600080fd5b505afa158015612b12573d6000803e3d6000fd5b505050506040513d601f19601f82011682018060405250810190612b369190614d50565b9050612b4c6001600160a01b0385163384613acb565b612b606001600160a01b0384163383613acb565b60408051338152602081018490527f5fafa99d0643513820be26656b45130b01e1c03062e1266bf36f88cbd3bd9695910160405180910390a1600194505050505090565b6000612bbd6a466565537472617465677960a81b610c77565b604051633a11a3b960e21b81526004810186905260248101859052604481018490526001600160a01b03919091169063e8468ee4906064015b60206040518083038186803b158015612c0e57600080fd5b505afa158015612c22573d6000803e3d6000fd5b505050506040513d601f19601f82011682018060405250810190610b519190614d50565b600080612c5560025460ff1690565b15612c725760405162461bcd60e51b8152600401610b7c90614de5565b333b15612ca8573360009081526001602052604090205460ff16612ca85760405162461bcd60e51b8152600401610b7c90614e7e565b6000612cb5600354611b80565b915050804210612ced5760405162461bcd60e51b8152602060048201526003602482015262114c8d60ea1b6044820152606401610b7c565b60035460009081526008602052604090205460ff16612d345760405162461bcd60e51b815260206004820152600360248201526204532360ec1b6044820152606401610b7c565b6003546000908152600960205260409020548610612d645760405162461bcd60e51b8152600401610b7c90614ecd565b60008511612d845760405162461bcd60e51b8152600401610b7c90614f5a565b6003546000908152600960205260408120805488908110612da757612da7614eea565b906000526020600020015490508060001415612dd55760405162461bcd60e51b8152600401610b7c90614f00565b60008582604051602001612dea929190614f1d565b6040516020818303038152906040528051906020012090506000612e136208e9ab60eb1b610c77565b90506000612e1f610be6565b90506000612e2d858b6109e5565b90506000612e3c83878d612ba4565b60035460009081526011602090815260408083208a8452909152812080549293508d92909190612e6d908490614faa565b90915550506003546000908152601260209081526040808320888452909152812080548d9290612e9e908490614faa565b9091555050600354600090815260136020908152604080832089845290915281208054849290612ecf908490614faa565b9091555050600354600090815260146020908152604080832088845290915281208054849290612f00908490614faa565b90915550506003546000908152600d6020908152604080832089845290915281208054849290612f31908490614faa565b90915550506003546000908152600e602052604081208054849290612f57908490614faa565b90915550612f7e90503330612f6c8486614faa565b6001600160a01b03881692919061415a565b8015612fb257612fb2612fa16d2332b2a234b9ba3934b13aba37b960911b610c77565b6001600160a01b0386169083613acb565b6003546000908152600a60209081526040808320898452909152902054612fe3906001600160a01b03168b8d613acb565b612ffd6d2932bbb0b9322937baba32b92b1960911b610c77565b6001600160a01b031663f3daeacc836040518263ffffffff1660e01b815260040161302a91815260200190565b600060405180830381600087803b15801561304457600080fd5b505af1158015613058573d6000803e3d6000fd5b505060035460408051918252602082018a905281018e905260608101859052608081018490526001600160a01b038d1660a08201523360c08201527f78de8c82973d11415ea2004f458680aa6d5826c3e8a798496a61db56fa66417b925060e001905060405180910390a1909b909a5098505050505050505050565b606082600081116130f75760405162461bcd60e51b8152600401610b7c90614dc8565b60008481526009602052604081205490816001600160401b0381111561311f5761311f614b97565b604051908082528060200260200182016040528015613148578160200160208202803683370190505b50905060005b828110156117e957600087815260096020526040812080548390811061317657613176614eea565b9060005260206000200154905060008782604051602001613198929190614f1d565b60408051601f19818403018152918152815160209283012060008c8152601284528281208282529093529120548551919250908590859081106131dd576131dd614eea565b602002602001018181525050505080806131f690614f3f565b91505061314e565b6000546001600160a01b031633146132285760405162461bcd60e51b8152600401610b7c90614e0f565b6001600160a01b03811661328d5760405162461bcd60e51b815260206004820152602660248201527f4f776e61626c653a206e6577206f776e657220697320746865207a65726f206160448201526564647265737360d01b6064820152608401610b7c565b613296816140b2565b50565b60006132a760025460ff1690565b156132c45760405162461bcd60e51b8152600401610b7c90614de5565b60035460009081526007602052604090205460ff16156132f65760405162461bcd60e51b8152600401610b7c90614f8e565b60035460009081526008602052604090205460ff1661333d5760405162461bcd60e51b815260206004820152600360248201526204532360ec1b6044820152606401610b7c565b60006133596d2932bbb0b9322937baba32b92b1960911b610c77565b9050806001600160a01b031663f69e20466040518163ffffffff1660e01b8152600401600060405180830381600087803b15801561339657600080fd5b505af11580156133aa573d6000803e3d6000fd5b50505050600191505090565b60006133ce69476f7665726e616e636560b01b610c77565b6001600160a01b0316336001600160a01b0316146133fe5760405162461bcd60e51b8152600401610b7c90614e61565b60025460ff16156134215760405162461bcd60e51b8152600401610b7c90614de5565b60035460009081526007602052604090205460ff16156134535760405162461bcd60e51b8152600401610b7c90614f8e565b6000613460600354611b80565b915050600454816134719190614faa565b42116134a45760405162461bcd60e51b8152602060048201526002602482015261114d60f21b6044820152606401610b7c565b60035460009081526015602052604090208390556134c26001613afb565b50506003546000908152600760205260409020805460ff19166001908117909155919050565b60006135016a466565537472617465677960a81b610c77565b604051637b95fc7f60e11b81526004810186905260248101859052604481018490526001600160a01b03919091169063f72bf8fe90606401612bf6565b600080546001600160a01b031633146135695760405162461bcd60e51b8152600401610b7c90614e0f565b60025460ff161561358c5760405162461bcd60e51b8152600401610b7c90614de5565b6000600354600161359d9190614faa565b60008181526008602052604090205490915060ff16156135e45760405162461bcd60e51b8152602060048201526002602482015261453560f01b6044820152606401610b7c565b6000818152600960205260409020546136245760405162461bcd60e51b8152602060048201526002602482015261229b60f11b6044820152606401610b7c565b600354156136725760035460009081526007602052604090205460ff166136725760405162461bcd60e51b8152602060048201526002602482015261453760f01b6044820152606401610b7c565b60005b60008281526009602052604090205481101561386c5760008281526009602052604081208054839081106136ab576136ab614eea565b9060005260206000200154905060006136ec6040518060400160405280600881526020016711d3560b50d0531360c21b8152506136e78461428f565b61438c565b905061371781604051806040016040528060078152602001662d45504f43482d60c81b81525061438c565b9050613726816136e78661428f565b905060006137537f00000000000000000000000000000000000000000000000000000000000000006143b8565b60405163266c45bb60e11b81529091506001600160a01b03821690634cd88b7690613784908590819060040161501a565b600060405180830381600087803b15801561379e57600080fd5b505af11580156137b2573d6000803e3d6000fd5b5050506000868152600a60209081526040808320878452825280832080546001600160a01b0319166001600160a01b038716908117909155898452600b8352818420888552909252918290205491516340c10f1960e01b8152306004820152602481019290925291506340c10f1990604401600060405180830381600087803b15801561383e57600080fd5b505af1158015613852573d6000803e3d6000fd5b50505050505050808061386490614f3f565b915050613675565b5060008181526008602052604090819020805460ff191660011790556003829055517fb5ca1ca1b7b47549eb8af476f3ef702fc63bcd8b8c01dc163b009bb818f97997906138bd9083815260200190565b60405180910390a1600191505090565b8015806139565750604051636eb1769f60e11b81523060048201526001600160a01b03838116602483015284169063dd62ed3e9060440160206040518083038186803b15801561391c57600080fd5b505afa158015613930573d6000803e3d6000fd5b505050506040513d601f19601f820116820180604052508101906139549190614d50565b155b6139c15760405162461bcd60e51b815260206004820152603660248201527f5361666545524332303a20617070726f76652066726f6d206e6f6e2d7a65726f60448201527520746f206e6f6e2d7a65726f20616c6c6f77616e636560501b6064820152608401610b7c565b6040516001600160a01b038316602482015260448101829052613a2490849063095ea7b360e01b906064015b60408051601f198184030181529190526020810180516001600160e01b03166001600160e01b031990931692909217909152614450565b505050565b6060610b518484600085614522565b60025460ff16613a815760405162461bcd60e51b815260206004820152601460248201527314185d5cd8589b194e881b9bdd081c185d5cd95960621b6044820152606401610b7c565b6002805460ff191690557f5db9ee0a495bf2e6ff9c91a7834c1ba4fdd244a5e8aa4e537bd38aeae4b073aa335b6040516001600160a01b03909116815260200160405180910390a1565b6040516001600160a01b038316602482015260448101829052613a2490849063a9059cbb60e01b906064016139ed565b6003546000908152600e602052604090205415613d4857600354600090815260096020908152604080832080548251818502810185019093528083529192909190830182828015613b6b57602002820191906000526020600020905b815481526020019060010190808311613b57575b5050505050905060005b8151811015613d45576000613bf860156000600354815260200190815260200160002054848481518110613bab57613bab614eea565b60200260200101516011600060035481526020019081526020016000206000878781518110613bdc57613bdc614eea565b6020026020010151815260200190815260200160002054611e69565b905080600b600060035481526020019081526020016000206000858581518110613c2457613c24614eea565b6020026020010151815260200190815260200160002054613c459190614f77565b6010600060035481526020019081526020016000206000858581518110613c6e57613c6e614eea565b602002602001015181526020019081526020016000206000828254613c939190614faa565b90915550508315613d32576013600060035481526020019081526020016000206000848481518110613cc757613cc7614eea565b60200260200101518152602001908152602001600020546010600060035481526020019081526020016000206000858581518110613d0757613d07614eea565b602002602001015181526020019081526020016000206000828254613d2c9190614faa565b90915550505b5080613d3d81614f3f565b915050613b75565b50505b6000613d5a630ae8aa8960e31b610c77565b90506000613d6f640cae68e9ab60db1b610c77565b6040516370a0823160e01b81523060048201529091506000906001600160a01b038416906370a082319060240160206040518083038186803b158015613db457600080fd5b505afa158015613dc8573d6000803e3d6000fd5b505050506040513d601f19601f82011682018060405250810190613dec9190614d50565b6040516370a0823160e01b81523060048201529091506000906001600160a01b038416906370a082319060240160206040518083038186803b158015613e3157600080fd5b505afa158015613e45573d6000803e3d6000fd5b505050506040513d601f19601f82011682018060405250810190613e699190614d50565b9050613e856d2932bbb0b9322937baba32b92b1960911b610c77565b6003546000908152600e6020526040908190205490516303c2c06960e11b81526001600160a01b03929092169163078580d291613ec89160040190815260200190565b600060405180830381600087803b158015613ee257600080fd5b505af1158015613ef6573d6000803e3d6000fd5b50505050613f146d2932bbb0b9322937baba32b92b1960911b610c77565b6001600160a01b0316634e71d92d6040518163ffffffff1660e01b8152600401600060405180830381600087803b158015613f4e57600080fd5b505af1158015613f62573d6000803e3d6000fd5b50506040516370a0823160e01b81523060048201528492506001600160a01b03871691506370a082319060240160206040518083038186803b158015613fa757600080fd5b505afa158015613fbb573d6000803e3d6000fd5b505050506040513d601f19601f82011682018060405250810190613fdf9190614d50565b613fe99190614f77565b6040516370a0823160e01b815230600482015290925081906001600160a01b038516906370a082319060240160206040518083038186803b15801561402d57600080fd5b505afa158015614041573d6000803e3d6000fd5b505050506040513d601f19601f820116820180604052508101906140659190614d50565b61406f9190614f77565b90506000821180156140815750600081115b156140ab576003805460009081526016602090815260408083208690559254825260179052208190555b5050505050565b600080546001600160a01b038381166001600160a01b0319831681178455604051919092169283917f8be0079c531659141344cd1fd0a4f28419497f9722a3daafe3b4186f6b6457e09190a35050565b60025460ff16156141255760405162461bcd60e51b8152600401610b7c90614de5565b6002805460ff191660011790557f62e78cea01bee320cd4e420270b5ea74000d11b0c9f74754ebdbfc544b05a258613aae3390565b6040516001600160a01b03808516602483015283166044820152606481018290526141929085906323b872dd60e01b906084016139ed565b50505050565b60006141af6141aa6201518084614db4565b61463f565b50909392505050565b60006141ca6141aa6201518084614db4565b509392505050565b6000620151806141e38585856147b3565b610b519190614d7f565b6000806141fd6201518084614db4565b9050600761420c826003614faa565b614216919061503f565b611cf0906001614faa565b6000610b516141aa6201518084614db4565b600081614241603c85614d7f565b61424d610e1087614d7f565b6201518061425c8b8b8b6147b3565b6142669190614d7f565b6142709190614faa565b61427a9190614faa565b6142849190614faa565b979650505050505050565b6060816142b35750506040805180820190915260018152600360fc1b602082015290565b8160005b81156142dd57806142c781614f3f565b91506142d69050600a83614db4565b91506142b7565b6000816001600160401b038111156142f7576142f7614b97565b6040519080825280601f01601f191660200182016040528015614321576020820181803683370190505b5090505b8415610b5157614336600183614f77565b9150614343600a8661503f565b61434e906030614faa565b60f81b81838151811061436357614363614eea565b60200101906001600160f81b031916908160001a905350614385600a86614db4565b9450614325565b606082826040516020016143a1929190615053565b604051602081830303815290604052905092915050565b6000604051733d602d80600a3d3981f3363d3d373d3d3d363d7360601b81528260601b60148201526e5af43d82803e903d91602b57fd5bf360881b60288201526037816000f09150506001600160a01b0381166123b85760405162461bcd60e51b8152602060048201526016602482015275115490cc4c4d8dce8818dc99585d194819985a5b195960521b6044820152606401610b7c565b60006144a5826040518060400160405280602081526020017f5361666545524332303a206c6f772d6c6576656c2063616c6c206661696c6564815250856001600160a01b0316613a299092919063ffffffff16565b805190915015613a2457808060200190518101906144c39190615082565b613a245760405162461bcd60e51b815260206004820152602a60248201527f5361666545524332303a204552433230206f7065726174696f6e20646964206e6044820152691bdd081cdd58d8d9595960b21b6064820152608401610b7c565b6060824710156145835760405162461bcd60e51b815260206004820152602660248201527f416464726573733a20696e73756666696369656e742062616c616e636520666f6044820152651c8818d85b1b60d21b6064820152608401610b7c565b843b6145d15760405162461bcd60e51b815260206004820152601d60248201527f416464726573733a2063616c6c20746f206e6f6e2d636f6e74726163740000006044820152606401610b7c565b600080866001600160a01b031685876040516145ed91906150a4565b60006040518083038185875af1925050503d806000811461462a576040519150601f19603f3d011682016040523d82523d6000602084013e61462f565b606091505b50915091506142848282866148f0565b60008080838162253d8c6146568362010bd96150c0565b61466091906150c0565b9050600062023ab1614673836004615101565b61467d9190615186565b9050600461468e8262023ab1615101565b6146999060036150c0565b6146a39190615186565b6146ad90836151b4565b9150600062164b096146c08460016150c0565b6146cc90610fa0615101565b6146d69190615186565b905060046146e6826105b5615101565b6146f09190615186565b6146fa90846151b4565b61470590601f6150c0565b9250600061098f614717856050615101565b6147219190615186565b9050600060506147338361098f615101565b61473d9190615186565b61474790866151b4565b9050614754600b83615186565b945061476185600c615101565b61476c8360026150c0565b61477691906151b4565b915084836147856031876151b4565b614790906064615101565b61479a91906150c0565b6147a491906150c0565b9a919950975095505050505050565b60006107b28410156147c457600080fd5b838383600062253d8c60046064600c6147de600e886151b4565b6147e89190615186565b6147f4886113246150c0565b6147fe91906150c0565b6148089190615186565b614813906003615101565b61481d9190615186565b600c8061482b600e886151b4565b6148359190615186565b61484090600c615101565b61484b6002886151b4565b61485591906151b4565b6148619061016f615101565b61486b9190615186565b6004600c61487a600e896151b4565b6148849190615186565b614890896112c06150c0565b61489a91906150c0565b6148a6906105b5615101565b6148b09190615186565b6148bc617d4b876151b4565b6148c691906150c0565b6148d091906150c0565b6148da91906151b4565b6148e491906151b4565b98975050505050505050565b606083156148ff575081611cf0565b82511561490f5782518084602001fd5b8160405162461bcd60e51b8152600401610b7c91906151f3565b60405180604001604052806002906020820280368337509192915050565b828054828255906000526020600020908101928215614982579160200282015b82811115614982578251825591602001919060010190614967565b5061498e929150614992565b5090565b5b8082111561498e5760008155600101614993565b600080604083850312156149ba57600080fd5b50508035926020909101359150565b6000602082840312156149db57600080fd5b5035919050565b6020808252825182820181905260009190848201906040850190845b81811015614a1a578351835292840192918401916001016149fe565b50909695505050505050565b80356001600160a01b03811681146123b857600080fd5b600060208284031215614a4f57600080fd5b611cf082614a26565b60008060408385031215614a6b57600080fd5b82359150614a7b60208401614a26565b90509250929050565b60408101818360005b6002811015614aac578151835260209283019290910190600101614a8d565b50505092915050565b60008083601f840112614ac757600080fd5b5081356001600160401b03811115614ade57600080fd5b6020830191508360208260051b8501011115614af957600080fd5b9250929050565b60008060008060408587031215614b1657600080fd5b84356001600160401b0380821115614b2d57600080fd5b614b3988838901614ab5565b90965094506020870135915080821115614b5257600080fd5b50614b5f87828801614ab5565b95989497509550505050565b600080600060608486031215614b8057600080fd5b505081359360208301359350604090920135919050565b634e487b7160e01b600052604160045260246000fd5b600082601f830112614bbe57600080fd5b813560206001600160401b0380831115614bda57614bda614b97565b8260051b604051601f19603f83011681018181108482111715614bff57614bff614b97565b604052938452858101830193838101925087851115614c1d57600080fd5b83870191505b8482101561428457813583529183019190830190614c23565b600080600060608486031215614c5157600080fd5b83356001600160401b0380821115614c6857600080fd5b614c7487838801614bad565b94506020860135915080821115614c8a57600080fd5b50614c9786828701614bad565b925050614ca660408501614a26565b90509250925092565b6020808252825182820181905260009190848201906040850190845b81811015614a1a5783516001600160a01b031683529284019291840191600101614ccb565b600080600060608486031215614d0557600080fd5b8335925060208401359150614ca660408501614a26565b600060208284031215614d2e57600080fd5b81356001600160401b03811115614d4457600080fd5b610b5184828501614bad565b600060208284031215614d6257600080fd5b5051919050565b634e487b7160e01b600052601160045260246000fd5b6000816000190483118215151615614d9957614d99614d69565b500290565b634e487b7160e01b600052601260045260246000fd5b600082614dc357614dc3614d9e565b500490565b60208082526003908201526245313360e81b604082015260600190565b60208082526010908201526f14185d5cd8589b194e881c185d5cd95960821b604082015260600190565b6020808252818101527f4f776e61626c653a2063616c6c6572206973206e6f7420746865206f776e6572604082015260600190565b60208082526003908201526245313760e81b604082015260600190565b60208082526003908201526222991960e91b604082015260600190565b6020808252602f908201527f436f6e747261637457686974656c6973743a20436f6e7472616374206d75737460408201526e081899481dda1a5d195b1a5cdd1959608a1b606082015260800190565b60208082526003908201526204531360ec1b604082015260600190565b634e487b7160e01b600052603260045260246000fd5b60208082526003908201526222989960e91b604082015260600190565b60609290921b6bffffffffffffffffffffffff19168252601482015260340190565b6000600019821415614f5357614f53614d69565b5060010190565b60208082526003908201526245313160e81b604082015260600190565b600082821015614f8957614f89614d69565b500390565b602080825260029082015261453360f01b604082015260600190565b60008219821115614fbd57614fbd614d69565b500190565b60005b83811015614fdd578181015183820152602001614fc5565b838111156141925750506000910152565b60008151808452615006816020860160208601614fc2565b601f01601f19169290920160200192915050565b60408152600061502d6040830185614fee565b828103602084015261232b8185614fee565b60008261504e5761504e614d9e565b500690565b60008351615065818460208801614fc2565b835190830190615079818360208801614fc2565b01949350505050565b60006020828403121561509457600080fd5b81518015158114611cf057600080fd5b600082516150b6818460208701614fc2565b9190910192915050565b600080821280156001600160ff1b03849003851316156150e2576150e2614d69565b600160ff1b83900384128116156150fb576150fb614d69565b50500190565b60006001600160ff1b038184138284138082168684048611161561512757615127614d69565b600160ff1b600087128281168783058912161561514657615146614d69565b6000871292508782058712848416161561516257615162614d69565b8785058712818416161561517857615178614d69565b505050929093029392505050565b60008261519557615195614d9e565b600160ff1b8214600019841416156151af576151af614d69565b500590565b60008083128015600160ff1b8501841216156151d2576151d2614d69565b6001600160ff1b03840183138116156151ed576151ed614d69565b50500390565b602081526000611cf06020830184614fee56fea26469706673582212200c67f35df16d7f5d0fff862860da4f679a5363469d2528304836b701d129db4464736f6c63430008090033608060405234801561001057600080fd5b50611eb6806100206000396000f3fe608060405234801561001057600080fd5b50600436106101cf5760003560e01c80635c975abb11610104578063a217fddf116100a2578063d539139311610071578063d5391393146103ce578063d547741f146103f5578063dd62ed3e14610408578063e63ab1e91461044157600080fd5b8063a217fddf1461038d578063a457c2d714610395578063a9059cbb146103a8578063ca15c873146103bb57600080fd5b80638456cb59116100de5780638456cb591461033f5780639010d07c1461034757806391d148541461037257806395d89b411461038557600080fd5b80635c975abb146102f757806370a082311461030357806379cc67901461032c57600080fd5b8063313ce567116101715780633f4ba83a1161014b5780633f4ba83a146102b657806340c10f19146102be57806342966c68146102d15780634cd88b76146102e457600080fd5b8063313ce5671461028157806336568abe1461029057806339509351146102a357600080fd5b806318160ddd116101ad57806318160ddd1461022457806323b872dd14610236578063248a9ca3146102495780632f2ff15d1461026c57600080fd5b806301ffc9a7146101d457806306fdde03146101fc578063095ea7b314610211575b600080fd5b6101e76101e23660046119fd565b610456565b60405190151581526020015b60405180910390f35b610204610481565b6040516101f39190611a53565b6101e761021f366004611aa2565b610513565b60cb545b6040519081526020016101f3565b6101e7610244366004611acc565b610529565b610228610257366004611b08565b60009081526065602052604090206001015490565b61027f61027a366004611b21565b6105d8565b005b604051601281526020016101f3565b61027f61029e366004611b21565b610603565b6101e76102b1366004611aa2565b610681565b61027f6106bd565b61027f6102cc366004611aa2565b610751565b61027f6102df366004611b08565b6107f0565b61027f6102f2366004611bf0565b6107fd565b61012d5460ff166101e7565b610228610311366004611c54565b6001600160a01b0316600090815260c9602052604090205490565b61027f61033a366004611aa2565b610874565b61027f6108f5565b61035a610355366004611c6f565b610987565b6040516001600160a01b0390911681526020016101f3565b6101e7610380366004611b21565b6109a6565b6102046109d1565b610228600081565b6101e76103a3366004611aa2565b6109e0565b6101e76103b6366004611aa2565b610a79565b6102286103c9366004611b08565b610a86565b6102287f9f2df0fed2c77648de5860a4cc508cd0818c85b8b8a1ab4ceeef8d981c8956a681565b61027f610403366004611b21565b610a9d565b610228610416366004611c91565b6001600160a01b03918216600090815260ca6020908152604080832093909416825291909152205490565b610228600080516020611e6183398151915281565b60006001600160e01b03198216635a05180f60e01b148061047b575061047b82610ac3565b92915050565b606060cc805461049090611cbb565b80601f01602080910402602001604051908101604052809291908181526020018280546104bc90611cbb565b80156105095780601f106104de57610100808354040283529160200191610509565b820191906000526020600020905b8154815290600101906020018083116104ec57829003601f168201915b5050505050905090565b6000610520338484610af8565b50600192915050565b6000610536848484610c1c565b6001600160a01b038416600090815260ca60209081526040808320338452909152902054828110156105c05760405162461bcd60e51b815260206004820152602860248201527f45524332303a207472616e7366657220616d6f756e74206578636565647320616044820152676c6c6f77616e636560c01b60648201526084015b60405180910390fd5b6105cd8533858403610af8565b506001949350505050565b6000828152606560205260409020600101546105f48133610df7565b6105fe8383610e5b565b505050565b6001600160a01b03811633146106735760405162461bcd60e51b815260206004820152602f60248201527f416363657373436f6e74726f6c3a2063616e206f6e6c792072656e6f756e636560448201526e103937b632b9903337b91039b2b63360891b60648201526084016105b7565b61067d8282610e7d565b5050565b33600081815260ca602090815260408083206001600160a01b038716845290915281205490916105209185906106b8908690611d0c565b610af8565b6106d5600080516020611e61833981519152336109a6565b6107475760405162461bcd60e51b815260206004820152603960248201527f45524332305072657365744d696e7465725061757365723a206d75737420686160448201527f76652070617573657220726f6c6520746f20756e70617573650000000000000060648201526084016105b7565b61074f610e9f565b565b61077b7f9f2df0fed2c77648de5860a4cc508cd0818c85b8b8a1ab4ceeef8d981c8956a6336109a6565b6107e65760405162461bcd60e51b815260206004820152603660248201527f45524332305072657365744d696e7465725061757365723a206d7573742068616044820152751d99481b5a5b9d195c881c9bdb19481d1bc81b5a5b9d60521b60648201526084016105b7565b61067d8282610f34565b6107fa338261101f565b50565b600054610100900460ff1680610816575060005460ff16155b6108325760405162461bcd60e51b81526004016105b790611d24565b600054610100900460ff16158015610854576000805461ffff19166101011790555b61085e8383611179565b80156105fe576000805461ff0019169055505050565b60006108808333610416565b9050818110156108de5760405162461bcd60e51b8152602060048201526024808201527f45524332303a206275726e20616d6f756e74206578636565647320616c6c6f77604482015263616e636560e01b60648201526084016105b7565b6108eb8333848403610af8565b6105fe838361101f565b61090d600080516020611e61833981519152336109a6565b61097f5760405162461bcd60e51b815260206004820152603760248201527f45524332305072657365744d696e7465725061757365723a206d75737420686160448201527f76652070617573657220726f6c6520746f20706175736500000000000000000060648201526084016105b7565b61074f61121c565b600082815260976020526040812061099f9083611299565b9392505050565b60009182526065602090815260408084206001600160a01b0393909316845291905290205460ff1690565b606060cd805461049090611cbb565b33600090815260ca602090815260408083206001600160a01b038616845290915281205482811015610a625760405162461bcd60e51b815260206004820152602560248201527f45524332303a2064656372656173656420616c6c6f77616e63652062656c6f77604482015264207a65726f60d81b60648201526084016105b7565b610a6f3385858403610af8565b5060019392505050565b6000610520338484610c1c565b600081815260976020526040812061047b906112a5565b600082815260656020526040902060010154610ab98133610df7565b6105fe8383610e7d565b60006001600160e01b03198216637965db0b60e01b148061047b57506301ffc9a760e01b6001600160e01b031983161461047b565b6001600160a01b038316610b5a5760405162461bcd60e51b8152602060048201526024808201527f45524332303a20617070726f76652066726f6d20746865207a65726f206164646044820152637265737360e01b60648201526084016105b7565b6001600160a01b038216610bbb5760405162461bcd60e51b815260206004820152602260248201527f45524332303a20617070726f766520746f20746865207a65726f206164647265604482015261737360f01b60648201526084016105b7565b6001600160a01b03838116600081815260ca602090815260408083209487168084529482529182902085905590518481527f8c5be1e5ebec7d5bd14f71427d1e84f3dd0314c0f7b2291e5b200ac8c7c3b925910160405180910390a3505050565b6001600160a01b038316610c805760405162461bcd60e51b815260206004820152602560248201527f45524332303a207472616e736665722066726f6d20746865207a65726f206164604482015264647265737360d81b60648201526084016105b7565b6001600160a01b038216610ce25760405162461bcd60e51b815260206004820152602360248201527f45524332303a207472616e7366657220746f20746865207a65726f206164647260448201526265737360e81b60648201526084016105b7565b610ced8383836112af565b6001600160a01b038316600090815260c9602052604090205481811015610d655760405162461bcd60e51b815260206004820152602660248201527f45524332303a207472616e7366657220616d6f756e7420657863656564732062604482015265616c616e636560d01b60648201526084016105b7565b6001600160a01b03808516600090815260c96020526040808220858503905591851681529081208054849290610d9c908490611d0c565b92505081905550826001600160a01b0316846001600160a01b03167fddf252ad1be2c89b69c2b068fc378daa952ba7f163c4a11628f55a4df523b3ef84604051610de891815260200190565b60405180910390a35b50505050565b610e0182826109a6565b61067d57610e19816001600160a01b031660146112ba565b610e248360206112ba565b604051602001610e35929190611d72565b60408051601f198184030181529082905262461bcd60e51b82526105b791600401611a53565b610e658282611456565b60008281526097602052604090206105fe90826114dc565b610e8782826114f1565b60008281526097602052604090206105fe9082611558565b61012d5460ff16610ee95760405162461bcd60e51b815260206004820152601460248201527314185d5cd8589b194e881b9bdd081c185d5cd95960621b60448201526064016105b7565b61012d805460ff191690557f5db9ee0a495bf2e6ff9c91a7834c1ba4fdd244a5e8aa4e537bd38aeae4b073aa335b6040516001600160a01b03909116815260200160405180910390a1565b6001600160a01b038216610f8a5760405162461bcd60e51b815260206004820152601f60248201527f45524332303a206d696e7420746f20746865207a65726f20616464726573730060448201526064016105b7565b610f96600083836112af565b8060cb6000828254610fa89190611d0c565b90915550506001600160a01b038216600090815260c9602052604081208054839290610fd5908490611d0c565b90915550506040518181526001600160a01b038316906000907fddf252ad1be2c89b69c2b068fc378daa952ba7f163c4a11628f55a4df523b3ef9060200160405180910390a35050565b6001600160a01b03821661107f5760405162461bcd60e51b815260206004820152602160248201527f45524332303a206275726e2066726f6d20746865207a65726f206164647265736044820152607360f81b60648201526084016105b7565b61108b826000836112af565b6001600160a01b038216600090815260c96020526040902054818110156110ff5760405162461bcd60e51b815260206004820152602260248201527f45524332303a206275726e20616d6f756e7420657863656564732062616c616e604482015261636560f01b60648201526084016105b7565b6001600160a01b038316600090815260c960205260408120838303905560cb805484929061112e908490611de7565b90915550506040518281526000906001600160a01b038516907fddf252ad1be2c89b69c2b068fc378daa952ba7f163c4a11628f55a4df523b3ef9060200160405180910390a3505050565b600054610100900460ff1680611192575060005460ff16155b6111ae5760405162461bcd60e51b81526004016105b790611d24565b600054610100900460ff161580156111d0576000805461ffff19166101011790555b6111d861156d565b6111e061156d565b6111e861156d565b6111f061156d565b6111fa83836115d8565b61120261156d565b61120a61166d565b61121261156d565b61085e83836116e3565b61012d5460ff16156112635760405162461bcd60e51b815260206004820152601060248201526f14185d5cd8589b194e881c185d5cd95960821b60448201526064016105b7565b61012d805460ff191660011790557f62e78cea01bee320cd4e420270b5ea74000d11b0c9f74754ebdbfc544b05a258610f173390565b600061099f8383611787565b600061047b825490565b6105fe8383836117b1565b606060006112c9836002611dfe565b6112d4906002611d0c565b67ffffffffffffffff8111156112ec576112ec611b4d565b6040519080825280601f01601f191660200182016040528015611316576020820181803683370190505b509050600360fc1b8160008151811061133157611331611e1d565b60200101906001600160f81b031916908160001a905350600f60fb1b8160018151811061136057611360611e1d565b60200101906001600160f81b031916908160001a9053506000611384846002611dfe565b61138f906001611d0c565b90505b6001811115611407576f181899199a1a9b1b9c1cb0b131b232b360811b85600f16601081106113c3576113c3611e1d565b1a60f81b8282815181106113d9576113d9611e1d565b60200101906001600160f81b031916908160001a90535060049490941c9361140081611e33565b9050611392565b50831561099f5760405162461bcd60e51b815260206004820181905260248201527f537472696e67733a20686578206c656e67746820696e73756666696369656e7460448201526064016105b7565b61146082826109a6565b61067d5760008281526065602090815260408083206001600160a01b03851684529091529020805460ff191660011790556114983390565b6001600160a01b0316816001600160a01b0316837f2f8788117e7eff1d82e926ec794901d17c78024a50270940304540a733656f0d60405160405180910390a45050565b600061099f836001600160a01b038416611818565b6114fb82826109a6565b1561067d5760008281526065602090815260408083206001600160a01b0385168085529252808320805460ff1916905551339285917ff6391f5c32d9c69d2a47ea670b442974b53935d1edc7fd64eb21e047a839171b9190a45050565b600061099f836001600160a01b038416611867565b600054610100900460ff1680611586575060005460ff16155b6115a25760405162461bcd60e51b81526004016105b790611d24565b600054610100900460ff161580156115c4576000805461ffff19166101011790555b80156107fa576000805461ff001916905550565b600054610100900460ff16806115f1575060005460ff16155b61160d5760405162461bcd60e51b81526004016105b790611d24565b600054610100900460ff1615801561162f576000805461ffff19166101011790555b82516116429060cc906020860190611964565b5081516116569060cd906020850190611964565b5080156105fe576000805461ff0019169055505050565b600054610100900460ff1680611686575060005460ff16155b6116a25760405162461bcd60e51b81526004016105b790611d24565b600054610100900460ff161580156116c4576000805461ffff19166101011790555b61012d805460ff1916905580156107fa576000805461ff001916905550565b600054610100900460ff16806116fc575060005460ff16155b6117185760405162461bcd60e51b81526004016105b790611d24565b600054610100900460ff1615801561173a576000805461ffff19166101011790555b61174560003361195a565b61176f7f9f2df0fed2c77648de5860a4cc508cd0818c85b8b8a1ab4ceeef8d981c8956a63361195a565b61085e600080516020611e618339815191523361195a565b600082600001828154811061179e5761179e611e1d565b9060005260206000200154905092915050565b61012d5460ff16156105fe5760405162461bcd60e51b815260206004820152602a60248201527f45524332305061757361626c653a20746f6b656e207472616e736665722077686044820152691a5b19481c185d5cd95960b21b60648201526084016105b7565b600081815260018301602052604081205461185f5750815460018181018455600084815260208082209093018490558454848252828601909352604090209190915561047b565b50600061047b565b6000818152600183016020526040812054801561195057600061188b600183611de7565b855490915060009061189f90600190611de7565b90508181146119045760008660000182815481106118bf576118bf611e1d565b90600052602060002001549050808760000184815481106118e2576118e2611e1d565b6000918252602080832090910192909255918252600188019052604090208390555b855486908061191557611915611e4a565b60019003818190600052602060002001600090559055856001016000868152602001908152602001600020600090556001935050505061047b565b600091505061047b565b61067d8282610e5b565b82805461197090611cbb565b90600052602060002090601f01602090048101928261199257600085556119d8565b82601f106119ab57805160ff19168380011785556119d8565b828001600101855582156119d8579182015b828111156119d85782518255916020019190600101906119bd565b506119e49291506119e8565b5090565b5b808211156119e457600081556001016119e9565b600060208284031215611a0f57600080fd5b81356001600160e01b03198116811461099f57600080fd5b60005b83811015611a42578181015183820152602001611a2a565b83811115610df15750506000910152565b6020815260008251806020840152611a72816040850160208701611a27565b601f01601f19169190910160400192915050565b80356001600160a01b0381168114611a9d57600080fd5b919050565b60008060408385031215611ab557600080fd5b611abe83611a86565b946020939093013593505050565b600080600060608486031215611ae157600080fd5b611aea84611a86565b9250611af860208501611a86565b9150604084013590509250925092565b600060208284031215611b1a57600080fd5b5035919050565b60008060408385031215611b3457600080fd5b82359150611b4460208401611a86565b90509250929050565b634e487b7160e01b600052604160045260246000fd5b600082601f830112611b7457600080fd5b813567ffffffffffffffff80821115611b8f57611b8f611b4d565b604051601f8301601f19908116603f01168101908282118183101715611bb757611bb7611b4d565b81604052838152866020858801011115611bd057600080fd5b836020870160208301376000602085830101528094505050505092915050565b60008060408385031215611c0357600080fd5b823567ffffffffffffffff80821115611c1b57600080fd5b611c2786838701611b63565b93506020850135915080821115611c3d57600080fd5b50611c4a85828601611b63565b9150509250929050565b600060208284031215611c6657600080fd5b61099f82611a86565b60008060408385031215611c8257600080fd5b50508035926020909101359150565b60008060408385031215611ca457600080fd5b611cad83611a86565b9150611b4460208401611a86565b600181811c90821680611ccf57607f821691505b60208210811415611cf057634e487b7160e01b600052602260045260246000fd5b50919050565b634e487b7160e01b600052601160045260246000fd5b60008219821115611d1f57611d1f611cf6565b500190565b6020808252602e908201527f496e697469616c697a61626c653a20636f6e747261637420697320616c72656160408201526d191e481a5b9a5d1a585b1a5e995960921b606082015260800190565b7f416363657373436f6e74726f6c3a206163636f756e7420000000000000000000815260008351611daa816017850160208801611a27565b7001034b99036b4b9b9b4b733903937b6329607d1b6017918401918201528351611ddb816028840160208801611a27565b01602801949350505050565b600082821015611df957611df9611cf6565b500390565b6000816000190483118215151615611e1857611e18611cf6565b500290565b634e487b7160e01b600052603260045260246000fd5b600081611e4257611e42611cf6565b506000190190565b634e487b7160e01b600052603160045260246000fdfe65d7a28e3265b37a6474929f336521b332c1681b933f6cb9f3376673440d862aa26469706673582212201e8e71d04321c61cbea798e0c220b88d5e37b921bdfb67b7e07db65b7fd1d00064736f6c63430008090033697e8381f00a7f3df6dd96caab109663285a5bca4805fbe06d6745a97b987c60",
  "devdoc": {
    "kind": "dev",
    "methods": {
      "addToContractWhitelist(address)": {
        "details": "add to the contract whitelist",
        "params": {
          "_contract": "the address of the contract to add to the contract whitelist"
        },
        "returns": {
          "_0": "whether the contract was successfully added to the whitelist"
        }
      },
      "bootstrap()": {
        "returns": {
          "_0": "Whether bootstrap was successful"
        }
      },
      "calculatePnl(uint256,uint256,uint256)": {
        "params": {
          "amount": "amount of options",
          "price": "price of GMX",
          "strike": "strike price of the the GMX option"
        }
      },
      "calculatePremium(uint256,uint256)": {
        "params": {
          "_amount": "Amount of options",
          "_strike": "Strike price of the option"
        }
      },
      "calculatePurchaseFees(uint256,uint256,uint256)": {
        "params": {
          "amount": "amount of options being bought",
          "price": "price of GMX",
          "strike": "strike price of the the GMX option"
        }
      },
      "calculateSettlementFees(uint256,uint256,uint256)": {
        "params": {
          "amount": "amount of options being settled",
          "pnl": "total pnl",
          "settlementPrice": "settlement price of GMX"
        }
      },
      "compound()": {
        "details": "RewardRouterV2's compound() claims & restakes esGmx rewards + multiplier points in a single tx",
        "returns": {
          "_0": "Whether compound was successful"
        }
      },
      "deposit(uint256,uint256,address)": {
        "params": {
          "amount": "Amount of GMX to deposit",
          "strikeIndex": "Index of strike",
          "user": "Address of the user to deposit for"
        },
        "returns": {
          "_0": "Whether deposit was successful"
        }
      },
      "depositMultiple(uint256[],uint256[],address)": {
        "params": {
          "amounts": "Amount of GMX to deposit into each strike index",
          "strikeIndices": "Indices of strikes to deposit into",
          "user": "Address of the user to deposit for"
        },
        "returns": {
          "_0": "Whether deposits went through successfully"
        }
      },
      "emergencyWithdraw()": {
        "details": "Can only be called by governance",
        "returns": {
          "_0": "Whether emergency withdraw was successful"
        }
      },
      "expireEpoch()": {
        "returns": {
          "_0": "Whether expire was successful"
        }
      },
      "expireEpoch(uint256)": {
        "returns": {
          "_0": "Whether expire was successful"
        }
      },
      "getAddress(bytes32)": {
        "params": {
          "name": "Name of the contract"
        },
        "returns": {
          "_0": "The address of the contract"
        }
      },
      "getEpochStrikeTokens(uint256)": {
        "params": {
          "epoch": "Target epoch"
        }
      },
      "getEpochStrikes(uint256)": {
        "params": {
          "epoch": "Target epoch"
        }
      },
      "getEpochTimes(uint256)": {
        "params": {
          "epoch": "Target epoch"
        }
      },
      "getMonthlyExpiryFromTimestamp(uint256)": {
        "params": {
          "timestamp": "Timestamp from which the monthly expiry is to be calculated"
        },
        "returns": {
          "_0": "The monthly expiry"
        }
      },
      "getTotalEpochCallsPurchased(uint256)": {
        "params": {
          "epoch": "Target epoch"
        }
      },
      "getTotalEpochPremium(uint256)": {
        "params": {
          "epoch": "Target epoch"
        }
      },
      "getTotalEpochStrikeDeposits(uint256)": {
        "params": {
          "epoch": "Target epoch"
        }
      },
      "getUserEpochCallsPurchased(uint256,address)": {
        "params": {
          "epoch": "Target epoch",
          "user": "Address of the user"
        }
      },
      "getUserEpochDeposits(uint256,address)": {
        "params": {
          "epoch": "Target epoch",
          "user": "Address of the user"
        }
      },
      "getUserEpochPremium(uint256,address)": {
        "params": {
          "epoch": "Target epoch",
          "user": "Address of the user"
        }
      },
      "isContract(address)": {
        "details": "checks for contract or eoa addresses",
        "params": {
          "addr": "the address to check"
        },
        "returns": {
          "_0": "whether the passed address is a contract address"
        }
      },
      "owner()": {
        "details": "Returns the address of the current owner."
      },
      "pause()": {
        "details": "Can only be called by governance",
        "returns": {
          "_0": "Whether it was successfully paused"
        }
      },
      "paused()": {
        "details": "Returns true if the contract is paused, and false otherwise."
      },
      "purchase(uint256,uint256,address)": {
        "params": {
          "amount": "Amount of calls to purchase",
          "strikeIndex": "Strike index for current epoch",
          "user": "User to purchase options for"
        },
        "returns": {
          "_0": "Whether purchase was successful"
        }
      },
      "removeFromContractWhitelist(address)": {
        "details": "remove from  the contract whitelist",
        "params": {
          "_contract": "the address of the contract to remove from the contract whitelist"
        },
        "returns": {
          "_0": "whether the contract was successfully removed from the whitelist"
        }
      },
      "renounceOwnership()": {
        "details": "Leaves the contract without owner. It will not be possible to call `onlyOwner` functions anymore. Can only be called by the current owner. NOTE: Renouncing ownership will leave the contract without an owner, thereby removing any functionality that is only available to the owner."
      },
      "setAddresses(bytes32[],address[])": {
        "params": {
          "destinations": "Addresses of the contract",
          "names": "Names of the contracts"
        },
        "returns": {
          "_0": "Whether the addresses were set"
        }
      },
      "setStrikes(uint256[])": {
        "params": {
          "strikes": "Strikes to set for next epoch"
        },
        "returns": {
          "_0": "Whether strikes were set"
        }
      },
      "settle(uint256,uint256,uint256)": {
        "params": {
          "amount": "Amount of options",
          "epoch": "The epoch",
          "strikeIndex": "Strike index"
        },
        "returns": {
          "pnl": "pnl"
        }
      },
      "transferOwnership(address)": {
        "details": "Transfers ownership of the contract to a new account (`newOwner`). Can only be called by the current owner."
      },
      "unpause()": {
        "details": "Can only be called by governance",
        "returns": {
          "_0": "Whether it was successfully unpaused"
        }
      },
      "updateExpireDelayTolerance(uint256)": {
        "details": "Can only be called by governance",
        "returns": {
          "_0": "Whether it was successfully updated"
        }
      },
      "withdraw(uint256,uint256)": {
        "params": {
          "strikeIndex": "Index of strike",
          "withdrawEpoch": "Epoch to withdraw from"
        },
        "returns": {
          "_0": "GMX withdrawn and fees claimed"
        }
      }
    },
    "stateVariables": {
      "addresses": {
        "details": "The list of contract addresses the contract uses"
      },
      "currentEpoch": {
        "details": "Current epoch for ssov"
      },
      "epochStartTimes": {
        "details": "epoch => the epoch start time"
      },
      "epochStrikeTokens": {
        "details": "Mapping of (epoch => (strike => tokens))"
      },
      "epochStrikes": {
        "details": "Mapping of strikes for each epoch"
      },
      "erc20Implementation": {
        "details": "ERC20PresetMinterPauserUpgradeable implementation address"
      },
      "expireDelayTolerance": {
        "details": "Expire delay tolerance"
      },
      "isEpochExpired": {
        "details": "epoch => whether the epoch is expired"
      },
      "isVaultReady": {
        "details": "epoch => whether the vault is ready (boostrapped)"
      },
      "settlementPrices": {
        "details": "epoch => settlement price"
      },
      "totalEpochBalance": {
        "details": "mapping (epoch => deposits)"
      },
      "totalEpochCallsPurchased": {
        "details": "mapping (epoch => (strike => calls purchased))"
      },
      "totalEpochDeposits": {
        "details": "mapping (epoch => deposits)"
      },
      "totalEpochPremium": {
        "details": "mapping (epoch => (strike => premium))"
      },
      "totalEpochStrikeBalance": {
        "details": "mapping (epoch => (strike => deposits))"
      },
      "totalEpochStrikeDeposits": {
        "details": "mapping (epoch => (strike => deposits))"
      },
      "totalEpochStrikeGmxBalance": {
        "details": "mapping (epoch => (strike => balance))"
      },
      "totalEsGmxClaimed": {
        "details": "epoch => claimed esGMX"
      },
      "totalGmxFeesClaimed": {
        "details": "epoch => claimed ETH Fees"
      },
      "userEpochCallsPurchased": {
        "details": "mapping (epoch => (abi.encodePacked(user, strike) => user calls purchased))"
      },
      "userEpochDeposits": {
        "details": "mapping (epoch => (abi.encodePacked(user, strike) => user deposits))"
      },
      "userEpochPremium": {
        "details": "mapping (epoch => (abi.encodePacked(user, strike) => user premium))"
      }
    },
    "version": 1
  },
  "userdoc": {
    "kind": "user",
    "methods": {
      "bootstrap()": {
        "notice": "Bootstraps a new epoch and mints option tokens equivalent to user deposits for the epoch"
      },
      "calculatePnl(uint256,uint256,uint256)": {
        "notice": "Calculate Pnl"
      },
      "calculatePremium(uint256,uint256)": {
        "notice": "Calculate premium for an option"
      },
      "calculatePurchaseFees(uint256,uint256,uint256)": {
        "notice": "Calculate Fees for purchase"
      },
      "calculateSettlementFees(uint256,uint256,uint256)": {
        "notice": "Calculate Fees for settlement"
      },
      "compound()": {
        "notice": "Call compound()"
      },
      "deposit(uint256,uint256,address)": {
        "notice": "Deposits GMX into the ssov to mint options in the next epoch for selected strikes"
      },
      "depositMultiple(uint256[],uint256[],address)": {
        "notice": "Deposit GMX multiple times"
      },
      "emergencyWithdraw()": {
        "notice": "Transfers all funds to msg.sender"
      },
      "expireEpoch()": {
        "notice": "Sets the current epoch as expired."
      },
      "expireEpoch(uint256)": {
        "notice": "Sets the current epoch as expired."
      },
      "getAddress(bytes32)": {
        "notice": "Gets the address of a set contract"
      },
      "getEpochStrikeTokens(uint256)": {
        "notice": "Returns epoch strike tokens array for an epoch"
      },
      "getEpochStrikes(uint256)": {
        "notice": "Returns epoch strikes array for an epoch"
      },
      "getEpochTimes(uint256)": {
        "notice": "Returns start and end times for an epoch"
      },
      "getMonthlyExpiryFromTimestamp(uint256)": {
        "notice": "Calculates the monthly expiry from a solidity date"
      },
      "getTotalEpochCallsPurchased(uint256)": {
        "notice": "Returns total epoch calls purchased array for an epoch"
      },
      "getTotalEpochPremium(uint256)": {
        "notice": "Returns total epoch premium array for an epoch"
      },
      "getTotalEpochStrikeDeposits(uint256)": {
        "notice": "Returns total epoch strike deposits array for an epoch"
      },
      "getUsdPrice()": {
        "notice": "Returns GMX price in USD"
      },
      "getUserEpochCallsPurchased(uint256,address)": {
        "notice": "Returns user epoch calls purchased array for an epoch"
      },
      "getUserEpochDeposits(uint256,address)": {
        "notice": "Returns user epoch deposits array for an epoch"
      },
      "getUserEpochPremium(uint256,address)": {
        "notice": "Returns user epoch premium array for an epoch"
      },
      "initiateEsGmxRewardsTransfer(uint256,address)": {
        "notice": "transfer all esGMX rewards earned to an EOA"
      },
      "isEpochExpired(uint256)": {
        "notice": "Is epoch expired"
      },
      "isVaultReady(uint256)": {
        "notice": "Is vault ready for next epoch"
      },
      "pause()": {
        "notice": "Pauses the vault for emergency cases"
      },
      "purchase(uint256,uint256,address)": {
        "notice": "Purchases calls for the current epoch"
      },
      "setAddresses(bytes32[],address[])": {
        "notice": "Sets (adds) a list of addresses to the address list"
      },
      "setStrikes(uint256[])": {
        "notice": "Sets strikes for next epoch"
      },
      "settle(uint256,uint256,uint256)": {
        "notice": "Settle calculates the PnL for the user and withdraws the PnL in GMX to the user. Will also the burn the option tokens from the user."
      },
      "totalEpochBalance(uint256)": {
        "notice": "Total epoch deposits across all strikes including premiums and rewards"
      },
      "totalEpochDeposits(uint256)": {
        "notice": "Total epoch deposits across all strikes"
      },
      "totalEpochPremium(uint256,uint256)": {
        "notice": "Premium collected per strike for an epoch"
      },
      "totalEpochStrikeBalance(uint256,uint256)": {
        "notice": "Total epoch deposits for specific strikes including premiums and rewards"
      },
      "totalEpochStrikeDeposits(uint256,uint256)": {
        "notice": "Total epoch deposits for specific strikes"
      },
      "totalEpochStrikeGmxBalance(uint256,uint256)": {
        "notice": "Epoch GMX balance per strike after accounting for rewards"
      },
      "unpause()": {
        "notice": "Unpauses the vault"
      },
      "updateExpireDelayTolerance(uint256)": {
        "notice": "Updates the delay tolerance for the expiry epoch function"
      },
      "userEpochCallsPurchased(uint256,bytes32)": {
        "notice": "Calls purchased by user for each strike"
      },
      "userEpochDeposits(uint256,bytes32)": {
        "notice": "Epoch deposits by user for each strike"
      },
      "userEpochPremium(uint256,bytes32)": {
        "notice": "User premium collected per strike for an epoch"
      },
      "withdraw(uint256,uint256)": {
        "notice": "Withdraws balances for a strike in a completed epoch"
      }
    },
    "version": 1
  },
  "storageLayout": {
    "storage": [
      {
        "astId": 3344,
        "contract": "contracts/SSOV/GmxSSOV.sol:GmxSSOV",
        "label": "_owner",
        "offset": 0,
        "slot": "0",
        "type": "t_address"
      },
      {
        "astId": 46872,
        "contract": "contracts/SSOV/GmxSSOV.sol:GmxSSOV",
        "label": "whitelistedContracts",
        "offset": 0,
        "slot": "1",
        "type": "t_mapping(t_address,t_bool)"
      },
      {
        "astId": 3585,
        "contract": "contracts/SSOV/GmxSSOV.sol:GmxSSOV",
        "label": "_paused",
        "offset": 0,
        "slot": "2",
        "type": "t_bool"
      },
      {
        "astId": 14211,
        "contract": "contracts/SSOV/GmxSSOV.sol:GmxSSOV",
        "label": "currentEpoch",
        "offset": 0,
        "slot": "3",
        "type": "t_uint256"
      },
      {
        "astId": 14215,
        "contract": "contracts/SSOV/GmxSSOV.sol:GmxSSOV",
        "label": "expireDelayTolerance",
        "offset": 0,
        "slot": "4",
        "type": "t_uint256"
      },
      {
        "astId": 14220,
        "contract": "contracts/SSOV/GmxSSOV.sol:GmxSSOV",
        "label": "addresses",
        "offset": 0,
        "slot": "5",
        "type": "t_mapping(t_bytes32,t_address)"
      },
      {
        "astId": 14225,
        "contract": "contracts/SSOV/GmxSSOV.sol:GmxSSOV",
        "label": "epochStartTimes",
        "offset": 0,
        "slot": "6",
        "type": "t_mapping(t_uint256,t_uint256)"
      },
      {
        "astId": 14230,
        "contract": "contracts/SSOV/GmxSSOV.sol:GmxSSOV",
        "label": "isEpochExpired",
        "offset": 0,
        "slot": "7",
        "type": "t_mapping(t_uint256,t_bool)"
      },
      {
        "astId": 14235,
        "contract": "contracts/SSOV/GmxSSOV.sol:GmxSSOV",
        "label": "isVaultReady",
        "offset": 0,
        "slot": "8",
        "type": "t_mapping(t_uint256,t_bool)"
      },
      {
        "astId": 14241,
        "contract": "contracts/SSOV/GmxSSOV.sol:GmxSSOV",
        "label": "epochStrikes",
        "offset": 0,
        "slot": "9",
        "type": "t_mapping(t_uint256,t_array(t_uint256)dyn_storage)"
      },
      {
        "astId": 14248,
        "contract": "contracts/SSOV/GmxSSOV.sol:GmxSSOV",
        "label": "epochStrikeTokens",
        "offset": 0,
        "slot": "10",
        "type": "t_mapping(t_uint256,t_mapping(t_uint256,t_address))"
      },
      {
        "astId": 14255,
        "contract": "contracts/SSOV/GmxSSOV.sol:GmxSSOV",
        "label": "totalEpochStrikeDeposits",
        "offset": 0,
        "slot": "11",
        "type": "t_mapping(t_uint256,t_mapping(t_uint256,t_uint256))"
      },
      {
        "astId": 14260,
        "contract": "contracts/SSOV/GmxSSOV.sol:GmxSSOV",
        "label": "totalEpochDeposits",
        "offset": 0,
        "slot": "12",
        "type": "t_mapping(t_uint256,t_uint256)"
      },
      {
        "astId": 14267,
        "contract": "contracts/SSOV/GmxSSOV.sol:GmxSSOV",
        "label": "totalEpochStrikeBalance",
        "offset": 0,
        "slot": "13",
        "type": "t_mapping(t_uint256,t_mapping(t_uint256,t_uint256))"
      },
      {
        "astId": 14272,
        "contract": "contracts/SSOV/GmxSSOV.sol:GmxSSOV",
        "label": "totalEpochBalance",
        "offset": 0,
        "slot": "14",
        "type": "t_mapping(t_uint256,t_uint256)"
      },
      {
        "astId": 14279,
        "contract": "contracts/SSOV/GmxSSOV.sol:GmxSSOV",
        "label": "userEpochDeposits",
        "offset": 0,
        "slot": "15",
        "type": "t_mapping(t_uint256,t_mapping(t_bytes32,t_uint256))"
      },
      {
        "astId": 14286,
        "contract": "contracts/SSOV/GmxSSOV.sol:GmxSSOV",
        "label": "totalEpochStrikeGmxBalance",
        "offset": 0,
        "slot": "16",
        "type": "t_mapping(t_uint256,t_mapping(t_uint256,t_uint256))"
      },
      {
        "astId": 14293,
        "contract": "contracts/SSOV/GmxSSOV.sol:GmxSSOV",
        "label": "totalEpochCallsPurchased",
        "offset": 0,
        "slot": "17",
        "type": "t_mapping(t_uint256,t_mapping(t_uint256,t_uint256))"
      },
      {
        "astId": 14300,
        "contract": "contracts/SSOV/GmxSSOV.sol:GmxSSOV",
        "label": "userEpochCallsPurchased",
        "offset": 0,
        "slot": "18",
        "type": "t_mapping(t_uint256,t_mapping(t_bytes32,t_uint256))"
      },
      {
        "astId": 14307,
        "contract": "contracts/SSOV/GmxSSOV.sol:GmxSSOV",
        "label": "totalEpochPremium",
        "offset": 0,
        "slot": "19",
        "type": "t_mapping(t_uint256,t_mapping(t_uint256,t_uint256))"
      },
      {
        "astId": 14314,
        "contract": "contracts/SSOV/GmxSSOV.sol:GmxSSOV",
        "label": "userEpochPremium",
        "offset": 0,
        "slot": "20",
        "type": "t_mapping(t_uint256,t_mapping(t_bytes32,t_uint256))"
      },
      {
        "astId": 14319,
        "contract": "contracts/SSOV/GmxSSOV.sol:GmxSSOV",
        "label": "settlementPrices",
        "offset": 0,
        "slot": "21",
        "type": "t_mapping(t_uint256,t_uint256)"
      },
      {
        "astId": 14324,
        "contract": "contracts/SSOV/GmxSSOV.sol:GmxSSOV",
        "label": "totalGmxFeesClaimed",
        "offset": 0,
        "slot": "22",
        "type": "t_mapping(t_uint256,t_uint256)"
      },
      {
        "astId": 14329,
        "contract": "contracts/SSOV/GmxSSOV.sol:GmxSSOV",
        "label": "totalEsGmxClaimed",
        "offset": 0,
        "slot": "23",
        "type": "t_mapping(t_uint256,t_uint256)"
      }
    ],
    "types": {
      "t_address": {
        "encoding": "inplace",
        "label": "address",
        "numberOfBytes": "20"
      },
      "t_array(t_uint256)dyn_storage": {
        "base": "t_uint256",
        "encoding": "dynamic_array",
        "label": "uint256[]",
        "numberOfBytes": "32"
      },
      "t_bool": {
        "encoding": "inplace",
        "label": "bool",
        "numberOfBytes": "1"
      },
      "t_bytes32": {
        "encoding": "inplace",
        "label": "bytes32",
        "numberOfBytes": "32"
      },
      "t_mapping(t_address,t_bool)": {
        "encoding": "mapping",
        "key": "t_address",
        "label": "mapping(address => bool)",
        "numberOfBytes": "32",
        "value": "t_bool"
      },
      "t_mapping(t_bytes32,t_address)": {
        "encoding": "mapping",
        "key": "t_bytes32",
        "label": "mapping(bytes32 => address)",
        "numberOfBytes": "32",
        "value": "t_address"
      },
      "t_mapping(t_bytes32,t_uint256)": {
        "encoding": "mapping",
        "key": "t_bytes32",
        "label": "mapping(bytes32 => uint256)",
        "numberOfBytes": "32",
        "value": "t_uint256"
      },
      "t_mapping(t_uint256,t_address)": {
        "encoding": "mapping",
        "key": "t_uint256",
        "label": "mapping(uint256 => address)",
        "numberOfBytes": "32",
        "value": "t_address"
      },
      "t_mapping(t_uint256,t_array(t_uint256)dyn_storage)": {
        "encoding": "mapping",
        "key": "t_uint256",
        "label": "mapping(uint256 => uint256[])",
        "numberOfBytes": "32",
        "value": "t_array(t_uint256)dyn_storage"
      },
      "t_mapping(t_uint256,t_bool)": {
        "encoding": "mapping",
        "key": "t_uint256",
        "label": "mapping(uint256 => bool)",
        "numberOfBytes": "32",
        "value": "t_bool"
      },
      "t_mapping(t_uint256,t_mapping(t_bytes32,t_uint256))": {
        "encoding": "mapping",
        "key": "t_uint256",
        "label": "mapping(uint256 => mapping(bytes32 => uint256))",
        "numberOfBytes": "32",
        "value": "t_mapping(t_bytes32,t_uint256)"
      },
      "t_mapping(t_uint256,t_mapping(t_uint256,t_address))": {
        "encoding": "mapping",
        "key": "t_uint256",
        "label": "mapping(uint256 => mapping(uint256 => address))",
        "numberOfBytes": "32",
        "value": "t_mapping(t_uint256,t_address)"
      },
      "t_mapping(t_uint256,t_mapping(t_uint256,t_uint256))": {
        "encoding": "mapping",
        "key": "t_uint256",
        "label": "mapping(uint256 => mapping(uint256 => uint256))",
        "numberOfBytes": "32",
        "value": "t_mapping(t_uint256,t_uint256)"
      },
      "t_mapping(t_uint256,t_uint256)": {
        "encoding": "mapping",
        "key": "t_uint256",
        "label": "mapping(uint256 => uint256)",
        "numberOfBytes": "32",
        "value": "t_uint256"
      },
      "t_uint256": {
        "encoding": "inplace",
        "label": "uint256",
        "numberOfBytes": "32"
      }
    }
  }
}