{
  "address": "0x460F95323a32e26c8d32346Abe73Eb94d7Db08D6",
  "abi": [
    {
      "inputs": [
        {
          "internalType": "address",
          "name": "_gohm",
          "type": "address"
        },
        {
          "internalType": "address",
          "name": "_optionPricing",
          "type": "address"
        },
        {
          "internalType": "address",
          "name": "_gohmPriceOracle",
          "type": "address"
        },
        {
          "internalType": "address",
          "name": "_volatilityOracle",
          "type": "address"
        },
        {
          "internalType": "address",
          "name": "_feeDistributor",
          "type": "address"
        },
        {
          "internalType": "address",
          "name": "_feeStrategy",
          "type": "address"
        }
      ],
      "stateMutability": "nonpayable",
      "type": "constructor"
    },
    {
      "anonymous": false,
      "inputs": [
        {
          "indexed": true,
          "internalType": "address",
          "name": "_contract",
          "type": "address"
        }
      ],
      "name": "AddToContractWhitelist",
      "type": "event"
    },
    {
      "anonymous": false,
      "inputs": [
        {
          "indexed": true,
          "internalType": "bytes32",
          "name": "name",
          "type": "bytes32"
        },
        {
          "indexed": true,
          "internalType": "address",
          "name": "destination",
          "type": "address"
        }
      ],
      "name": "AddressSet",
      "type": "event"
    },
    {
      "anonymous": false,
      "inputs": [
        {
          "indexed": false,
          "internalType": "uint256",
          "name": "epoch",
          "type": "uint256"
        }
      ],
      "name": "Bootstrap",
      "type": "event"
    },
    {
      "anonymous": false,
      "inputs": [
        {
          "indexed": false,
          "internalType": "address",
          "name": "sender",
          "type": "address"
        },
        {
          "indexed": false,
          "internalType": "uint256",
          "name": "gohmWithdrawn",
          "type": "uint256"
        }
      ],
      "name": "EmergencyWithdraw",
      "type": "event"
    },
    {
      "anonymous": false,
      "inputs": [
        {
          "indexed": false,
          "internalType": "uint256",
          "name": "expireDelayTolerance",
          "type": "uint256"
        }
      ],
      "name": "ExpireDelayToleranceUpdate",
      "type": "event"
    },
    {
      "anonymous": false,
      "inputs": [
        {
          "indexed": false,
          "internalType": "uint256",
          "name": "epoch",
          "type": "uint256"
        },
        {
          "indexed": false,
          "internalType": "uint256",
          "name": "settlementPrice",
          "type": "uint256"
        }
      ],
      "name": "ExpireEpoch",
      "type": "event"
    },
    {
      "anonymous": false,
      "inputs": [
        {
          "indexed": false,
          "internalType": "uint256",
          "name": "epoch",
          "type": "uint256"
        },
        {
          "indexed": false,
          "internalType": "uint256",
          "name": "strike",
          "type": "uint256"
        },
        {
          "indexed": false,
          "internalType": "uint256",
          "name": "amount",
          "type": "uint256"
        },
        {
          "indexed": false,
          "internalType": "address",
          "name": "user",
          "type": "address"
        },
        {
          "indexed": false,
          "internalType": "address",
          "name": "sender",
          "type": "address"
        }
      ],
      "name": "NewDeposit",
      "type": "event"
    },
    {
      "anonymous": false,
      "inputs": [
        {
          "indexed": false,
          "internalType": "uint256",
          "name": "epoch",
          "type": "uint256"
        },
        {
          "indexed": false,
          "internalType": "uint256",
          "name": "strike",
          "type": "uint256"
        },
        {
          "indexed": false,
          "internalType": "uint256",
          "name": "amount",
          "type": "uint256"
        },
        {
          "indexed": false,
          "internalType": "uint256",
          "name": "premium",
          "type": "uint256"
        },
        {
          "indexed": false,
          "internalType": "uint256",
          "name": "fee",
          "type": "uint256"
        },
        {
          "indexed": false,
          "internalType": "address",
          "name": "user",
          "type": "address"
        },
        {
          "indexed": false,
          "internalType": "address",
          "name": "sender",
          "type": "address"
        }
      ],
      "name": "NewPurchase",
      "type": "event"
    },
    {
      "anonymous": false,
      "inputs": [
        {
          "indexed": false,
          "internalType": "uint256",
          "name": "epoch",
          "type": "uint256"
        },
        {
          "indexed": false,
          "internalType": "uint256",
          "name": "strike",
          "type": "uint256"
        },
        {
          "indexed": false,
          "internalType": "address",
          "name": "user",
          "type": "address"
        },
        {
          "indexed": false,
          "internalType": "uint256",
          "name": "amount",
          "type": "uint256"
        },
        {
          "indexed": false,
          "internalType": "uint256",
          "name": "pnl",
          "type": "uint256"
        }
      ],
      "name": "NewSettle",
      "type": "event"
    },
    {
      "anonymous": false,
      "inputs": [
        {
          "indexed": false,
          "internalType": "uint256",
          "name": "epoch",
          "type": "uint256"
        },
        {
          "indexed": false,
          "internalType": "uint256",
          "name": "strike",
          "type": "uint256"
        }
      ],
      "name": "NewStrike",
      "type": "event"
    },
    {
      "anonymous": false,
      "inputs": [
        {
          "indexed": false,
          "internalType": "uint256",
          "name": "epoch",
          "type": "uint256"
        },
        {
          "indexed": false,
          "internalType": "uint256",
          "name": "strike",
          "type": "uint256"
        },
        {
          "indexed": false,
          "internalType": "address",
          "name": "user",
          "type": "address"
        },
        {
          "indexed": false,
          "internalType": "uint256",
          "name": "amount",
          "type": "uint256"
        },
        {
          "indexed": false,
          "internalType": "uint256",
          "name": "gohmAmount",
          "type": "uint256"
        }
      ],
      "name": "NewWithdraw",
      "type": "event"
    },
    {
      "anonymous": false,
      "inputs": [
        {
          "indexed": true,
          "internalType": "address",
          "name": "previousOwner",
          "type": "address"
        },
        {
          "indexed": true,
          "internalType": "address",
          "name": "newOwner",
          "type": "address"
        }
      ],
      "name": "OwnershipTransferred",
      "type": "event"
    },
    {
      "anonymous": false,
      "inputs": [
        {
          "indexed": false,
          "internalType": "address",
          "name": "account",
          "type": "address"
        }
      ],
      "name": "Paused",
      "type": "event"
    },
    {
      "anonymous": false,
      "inputs": [
        {
          "indexed": true,
          "internalType": "address",
          "name": "_contract",
          "type": "address"
        }
      ],
      "name": "RemoveFromContractWhitelist",
      "type": "event"
    },
    {
      "anonymous": false,
      "inputs": [
        {
          "indexed": false,
          "internalType": "address",
          "name": "account",
          "type": "address"
        }
      ],
      "name": "Unpaused",
      "type": "event"
    },
    {
      "inputs": [
        {
          "internalType": "address",
          "name": "_contract",
          "type": "address"
        }
      ],
      "name": "addToContractWhitelist",
      "outputs": [
        {
          "internalType": "bool",
          "name": "",
          "type": "bool"
        }
      ],
      "stateMutability": "nonpayable",
      "type": "function"
    },
    {
      "inputs": [
        {
          "internalType": "bytes32",
          "name": "",
          "type": "bytes32"
        }
      ],
      "name": "addresses",
      "outputs": [
        {
          "internalType": "address",
          "name": "",
          "type": "address"
        }
      ],
      "stateMutability": "view",
      "type": "function"
    },
    {
      "inputs": [],
      "name": "bootstrap",
      "outputs": [
        {
          "internalType": "bool",
          "name": "",
          "type": "bool"
        }
      ],
      "stateMutability": "nonpayable",
      "type": "function"
    },
    {
      "inputs": [
        {
          "internalType": "uint256",
          "name": "price",
          "type": "uint256"
        },
        {
          "internalType": "uint256",
          "name": "strike",
          "type": "uint256"
        },
        {
          "internalType": "uint256",
          "name": "amount",
          "type": "uint256"
        }
      ],
      "name": "calculatePnl",
      "outputs": [
        {
          "internalType": "uint256",
          "name": "",
          "type": "uint256"
        }
      ],
      "stateMutability": "pure",
      "type": "function"
    },
    {
      "inputs": [
        {
          "internalType": "uint256",
          "name": "_strike",
          "type": "uint256"
        },
        {
          "internalType": "uint256",
          "name": "_amount",
          "type": "uint256"
        }
      ],
      "name": "calculatePremium",
      "outputs": [
        {
          "internalType": "uint256",
          "name": "premium",
          "type": "uint256"
        }
      ],
      "stateMutability": "view",
      "type": "function"
    },
    {
      "inputs": [
        {
          "internalType": "uint256",
          "name": "price",
          "type": "uint256"
        },
        {
          "internalType": "uint256",
          "name": "strike",
          "type": "uint256"
        },
        {
          "internalType": "uint256",
          "name": "amount",
          "type": "uint256"
        }
      ],
      "name": "calculatePurchaseFees",
      "outputs": [
        {
          "internalType": "uint256",
          "name": "",
          "type": "uint256"
        }
      ],
      "stateMutability": "view",
      "type": "function"
    },
    {
      "inputs": [
        {
          "internalType": "uint256",
          "name": "settlementPrice",
          "type": "uint256"
        },
        {
          "internalType": "uint256",
          "name": "pnl",
          "type": "uint256"
        },
        {
          "internalType": "uint256",
          "name": "amount",
          "type": "uint256"
        }
      ],
      "name": "calculateSettlementFees",
      "outputs": [
        {
          "internalType": "uint256",
          "name": "",
          "type": "uint256"
        }
      ],
      "stateMutability": "view",
      "type": "function"
    },
    {
      "inputs": [],
      "name": "currentEpoch",
      "outputs": [
        {
          "internalType": "uint256",
          "name": "",
          "type": "uint256"
        }
      ],
      "stateMutability": "view",
      "type": "function"
    },
    {
      "inputs": [
        {
          "internalType": "uint256",
          "name": "strikeIndex",
          "type": "uint256"
        },
        {
          "internalType": "uint256",
          "name": "amount",
          "type": "uint256"
        },
        {
          "internalType": "address",
          "name": "user",
          "type": "address"
        }
      ],
      "name": "deposit",
      "outputs": [
        {
          "internalType": "bool",
          "name": "",
          "type": "bool"
        }
      ],
      "stateMutability": "nonpayable",
      "type": "function"
    },
    {
      "inputs": [
        {
          "internalType": "uint256[]",
          "name": "strikeIndices",
          "type": "uint256[]"
        },
        {
          "internalType": "uint256[]",
          "name": "amounts",
          "type": "uint256[]"
        },
        {
          "internalType": "address",
          "name": "user",
          "type": "address"
        }
      ],
      "name": "depositMultiple",
      "outputs": [
        {
          "internalType": "bool",
          "name": "",
          "type": "bool"
        }
      ],
      "stateMutability": "nonpayable",
      "type": "function"
    },
    {
      "inputs": [],
      "name": "emergencyWithdraw",
      "outputs": [
        {
          "internalType": "bool",
          "name": "",
          "type": "bool"
        }
      ],
      "stateMutability": "nonpayable",
      "type": "function"
    },
    {
      "inputs": [
        {
          "internalType": "uint256",
          "name": "",
          "type": "uint256"
        }
      ],
      "name": "epochStartTimes",
      "outputs": [
        {
          "internalType": "uint256",
          "name": "",
          "type": "uint256"
        }
      ],
      "stateMutability": "view",
      "type": "function"
    },
    {
      "inputs": [
        {
          "internalType": "uint256",
          "name": "",
          "type": "uint256"
        },
        {
          "internalType": "uint256",
          "name": "",
          "type": "uint256"
        }
      ],
      "name": "epochStrikeTokens",
      "outputs": [
        {
          "internalType": "address",
          "name": "",
          "type": "address"
        }
      ],
      "stateMutability": "view",
      "type": "function"
    },
    {
      "inputs": [
        {
          "internalType": "uint256",
          "name": "",
          "type": "uint256"
        },
        {
          "internalType": "uint256",
          "name": "",
          "type": "uint256"
        }
      ],
      "name": "epochStrikes",
      "outputs": [
        {
          "internalType": "uint256",
          "name": "",
          "type": "uint256"
        }
      ],
      "stateMutability": "view",
      "type": "function"
    },
    {
      "inputs": [],
      "name": "erc20Implementation",
      "outputs": [
        {
          "internalType": "address",
          "name": "",
          "type": "address"
        }
      ],
      "stateMutability": "view",
      "type": "function"
    },
    {
      "inputs": [],
      "name": "expireDelayTolerance",
      "outputs": [
        {
          "internalType": "uint256",
          "name": "",
          "type": "uint256"
        }
      ],
      "stateMutability": "view",
      "type": "function"
    },
    {
      "inputs": [],
      "name": "expireEpoch",
      "outputs": [
        {
          "internalType": "bool",
          "name": "",
          "type": "bool"
        }
      ],
      "stateMutability": "nonpayable",
      "type": "function"
    },
    {
      "inputs": [
        {
          "internalType": "uint256",
          "name": "settlementPrice",
          "type": "uint256"
        }
      ],
      "name": "expireEpoch",
      "outputs": [
        {
          "internalType": "bool",
          "name": "",
          "type": "bool"
        }
      ],
      "stateMutability": "nonpayable",
      "type": "function"
    },
    {
      "inputs": [
        {
          "internalType": "bytes32",
          "name": "name",
          "type": "bytes32"
        }
      ],
      "name": "getAddress",
      "outputs": [
        {
          "internalType": "address",
          "name": "",
          "type": "address"
        }
      ],
      "stateMutability": "view",
      "type": "function"
    },
    {
      "inputs": [
        {
          "internalType": "uint256",
          "name": "epoch",
          "type": "uint256"
        }
      ],
      "name": "getEpochStrikeTokens",
      "outputs": [
        {
          "internalType": "address[]",
          "name": "",
          "type": "address[]"
        }
      ],
      "stateMutability": "view",
      "type": "function"
    },
    {
      "inputs": [
        {
          "internalType": "uint256",
          "name": "epoch",
          "type": "uint256"
        }
      ],
      "name": "getEpochStrikes",
      "outputs": [
        {
          "internalType": "uint256[]",
          "name": "",
          "type": "uint256[]"
        }
      ],
      "stateMutability": "view",
      "type": "function"
    },
    {
      "inputs": [
        {
          "internalType": "uint256",
          "name": "epoch",
          "type": "uint256"
        }
      ],
      "name": "getEpochTimes",
      "outputs": [
        {
          "internalType": "uint256",
          "name": "start",
          "type": "uint256"
        },
        {
          "internalType": "uint256",
          "name": "end",
          "type": "uint256"
        }
      ],
      "stateMutability": "view",
      "type": "function"
    },
    {
      "inputs": [
        {
          "internalType": "uint256",
          "name": "timestamp",
          "type": "uint256"
        }
      ],
      "name": "getMonthlyExpiryFromTimestamp",
      "outputs": [
        {
          "internalType": "uint256",
          "name": "",
          "type": "uint256"
        }
      ],
      "stateMutability": "pure",
      "type": "function"
    },
    {
      "inputs": [
        {
          "internalType": "uint256",
          "name": "epoch",
          "type": "uint256"
        }
      ],
      "name": "getTotalEpochCallsPurchased",
      "outputs": [
        {
          "internalType": "uint256[]",
          "name": "",
          "type": "uint256[]"
        }
      ],
      "stateMutability": "view",
      "type": "function"
    },
    {
      "inputs": [
        {
          "internalType": "uint256",
          "name": "epoch",
          "type": "uint256"
        }
      ],
      "name": "getTotalEpochPremium",
      "outputs": [
        {
          "internalType": "uint256[]",
          "name": "",
          "type": "uint256[]"
        }
      ],
      "stateMutability": "view",
      "type": "function"
    },
    {
      "inputs": [
        {
          "internalType": "uint256",
          "name": "epoch",
          "type": "uint256"
        }
      ],
      "name": "getTotalEpochStrikeDeposits",
      "outputs": [
        {
          "internalType": "uint256[]",
          "name": "",
          "type": "uint256[]"
        }
      ],
      "stateMutability": "view",
      "type": "function"
    },
    {
      "inputs": [],
      "name": "getUsdPrice",
      "outputs": [
        {
          "internalType": "uint256",
          "name": "price",
          "type": "uint256"
        }
      ],
      "stateMutability": "view",
      "type": "function"
    },
    {
      "inputs": [
        {
          "internalType": "uint256",
          "name": "epoch",
          "type": "uint256"
        },
        {
          "internalType": "address",
          "name": "user",
          "type": "address"
        }
      ],
      "name": "getUserEpochCallsPurchased",
      "outputs": [
        {
          "internalType": "uint256[]",
          "name": "",
          "type": "uint256[]"
        }
      ],
      "stateMutability": "view",
      "type": "function"
    },
    {
      "inputs": [
        {
          "internalType": "uint256",
          "name": "epoch",
          "type": "uint256"
        },
        {
          "internalType": "address",
          "name": "user",
          "type": "address"
        }
      ],
      "name": "getUserEpochDeposits",
      "outputs": [
        {
          "internalType": "uint256[]",
          "name": "",
          "type": "uint256[]"
        }
      ],
      "stateMutability": "view",
      "type": "function"
    },
    {
      "inputs": [
        {
          "internalType": "uint256",
          "name": "epoch",
          "type": "uint256"
        },
        {
          "internalType": "address",
          "name": "user",
          "type": "address"
        }
      ],
      "name": "getUserEpochPremium",
      "outputs": [
        {
          "internalType": "uint256[]",
          "name": "",
          "type": "uint256[]"
        }
      ],
      "stateMutability": "view",
      "type": "function"
    },
    {
      "inputs": [
        {
          "internalType": "address",
          "name": "addr",
          "type": "address"
        }
      ],
      "name": "isContract",
      "outputs": [
        {
          "internalType": "bool",
          "name": "",
          "type": "bool"
        }
      ],
      "stateMutability": "view",
      "type": "function"
    },
    {
      "inputs": [
        {
          "internalType": "uint256",
          "name": "",
          "type": "uint256"
        }
      ],
      "name": "isEpochExpired",
      "outputs": [
        {
          "internalType": "bool",
          "name": "",
          "type": "bool"
        }
      ],
      "stateMutability": "view",
      "type": "function"
    },
    {
      "inputs": [
        {
          "internalType": "uint256",
          "name": "",
          "type": "uint256"
        }
      ],
      "name": "isVaultReady",
      "outputs": [
        {
          "internalType": "bool",
          "name": "",
          "type": "bool"
        }
      ],
      "stateMutability": "view",
      "type": "function"
    },
    {
      "inputs": [],
      "name": "owner",
      "outputs": [
        {
          "internalType": "address",
          "name": "",
          "type": "address"
        }
      ],
      "stateMutability": "view",
      "type": "function"
    },
    {
      "inputs": [],
      "name": "pause",
      "outputs": [
        {
          "internalType": "bool",
          "name": "",
          "type": "bool"
        }
      ],
      "stateMutability": "nonpayable",
      "type": "function"
    },
    {
      "inputs": [],
      "name": "paused",
      "outputs": [
        {
          "internalType": "bool",
          "name": "",
          "type": "bool"
        }
      ],
      "stateMutability": "view",
      "type": "function"
    },
    {
      "inputs": [
        {
          "internalType": "uint256",
          "name": "strikeIndex",
          "type": "uint256"
        },
        {
          "internalType": "uint256",
          "name": "amount",
          "type": "uint256"
        },
        {
          "internalType": "address",
          "name": "user",
          "type": "address"
        }
      ],
      "name": "purchase",
      "outputs": [
        {
          "internalType": "uint256",
          "name": "",
          "type": "uint256"
        },
        {
          "internalType": "uint256",
          "name": "",
          "type": "uint256"
        }
      ],
      "stateMutability": "nonpayable",
      "type": "function"
    },
    {
      "inputs": [
        {
          "internalType": "address",
          "name": "_contract",
          "type": "address"
        }
      ],
      "name": "removeFromContractWhitelist",
      "outputs": [
        {
          "internalType": "bool",
          "name": "",
          "type": "bool"
        }
      ],
      "stateMutability": "nonpayable",
      "type": "function"
    },
    {
      "inputs": [],
      "name": "renounceOwnership",
      "outputs": [],
      "stateMutability": "nonpayable",
      "type": "function"
    },
    {
      "inputs": [
        {
          "internalType": "bytes32[]",
          "name": "names",
          "type": "bytes32[]"
        },
        {
          "internalType": "address[]",
          "name": "destinations",
          "type": "address[]"
        }
      ],
      "name": "setAddresses",
      "outputs": [
        {
          "internalType": "bool",
          "name": "",
          "type": "bool"
        }
      ],
      "stateMutability": "nonpayable",
      "type": "function"
    },
    {
      "inputs": [
        {
          "internalType": "uint256[]",
          "name": "strikes",
          "type": "uint256[]"
        }
      ],
      "name": "setStrikes",
      "outputs": [
        {
          "internalType": "bool",
          "name": "",
          "type": "bool"
        }
      ],
      "stateMutability": "nonpayable",
      "type": "function"
    },
    {
      "inputs": [
        {
          "internalType": "uint256",
          "name": "strikeIndex",
          "type": "uint256"
        },
        {
          "internalType": "uint256",
          "name": "amount",
          "type": "uint256"
        },
        {
          "internalType": "uint256",
          "name": "epoch",
          "type": "uint256"
        }
      ],
      "name": "settle",
      "outputs": [
        {
          "internalType": "uint256",
          "name": "pnl",
          "type": "uint256"
        }
      ],
      "stateMutability": "nonpayable",
      "type": "function"
    },
    {
      "inputs": [
        {
          "internalType": "uint256",
          "name": "",
          "type": "uint256"
        }
      ],
      "name": "settlementPrices",
      "outputs": [
        {
          "internalType": "uint256",
          "name": "",
          "type": "uint256"
        }
      ],
      "stateMutability": "view",
      "type": "function"
    },
    {
      "inputs": [
        {
          "internalType": "uint256",
          "name": "",
          "type": "uint256"
        },
        {
          "internalType": "uint256",
          "name": "",
          "type": "uint256"
        }
      ],
      "name": "totalEpochCallsPurchased",
      "outputs": [
        {
          "internalType": "uint256",
          "name": "",
          "type": "uint256"
        }
      ],
      "stateMutability": "view",
      "type": "function"
    },
    {
      "inputs": [
        {
          "internalType": "uint256",
          "name": "",
          "type": "uint256"
        }
      ],
      "name": "totalEpochDeposits",
      "outputs": [
        {
          "internalType": "uint256",
          "name": "",
          "type": "uint256"
        }
      ],
      "stateMutability": "view",
      "type": "function"
    },
    {
      "inputs": [
        {
          "internalType": "uint256",
          "name": "",
          "type": "uint256"
        },
        {
          "internalType": "uint256",
          "name": "",
          "type": "uint256"
        }
      ],
      "name": "totalEpochPremium",
      "outputs": [
        {
          "internalType": "uint256",
          "name": "",
          "type": "uint256"
        }
      ],
      "stateMutability": "view",
      "type": "function"
    },
    {
      "inputs": [
        {
          "internalType": "uint256",
          "name": "",
          "type": "uint256"
        },
        {
          "internalType": "uint256",
          "name": "",
          "type": "uint256"
        }
      ],
      "name": "totalEpochStrikeDeposits",
      "outputs": [
        {
          "internalType": "uint256",
          "name": "",
          "type": "uint256"
        }
      ],
      "stateMutability": "view",
      "type": "function"
    },
    {
      "inputs": [
        {
          "internalType": "uint256",
          "name": "",
          "type": "uint256"
        },
        {
          "internalType": "uint256",
          "name": "",
          "type": "uint256"
        }
      ],
      "name": "totalEpochStrikeGohmBalance",
      "outputs": [
        {
          "internalType": "uint256",
          "name": "",
          "type": "uint256"
        }
      ],
      "stateMutability": "view",
      "type": "function"
    },
    {
      "inputs": [
        {
          "internalType": "address",
          "name": "newOwner",
          "type": "address"
        }
      ],
      "name": "transferOwnership",
      "outputs": [],
      "stateMutability": "nonpayable",
      "type": "function"
    },
    {
      "inputs": [],
      "name": "unpause",
      "outputs": [
        {
          "internalType": "bool",
          "name": "",
          "type": "bool"
        }
      ],
      "stateMutability": "nonpayable",
      "type": "function"
    },
    {
      "inputs": [
        {
          "internalType": "uint256",
          "name": "_expireDelayTolerance",
          "type": "uint256"
        }
      ],
      "name": "updateExpireDelayTolerance",
      "outputs": [
        {
          "internalType": "bool",
          "name": "",
          "type": "bool"
        }
      ],
      "stateMutability": "nonpayable",
      "type": "function"
    },
    {
      "inputs": [
        {
          "internalType": "uint256",
          "name": "",
          "type": "uint256"
        },
        {
          "internalType": "bytes32",
          "name": "",
          "type": "bytes32"
        }
      ],
      "name": "userEpochCallsPurchased",
      "outputs": [
        {
          "internalType": "uint256",
          "name": "",
          "type": "uint256"
        }
      ],
      "stateMutability": "view",
      "type": "function"
    },
    {
      "inputs": [
        {
          "internalType": "uint256",
          "name": "",
          "type": "uint256"
        },
        {
          "internalType": "bytes32",
          "name": "",
          "type": "bytes32"
        }
      ],
      "name": "userEpochDeposits",
      "outputs": [
        {
          "internalType": "uint256",
          "name": "",
          "type": "uint256"
        }
      ],
      "stateMutability": "view",
      "type": "function"
    },
    {
      "inputs": [
        {
          "internalType": "uint256",
          "name": "",
          "type": "uint256"
        },
        {
          "internalType": "bytes32",
          "name": "",
          "type": "bytes32"
        }
      ],
      "name": "userEpochPremium",
      "outputs": [
        {
          "internalType": "uint256",
          "name": "",
          "type": "uint256"
        }
      ],
      "stateMutability": "view",
      "type": "function"
    },
    {
      "inputs": [
        {
          "internalType": "address",
          "name": "",
          "type": "address"
        }
      ],
      "name": "whitelistedContracts",
      "outputs": [
        {
          "internalType": "bool",
          "name": "",
          "type": "bool"
        }
      ],
      "stateMutability": "view",
      "type": "function"
    },
    {
      "inputs": [
        {
          "internalType": "uint256",
          "name": "withdrawEpoch",
          "type": "uint256"
        },
        {
          "internalType": "uint256",
          "name": "strikeIndex",
          "type": "uint256"
        }
      ],
      "name": "withdraw",
      "outputs": [
        {
          "internalType": "uint256[1]",
          "name": "",
          "type": "uint256[1]"
        }
      ],
      "stateMutability": "nonpayable",
      "type": "function"
    }
  ],
  "transactionHash": "0xc33125521d59926861900f59c06ab3159055ae6b5775ddc9fc6a19960c0e53cb",
  "args": [
    "0x8D9bA570D6cb60C7e3e0F31343Efe75AB8E65FB1",
    "0x2b99e3D67dAD973c1B9747Da742B7E26c8Bdd67B",
    "0x5f5870C7364AE87643747B06a0Ca7fdE200147d4",
    "0xbf91446115f3E3eaF5079A88E078F876C0d7A6A8",
    "0x55594cCe8cC0014eA08C49fd820D731308f204c1",
    "0x3F3c58CCb0655Fa9161D0B4B49B217b3f6478D5A"
  ],
  "numDeployments": 1,
  "solcInputHash": "118674dca89dafb49c04a85e5dbb593b",
  "bytecode": "0x60a060405261012c6005553480156200001757600080fd5b5060405162006b6938038062006b698339810160408190526200003a91620003a8565b6000805460ff191690556001805562000053336200032b565b6001600160a01b038616620000945760405162461bcd60e51b8152602060048201526002602482015261453160f01b60448201526064015b60405180910390fd5b6001600160a01b038516620000d15760405162461bcd60e51b8152602060048201526002602482015261453160f01b60448201526064016200008b565b6001600160a01b0384166200010e5760405162461bcd60e51b8152602060048201526002602482015261453160f01b60448201526064016200008b565b6001600160a01b0383166200014b5760405162461bcd60e51b8152602060048201526002602482015261453160f01b60448201526064016200008b565b6001600160a01b038116620001885760405162461bcd60e51b8152602060048201526002602482015261453160f01b60448201526064016200008b565b60066020527f48384e0254da894af8e3a07d434979c84d8cb568455ceaba7d33445d934047ec80546001600160a01b038089166001600160a01b0319928316179092557f91a2c26fd9c645d1d6b49a3142107961156a5112c34f2816f1cf945888c572a880548884169083161790557fbbfc6865910caef25abee8a8f8dccddf2666bdda49257786b685b546f1a5c44780548784169083161790557f1f999593c26463feefbbc61c34d3cabe5ffb4a0c6f8cc9b4ac3a0c76036fe72c80548684169083161790557fefd159b92a2c8ada1ff68e9979d49b6830749bf4f2fc01ed343e6c2932d7144b80548584169083161790557fbc6e973380ee6017fd2cee76e4fbc76eea8ea5326fd0b28981c730d86cfc09ac80549284169282169290921790915569476f7665726e616e636560b01b6000527f5b1a5bf79b87a0e3d8ed4de17b6fe9c77eb91f259653c3d3df25bdc9b05ce35d805490911633179055604051620002f4906200037d565b604051809103906000f08015801562000311573d6000803e3d6000fd5b506001600160a01b03166080525062000429945050505050565b600280546001600160a01b038381166001600160a01b0319831681179093556040519116919082907f8be0079c531659141344cd1fd0a4f28419497f9722a3daafe3b4186f6b6457e090600090a35050565b611ed68062004c9383390190565b80516001600160a01b0381168114620003a357600080fd5b919050565b60008060008060008060c08789031215620003c257600080fd5b620003cd876200038b565b9550620003dd602088016200038b565b9450620003ed604088016200038b565b9350620003fd606088016200038b565b92506200040d608088016200038b565b91506200041d60a088016200038b565b90509295509295509295565b6080516148476200044c600039600081816106e30152612fdf01526148476000f3fe608060405234801561001057600080fd5b50600436106103775760003560e01c80638456cb59116101d3578063bf434b7a11610104578063e8468ee4116100a2578063f2fde38b1161007c578063f2fde38b146108bc578063f6ac8488146108cf578063f72bf8fe146108e2578063fb969b0a146108f557600080fd5b8063e8468ee414610883578063ea3bd5df14610896578063ec856816146108a957600080fd5b8063cd653df6116100de578063cd653df614610835578063d3e3e35214610848578063d7e151311461085b578063db2e21bc1461087b57600080fd5b8063bf434b7a146107e4578063c300fd641461080f578063c3d9ed391461082257600080fd5b806393c82c7511610171578063ab2150cf1161014b578063ab2150cf14610768578063acc3a0061461077b578063b0f48cf71461078e578063b12daf69146107b957600080fd5b806393c82c75146107055780639bbce47814610728578063a6fe2b9e1461074857600080fd5b80638da5cb5b116101ad5780638da5cb5b146106a75780638dbdbe6d146106b85780638e143ccb146106cb578063901be041146106de57600080fd5b80638456cb591461066157806388e18e13146106695780638990d0451461067c57600080fd5b80635ba0bee1116102ad5780636db29f6d1161024b578063766718081161022557806376671808146106125780637e36701f1461061b5780638144eeba1461062e578063823c15121461064157600080fd5b80636db29f6d146105d85780636f56f56f146105e0578063715018a61461060857600080fd5b8063616443731161028757806361644373146105805780636274d49d14610589578063699f200f1461059c5780636a778454146105c557600080fd5b80635ba0bee1146105375780635c975abb1461056257806361560c991461056d57600080fd5b80633f4ba83a1161031a578063441a3e70116102f4578063441a3e70146104bd578063470f4224146104dd5780634ab01f5b14610511578063574cdded1461052457600080fd5b80633f4ba83a146104675780633f83b8a51461046f578063412058bd1461049257600080fd5b80631acf5582116103565780631acf5582146103e657806321f8a721146103ee5780632807b9a814610419578063391feebb1461044457600080fd5b806212100c1461037c57806315943b99146103a257806316279055146103c2575b600080fd5b61038f61038a366004613fb3565b6108fd565b6040519081526020015b60405180910390f35b6103b56103b0366004613fd5565b610a71565b6040516103999190613fee565b6103d66103d0366004614049565b3b151590565b6040519015158152602001610399565b61038f610afe565b6104016103fc366004613fd5565b610b90565b6040516001600160a01b039091168152602001610399565b61038f610427366004613fb3565b601160209081526000928352604080842090915290825290205481565b6103d6610452366004614049565b60036020526000908152604090205460ff1681565b6103d6610bab565b6103d661047d366004613fd5565b60096020526000908152604090205460ff1681565b61038f6104a0366004613fb3565b600f60209081526000928352604080842090915290825290205481565b6104d06104cb366004613fb3565b610c01565b6040516103999190614064565b6104016104eb366004613fb3565b600b6020908152600092835260408084209091529082529020546001600160a01b031681565b6103d661051f3660046140e1565b610ead565b61038f61053236600461414c565b610fd6565b61038f610545366004613fb3565b601360209081526000928352604080842090915290825290205481565b60005460ff166103d6565b6103b561057b366004614178565b6113ae565b61038f60055481565b6103b5610597366004614178565b6114e2565b6104016105aa366004613fd5565b6006602052600090815260409020546001600160a01b031681565b6103b56105d3366004613fd5565b61160c565b6103d661170d565b6105f36105ee366004613fd5565b6118b7565b60408051928352602083019190915201610399565b6106106118fd565b005b61038f60045481565b61038f610629366004613fb3565b611933565b6103d661063c366004614249565b611964565b61065461064f366004613fd5565b611a9c565b60405161039991906142bc565b6103d6611bb4565b61038f61067736600461414c565b611c0e565b61038f61068a366004613fb3565b600e60209081526000928352604080842090915290825290205481565b6002546001600160a01b0316610401565b6103d66106c63660046142fd565b611c48565b61038f6106d9366004613fd5565b611ca0565b6104017f000000000000000000000000000000000000000000000000000000000000000081565b6103d6610713366004613fd5565b60086020526000908152604090205460ff1681565b61038f610736366004613fd5565b60146020526000908152604090205481565b61038f610756366004613fd5565b60076020526000908152604090205481565b6103d6610776366004613fd5565b611dd4565b6103d6610789366004614049565b611e5d565b61038f61079c366004613fb3565b601260209081526000928352604080842090915290825290205481565b61038f6107c7366004613fb3565b600c60209081526000928352604080842090915290825290205481565b61038f6107f2366004613fb3565b601060209081526000928352604080842090915290825290205481565b6103b561081d366004613fd5565b611fc8565b6103d6610830366004614049565b6120c0565b6103b5610843366004613fd5565b61218a565b6103d6610856366004614329565b612282565b61038f610869366004613fd5565b600d6020526000908152604090205481565b6103d6612427565b61038f61089136600461414c565b61259f565b6105f36108a43660046142fd565b612641565b6103b56108b7366004614178565b612a1a565b6106106108ca366004614049565b612b44565b6103d66108dd366004613fd5565b612bdf565b61038f6108f036600461414c565b612d95565b6103d6612deb565b600080610908610afe565b905080836109256c4f7074696f6e50726963696e6760981b610b90565b6001600160a01b0316635b7b6d88600061093e42611ca0565b898761095c6f566f6c6174696c6974794f7261636c6560801b610b90565b6001600160a01b0316633af2888b6040518163ffffffff1660e01b815260040160206040518083038186803b15801561099457600080fd5b505afa1580156109a8573d6000803e3d6000fd5b505050506040513d601f19601f820116820180604052508101906109cc919061435d565b6040516001600160e01b031960e088901b1681529415156004860152602485019390935260448401919091526064830152608482015260a40160206040518083038186803b158015610a1d57600080fd5b505afa158015610a31573d6000803e3d6000fd5b505050506040513d601f19601f82011682018060405250810190610a55919061435d565b610a5f919061438c565b610a6991906143c1565b949350505050565b60608160008111610a9d5760405162461bcd60e51b8152600401610a94906143d5565b60405180910390fd5b6000838152600a602090815260409182902080548351818402810184019094528084529091830182828015610af157602002820191906000526020600020905b815481526020019060010190808311610add575b5050505050915050919050565b6000610b1b6e476f686d50726963654f7261636c6560881b610b90565b6001600160a01b031663e1aa60366040518163ffffffff1660e01b815260040160206040518083038186803b158015610b5357600080fd5b505afa158015610b67573d6000803e3d6000fd5b505050506040513d601f19601f82011682018060405250810190610b8b919061435d565b905090565b6000908152600660205260409020546001600160a01b031690565b6000610bc369476f7665726e616e636560b01b610b90565b6001600160a01b0316336001600160a01b031614610bf35760405162461bcd60e51b8152600401610a94906143f2565b610bfb61317d565b50600190565b610c09613f35565b60005460ff1615610c2c5760405162461bcd60e51b8152600401610a949061440f565b60026001541415610c4f5760405162461bcd60e51b8152600401610a9490614439565b6002600155333b15610c8a573360009081526003602052604090205460ff16610c8a5760405162461bcd60e51b8152600401610a9490614470565b60008381526008602052604090205460ff16610cce5760405162461bcd60e51b815260206004820152600360248201526245313760e81b6044820152606401610a94565b6000838152600a60205260409020548210610cfb5760405162461bcd60e51b8152600401610a94906144bf565b6000838152600a60205260408120805484908110610d1b57610d1b6144dc565b906000526020600020015490508060001415610d495760405162461bcd60e51b8152600401610a94906144f2565b60003382604051602001610d5e92919061450f565b60408051601f1981840301815291815281516020928301206000888152600e845282812082825290935291205490915080610dc15760405162461bcd60e51b815260206004820152600360248201526208a62760eb1b6044820152606401610a94565b6000868152600c60209081526040808320868452825280832054898452600f8352818420878552909252822054610df990849061438c565b610e0391906143c1565b6000888152600e602090815260408083208784529091528120559050610e443382610e3463674f484d60e01b610b90565b6001600160a01b03169190613210565b60408051888152602081018690523381830152606081018490526080810183905290517fbe7586dfb192ca07af28bcc9fc95e78619abff84853e614ba95a4864e955c5929181900360a00190a16040805160208101909152908152600180559695505050505050565b6002546000906001600160a01b03163314610eda5760405162461bcd60e51b8152600401610a9490614531565b838214610f0e5760405162461bcd60e51b8152602060048201526002602482015261229960f11b6044820152606401610a94565b60005b84811015610fca576000868683818110610f2d57610f2d6144dc565b9050602002013590506000858584818110610f4a57610f4a6144dc565b9050602002016020810190610f5f9190614049565b60008381526006602052604080822080546001600160a01b0319166001600160a01b03851690811790915590519293509184917fb37614c7d254ea8d16eb81fa11dddaeb266aa8ba4917980859c7740aff30c69191a350508080610fc290614566565b915050610f11565b50600195945050505050565b6000805460ff1615610ffa5760405162461bcd60e51b8152600401610a949061440f565b6002600154141561101d5760405162461bcd60e51b8152600401610a9490614439565b6002600155333b15611058573360009081526003602052604090205460ff166110585760405162461bcd60e51b8152600401610a9490614470565b60008281526008602052604090205460ff1661109c5760405162461bcd60e51b815260206004820152600360248201526245313760e81b6044820152606401610a94565b6000828152600a602052604090205484106110c95760405162461bcd60e51b8152600401610a94906144bf565b600083116110e95760405162461bcd60e51b8152600401610a9490614581565b6000828152600a60205260408120805486908110611109576111096144dc565b9060005260206000200154905080600014156111375760405162461bcd60e51b8152600401610a94906144f2565b6000838152600b60209081526040808320848452909152908190205490516370a0823160e01b815233600482015285916001600160a01b0316906370a082319060240160206040518083038186803b15801561119257600080fd5b505afa1580156111a6573d6000803e3d6000fd5b505050506040513d601f19601f820116820180604052508101906111ca919061435d565b10156111fe5760405162461bcd60e51b815260206004820152600360248201526222989b60e91b6044820152606401610a94565b600083815260146020526040902054611218908286611c0e565b60008481526014602052604081205491935090611236908487612d95565b90506000831161126e5760405162461bcd60e51b815260206004820152600360248201526245313560e81b6044820152606401610a94565b600061128063674f484d60e01b610b90565b6000868152600b602090815260408083208784529091529081902054905163079cc67960e41b8152336004820152602481018990529192506001600160a01b0316906379cc679090604401600060405180830381600087803b1580156112e557600080fd5b505af11580156112f9573d6000803e3d6000fd5b505050506000821115611334576113346113236d2332b2a234b9ba3934b13aba37b960911b610b90565b6001600160a01b0383169084613210565b61135333611342848761459e565b6001600160a01b0384169190613210565b60408051868152602081018590523381830152606081018890526080810186905290517f170d93e3a85ba1c08f72d2c0ebd8835178a9b9f444c318ab404506c743d925bd9181900360a00190a1505060018055509392505050565b606082600081116113d15760405162461bcd60e51b8152600401610a94906143d5565b6000848152600a602052604081205490816001600160401b038111156113f9576113f96141a4565b604051908082528060200260200182016040528015611422578160200160208202803683370190505b50905060005b828110156114d8576000878152600a60205260408120805483908110611450576114506144dc565b906000526020600020015490506000878260405160200161147292919061450f565b60408051601f19818403018152918152815160209283012060008c8152601384528281208282529093529120548551919250908590859081106114b7576114b76144dc565b602002602001018181525050505080806114d090614566565b915050611428565b5095945050505050565b606082600081116115055760405162461bcd60e51b8152600401610a94906143d5565b6000848152600a602052604081205490816001600160401b0381111561152d5761152d6141a4565b604051908082528060200260200182016040528015611556578160200160208202803683370190505b50905060005b828110156114d8576000878152600a60205260408120805483908110611584576115846144dc565b90600052602060002001549050600087826040516020016115a692919061450f565b60408051601f19818403018152918152815160209283012060008c8152600e84528281208282529093529120548551919250908590859081106115eb576115eb6144dc565b6020026020010181815250505050808061160490614566565b91505061155c565b6060816000811161162f5760405162461bcd60e51b8152600401610a94906143d5565b6000838152600a602052604081205490816001600160401b03811115611657576116576141a4565b604051908082528060200260200182016040528015611680578160200160208202803683370190505b50905060005b82811015611704576000868152601060209081526040808320600a90925282208054919291849081106116bb576116bb6144dc565b90600052602060002001548152602001908152602001600020548282815181106116e7576116e76144dc565b6020908102919091010152806116fc81614566565b915050611686565b50949350505050565b6000805460ff16156117315760405162461bcd60e51b8152600401610a949061440f565b600260015414156117545760405162461bcd60e51b8152600401610a9490614439565b600260015560045460009081526008602052604090205460ff16156117a05760405162461bcd60e51b8152602060048201526002602482015261453360f01b6044820152606401610a94565b60006117ad6004546118b7565b915050804210156117e55760405162461bcd60e51b8152602060048201526002602482015261114d60f21b6044820152606401610a94565b6005546117f290826145b5565b4211156118275760405162461bcd60e51b815260206004820152600360248201526245323360e81b6044820152606401610a94565b61182f610afe565b60045460009081526014602052604090205561184b6001613278565b600480546000908152600860209081526040808320805460ff1916600117905592548083526014825291839020548351928352908201527fef3f0fea137368a87ff5898a72bbc4bd0d247388011343dd0c2f8763873429f1910160405180910390a15050600180805590565b60008082600081116118db5760405162461bcd60e51b8152600401610a94906143d5565b6000848152600760205260409020546118f381611ca0565b9250925050915091565b6002546001600160a01b031633146119275760405162461bcd60e51b8152600401610a9490614531565b611931600061349b565b565b600a602052816000526040600020818154811061194f57600080fd5b90600052602060002001600091509150505481565b6000600260015414156119895760405162461bcd60e51b8152600401610a9490614439565b600260015582518451146119c45760405162461bcd60e51b8152602060048201526002602482015261229960f11b6044820152606401610a94565b6000805b8451811015611a0a578481815181106119e3576119e36144dc565b6020026020010151826119f691906145b5565b915080611a0281614566565b9150506119c8565b5060005b8551811015611a6657611a54868281518110611a2c57611a2c6144dc565b6020026020010151868381518110611a4657611a466144dc565b6020026020010151866134ed565b80611a5e81614566565b915050611a0e565b50611a8e333083611a7d63674f484d60e01b610b90565b6001600160a01b0316929190613769565b505060018080559392505050565b60608160008111611abf5760405162461bcd60e51b8152600401610a94906143d5565b6000838152600a602052604081205490816001600160401b03811115611ae757611ae76141a4565b604051908082528060200260200182016040528015611b10578160200160208202803683370190505b50905060005b82811015611704576000868152600b60209081526040808320600a9092528220805491929184908110611b4b57611b4b6144dc565b9060005260206000200154815260200190815260200160002060009054906101000a90046001600160a01b0316828281518110611b8a57611b8a6144dc565b6001600160a01b039092166020928302919091019091015280611bac81614566565b915050611b16565b6000611bcc69476f7665726e616e636560b01b610b90565b6001600160a01b0316336001600160a01b031614611bfc5760405162461bcd60e51b8152600401610a94906143f2565b611c046137a7565b610bfb6000613278565b6000828411611c1e576000611c3e565b8382611c2a858361459e565b611c34919061438c565b611c3e91906143c1565b90505b9392505050565b600060026001541415611c6d5760405162461bcd60e51b8152600401610a9490614439565b6002600155611c7d8484846134ed565b611c93333085611a7d63674f484d60e01b610b90565b5060018080559392505050565b600080611cca611caf846137ff565b611cb88561381f565b611cc39060016145b5565b6000613839565b90506005611cd782613854565b1015611d0f57611d0c611ce9826137ff565b611cf28361381f565b6007611cfd85613888565b611d07919061459e565b613839565b90505b6000611d57611d1d836137ff565b611d268461381f565b611d2f85613854565b611d3886613888565b611d439060056145b5565b611d4d919061459e565b600860008061389a565b9050838111611c41576000611d82611d6e866137ff565b611d778761381f565b611cc39060026145b5565b90506005611d8f82613854565b1015611da457611da1611ce9826137ff565b90505b611dcb611db0826137ff565b611db98361381f565b611dc284613854565b611d3885613888565b95945050505050565b6000611dec69476f7665726e616e636560b01b610b90565b6001600160a01b0316336001600160a01b031614611e1c5760405162461bcd60e51b8152600401610a94906143f2565b60058290556040518281527f5259439c9ac2029585dd4a349897aa1e8298d26537c3b57453f275126db919189060200160405180910390a15060015b919050565b6002546000906001600160a01b03163314611e8a5760405162461bcd60e51b8152600401610a9490614531565b813b611ef65760405162461bcd60e51b815260206004820152603560248201527f436f6e747261637457686974656c6973743a2041646472657373206d757374206044820152746265206120636f6e7472616374206164647265737360581b6064820152608401610a94565b6001600160a01b03821660009081526003602052604090205460ff1615611f775760405162461bcd60e51b815260206004820152602f60248201527f436f6e747261637457686974656c6973743a20436f6e747261637420616c726560448201526e18591e481dda1a5d195b1a5cdd1959608a1b6064820152608401610a94565b6001600160a01b038216600081815260036020526040808220805460ff19166001179055517ffbd3cde7ff522a917e485c8ed2a6e87590887ab399f5ac312307903f498543079190a2506001919050565b60608160008111611feb5760405162461bcd60e51b8152600401610a94906143d5565b6000838152600a602052604081205490816001600160401b03811115612013576120136141a4565b60405190808252806020026020018201604052801561203c578160200160208202803683370190505b50905060005b82811015611704576000868152600c60209081526040808320600a9092528220805491929184908110612077576120776144dc565b90600052602060002001548152602001908152602001600020548282815181106120a3576120a36144dc565b6020908102919091010152806120b881614566565b915050612042565b6001600160a01b03811660009081526003602052604081205460ff1661213c5760405162461bcd60e51b815260206004820152602b60248201527f436f6e747261637457686974656c6973743a20436f6e7472616374206e6f742060448201526a1dda1a5d195b1a5cdd195960aa1b6064820152608401610a94565b6001600160a01b038216600081815260036020526040808220805460ff19169055517f8e81447740597754af5db3e176253a36f7981a9549f48ace3f0cb233913f9d859190a2506001919050565b606081600081116121ad5760405162461bcd60e51b8152600401610a94906143d5565b6000838152600a602052604081205490816001600160401b038111156121d5576121d56141a4565b6040519080825280602002602001820160405280156121fe578160200160208202803683370190505b50905060005b82811015611704576000868152601260209081526040808320600a9092528220805491929184908110612239576122396144dc565b9060005260206000200154815260200190815260200160002054828281518110612265576122656144dc565b60209081029190910101528061227a81614566565b915050612204565b6002546000906001600160a01b031633146122af5760405162461bcd60e51b8152600401610a9490614531565b60005460ff16156122d25760405162461bcd60e51b8152600401610a949061440f565b600060045460016122e391906145b5565b6000818152600d6020526040902054909150156123275760405162461bcd60e51b815260206004820152600260248201526108a760f31b6044820152606401610a94565b6004541561237557600061233c6004546118b7565b9150508042116123735760405162461bcd60e51b8152602060048201526002602482015261453960f01b6044820152606401610a94565b505b6000818152600a60209081526040909120845161239492860190613f53565b5060008181526007602052604081204290555b835181101561241d577f5185be10ef2a03e926961817be495a630ded54bceffb3ba11f6af477c9c76682828583815181106123e4576123e46144dc565b6020026020010151604051612403929190918252602082015260400190565b60405180910390a18061241581614566565b9150506123a7565b5060019392505050565b600061243f69476f7665726e616e636560b01b610b90565b6001600160a01b0316336001600160a01b03161461246f5760405162461bcd60e51b8152600401610a94906143f2565b60005460ff166124b85760405162461bcd60e51b815260206004820152601460248201527314185d5cd8589b194e881b9bdd081c185d5cd95960621b6044820152606401610a94565b60006124ca63674f484d60e01b610b90565b6040516370a0823160e01b81523060048201529091506000906001600160a01b038316906370a082319060240160206040518083038186803b15801561250f57600080fd5b505afa158015612523573d6000803e3d6000fd5b505050506040513d601f19601f82011682018060405250810190612547919061435d565b905061255d6001600160a01b0383163383613210565b60408051338152602081018390527f5fafa99d0643513820be26656b45130b01e1c03062e1266bf36f88cbd3bd9695910160405180910390a160019250505090565b60006125b86a466565537472617465677960a81b610b90565b604051633a11a3b960e21b81526004810186905260248101859052604481018490526001600160a01b03919091169063e8468ee4906064015b60206040518083038186803b15801561260957600080fd5b505afa15801561261d573d6000803e3d6000fd5b505050506040513d601f19601f82011682018060405250810190611c3e919061435d565b60008061265060005460ff1690565b1561266d5760405162461bcd60e51b8152600401610a949061440f565b600260015414156126905760405162461bcd60e51b8152600401610a9490614439565b6002600155333b156126cb573360009081526003602052604090205460ff166126cb5760405162461bcd60e51b8152600401610a9490614470565b60006126d86004546118b7565b9150508042106127105760405162461bcd60e51b8152602060048201526003602482015262114c8d60ea1b6044820152606401610a94565b60045460009081526009602052604090205460ff166127575760405162461bcd60e51b815260206004820152600360248201526204532360ec1b6044820152606401610a94565b6004546000908152600a602052604090205486106127875760405162461bcd60e51b8152600401610a94906144bf565b600085116127a75760405162461bcd60e51b8152600401610a9490614581565b6004546000908152600a602052604081208054889081106127ca576127ca6144dc565b9060005260206000200154905080600014156127f85760405162461bcd60e51b8152600401610a94906144f2565b6000858260405160200161280d92919061450f565b604051602081830303815290604052805190602001209050600061282f610afe565b9050600061283d848a6108fd565b9050600061284c83868c61259f565b9050600061285a82846145b5565b60045460009081526010602090815260408083208a8452909152812080549293508d9290919061288b9084906145b5565b90915550506004546000908152601160209081526040808320888452909152812080548d92906128bc9084906145b5565b90915550506004546000908152601260209081526040808320898452909152812080548592906128ed9084906145b5565b909155505060045460009081526013602090815260408083208884529091528120805485929061291e9084906145b5565b9091555061293a9050333083611a7d63674f484d60e01b610b90565b811561296e5761296e61295d6d2332b2a234b9ba3934b13aba37b960911b610b90565b83610e3463674f484d60e01b610b90565b6004546000908152600b6020908152604080832089845290915290205461299f906001600160a01b03168b8d613210565b600454604080519182526020820188905281018c905260608101849052608081018390526001600160a01b038b1660a08201523360c08201527f78de8c82973d11415ea2004f458680aa6d5826c3e8a798496a61db56fa66417b9060e00160405180910390a15060018055909a909950975050505050505050565b60608260008111612a3d5760405162461bcd60e51b8152600401610a94906143d5565b6000848152600a602052604081205490816001600160401b03811115612a6557612a656141a4565b604051908082528060200260200182016040528015612a8e578160200160208202803683370190505b50905060005b828110156114d8576000878152600a60205260408120805483908110612abc57612abc6144dc565b9060005260206000200154905060008782604051602001612ade92919061450f565b60408051601f19818403018152918152815160209283012060008c815260118452828120828252909352912054855191925090859085908110612b2357612b236144dc565b60200260200101818152505050508080612b3c90614566565b915050612a94565b6002546001600160a01b03163314612b6e5760405162461bcd60e51b8152600401610a9490614531565b6001600160a01b038116612bd35760405162461bcd60e51b815260206004820152602660248201527f4f776e61626c653a206e6577206f776e657220697320746865207a65726f206160448201526564647265737360d01b6064820152608401610a94565b612bdc8161349b565b50565b6000805460ff1615612c035760405162461bcd60e51b8152600401610a949061440f565b60026001541415612c265760405162461bcd60e51b8152600401610a9490614439565b6002600155612c4169476f7665726e616e636560b01b610b90565b6001600160a01b0316336001600160a01b031614612c715760405162461bcd60e51b8152600401610a94906143f2565b60045460009081526008602052604090205460ff1615612cb85760405162461bcd60e51b8152602060048201526002602482015261453360f01b6044820152606401610a94565b6000612cc56004546118b7565b91505060055481612cd691906145b5565b4211612d095760405162461bcd60e51b8152602060048201526002602482015261114d60f21b6044820152606401610a94565b6004546000908152601460205260409020839055612d276001613278565b600480546000908152600860209081526040808320805460ff1916600117905592548083526014825291839020548351928352908201527fef3f0fea137368a87ff5898a72bbc4bd0d247388011343dd0c2f8763873429f1910160405180910390a150506001808055919050565b6000612dae6a466565537472617465677960a81b610b90565b604051637b95fc7f60e11b81526004810186905260248101859052604481018490526001600160a01b03919091169063f72bf8fe906064016125f1565b6002546000906001600160a01b03163314612e185760405162461bcd60e51b8152600401610a9490614531565b60005460ff1615612e3b5760405162461bcd60e51b8152600401610a949061440f565b60006004546001612e4c91906145b5565b60008181526009602052604090205490915060ff1615612e935760405162461bcd60e51b8152602060048201526002602482015261453560f01b6044820152606401610a94565b6000818152600a6020526040902054612ed35760405162461bcd60e51b8152602060048201526002602482015261229b60f11b6044820152606401610a94565b60045415612f215760045460009081526008602052604090205460ff16612f215760405162461bcd60e51b8152602060048201526002602482015261453760f01b6044820152606401610a94565b60005b6000828152600a602052604090205481101561311c576000828152600a60205260408120805483908110612f5a57612f5a6144dc565b906000526020600020015490506000612f9c6040518060400160405280600981526020016819d3d2134b50d0531360ba1b815250612f97846138f6565b6139f3565b9050612fc781604051806040016040528060078152602001662d45504f43482d60c81b8152506139f3565b9050612fd681612f97866138f6565b905060006130037f0000000000000000000000000000000000000000000000000000000000000000613a1f565b60405163266c45bb60e11b81529091506001600160a01b03821690634cd88b76906130349085908190600401614625565b600060405180830381600087803b15801561304e57600080fd5b505af1158015613062573d6000803e3d6000fd5b5050506000868152600b60209081526040808320878452825280832080546001600160a01b0319166001600160a01b038716908117909155898452600c8352818420888552909252918290205491516340c10f1960e01b8152306004820152602481019290925291506340c10f1990604401600060405180830381600087803b1580156130ee57600080fd5b505af1158015613102573d6000803e3d6000fd5b50505050505050808061311490614566565b915050612f24565b5060008181526009602052604090819020805460ff191660011790556004829055517fb5ca1ca1b7b47549eb8af476f3ef702fc63bcd8b8c01dc163b009bb818f979979061316d9083815260200190565b60405180910390a1600191505090565b60005460ff166131c65760405162461bcd60e51b815260206004820152601460248201527314185d5cd8589b194e881b9bdd081c185d5cd95960621b6044820152606401610a94565b6000805460ff191690557f5db9ee0a495bf2e6ff9c91a7834c1ba4fdd244a5e8aa4e537bd38aeae4b073aa335b6040516001600160a01b03909116815260200160405180910390a1565b6040516001600160a01b03831660248201526044810182905261327390849063a9059cbb60e01b906064015b60408051601f198184030181529190526020810180516001600160e01b03166001600160e01b031990931692909217909152613ab7565b505050565b6004546000908152600a60209081526040808320805482518185028101850190935280835291929091908301828280156132d157602002820191906000526020600020905b8154815260200190600101908083116132bd575b5050505050905060005b815181101561327357600061335e60146000600454815260200190815260200160002054848481518110613311576133116144dc565b60200260200101516010600060045481526020019081526020016000206000878781518110613342576133426144dc565b6020026020010151815260200190815260200160002054611c0e565b905080600c60006004548152602001908152602001600020600085858151811061338a5761338a6144dc565b60200260200101518152602001908152602001600020546133ab919061459e565b600f6000600454815260200190815260200160002060008585815181106133d4576133d46144dc565b6020026020010151815260200190815260200160002081905550831561348857601260006004548152602001908152602001600020600084848151811061341d5761341d6144dc565b6020026020010151815260200190815260200160002054600f60006004548152602001908152602001600020600085858151811061345d5761345d6144dc565b60200260200101518152602001908152602001600020600082825461348291906145b5565b90915550505b508061349381614566565b9150506132db565b600280546001600160a01b038381166001600160a01b0319831681179093556040519116919082907f8be0079c531659141344cd1fd0a4f28419497f9722a3daafe3b4186f6b6457e090600090a35050565b60005460ff16156135105760405162461bcd60e51b8152600401610a949061440f565b333b15613546573360009081526003602052604090205460ff166135465760405162461bcd60e51b8152600401610a9490614470565b6000600454600161355791906145b5565b600454909150156135c45760045460009081526008602052604090205460ff168015613592575060008181526009602052604090205460ff16155b6135c45760405162461bcd60e51b815260206004820152600360248201526245313960e81b6044820152606401610a94565b6000818152600a602052604090205484106135f15760405162461bcd60e51b8152600401610a94906144bf565b600083116136115760405162461bcd60e51b8152600401610a9490614581565b6000818152600a60205260408120805486908110613631576136316144dc565b90600052602060002001549050806000141561365f5760405162461bcd60e51b8152600401610a94906144f2565b6000838260405160200161367492919061450f565b60408051601f1981840301815291815281516020928301206000868152600e84528281208282529093529082208054919350879290916136b59084906145b5565b90915550506000838152600c60209081526040808320858452909152812080548792906136e39084906145b5565b90915550506000838152600d6020526040812080548792906137069084906145b5565b909155505060408051848152602081018490529081018690526001600160a01b03851660608201523360808201527fcaa9001342572663a8f7c22e7c6f0331a45254407418d9f993ed2d1485adc2059060a00160405180910390a1505050505050565b6040516001600160a01b03808516602483015283166044820152606481018290526137a19085906323b872dd60e01b9060840161323c565b50505050565b60005460ff16156137ca5760405162461bcd60e51b8152600401610a949061440f565b6000805460ff191660011790557f62e78cea01bee320cd4e420270b5ea74000d11b0c9f74754ebdbfc544b05a2586131f33390565b600061381661381162015180846143c1565b613b89565b50909392505050565b600061383161381162015180846143c1565b509392505050565b60006201518061384a858585613cfd565b611c3e919061438c565b60008061386462015180846143c1565b905060076138738260036145b5565b61387d919061464a565b611c419060016145b5565b6000610a6961381162015180846143c1565b6000816138a8603c8561438c565b6138b4610e108761438c565b620151806138c38b8b8b613cfd565b6138cd919061438c565b6138d791906145b5565b6138e191906145b5565b6138eb91906145b5565b979650505050505050565b60608161391a5750506040805180820190915260018152600360fc1b602082015290565b8160005b8115613944578061392e81614566565b915061393d9050600a836143c1565b915061391e565b6000816001600160401b0381111561395e5761395e6141a4565b6040519080825280601f01601f191660200182016040528015613988576020820181803683370190505b5090505b8415610a695761399d60018361459e565b91506139aa600a8661464a565b6139b59060306145b5565b60f81b8183815181106139ca576139ca6144dc565b60200101906001600160f81b031916908160001a9053506139ec600a866143c1565b945061398c565b60608282604051602001613a0892919061465e565b604051602081830303815290604052905092915050565b6000604051733d602d80600a3d3981f3363d3d373d3d3d363d7360601b81528260601b60148201526e5af43d82803e903d91602b57fd5bf360881b60288201526037816000f09150506001600160a01b038116611e585760405162461bcd60e51b8152602060048201526016602482015275115490cc4c4d8dce8818dc99585d194819985a5b195960521b6044820152606401610a94565b6000613b0c826040518060400160405280602081526020017f5361666545524332303a206c6f772d6c6576656c2063616c6c206661696c6564815250856001600160a01b0316613e3a9092919063ffffffff16565b8051909150156132735780806020019051810190613b2a919061468d565b6132735760405162461bcd60e51b815260206004820152602a60248201527f5361666545524332303a204552433230206f7065726174696f6e20646964206e6044820152691bdd081cdd58d8d9595960b21b6064820152608401610a94565b60008080838162253d8c613ba08362010bd96146af565b613baa91906146af565b9050600062023ab1613bbd8360046146f0565b613bc79190614775565b90506004613bd88262023ab16146f0565b613be39060036146af565b613bed9190614775565b613bf790836147a3565b9150600062164b09613c0a8460016146af565b613c1690610fa06146f0565b613c209190614775565b90506004613c30826105b56146f0565b613c3a9190614775565b613c4490846147a3565b613c4f90601f6146af565b9250600061098f613c618560506146f0565b613c6b9190614775565b905060006050613c7d8361098f6146f0565b613c879190614775565b613c9190866147a3565b9050613c9e600b83614775565b9450613cab85600c6146f0565b613cb68360026146af565b613cc091906147a3565b91508483613ccf6031876147a3565b613cda9060646146f0565b613ce491906146af565b613cee91906146af565b9a919950975095505050505050565b60006107b2841015613d0e57600080fd5b838383600062253d8c60046064600c613d28600e886147a3565b613d329190614775565b613d3e886113246146af565b613d4891906146af565b613d529190614775565b613d5d9060036146f0565b613d679190614775565b600c80613d75600e886147a3565b613d7f9190614775565b613d8a90600c6146f0565b613d956002886147a3565b613d9f91906147a3565b613dab9061016f6146f0565b613db59190614775565b6004600c613dc4600e896147a3565b613dce9190614775565b613dda896112c06146af565b613de491906146af565b613df0906105b56146f0565b613dfa9190614775565b613e06617d4b876147a3565b613e1091906146af565b613e1a91906146af565b613e2491906147a3565b613e2e91906147a3565b98975050505050505050565b6060611c3e848460008585843b613e935760405162461bcd60e51b815260206004820152601d60248201527f416464726573733a2063616c6c20746f206e6f6e2d636f6e74726163740000006044820152606401610a94565b600080866001600160a01b03168587604051613eaf91906147e2565b60006040518083038185875af1925050503d8060008114613eec576040519150601f19603f3d011682016040523d82523d6000602084013e613ef1565b606091505b50915091506138eb82828660608315613f0b575081611c41565b825115613f1b5782518084602001fd5b8160405162461bcd60e51b8152600401610a9491906147fe565b60405180602001604052806001906020820280368337509192915050565b828054828255906000526020600020908101928215613f8e579160200282015b82811115613f8e578251825591602001919060010190613f73565b50613f9a929150613f9e565b5090565b5b80821115613f9a5760008155600101613f9f565b60008060408385031215613fc657600080fd5b50508035926020909101359150565b600060208284031215613fe757600080fd5b5035919050565b6020808252825182820181905260009190848201906040850190845b818110156140265783518352928401929184019160010161400a565b50909695505050505050565b80356001600160a01b0381168114611e5857600080fd5b60006020828403121561405b57600080fd5b611c4182614032565b602081810190828460005b600181101561408c5781518352918301919083019060010161406f565b5050505092915050565b60008083601f8401126140a857600080fd5b5081356001600160401b038111156140bf57600080fd5b6020830191508360208260051b85010111156140da57600080fd5b9250929050565b600080600080604085870312156140f757600080fd5b84356001600160401b038082111561410e57600080fd5b61411a88838901614096565b9096509450602087013591508082111561413357600080fd5b5061414087828801614096565b95989497509550505050565b60008060006060848603121561416157600080fd5b505081359360208301359350604090920135919050565b6000806040838503121561418b57600080fd5b8235915061419b60208401614032565b90509250929050565b634e487b7160e01b600052604160045260246000fd5b600082601f8301126141cb57600080fd5b813560206001600160401b03808311156141e7576141e76141a4565b8260051b604051601f19603f8301168101818110848211171561420c5761420c6141a4565b60405293845285810183019383810192508785111561422a57600080fd5b83870191505b848210156138eb57813583529183019190830190614230565b60008060006060848603121561425e57600080fd5b83356001600160401b038082111561427557600080fd5b614281878388016141ba565b9450602086013591508082111561429757600080fd5b506142a4868287016141ba565b9250506142b360408501614032565b90509250925092565b6020808252825182820181905260009190848201906040850190845b818110156140265783516001600160a01b0316835292840192918401916001016142d8565b60008060006060848603121561431257600080fd5b83359250602084013591506142b360408501614032565b60006020828403121561433b57600080fd5b81356001600160401b0381111561435157600080fd5b610a69848285016141ba565b60006020828403121561436f57600080fd5b5051919050565b634e487b7160e01b600052601160045260246000fd5b60008160001904831182151516156143a6576143a6614376565b500290565b634e487b7160e01b600052601260045260246000fd5b6000826143d0576143d06143ab565b500490565b60208082526003908201526245313360e81b604082015260600190565b60208082526003908201526222991960e91b604082015260600190565b60208082526010908201526f14185d5cd8589b194e881c185d5cd95960821b604082015260600190565b6020808252601f908201527f5265656e7472616e637947756172643a207265656e7472616e742063616c6c00604082015260600190565b6020808252602f908201527f436f6e747261637457686974656c6973743a20436f6e7472616374206d75737460408201526e081899481dda1a5d195b1a5cdd1959608a1b606082015260800190565b60208082526003908201526204531360ec1b604082015260600190565b634e487b7160e01b600052603260045260246000fd5b60208082526003908201526222989960e91b604082015260600190565b60609290921b6bffffffffffffffffffffffff19168252601482015260340190565b6020808252818101527f4f776e61626c653a2063616c6c6572206973206e6f7420746865206f776e6572604082015260600190565b600060001982141561457a5761457a614376565b5060010190565b60208082526003908201526245313160e81b604082015260600190565b6000828210156145b0576145b0614376565b500390565b600082198211156145c8576145c8614376565b500190565b60005b838110156145e85781810151838201526020016145d0565b838111156137a15750506000910152565b600081518084526146118160208601602086016145cd565b601f01601f19169290920160200192915050565b60408152600061463860408301856145f9565b8281036020840152611dcb81856145f9565b600082614659576146596143ab565b500690565b600083516146708184602088016145cd565b8351908301906146848183602088016145cd565b01949350505050565b60006020828403121561469f57600080fd5b81518015158114611c4157600080fd5b600080821280156001600160ff1b03849003851316156146d1576146d1614376565b600160ff1b83900384128116156146ea576146ea614376565b50500190565b60006001600160ff1b038184138284138082168684048611161561471657614716614376565b600160ff1b600087128281168783058912161561473557614735614376565b6000871292508782058712848416161561475157614751614376565b8785058712818416161561476757614767614376565b505050929093029392505050565b600082614784576147846143ab565b600160ff1b82146000198414161561479e5761479e614376565b500590565b60008083128015600160ff1b8501841216156147c1576147c1614376565b6001600160ff1b03840183138116156147dc576147dc614376565b50500390565b600082516147f48184602087016145cd565b9190910192915050565b602081526000611c4160208301846145f956fea2646970667358221220161cc7f918ce032a7dd6310adb7bcda6c7647e938aac6696d9d806a3162e5a5d64736f6c63430008090033608060405234801561001057600080fd5b50611eb6806100206000396000f3fe608060405234801561001057600080fd5b50600436106101cf5760003560e01c80635c975abb11610104578063a217fddf116100a2578063d539139311610071578063d5391393146103ce578063d547741f146103f5578063dd62ed3e14610408578063e63ab1e91461044157600080fd5b8063a217fddf1461038d578063a457c2d714610395578063a9059cbb146103a8578063ca15c873146103bb57600080fd5b80638456cb59116100de5780638456cb591461033f5780639010d07c1461034757806391d148541461037257806395d89b411461038557600080fd5b80635c975abb146102f757806370a082311461030357806379cc67901461032c57600080fd5b8063313ce567116101715780633f4ba83a1161014b5780633f4ba83a146102b657806340c10f19146102be57806342966c68146102d15780634cd88b76146102e457600080fd5b8063313ce5671461028157806336568abe1461029057806339509351146102a357600080fd5b806318160ddd116101ad57806318160ddd1461022457806323b872dd14610236578063248a9ca3146102495780632f2ff15d1461026c57600080fd5b806301ffc9a7146101d457806306fdde03146101fc578063095ea7b314610211575b600080fd5b6101e76101e23660046119fd565b610456565b60405190151581526020015b60405180910390f35b610204610481565b6040516101f39190611a53565b6101e761021f366004611aa2565b610513565b60cb545b6040519081526020016101f3565b6101e7610244366004611acc565b610529565b610228610257366004611b08565b60009081526065602052604090206001015490565b61027f61027a366004611b21565b6105d8565b005b604051601281526020016101f3565b61027f61029e366004611b21565b610603565b6101e76102b1366004611aa2565b610681565b61027f6106bd565b61027f6102cc366004611aa2565b610751565b61027f6102df366004611b08565b6107f0565b61027f6102f2366004611bf0565b6107fd565b61012d5460ff166101e7565b610228610311366004611c54565b6001600160a01b0316600090815260c9602052604090205490565b61027f61033a366004611aa2565b610874565b61027f6108f5565b61035a610355366004611c6f565b610987565b6040516001600160a01b0390911681526020016101f3565b6101e7610380366004611b21565b6109a6565b6102046109d1565b610228600081565b6101e76103a3366004611aa2565b6109e0565b6101e76103b6366004611aa2565b610a79565b6102286103c9366004611b08565b610a86565b6102287f9f2df0fed2c77648de5860a4cc508cd0818c85b8b8a1ab4ceeef8d981c8956a681565b61027f610403366004611b21565b610a9d565b610228610416366004611c91565b6001600160a01b03918216600090815260ca6020908152604080832093909416825291909152205490565b610228600080516020611e6183398151915281565b60006001600160e01b03198216635a05180f60e01b148061047b575061047b82610ac3565b92915050565b606060cc805461049090611cbb565b80601f01602080910402602001604051908101604052809291908181526020018280546104bc90611cbb565b80156105095780601f106104de57610100808354040283529160200191610509565b820191906000526020600020905b8154815290600101906020018083116104ec57829003601f168201915b5050505050905090565b6000610520338484610af8565b50600192915050565b6000610536848484610c1c565b6001600160a01b038416600090815260ca60209081526040808320338452909152902054828110156105c05760405162461bcd60e51b815260206004820152602860248201527f45524332303a207472616e7366657220616d6f756e74206578636565647320616044820152676c6c6f77616e636560c01b60648201526084015b60405180910390fd5b6105cd8533858403610af8565b506001949350505050565b6000828152606560205260409020600101546105f48133610df7565b6105fe8383610e5b565b505050565b6001600160a01b03811633146106735760405162461bcd60e51b815260206004820152602f60248201527f416363657373436f6e74726f6c3a2063616e206f6e6c792072656e6f756e636560448201526e103937b632b9903337b91039b2b63360891b60648201526084016105b7565b61067d8282610e7d565b5050565b33600081815260ca602090815260408083206001600160a01b038716845290915281205490916105209185906106b8908690611d0c565b610af8565b6106d5600080516020611e61833981519152336109a6565b6107475760405162461bcd60e51b815260206004820152603960248201527f45524332305072657365744d696e7465725061757365723a206d75737420686160448201527f76652070617573657220726f6c6520746f20756e70617573650000000000000060648201526084016105b7565b61074f610e9f565b565b61077b7f9f2df0fed2c77648de5860a4cc508cd0818c85b8b8a1ab4ceeef8d981c8956a6336109a6565b6107e65760405162461bcd60e51b815260206004820152603660248201527f45524332305072657365744d696e7465725061757365723a206d7573742068616044820152751d99481b5a5b9d195c881c9bdb19481d1bc81b5a5b9d60521b60648201526084016105b7565b61067d8282610f34565b6107fa338261101f565b50565b600054610100900460ff1680610816575060005460ff16155b6108325760405162461bcd60e51b81526004016105b790611d24565b600054610100900460ff16158015610854576000805461ffff19166101011790555b61085e8383611179565b80156105fe576000805461ff0019169055505050565b60006108808333610416565b9050818110156108de5760405162461bcd60e51b8152602060048201526024808201527f45524332303a206275726e20616d6f756e74206578636565647320616c6c6f77604482015263616e636560e01b60648201526084016105b7565b6108eb8333848403610af8565b6105fe838361101f565b61090d600080516020611e61833981519152336109a6565b61097f5760405162461bcd60e51b815260206004820152603760248201527f45524332305072657365744d696e7465725061757365723a206d75737420686160448201527f76652070617573657220726f6c6520746f20706175736500000000000000000060648201526084016105b7565b61074f61121c565b600082815260976020526040812061099f9083611299565b9392505050565b60009182526065602090815260408084206001600160a01b0393909316845291905290205460ff1690565b606060cd805461049090611cbb565b33600090815260ca602090815260408083206001600160a01b038616845290915281205482811015610a625760405162461bcd60e51b815260206004820152602560248201527f45524332303a2064656372656173656420616c6c6f77616e63652062656c6f77604482015264207a65726f60d81b60648201526084016105b7565b610a6f3385858403610af8565b5060019392505050565b6000610520338484610c1c565b600081815260976020526040812061047b906112a5565b600082815260656020526040902060010154610ab98133610df7565b6105fe8383610e7d565b60006001600160e01b03198216637965db0b60e01b148061047b57506301ffc9a760e01b6001600160e01b031983161461047b565b6001600160a01b038316610b5a5760405162461bcd60e51b8152602060048201526024808201527f45524332303a20617070726f76652066726f6d20746865207a65726f206164646044820152637265737360e01b60648201526084016105b7565b6001600160a01b038216610bbb5760405162461bcd60e51b815260206004820152602260248201527f45524332303a20617070726f766520746f20746865207a65726f206164647265604482015261737360f01b60648201526084016105b7565b6001600160a01b03838116600081815260ca602090815260408083209487168084529482529182902085905590518481527f8c5be1e5ebec7d5bd14f71427d1e84f3dd0314c0f7b2291e5b200ac8c7c3b925910160405180910390a3505050565b6001600160a01b038316610c805760405162461bcd60e51b815260206004820152602560248201527f45524332303a207472616e736665722066726f6d20746865207a65726f206164604482015264647265737360d81b60648201526084016105b7565b6001600160a01b038216610ce25760405162461bcd60e51b815260206004820152602360248201527f45524332303a207472616e7366657220746f20746865207a65726f206164647260448201526265737360e81b60648201526084016105b7565b610ced8383836112af565b6001600160a01b038316600090815260c9602052604090205481811015610d655760405162461bcd60e51b815260206004820152602660248201527f45524332303a207472616e7366657220616d6f756e7420657863656564732062604482015265616c616e636560d01b60648201526084016105b7565b6001600160a01b03808516600090815260c96020526040808220858503905591851681529081208054849290610d9c908490611d0c565b92505081905550826001600160a01b0316846001600160a01b03167fddf252ad1be2c89b69c2b068fc378daa952ba7f163c4a11628f55a4df523b3ef84604051610de891815260200190565b60405180910390a35b50505050565b610e0182826109a6565b61067d57610e19816001600160a01b031660146112ba565b610e248360206112ba565b604051602001610e35929190611d72565b60408051601f198184030181529082905262461bcd60e51b82526105b791600401611a53565b610e658282611456565b60008281526097602052604090206105fe90826114dc565b610e8782826114f1565b60008281526097602052604090206105fe9082611558565b61012d5460ff16610ee95760405162461bcd60e51b815260206004820152601460248201527314185d5cd8589b194e881b9bdd081c185d5cd95960621b60448201526064016105b7565b61012d805460ff191690557f5db9ee0a495bf2e6ff9c91a7834c1ba4fdd244a5e8aa4e537bd38aeae4b073aa335b6040516001600160a01b03909116815260200160405180910390a1565b6001600160a01b038216610f8a5760405162461bcd60e51b815260206004820152601f60248201527f45524332303a206d696e7420746f20746865207a65726f20616464726573730060448201526064016105b7565b610f96600083836112af565b8060cb6000828254610fa89190611d0c565b90915550506001600160a01b038216600090815260c9602052604081208054839290610fd5908490611d0c565b90915550506040518181526001600160a01b038316906000907fddf252ad1be2c89b69c2b068fc378daa952ba7f163c4a11628f55a4df523b3ef9060200160405180910390a35050565b6001600160a01b03821661107f5760405162461bcd60e51b815260206004820152602160248201527f45524332303a206275726e2066726f6d20746865207a65726f206164647265736044820152607360f81b60648201526084016105b7565b61108b826000836112af565b6001600160a01b038216600090815260c96020526040902054818110156110ff5760405162461bcd60e51b815260206004820152602260248201527f45524332303a206275726e20616d6f756e7420657863656564732062616c616e604482015261636560f01b60648201526084016105b7565b6001600160a01b038316600090815260c960205260408120838303905560cb805484929061112e908490611de7565b90915550506040518281526000906001600160a01b038516907fddf252ad1be2c89b69c2b068fc378daa952ba7f163c4a11628f55a4df523b3ef9060200160405180910390a3505050565b600054610100900460ff1680611192575060005460ff16155b6111ae5760405162461bcd60e51b81526004016105b790611d24565b600054610100900460ff161580156111d0576000805461ffff19166101011790555b6111d861156d565b6111e061156d565b6111e861156d565b6111f061156d565b6111fa83836115d8565b61120261156d565b61120a61166d565b61121261156d565b61085e83836116e3565b61012d5460ff16156112635760405162461bcd60e51b815260206004820152601060248201526f14185d5cd8589b194e881c185d5cd95960821b60448201526064016105b7565b61012d805460ff191660011790557f62e78cea01bee320cd4e420270b5ea74000d11b0c9f74754ebdbfc544b05a258610f173390565b600061099f8383611787565b600061047b825490565b6105fe8383836117b1565b606060006112c9836002611dfe565b6112d4906002611d0c565b67ffffffffffffffff8111156112ec576112ec611b4d565b6040519080825280601f01601f191660200182016040528015611316576020820181803683370190505b509050600360fc1b8160008151811061133157611331611e1d565b60200101906001600160f81b031916908160001a905350600f60fb1b8160018151811061136057611360611e1d565b60200101906001600160f81b031916908160001a9053506000611384846002611dfe565b61138f906001611d0c565b90505b6001811115611407576f181899199a1a9b1b9c1cb0b131b232b360811b85600f16601081106113c3576113c3611e1d565b1a60f81b8282815181106113d9576113d9611e1d565b60200101906001600160f81b031916908160001a90535060049490941c9361140081611e33565b9050611392565b50831561099f5760405162461bcd60e51b815260206004820181905260248201527f537472696e67733a20686578206c656e67746820696e73756666696369656e7460448201526064016105b7565b61146082826109a6565b61067d5760008281526065602090815260408083206001600160a01b03851684529091529020805460ff191660011790556114983390565b6001600160a01b0316816001600160a01b0316837f2f8788117e7eff1d82e926ec794901d17c78024a50270940304540a733656f0d60405160405180910390a45050565b600061099f836001600160a01b038416611818565b6114fb82826109a6565b1561067d5760008281526065602090815260408083206001600160a01b0385168085529252808320805460ff1916905551339285917ff6391f5c32d9c69d2a47ea670b442974b53935d1edc7fd64eb21e047a839171b9190a45050565b600061099f836001600160a01b038416611867565b600054610100900460ff1680611586575060005460ff16155b6115a25760405162461bcd60e51b81526004016105b790611d24565b600054610100900460ff161580156115c4576000805461ffff19166101011790555b80156107fa576000805461ff001916905550565b600054610100900460ff16806115f1575060005460ff16155b61160d5760405162461bcd60e51b81526004016105b790611d24565b600054610100900460ff1615801561162f576000805461ffff19166101011790555b82516116429060cc906020860190611964565b5081516116569060cd906020850190611964565b5080156105fe576000805461ff0019169055505050565b600054610100900460ff1680611686575060005460ff16155b6116a25760405162461bcd60e51b81526004016105b790611d24565b600054610100900460ff161580156116c4576000805461ffff19166101011790555b61012d805460ff1916905580156107fa576000805461ff001916905550565b600054610100900460ff16806116fc575060005460ff16155b6117185760405162461bcd60e51b81526004016105b790611d24565b600054610100900460ff1615801561173a576000805461ffff19166101011790555b61174560003361195a565b61176f7f9f2df0fed2c77648de5860a4cc508cd0818c85b8b8a1ab4ceeef8d981c8956a63361195a565b61085e600080516020611e618339815191523361195a565b600082600001828154811061179e5761179e611e1d565b9060005260206000200154905092915050565b61012d5460ff16156105fe5760405162461bcd60e51b815260206004820152602a60248201527f45524332305061757361626c653a20746f6b656e207472616e736665722077686044820152691a5b19481c185d5cd95960b21b60648201526084016105b7565b600081815260018301602052604081205461185f5750815460018181018455600084815260208082209093018490558454848252828601909352604090209190915561047b565b50600061047b565b6000818152600183016020526040812054801561195057600061188b600183611de7565b855490915060009061189f90600190611de7565b90508181146119045760008660000182815481106118bf576118bf611e1d565b90600052602060002001549050808760000184815481106118e2576118e2611e1d565b6000918252602080832090910192909255918252600188019052604090208390555b855486908061191557611915611e4a565b60019003818190600052602060002001600090559055856001016000868152602001908152602001600020600090556001935050505061047b565b600091505061047b565b61067d8282610e5b565b82805461197090611cbb565b90600052602060002090601f01602090048101928261199257600085556119d8565b82601f106119ab57805160ff19168380011785556119d8565b828001600101855582156119d8579182015b828111156119d85782518255916020019190600101906119bd565b506119e49291506119e8565b5090565b5b808211156119e457600081556001016119e9565b600060208284031215611a0f57600080fd5b81356001600160e01b03198116811461099f57600080fd5b60005b83811015611a42578181015183820152602001611a2a565b83811115610df15750506000910152565b6020815260008251806020840152611a72816040850160208701611a27565b601f01601f19169190910160400192915050565b80356001600160a01b0381168114611a9d57600080fd5b919050565b60008060408385031215611ab557600080fd5b611abe83611a86565b946020939093013593505050565b600080600060608486031215611ae157600080fd5b611aea84611a86565b9250611af860208501611a86565b9150604084013590509250925092565b600060208284031215611b1a57600080fd5b5035919050565b60008060408385031215611b3457600080fd5b82359150611b4460208401611a86565b90509250929050565b634e487b7160e01b600052604160045260246000fd5b600082601f830112611b7457600080fd5b813567ffffffffffffffff80821115611b8f57611b8f611b4d565b604051601f8301601f19908116603f01168101908282118183101715611bb757611bb7611b4d565b81604052838152866020858801011115611bd057600080fd5b836020870160208301376000602085830101528094505050505092915050565b60008060408385031215611c0357600080fd5b823567ffffffffffffffff80821115611c1b57600080fd5b611c2786838701611b63565b93506020850135915080821115611c3d57600080fd5b50611c4a85828601611b63565b9150509250929050565b600060208284031215611c6657600080fd5b61099f82611a86565b60008060408385031215611c8257600080fd5b50508035926020909101359150565b60008060408385031215611ca457600080fd5b611cad83611a86565b9150611b4460208401611a86565b600181811c90821680611ccf57607f821691505b60208210811415611cf057634e487b7160e01b600052602260045260246000fd5b50919050565b634e487b7160e01b600052601160045260246000fd5b60008219821115611d1f57611d1f611cf6565b500190565b6020808252602e908201527f496e697469616c697a61626c653a20636f6e747261637420697320616c72656160408201526d191e481a5b9a5d1a585b1a5e995960921b606082015260800190565b7f416363657373436f6e74726f6c3a206163636f756e7420000000000000000000815260008351611daa816017850160208801611a27565b7001034b99036b4b9b9b4b733903937b6329607d1b6017918401918201528351611ddb816028840160208801611a27565b01602801949350505050565b600082821015611df957611df9611cf6565b500390565b6000816000190483118215151615611e1857611e18611cf6565b500290565b634e487b7160e01b600052603260045260246000fd5b600081611e4257611e42611cf6565b506000190190565b634e487b7160e01b600052603160045260246000fdfe65d7a28e3265b37a6474929f336521b332c1681b933f6cb9f3376673440d862aa26469706673582212201e8e71d04321c61cbea798e0c220b88d5e37b921bdfb67b7e07db65b7fd1d00064736f6c63430008090033",
  "devdoc": {
    "kind": "dev",
    "methods": {
      "addToContractWhitelist(address)": {
        "details": "add to the contract whitelist",
        "params": {
          "_contract": "the address of the contract to add to the contract whitelist"
        },
        "returns": {
          "_0": "whether the contract was successfully added to the whitelist"
        }
      },
      "bootstrap()": {
        "returns": {
          "_0": "Whether bootstrap was successful"
        }
      },
      "calculatePnl(uint256,uint256,uint256)": {
        "params": {
          "amount": "amount of options",
          "price": "price of gOHM",
          "strike": "strike price of the the gOHM option"
        }
      },
      "calculatePremium(uint256,uint256)": {
        "params": {
          "_amount": "Amount of options",
          "_strike": "Strike price of the option"
        }
      },
      "calculatePurchaseFees(uint256,uint256,uint256)": {
        "params": {
          "amount": "amount of options being bought",
          "price": "price of DPX",
          "strike": "strike price of the the DPX option"
        }
      },
      "calculateSettlementFees(uint256,uint256,uint256)": {
        "params": {
          "amount": "amount of options being settled",
          "pnl": "total pnl",
          "settlementPrice": "settlement price of DPX"
        }
      },
      "deposit(uint256,uint256,address)": {
        "params": {
          "strikeIndex": "Index of strike",
          "user": "Address of the user to deposit for"
        },
        "returns": {
          "_0": "Whether deposit was successful"
        }
      },
      "depositMultiple(uint256[],uint256[],address)": {
        "params": {
          "amounts": "Amount of gOHM to deposit into each strike index",
          "strikeIndices": "Indices of strikes to deposit into",
          "user": "Address of the user to deposit for"
        },
        "returns": {
          "_0": "Whether deposits went through successfully"
        }
      },
      "emergencyWithdraw()": {
        "details": "Can only be called by governance",
        "returns": {
          "_0": "Whether emergency withdraw was successful"
        }
      },
      "expireEpoch()": {
        "returns": {
          "_0": "Whether expire was successful"
        }
      },
      "expireEpoch(uint256)": {
        "details": "Only callable by governace in case the delay tolerance was exceeded",
        "params": {
          "settlementPrice": "The settlement price"
        },
        "returns": {
          "_0": "Whether expire was successful"
        }
      },
      "getAddress(bytes32)": {
        "params": {
          "name": "Name of the contract"
        },
        "returns": {
          "_0": "The address of the contract"
        }
      },
      "getEpochStrikeTokens(uint256)": {
        "params": {
          "epoch": "Target epoch"
        }
      },
      "getEpochStrikes(uint256)": {
        "params": {
          "epoch": "Target epoch"
        }
      },
      "getEpochTimes(uint256)": {
        "params": {
          "epoch": "Target epoch"
        }
      },
      "getMonthlyExpiryFromTimestamp(uint256)": {
        "params": {
          "timestamp": "Timestamp from which the monthly expiry is to be calculated"
        },
        "returns": {
          "_0": "The monthly expiry"
        }
      },
      "getTotalEpochCallsPurchased(uint256)": {
        "params": {
          "epoch": "Target epoch"
        }
      },
      "getTotalEpochPremium(uint256)": {
        "params": {
          "epoch": "Target epoch"
        }
      },
      "getTotalEpochStrikeDeposits(uint256)": {
        "params": {
          "epoch": "Target epoch"
        }
      },
      "getUserEpochCallsPurchased(uint256,address)": {
        "params": {
          "epoch": "Target epoch",
          "user": "Address of the user"
        }
      },
      "getUserEpochDeposits(uint256,address)": {
        "params": {
          "epoch": "Target epoch",
          "user": "Address of the user"
        }
      },
      "getUserEpochPremium(uint256,address)": {
        "params": {
          "epoch": "Target epoch",
          "user": "Address of the user"
        }
      },
      "isContract(address)": {
        "details": "checks for contract or eoa addresses",
        "params": {
          "addr": "the address to check"
        },
        "returns": {
          "_0": "whether the passed address is a contract address"
        }
      },
      "owner()": {
        "details": "Returns the address of the current owner."
      },
      "pause()": {
        "details": "Can only be called by governance",
        "returns": {
          "_0": "Whether it was successfully paused"
        }
      },
      "paused()": {
        "details": "Returns true if the contract is paused, and false otherwise."
      },
      "purchase(uint256,uint256,address)": {
        "params": {
          "amount": "Amount of calls to purchase",
          "strikeIndex": "Strike index for current epoch",
          "user": "User to purchase options for"
        },
        "returns": {
          "_0": "Whether purchase was successful"
        }
      },
      "removeFromContractWhitelist(address)": {
        "details": "remove from  the contract whitelist",
        "params": {
          "_contract": "the address of the contract to remove from the contract whitelist"
        },
        "returns": {
          "_0": "whether the contract was successfully removed from the whitelist"
        }
      },
      "renounceOwnership()": {
        "details": "Leaves the contract without owner. It will not be possible to call `onlyOwner` functions anymore. Can only be called by the current owner. NOTE: Renouncing ownership will leave the contract without an owner, thereby removing any functionality that is only available to the owner."
      },
      "setAddresses(bytes32[],address[])": {
        "params": {
          "destinations": "Addresses of the contract",
          "names": "Names of the contracts"
        },
        "returns": {
          "_0": "Whether the addresses were set"
        }
      },
      "setStrikes(uint256[])": {
        "params": {
          "strikes": "Strikes to set for next epoch"
        },
        "returns": {
          "_0": "Whether strikes were set"
        }
      },
      "settle(uint256,uint256,uint256)": {
        "params": {
          "amount": "Amount of calls to exercise",
          "strikeIndex": "Strike index for current epoch"
        },
        "returns": {
          "pnl": "pnl"
        }
      },
      "transferOwnership(address)": {
        "details": "Transfers ownership of the contract to a new account (`newOwner`). Can only be called by the current owner."
      },
      "unpause()": {
        "details": "Can only be called by governance",
        "returns": {
          "_0": "Whether it was successfully unpaused"
        }
      },
      "updateExpireDelayTolerance(uint256)": {
        "details": "Can only be called by governance",
        "returns": {
          "_0": "Whether it was successfully updated"
        }
      },
      "withdraw(uint256,uint256)": {
        "params": {
          "strikeIndex": "Index of strike",
          "withdrawEpoch": "Epoch to withdraw from"
        },
        "returns": {
          "_0": "gOHM withdrawn"
        }
      }
    },
    "stateVariables": {
      "addresses": {
        "details": "The list of contract addresses the contract uses"
      },
      "currentEpoch": {
        "details": "Current epoch for ssov"
      },
      "epochStartTimes": {
        "details": "epoch => the epoch start time"
      },
      "epochStrikeTokens": {
        "details": "Mapping of (epoch => (strike => tokens))"
      },
      "epochStrikes": {
        "details": "Mapping of strikes for each epoch"
      },
      "erc20Implementation": {
        "details": "ERC20PresetMinterPauserUpgradeable implementation address"
      },
      "expireDelayTolerance": {
        "details": "Expire delay tolerance"
      },
      "isEpochExpired": {
        "details": "epoch => whether the epoch is expired"
      },
      "isVaultReady": {
        "details": "epoch => whether the vault is ready (boostrapped)"
      },
      "settlementPrices": {
        "details": "epoch => settlement price"
      },
      "totalEpochCallsPurchased": {
        "details": "mapping (epoch => (strike => calls purchased))"
      },
      "totalEpochDeposits": {
        "details": "mapping (epoch => deposits)"
      },
      "totalEpochPremium": {
        "details": "mapping (epoch => (strike => premium))"
      },
      "totalEpochStrikeDeposits": {
        "details": "mapping (epoch => (strike => deposits))"
      },
      "totalEpochStrikeGohmBalance": {
        "details": "mapping (epoch => (strike => balance))"
      },
      "userEpochCallsPurchased": {
        "details": "mapping (epoch => (abi.encodePacked(user, strike) => user calls purchased))"
      },
      "userEpochDeposits": {
        "details": "mapping (epoch => (abi.encodePacked(user, strike) => user deposits))"
      },
      "userEpochPremium": {
        "details": "mapping (epoch => (abi.encodePacked(user, strike) => user premium))"
      }
    },
    "version": 1
  },
  "userdoc": {
    "kind": "user",
    "methods": {
      "bootstrap()": {
        "notice": "Bootstraps a new epoch and mints option tokens equivalent to user deposits for the epoch"
      },
      "calculatePnl(uint256,uint256,uint256)": {
        "notice": "Calculate Pnl"
      },
      "calculatePremium(uint256,uint256)": {
        "notice": "Calculate premium for an option"
      },
      "calculatePurchaseFees(uint256,uint256,uint256)": {
        "notice": "Calculate Fees for purchase"
      },
      "calculateSettlementFees(uint256,uint256,uint256)": {
        "notice": "Calculate Fees for settlement"
      },
      "deposit(uint256,uint256,address)": {
        "notice": "Deposits gOHM into the ssov to mint options in the next epoch for selected strikes"
      },
      "depositMultiple(uint256[],uint256[],address)": {
        "notice": "Deposit gOHM multiple times into different strike"
      },
      "emergencyWithdraw()": {
        "notice": "Transfers all funds to msg.sender"
      },
      "expireEpoch()": {
        "notice": "Sets the current epoch as expired."
      },
      "expireEpoch(uint256)": {
        "notice": "Sets the current epoch as expired."
      },
      "getAddress(bytes32)": {
        "notice": "Gets the address of a set contract"
      },
      "getEpochStrikeTokens(uint256)": {
        "notice": "Returns epoch strike tokens array for an epoch"
      },
      "getEpochStrikes(uint256)": {
        "notice": "Returns epoch strikes array for an epoch"
      },
      "getEpochTimes(uint256)": {
        "notice": "Returns start and end times for an epoch"
      },
      "getMonthlyExpiryFromTimestamp(uint256)": {
        "notice": "Calculates the monthly expiry from a solidity date"
      },
      "getTotalEpochCallsPurchased(uint256)": {
        "notice": "Returns total epoch calls purchased array for an epoch"
      },
      "getTotalEpochPremium(uint256)": {
        "notice": "Returns total epoch premium array for an epoch"
      },
      "getTotalEpochStrikeDeposits(uint256)": {
        "notice": "Returns total epoch strike deposits array for an epoch"
      },
      "getUsdPrice()": {
        "notice": "Returns gOHM price in USD in 1e8"
      },
      "getUserEpochCallsPurchased(uint256,address)": {
        "notice": "Returns user epoch calls purchased array for an epoch"
      },
      "getUserEpochDeposits(uint256,address)": {
        "notice": "Returns user epoch deposits array for an epoch"
      },
      "getUserEpochPremium(uint256,address)": {
        "notice": "Returns user epoch premium array for an epoch"
      },
      "isEpochExpired(uint256)": {
        "notice": "Is epoch expired"
      },
      "isVaultReady(uint256)": {
        "notice": "Is vault ready for next epoch"
      },
      "pause()": {
        "notice": "Pauses the vault for emergency cases"
      },
      "purchase(uint256,uint256,address)": {
        "notice": "Purchases calls for the current epoch"
      },
      "setAddresses(bytes32[],address[])": {
        "notice": "Sets (adds) a list of addresses to the address list"
      },
      "setStrikes(uint256[])": {
        "notice": "Sets strikes for next epoch"
      },
      "settle(uint256,uint256,uint256)": {
        "notice": "Settle calculates the PnL for the user with the settlement price and withdraws the PnL in gOHM to the user. Will also the burn the option tokens from the user."
      },
      "totalEpochDeposits(uint256)": {
        "notice": "Total epoch deposits across all strikes"
      },
      "totalEpochPremium(uint256,uint256)": {
        "notice": "Premium collected per strike for an epoch"
      },
      "totalEpochStrikeDeposits(uint256,uint256)": {
        "notice": "Total epoch deposits for specific strikes"
      },
      "totalEpochStrikeGohmBalance(uint256,uint256)": {
        "notice": "Epoch gOHM balance per strike after accounting for rewards"
      },
      "unpause()": {
        "notice": "Unpauses the vault"
      },
      "updateExpireDelayTolerance(uint256)": {
        "notice": "Updates the delay tolerance for the expiry epoch function"
      },
      "userEpochCallsPurchased(uint256,bytes32)": {
        "notice": "Calls purchased by user for each strike"
      },
      "userEpochDeposits(uint256,bytes32)": {
        "notice": "Epoch deposits by user for each strike"
      },
      "userEpochPremium(uint256,bytes32)": {
        "notice": "User premium collected per strike for an epoch"
      },
      "withdraw(uint256,uint256)": {
        "notice": "Withdraws balances for a strike in a completed epoch"
      }
    },
    "version": 1
  },
  "storageLayout": {
    "storage": [
      {
        "astId": 3585,
        "contract": "contracts/SSOV/v2/GohmSSOVV2.sol:GohmSSOVV2",
        "label": "_paused",
        "offset": 0,
        "slot": "0",
        "type": "t_bool"
      },
      {
        "astId": 3670,
        "contract": "contracts/SSOV/v2/GohmSSOVV2.sol:GohmSSOVV2",
        "label": "_status",
        "offset": 0,
        "slot": "1",
        "type": "t_uint256"
      },
      {
        "astId": 3344,
        "contract": "contracts/SSOV/v2/GohmSSOVV2.sol:GohmSSOVV2",
        "label": "_owner",
        "offset": 0,
        "slot": "2",
        "type": "t_address"
      },
      {
        "astId": 43959,
        "contract": "contracts/SSOV/v2/GohmSSOVV2.sol:GohmSSOVV2",
        "label": "whitelistedContracts",
        "offset": 0,
        "slot": "3",
        "type": "t_mapping(t_address,t_bool)"
      },
      {
        "astId": 27732,
        "contract": "contracts/SSOV/v2/GohmSSOVV2.sol:GohmSSOVV2",
        "label": "currentEpoch",
        "offset": 0,
        "slot": "4",
        "type": "t_uint256"
      },
      {
        "astId": 27736,
        "contract": "contracts/SSOV/v2/GohmSSOVV2.sol:GohmSSOVV2",
        "label": "expireDelayTolerance",
        "offset": 0,
        "slot": "5",
        "type": "t_uint256"
      },
      {
        "astId": 27741,
        "contract": "contracts/SSOV/v2/GohmSSOVV2.sol:GohmSSOVV2",
        "label": "addresses",
        "offset": 0,
        "slot": "6",
        "type": "t_mapping(t_bytes32,t_address)"
      },
      {
        "astId": 27746,
        "contract": "contracts/SSOV/v2/GohmSSOVV2.sol:GohmSSOVV2",
        "label": "epochStartTimes",
        "offset": 0,
        "slot": "7",
        "type": "t_mapping(t_uint256,t_uint256)"
      },
      {
        "astId": 27751,
        "contract": "contracts/SSOV/v2/GohmSSOVV2.sol:GohmSSOVV2",
        "label": "isEpochExpired",
        "offset": 0,
        "slot": "8",
        "type": "t_mapping(t_uint256,t_bool)"
      },
      {
        "astId": 27756,
        "contract": "contracts/SSOV/v2/GohmSSOVV2.sol:GohmSSOVV2",
        "label": "isVaultReady",
        "offset": 0,
        "slot": "9",
        "type": "t_mapping(t_uint256,t_bool)"
      },
      {
        "astId": 27763,
        "contract": "contracts/SSOV/v2/GohmSSOVV2.sol:GohmSSOVV2",
        "label": "epochStrikes",
        "offset": 0,
        "slot": "10",
        "type": "t_mapping(t_uint256,t_array(t_uint256)dyn_storage)"
      },
      {
        "astId": 27771,
        "contract": "contracts/SSOV/v2/GohmSSOVV2.sol:GohmSSOVV2",
        "label": "epochStrikeTokens",
        "offset": 0,
        "slot": "11",
        "type": "t_mapping(t_uint256,t_mapping(t_uint256,t_address))"
      },
      {
        "astId": 27778,
        "contract": "contracts/SSOV/v2/GohmSSOVV2.sol:GohmSSOVV2",
        "label": "totalEpochStrikeDeposits",
        "offset": 0,
        "slot": "12",
        "type": "t_mapping(t_uint256,t_mapping(t_uint256,t_uint256))"
      },
      {
        "astId": 27783,
        "contract": "contracts/SSOV/v2/GohmSSOVV2.sol:GohmSSOVV2",
        "label": "totalEpochDeposits",
        "offset": 0,
        "slot": "13",
        "type": "t_mapping(t_uint256,t_uint256)"
      },
      {
        "astId": 27790,
        "contract": "contracts/SSOV/v2/GohmSSOVV2.sol:GohmSSOVV2",
        "label": "userEpochDeposits",
        "offset": 0,
        "slot": "14",
        "type": "t_mapping(t_uint256,t_mapping(t_bytes32,t_uint256))"
      },
      {
        "astId": 27797,
        "contract": "contracts/SSOV/v2/GohmSSOVV2.sol:GohmSSOVV2",
        "label": "totalEpochStrikeGohmBalance",
        "offset": 0,
        "slot": "15",
        "type": "t_mapping(t_uint256,t_mapping(t_uint256,t_uint256))"
      },
      {
        "astId": 27804,
        "contract": "contracts/SSOV/v2/GohmSSOVV2.sol:GohmSSOVV2",
        "label": "totalEpochCallsPurchased",
        "offset": 0,
        "slot": "16",
        "type": "t_mapping(t_uint256,t_mapping(t_uint256,t_uint256))"
      },
      {
        "astId": 27811,
        "contract": "contracts/SSOV/v2/GohmSSOVV2.sol:GohmSSOVV2",
        "label": "userEpochCallsPurchased",
        "offset": 0,
        "slot": "17",
        "type": "t_mapping(t_uint256,t_mapping(t_bytes32,t_uint256))"
      },
      {
        "astId": 27818,
        "contract": "contracts/SSOV/v2/GohmSSOVV2.sol:GohmSSOVV2",
        "label": "totalEpochPremium",
        "offset": 0,
        "slot": "18",
        "type": "t_mapping(t_uint256,t_mapping(t_uint256,t_uint256))"
      },
      {
        "astId": 27825,
        "contract": "contracts/SSOV/v2/GohmSSOVV2.sol:GohmSSOVV2",
        "label": "userEpochPremium",
        "offset": 0,
        "slot": "19",
        "type": "t_mapping(t_uint256,t_mapping(t_bytes32,t_uint256))"
      },
      {
        "astId": 27830,
        "contract": "contracts/SSOV/v2/GohmSSOVV2.sol:GohmSSOVV2",
        "label": "settlementPrices",
        "offset": 0,
        "slot": "20",
        "type": "t_mapping(t_uint256,t_uint256)"
      }
    ],
    "types": {
      "t_address": {
        "encoding": "inplace",
        "label": "address",
        "numberOfBytes": "20"
      },
      "t_array(t_uint256)dyn_storage": {
        "base": "t_uint256",
        "encoding": "dynamic_array",
        "label": "uint256[]",
        "numberOfBytes": "32"
      },
      "t_bool": {
        "encoding": "inplace",
        "label": "bool",
        "numberOfBytes": "1"
      },
      "t_bytes32": {
        "encoding": "inplace",
        "label": "bytes32",
        "numberOfBytes": "32"
      },
      "t_mapping(t_address,t_bool)": {
        "encoding": "mapping",
        "key": "t_address",
        "label": "mapping(address => bool)",
        "numberOfBytes": "32",
        "value": "t_bool"
      },
      "t_mapping(t_bytes32,t_address)": {
        "encoding": "mapping",
        "key": "t_bytes32",
        "label": "mapping(bytes32 => address)",
        "numberOfBytes": "32",
        "value": "t_address"
      },
      "t_mapping(t_bytes32,t_uint256)": {
        "encoding": "mapping",
        "key": "t_bytes32",
        "label": "mapping(bytes32 => uint256)",
        "numberOfBytes": "32",
        "value": "t_uint256"
      },
      "t_mapping(t_uint256,t_address)": {
        "encoding": "mapping",
        "key": "t_uint256",
        "label": "mapping(uint256 => address)",
        "numberOfBytes": "32",
        "value": "t_address"
      },
      "t_mapping(t_uint256,t_array(t_uint256)dyn_storage)": {
        "encoding": "mapping",
        "key": "t_uint256",
        "label": "mapping(uint256 => uint256[])",
        "numberOfBytes": "32",
        "value": "t_array(t_uint256)dyn_storage"
      },
      "t_mapping(t_uint256,t_bool)": {
        "encoding": "mapping",
        "key": "t_uint256",
        "label": "mapping(uint256 => bool)",
        "numberOfBytes": "32",
        "value": "t_bool"
      },
      "t_mapping(t_uint256,t_mapping(t_bytes32,t_uint256))": {
        "encoding": "mapping",
        "key": "t_uint256",
        "label": "mapping(uint256 => mapping(bytes32 => uint256))",
        "numberOfBytes": "32",
        "value": "t_mapping(t_bytes32,t_uint256)"
      },
      "t_mapping(t_uint256,t_mapping(t_uint256,t_address))": {
        "encoding": "mapping",
        "key": "t_uint256",
        "label": "mapping(uint256 => mapping(uint256 => address))",
        "numberOfBytes": "32",
        "value": "t_mapping(t_uint256,t_address)"
      },
      "t_mapping(t_uint256,t_mapping(t_uint256,t_uint256))": {
        "encoding": "mapping",
        "key": "t_uint256",
        "label": "mapping(uint256 => mapping(uint256 => uint256))",
        "numberOfBytes": "32",
        "value": "t_mapping(t_uint256,t_uint256)"
      },
      "t_mapping(t_uint256,t_uint256)": {
        "encoding": "mapping",
        "key": "t_uint256",
        "label": "mapping(uint256 => uint256)",
        "numberOfBytes": "32",
        "value": "t_uint256"
      },
      "t_uint256": {
        "encoding": "inplace",
        "label": "uint256",
        "numberOfBytes": "32"
      }
    }
  }
}