{
  "address": "0x89836d5F178141AAF013412b12aBD754802d2318",
  "abi": [
    {
      "inputs": [
        {
          "internalType": "address",
          "name": "_gohm",
          "type": "address"
        },
        {
          "internalType": "address",
          "name": "_optionPricing",
          "type": "address"
        },
        {
          "internalType": "address",
          "name": "_gohmPriceOracle",
          "type": "address"
        },
        {
          "internalType": "address",
          "name": "_volatilityOracle",
          "type": "address"
        },
        {
          "internalType": "address",
          "name": "_feeDistributor",
          "type": "address"
        }
      ],
      "stateMutability": "nonpayable",
      "type": "constructor"
    },
    {
      "anonymous": false,
      "inputs": [
        {
          "indexed": true,
          "internalType": "address",
          "name": "_contract",
          "type": "address"
        }
      ],
      "name": "AddToContractWhitelist",
      "type": "event"
    },
    {
      "anonymous": false,
      "inputs": [
        {
          "indexed": true,
          "internalType": "bytes32",
          "name": "name",
          "type": "bytes32"
        },
        {
          "indexed": true,
          "internalType": "address",
          "name": "destination",
          "type": "address"
        }
      ],
      "name": "AddressSet",
      "type": "event"
    },
    {
      "anonymous": false,
      "inputs": [
        {
          "indexed": false,
          "internalType": "uint256",
          "name": "epoch",
          "type": "uint256"
        }
      ],
      "name": "Bootstrap",
      "type": "event"
    },
    {
      "anonymous": false,
      "inputs": [
        {
          "indexed": false,
          "internalType": "address",
          "name": "sender",
          "type": "address"
        },
        {
          "indexed": false,
          "internalType": "uint256",
          "name": "gohmWithdrawn",
          "type": "uint256"
        }
      ],
      "name": "EmergencyWithdraw",
      "type": "event"
    },
    {
      "anonymous": false,
      "inputs": [
        {
          "indexed": false,
          "internalType": "uint256",
          "name": "expireDelayTolerance",
          "type": "uint256"
        }
      ],
      "name": "ExpireDelayToleranceUpdate",
      "type": "event"
    },
    {
      "anonymous": false,
      "inputs": [
        {
          "indexed": false,
          "internalType": "uint256",
          "name": "epoch",
          "type": "uint256"
        },
        {
          "indexed": false,
          "internalType": "uint256",
          "name": "settlementPrice",
          "type": "uint256"
        }
      ],
      "name": "ExpireEpoch",
      "type": "event"
    },
    {
      "anonymous": false,
      "inputs": [
        {
          "indexed": false,
          "internalType": "uint256",
          "name": "epoch",
          "type": "uint256"
        },
        {
          "indexed": false,
          "internalType": "uint256",
          "name": "strike",
          "type": "uint256"
        },
        {
          "indexed": false,
          "internalType": "uint256",
          "name": "amount",
          "type": "uint256"
        },
        {
          "indexed": false,
          "internalType": "address",
          "name": "user",
          "type": "address"
        },
        {
          "indexed": false,
          "internalType": "address",
          "name": "sender",
          "type": "address"
        }
      ],
      "name": "NewDeposit",
      "type": "event"
    },
    {
      "anonymous": false,
      "inputs": [
        {
          "indexed": false,
          "internalType": "uint256",
          "name": "epoch",
          "type": "uint256"
        },
        {
          "indexed": false,
          "internalType": "uint256",
          "name": "strike",
          "type": "uint256"
        },
        {
          "indexed": false,
          "internalType": "uint256",
          "name": "amount",
          "type": "uint256"
        },
        {
          "indexed": false,
          "internalType": "uint256",
          "name": "premium",
          "type": "uint256"
        },
        {
          "indexed": false,
          "internalType": "uint256",
          "name": "fee",
          "type": "uint256"
        },
        {
          "indexed": false,
          "internalType": "address",
          "name": "user",
          "type": "address"
        },
        {
          "indexed": false,
          "internalType": "address",
          "name": "sender",
          "type": "address"
        }
      ],
      "name": "NewPurchase",
      "type": "event"
    },
    {
      "anonymous": false,
      "inputs": [
        {
          "indexed": false,
          "internalType": "uint256",
          "name": "epoch",
          "type": "uint256"
        },
        {
          "indexed": false,
          "internalType": "uint256",
          "name": "strike",
          "type": "uint256"
        },
        {
          "indexed": false,
          "internalType": "address",
          "name": "user",
          "type": "address"
        },
        {
          "indexed": false,
          "internalType": "uint256",
          "name": "amount",
          "type": "uint256"
        },
        {
          "indexed": false,
          "internalType": "uint256",
          "name": "pnl",
          "type": "uint256"
        }
      ],
      "name": "NewSettle",
      "type": "event"
    },
    {
      "anonymous": false,
      "inputs": [
        {
          "indexed": false,
          "internalType": "uint256",
          "name": "epoch",
          "type": "uint256"
        },
        {
          "indexed": false,
          "internalType": "uint256",
          "name": "strike",
          "type": "uint256"
        }
      ],
      "name": "NewStrike",
      "type": "event"
    },
    {
      "anonymous": false,
      "inputs": [
        {
          "indexed": false,
          "internalType": "uint256",
          "name": "epoch",
          "type": "uint256"
        },
        {
          "indexed": false,
          "internalType": "uint256",
          "name": "strike",
          "type": "uint256"
        },
        {
          "indexed": false,
          "internalType": "address",
          "name": "user",
          "type": "address"
        },
        {
          "indexed": false,
          "internalType": "uint256",
          "name": "amount",
          "type": "uint256"
        },
        {
          "indexed": false,
          "internalType": "uint256",
          "name": "gohmAmount",
          "type": "uint256"
        }
      ],
      "name": "NewWithdraw",
      "type": "event"
    },
    {
      "anonymous": false,
      "inputs": [
        {
          "indexed": true,
          "internalType": "address",
          "name": "previousOwner",
          "type": "address"
        },
        {
          "indexed": true,
          "internalType": "address",
          "name": "newOwner",
          "type": "address"
        }
      ],
      "name": "OwnershipTransferred",
      "type": "event"
    },
    {
      "anonymous": false,
      "inputs": [
        {
          "indexed": false,
          "internalType": "address",
          "name": "account",
          "type": "address"
        }
      ],
      "name": "Paused",
      "type": "event"
    },
    {
      "anonymous": false,
      "inputs": [
        {
          "indexed": false,
          "internalType": "uint256",
          "name": "purchaseFeePercentage",
          "type": "uint256"
        }
      ],
      "name": "PurchaseFeePercentageUpdate",
      "type": "event"
    },
    {
      "anonymous": false,
      "inputs": [
        {
          "indexed": true,
          "internalType": "address",
          "name": "_contract",
          "type": "address"
        }
      ],
      "name": "RemoveFromContractWhitelist",
      "type": "event"
    },
    {
      "anonymous": false,
      "inputs": [
        {
          "indexed": false,
          "internalType": "address",
          "name": "account",
          "type": "address"
        }
      ],
      "name": "Unpaused",
      "type": "event"
    },
    {
      "inputs": [
        {
          "internalType": "address",
          "name": "_contract",
          "type": "address"
        }
      ],
      "name": "addToContractWhitelist",
      "outputs": [
        {
          "internalType": "bool",
          "name": "",
          "type": "bool"
        }
      ],
      "stateMutability": "nonpayable",
      "type": "function"
    },
    {
      "inputs": [
        {
          "internalType": "bytes32",
          "name": "",
          "type": "bytes32"
        }
      ],
      "name": "addresses",
      "outputs": [
        {
          "internalType": "address",
          "name": "",
          "type": "address"
        }
      ],
      "stateMutability": "view",
      "type": "function"
    },
    {
      "inputs": [],
      "name": "bootstrap",
      "outputs": [
        {
          "internalType": "bool",
          "name": "",
          "type": "bool"
        }
      ],
      "stateMutability": "nonpayable",
      "type": "function"
    },
    {
      "inputs": [
        {
          "internalType": "uint256",
          "name": "price",
          "type": "uint256"
        },
        {
          "internalType": "uint256",
          "name": "strike",
          "type": "uint256"
        },
        {
          "internalType": "uint256",
          "name": "amount",
          "type": "uint256"
        }
      ],
      "name": "calculateFees",
      "outputs": [
        {
          "internalType": "uint256",
          "name": "",
          "type": "uint256"
        }
      ],
      "stateMutability": "view",
      "type": "function"
    },
    {
      "inputs": [
        {
          "internalType": "uint256",
          "name": "price",
          "type": "uint256"
        },
        {
          "internalType": "uint256",
          "name": "strike",
          "type": "uint256"
        },
        {
          "internalType": "uint256",
          "name": "amount",
          "type": "uint256"
        }
      ],
      "name": "calculatePnl",
      "outputs": [
        {
          "internalType": "uint256",
          "name": "",
          "type": "uint256"
        }
      ],
      "stateMutability": "pure",
      "type": "function"
    },
    {
      "inputs": [
        {
          "internalType": "uint256",
          "name": "_strike",
          "type": "uint256"
        },
        {
          "internalType": "uint256",
          "name": "_amount",
          "type": "uint256"
        }
      ],
      "name": "calculatePremium",
      "outputs": [
        {
          "internalType": "uint256",
          "name": "premium",
          "type": "uint256"
        }
      ],
      "stateMutability": "view",
      "type": "function"
    },
    {
      "inputs": [],
      "name": "currentEpoch",
      "outputs": [
        {
          "internalType": "uint256",
          "name": "",
          "type": "uint256"
        }
      ],
      "stateMutability": "view",
      "type": "function"
    },
    {
      "inputs": [
        {
          "internalType": "uint256",
          "name": "strikeIndex",
          "type": "uint256"
        },
        {
          "internalType": "uint256",
          "name": "amount",
          "type": "uint256"
        },
        {
          "internalType": "address",
          "name": "user",
          "type": "address"
        }
      ],
      "name": "deposit",
      "outputs": [
        {
          "internalType": "bool",
          "name": "",
          "type": "bool"
        }
      ],
      "stateMutability": "nonpayable",
      "type": "function"
    },
    {
      "inputs": [
        {
          "internalType": "uint256[]",
          "name": "strikeIndices",
          "type": "uint256[]"
        },
        {
          "internalType": "uint256[]",
          "name": "amounts",
          "type": "uint256[]"
        },
        {
          "internalType": "address",
          "name": "user",
          "type": "address"
        }
      ],
      "name": "depositMultiple",
      "outputs": [
        {
          "internalType": "bool",
          "name": "",
          "type": "bool"
        }
      ],
      "stateMutability": "nonpayable",
      "type": "function"
    },
    {
      "inputs": [],
      "name": "emergencyWithdraw",
      "outputs": [
        {
          "internalType": "bool",
          "name": "",
          "type": "bool"
        }
      ],
      "stateMutability": "nonpayable",
      "type": "function"
    },
    {
      "inputs": [
        {
          "internalType": "uint256",
          "name": "",
          "type": "uint256"
        }
      ],
      "name": "epochStartTimes",
      "outputs": [
        {
          "internalType": "uint256",
          "name": "",
          "type": "uint256"
        }
      ],
      "stateMutability": "view",
      "type": "function"
    },
    {
      "inputs": [
        {
          "internalType": "uint256",
          "name": "",
          "type": "uint256"
        },
        {
          "internalType": "uint256",
          "name": "",
          "type": "uint256"
        }
      ],
      "name": "epochStrikeTokens",
      "outputs": [
        {
          "internalType": "address",
          "name": "",
          "type": "address"
        }
      ],
      "stateMutability": "view",
      "type": "function"
    },
    {
      "inputs": [
        {
          "internalType": "uint256",
          "name": "",
          "type": "uint256"
        },
        {
          "internalType": "uint256",
          "name": "",
          "type": "uint256"
        }
      ],
      "name": "epochStrikes",
      "outputs": [
        {
          "internalType": "uint256",
          "name": "",
          "type": "uint256"
        }
      ],
      "stateMutability": "view",
      "type": "function"
    },
    {
      "inputs": [],
      "name": "erc20Implementation",
      "outputs": [
        {
          "internalType": "address",
          "name": "",
          "type": "address"
        }
      ],
      "stateMutability": "view",
      "type": "function"
    },
    {
      "inputs": [],
      "name": "expireDelayTolerance",
      "outputs": [
        {
          "internalType": "uint256",
          "name": "",
          "type": "uint256"
        }
      ],
      "stateMutability": "view",
      "type": "function"
    },
    {
      "inputs": [],
      "name": "expireEpoch",
      "outputs": [
        {
          "internalType": "bool",
          "name": "",
          "type": "bool"
        }
      ],
      "stateMutability": "nonpayable",
      "type": "function"
    },
    {
      "inputs": [
        {
          "internalType": "uint256",
          "name": "settlementPrice",
          "type": "uint256"
        }
      ],
      "name": "expireEpoch",
      "outputs": [
        {
          "internalType": "bool",
          "name": "",
          "type": "bool"
        }
      ],
      "stateMutability": "nonpayable",
      "type": "function"
    },
    {
      "inputs": [
        {
          "internalType": "bytes32",
          "name": "name",
          "type": "bytes32"
        }
      ],
      "name": "getAddress",
      "outputs": [
        {
          "internalType": "address",
          "name": "",
          "type": "address"
        }
      ],
      "stateMutability": "view",
      "type": "function"
    },
    {
      "inputs": [
        {
          "internalType": "uint256",
          "name": "epoch",
          "type": "uint256"
        }
      ],
      "name": "getEpochStrikeTokens",
      "outputs": [
        {
          "internalType": "address[]",
          "name": "",
          "type": "address[]"
        }
      ],
      "stateMutability": "view",
      "type": "function"
    },
    {
      "inputs": [
        {
          "internalType": "uint256",
          "name": "epoch",
          "type": "uint256"
        }
      ],
      "name": "getEpochStrikes",
      "outputs": [
        {
          "internalType": "uint256[]",
          "name": "",
          "type": "uint256[]"
        }
      ],
      "stateMutability": "view",
      "type": "function"
    },
    {
      "inputs": [
        {
          "internalType": "uint256",
          "name": "epoch",
          "type": "uint256"
        }
      ],
      "name": "getEpochTimes",
      "outputs": [
        {
          "internalType": "uint256",
          "name": "start",
          "type": "uint256"
        },
        {
          "internalType": "uint256",
          "name": "end",
          "type": "uint256"
        }
      ],
      "stateMutability": "view",
      "type": "function"
    },
    {
      "inputs": [
        {
          "internalType": "uint256",
          "name": "timestamp",
          "type": "uint256"
        }
      ],
      "name": "getMonthlyExpiryFromTimestamp",
      "outputs": [
        {
          "internalType": "uint256",
          "name": "",
          "type": "uint256"
        }
      ],
      "stateMutability": "pure",
      "type": "function"
    },
    {
      "inputs": [
        {
          "internalType": "uint256",
          "name": "epoch",
          "type": "uint256"
        }
      ],
      "name": "getTotalEpochCallsPurchased",
      "outputs": [
        {
          "internalType": "uint256[]",
          "name": "",
          "type": "uint256[]"
        }
      ],
      "stateMutability": "view",
      "type": "function"
    },
    {
      "inputs": [
        {
          "internalType": "uint256",
          "name": "epoch",
          "type": "uint256"
        }
      ],
      "name": "getTotalEpochPremium",
      "outputs": [
        {
          "internalType": "uint256[]",
          "name": "",
          "type": "uint256[]"
        }
      ],
      "stateMutability": "view",
      "type": "function"
    },
    {
      "inputs": [
        {
          "internalType": "uint256",
          "name": "epoch",
          "type": "uint256"
        }
      ],
      "name": "getTotalEpochStrikeDeposits",
      "outputs": [
        {
          "internalType": "uint256[]",
          "name": "",
          "type": "uint256[]"
        }
      ],
      "stateMutability": "view",
      "type": "function"
    },
    {
      "inputs": [],
      "name": "getUsdPrice",
      "outputs": [
        {
          "internalType": "uint256",
          "name": "price",
          "type": "uint256"
        }
      ],
      "stateMutability": "view",
      "type": "function"
    },
    {
      "inputs": [
        {
          "internalType": "uint256",
          "name": "epoch",
          "type": "uint256"
        },
        {
          "internalType": "address",
          "name": "user",
          "type": "address"
        }
      ],
      "name": "getUserEpochCallsPurchased",
      "outputs": [
        {
          "internalType": "uint256[]",
          "name": "",
          "type": "uint256[]"
        }
      ],
      "stateMutability": "view",
      "type": "function"
    },
    {
      "inputs": [
        {
          "internalType": "uint256",
          "name": "epoch",
          "type": "uint256"
        },
        {
          "internalType": "address",
          "name": "user",
          "type": "address"
        }
      ],
      "name": "getUserEpochDeposits",
      "outputs": [
        {
          "internalType": "uint256[]",
          "name": "",
          "type": "uint256[]"
        }
      ],
      "stateMutability": "view",
      "type": "function"
    },
    {
      "inputs": [
        {
          "internalType": "uint256",
          "name": "epoch",
          "type": "uint256"
        },
        {
          "internalType": "address",
          "name": "user",
          "type": "address"
        }
      ],
      "name": "getUserEpochPremium",
      "outputs": [
        {
          "internalType": "uint256[]",
          "name": "",
          "type": "uint256[]"
        }
      ],
      "stateMutability": "view",
      "type": "function"
    },
    {
      "inputs": [
        {
          "internalType": "address",
          "name": "addr",
          "type": "address"
        }
      ],
      "name": "isContract",
      "outputs": [
        {
          "internalType": "bool",
          "name": "",
          "type": "bool"
        }
      ],
      "stateMutability": "view",
      "type": "function"
    },
    {
      "inputs": [
        {
          "internalType": "uint256",
          "name": "",
          "type": "uint256"
        }
      ],
      "name": "isEpochExpired",
      "outputs": [
        {
          "internalType": "bool",
          "name": "",
          "type": "bool"
        }
      ],
      "stateMutability": "view",
      "type": "function"
    },
    {
      "inputs": [
        {
          "internalType": "uint256",
          "name": "",
          "type": "uint256"
        }
      ],
      "name": "isVaultReady",
      "outputs": [
        {
          "internalType": "bool",
          "name": "",
          "type": "bool"
        }
      ],
      "stateMutability": "view",
      "type": "function"
    },
    {
      "inputs": [],
      "name": "owner",
      "outputs": [
        {
          "internalType": "address",
          "name": "",
          "type": "address"
        }
      ],
      "stateMutability": "view",
      "type": "function"
    },
    {
      "inputs": [],
      "name": "pause",
      "outputs": [
        {
          "internalType": "bool",
          "name": "",
          "type": "bool"
        }
      ],
      "stateMutability": "nonpayable",
      "type": "function"
    },
    {
      "inputs": [],
      "name": "paused",
      "outputs": [
        {
          "internalType": "bool",
          "name": "",
          "type": "bool"
        }
      ],
      "stateMutability": "view",
      "type": "function"
    },
    {
      "inputs": [
        {
          "internalType": "uint256",
          "name": "strikeIndex",
          "type": "uint256"
        },
        {
          "internalType": "uint256",
          "name": "amount",
          "type": "uint256"
        },
        {
          "internalType": "address",
          "name": "user",
          "type": "address"
        }
      ],
      "name": "purchase",
      "outputs": [
        {
          "internalType": "uint256",
          "name": "",
          "type": "uint256"
        },
        {
          "internalType": "uint256",
          "name": "",
          "type": "uint256"
        }
      ],
      "stateMutability": "nonpayable",
      "type": "function"
    },
    {
      "inputs": [],
      "name": "purchaseFeePercentage",
      "outputs": [
        {
          "internalType": "uint256",
          "name": "",
          "type": "uint256"
        }
      ],
      "stateMutability": "view",
      "type": "function"
    },
    {
      "inputs": [
        {
          "internalType": "address",
          "name": "_contract",
          "type": "address"
        }
      ],
      "name": "removeFromContractWhitelist",
      "outputs": [
        {
          "internalType": "bool",
          "name": "",
          "type": "bool"
        }
      ],
      "stateMutability": "nonpayable",
      "type": "function"
    },
    {
      "inputs": [],
      "name": "renounceOwnership",
      "outputs": [],
      "stateMutability": "nonpayable",
      "type": "function"
    },
    {
      "inputs": [
        {
          "internalType": "bytes32[]",
          "name": "names",
          "type": "bytes32[]"
        },
        {
          "internalType": "address[]",
          "name": "destinations",
          "type": "address[]"
        }
      ],
      "name": "setAddresses",
      "outputs": [
        {
          "internalType": "bool",
          "name": "",
          "type": "bool"
        }
      ],
      "stateMutability": "nonpayable",
      "type": "function"
    },
    {
      "inputs": [
        {
          "internalType": "uint256[]",
          "name": "strikes",
          "type": "uint256[]"
        }
      ],
      "name": "setStrikes",
      "outputs": [
        {
          "internalType": "bool",
          "name": "",
          "type": "bool"
        }
      ],
      "stateMutability": "nonpayable",
      "type": "function"
    },
    {
      "inputs": [
        {
          "internalType": "uint256",
          "name": "strikeIndex",
          "type": "uint256"
        },
        {
          "internalType": "uint256",
          "name": "amount",
          "type": "uint256"
        },
        {
          "internalType": "uint256",
          "name": "epoch",
          "type": "uint256"
        }
      ],
      "name": "settle",
      "outputs": [
        {
          "internalType": "uint256",
          "name": "pnl",
          "type": "uint256"
        }
      ],
      "stateMutability": "nonpayable",
      "type": "function"
    },
    {
      "inputs": [
        {
          "internalType": "uint256",
          "name": "",
          "type": "uint256"
        }
      ],
      "name": "settlementPrices",
      "outputs": [
        {
          "internalType": "uint256",
          "name": "",
          "type": "uint256"
        }
      ],
      "stateMutability": "view",
      "type": "function"
    },
    {
      "inputs": [
        {
          "internalType": "uint256",
          "name": "",
          "type": "uint256"
        },
        {
          "internalType": "uint256",
          "name": "",
          "type": "uint256"
        }
      ],
      "name": "totalEpochCallsPurchased",
      "outputs": [
        {
          "internalType": "uint256",
          "name": "",
          "type": "uint256"
        }
      ],
      "stateMutability": "view",
      "type": "function"
    },
    {
      "inputs": [
        {
          "internalType": "uint256",
          "name": "",
          "type": "uint256"
        }
      ],
      "name": "totalEpochDeposits",
      "outputs": [
        {
          "internalType": "uint256",
          "name": "",
          "type": "uint256"
        }
      ],
      "stateMutability": "view",
      "type": "function"
    },
    {
      "inputs": [
        {
          "internalType": "uint256",
          "name": "",
          "type": "uint256"
        },
        {
          "internalType": "uint256",
          "name": "",
          "type": "uint256"
        }
      ],
      "name": "totalEpochPremium",
      "outputs": [
        {
          "internalType": "uint256",
          "name": "",
          "type": "uint256"
        }
      ],
      "stateMutability": "view",
      "type": "function"
    },
    {
      "inputs": [
        {
          "internalType": "uint256",
          "name": "",
          "type": "uint256"
        },
        {
          "internalType": "uint256",
          "name": "",
          "type": "uint256"
        }
      ],
      "name": "totalEpochStrikeDeposits",
      "outputs": [
        {
          "internalType": "uint256",
          "name": "",
          "type": "uint256"
        }
      ],
      "stateMutability": "view",
      "type": "function"
    },
    {
      "inputs": [
        {
          "internalType": "uint256",
          "name": "",
          "type": "uint256"
        },
        {
          "internalType": "uint256",
          "name": "",
          "type": "uint256"
        }
      ],
      "name": "totalEpochStrikeGohmBalance",
      "outputs": [
        {
          "internalType": "uint256",
          "name": "",
          "type": "uint256"
        }
      ],
      "stateMutability": "view",
      "type": "function"
    },
    {
      "inputs": [
        {
          "internalType": "address",
          "name": "newOwner",
          "type": "address"
        }
      ],
      "name": "transferOwnership",
      "outputs": [],
      "stateMutability": "nonpayable",
      "type": "function"
    },
    {
      "inputs": [],
      "name": "unpause",
      "outputs": [
        {
          "internalType": "bool",
          "name": "",
          "type": "bool"
        }
      ],
      "stateMutability": "nonpayable",
      "type": "function"
    },
    {
      "inputs": [
        {
          "internalType": "uint256",
          "name": "_expireDelayTolerance",
          "type": "uint256"
        }
      ],
      "name": "updateExpireDelayTolerance",
      "outputs": [
        {
          "internalType": "bool",
          "name": "",
          "type": "bool"
        }
      ],
      "stateMutability": "nonpayable",
      "type": "function"
    },
    {
      "inputs": [
        {
          "internalType": "uint256",
          "name": "_purchaseFeePercentage",
          "type": "uint256"
        }
      ],
      "name": "updatePurchaseFeePercentage",
      "outputs": [
        {
          "internalType": "bool",
          "name": "",
          "type": "bool"
        }
      ],
      "stateMutability": "nonpayable",
      "type": "function"
    },
    {
      "inputs": [
        {
          "internalType": "uint256",
          "name": "",
          "type": "uint256"
        },
        {
          "internalType": "bytes32",
          "name": "",
          "type": "bytes32"
        }
      ],
      "name": "userEpochCallsPurchased",
      "outputs": [
        {
          "internalType": "uint256",
          "name": "",
          "type": "uint256"
        }
      ],
      "stateMutability": "view",
      "type": "function"
    },
    {
      "inputs": [
        {
          "internalType": "uint256",
          "name": "",
          "type": "uint256"
        },
        {
          "internalType": "bytes32",
          "name": "",
          "type": "bytes32"
        }
      ],
      "name": "userEpochDeposits",
      "outputs": [
        {
          "internalType": "uint256",
          "name": "",
          "type": "uint256"
        }
      ],
      "stateMutability": "view",
      "type": "function"
    },
    {
      "inputs": [
        {
          "internalType": "uint256",
          "name": "",
          "type": "uint256"
        },
        {
          "internalType": "bytes32",
          "name": "",
          "type": "bytes32"
        }
      ],
      "name": "userEpochPremium",
      "outputs": [
        {
          "internalType": "uint256",
          "name": "",
          "type": "uint256"
        }
      ],
      "stateMutability": "view",
      "type": "function"
    },
    {
      "inputs": [
        {
          "internalType": "address",
          "name": "",
          "type": "address"
        }
      ],
      "name": "whitelistedContracts",
      "outputs": [
        {
          "internalType": "bool",
          "name": "",
          "type": "bool"
        }
      ],
      "stateMutability": "view",
      "type": "function"
    },
    {
      "inputs": [
        {
          "internalType": "uint256",
          "name": "withdrawEpoch",
          "type": "uint256"
        },
        {
          "internalType": "uint256",
          "name": "strikeIndex",
          "type": "uint256"
        }
      ],
      "name": "withdraw",
      "outputs": [
        {
          "internalType": "uint256[1]",
          "name": "",
          "type": "uint256[1]"
        }
      ],
      "stateMutability": "nonpayable",
      "type": "function"
    }
  ],
  "transactionHash": "0x4ff2e533330b9e0ab1e9647301a2e7513e5c4960a8a33738e3b1883387730206",
  "args": [
    "0x8D9bA570D6cb60C7e3e0F31343Efe75AB8E65FB1",
    "0x2b99e3D67dAD973c1B9747Da742B7E26c8Bdd67B",
    "0x5f5870C7364AE87643747B06a0Ca7fdE200147d4",
    "0xbf91446115f3E3eaF5079A88E078F876C0d7A6A8",
    "0x55594cCe8cC0014eA08C49fd820D731308f204c1"
  ],
  "solcInputHash": "3a35e2a94bcfd21a57f94b0e7d45da65",
  "bytecode": "0x60a060405262bebc2060055561012c6006553480156200001e57600080fd5b5060405162006aac38038062006aac833981016040819052620000419162000382565b6000805460ff19169055600180556200005a3362000305565b6001600160a01b0385166200009b5760405162461bcd60e51b8152602060048201526002602482015261453160f01b60448201526064015b60405180910390fd5b6001600160a01b038416620000d85760405162461bcd60e51b8152602060048201526002602482015261453160f01b604482015260640162000092565b6001600160a01b038316620001155760405162461bcd60e51b8152602060048201526002602482015261453160f01b604482015260640162000092565b6001600160a01b038216620001525760405162461bcd60e51b8152602060048201526002602482015261453160f01b604482015260640162000092565b6001600160a01b0381166200018f5760405162461bcd60e51b8152602060048201526002602482015261453160f01b604482015260640162000092565b60076020527f7ff6666a986b59de48b2d72c5a552669a16e9b71a2516432c329f7c2ce261bb680546001600160a01b038088166001600160a01b0319928316179092557f5a5acbde65897debb9528d45a858a2765147d0a5eba2d826745e7999a020d00880548784169083161790557faedf9bb25cc3506fa4d7e547a37304258d953cd0a01b13b88633810ccbdd9bdd80548684169083161790557fcc4e27df3d279c84c58c5650b0c8e6b2cdc2a8cc24fa216c4979f3ca3730bc4180548584169083161790557fd6808a501ecd36d6876878033eb43cefa12553618997e4ea0f541c982e06234380549284169282169290921790915569476f7665726e616e636560b01b6000527ff86c0cd64d743325f76c53309083a133513e8dd8ee23f24877528172a0771632805490911633179055604051620002cf9062000357565b604051809103906000f080158015620002ec573d6000803e3d6000fd5b506001600160a01b031660805250620003f29350505050565b600280546001600160a01b038381166001600160a01b0319831681179093556040519116919082907f8be0079c531659141344cd1fd0a4f28419497f9722a3daafe3b4186f6b6457e090600090a35050565b611ed68062004bd683390190565b80516001600160a01b03811681146200037d57600080fd5b919050565b600080600080600060a086880312156200039b57600080fd5b620003a68662000365565b9450620003b66020870162000365565b9350620003c66040870162000365565b9250620003d66060870162000365565b9150620003e66080870162000365565b90509295509295909350565b6080516147c1620004156000396000818161071d0152612f5901526147c16000f3fe608060405234801561001057600080fd5b50600436106103825760003560e01c80637e36701f116101de578063acc3a0061161010f578063d3e3e352116100ad578063ec8568161161007c578063ec856816146108d0578063f2fde38b146108e3578063f6ac8488146108f6578063fb969b0a1461090957600080fd5b8063d3e3e35214610882578063d7e1513114610895578063db2e21bc146108b5578063ea3bd5df146108bd57600080fd5b8063bf434b7a116100e9578063bf434b7a1461081e578063c300fd6414610849578063c3d9ed391461085c578063cd653df61461086f57600080fd5b8063acc3a006146107b5578063b0f48cf7146107c8578063b12daf69146107f357600080fd5b80638dbdbe6d1161017c57806393c82c751161015657806393c82c751461073f5780639bbce47814610762578063a6fe2b9e14610782578063ab2150cf146107a257600080fd5b80638dbdbe6d146106f25780638e143ccb14610705578063901be0411461071857600080fd5b80638456cb59116101b85780638456cb591461069b57806388e18e13146106a35780638990d045146106b65780638da5cb5b146106e157600080fd5b80637e36701f146106555780638144eeba14610668578063823c15121461067b57600080fd5b80634ab01f5b116102b85780636274d49d116102565780636db29f6d116102305780636db29f6d146106125780636f56f56f1461061a578063715018a614610642578063766718081461064c57600080fd5b80636274d49d146105c3578063699f200f146105d65780636a778454146105ff57600080fd5b80635c975abb116102925780635c975abb146105895780635daa2c551461059457806361560c99146105a757806361644373146105ba57600080fd5b80634ab01f5b14610538578063574cdded1461054b5780635ba0bee11461055e57600080fd5b8063391feebb116103255780633f83b8a5116102ff5780633f83b8a514610496578063412058bd146104b9578063441a3e70146104e4578063470f42241461050457600080fd5b8063391feebb146104625780633df8cd72146104855780633f4ba83a1461048e57600080fd5b80631acf5582116103615780631acf5582146103f157806321f8a721146103f95780632807b9a81461042457806329520cae1461044f57600080fd5b806212100c1461038757806315943b99146103ad57806316279055146103cd575b600080fd5b61039a610395366004613f2d565b610911565b6040519081526020015b60405180910390f35b6103c06103bb366004613f4f565b610a85565b6040516103a49190613f68565b6103e16103db366004613fc3565b3b151590565b60405190151581526020016103a4565b61039a610b12565b61040c610407366004613f4f565b610ba4565b6040516001600160a01b0390911681526020016103a4565b61039a610432366004613f2d565b601260209081526000928352604080842090915290825290205481565b6103e161045d366004613f4f565b610bbf565b6103e1610470366004613fc3565b60036020526000908152604090205460ff1681565b61039a60055481565b6103e1610c2e565b6103e16104a4366004613f4f565b600a6020526000908152604090205460ff1681565b61039a6104c7366004613f2d565b601060209081526000928352604080842090915290825290205481565b6104f76104f2366004613f2d565b610c84565b6040516103a49190613fde565b61040c610512366004613f2d565b600c6020908152600092835260408084209091529082529020546001600160a01b031681565b6103e161054636600461405b565b610f30565b61039a6105593660046140c6565b611059565b61039a61056c366004613f2d565b601460209081526000928352604080842090915290825290205481565b60005460ff166103e1565b61039a6105a23660046140c6565b6113bd565b6103c06105b53660046140f2565b61143c565b61039a60065481565b6103c06105d13660046140f2565b611570565b61040c6105e4366004613f4f565b6007602052600090815260409020546001600160a01b031681565b6103c061060d366004613f4f565b61169a565b6103e161179b565b61062d610628366004613f4f565b611945565b604080519283526020830191909152016103a4565b61064a61198b565b005b61039a60045481565b61039a610663366004613f2d565b6119c1565b6103e16106763660046141c3565b6119f2565b61068e610689366004613f4f565b611b2a565b6040516103a49190614236565b6103e1611c42565b61039a6106b13660046140c6565b611c9c565b61039a6106c4366004613f2d565b600f60209081526000928352604080842090915290825290205481565b6002546001600160a01b031661040c565b6103e1610700366004614277565b611ccc565b61039a610713366004613f4f565b611d24565b61040c7f000000000000000000000000000000000000000000000000000000000000000081565b6103e161074d366004613f4f565b60096020526000908152604090205460ff1681565b61039a610770366004613f4f565b60156020526000908152604090205481565b61039a610790366004613f4f565b60086020526000908152604090205481565b6103e16107b0366004613f4f565b611e58565b6103e16107c3366004613fc3565b611ed5565b61039a6107d6366004613f2d565b601360209081526000928352604080842090915290825290205481565b61039a610801366004613f2d565b600d60209081526000928352604080842090915290825290205481565b61039a61082c366004613f2d565b601160209081526000928352604080842090915290825290205481565b6103c0610857366004613f4f565b612040565b6103e161086a366004613fc3565b612138565b6103c061087d366004613f4f565b612202565b6103e16108903660046142a3565b6122fa565b61039a6108a3366004613f4f565b600e6020526000908152604090205481565b6103e161249f565b61062d6108cb366004614277565b612617565b6103c06108de3660046140f2565b6129ea565b61064a6108f1366004613fc3565b612b14565b6103e1610904366004613f4f565b612baf565b6103e1612d65565b60008061091c610b12565b905080836109396c4f7074696f6e50726963696e6760981b610ba4565b6001600160a01b0316635b7b6d88600061095242611d24565b89876109706f566f6c6174696c6974794f7261636c6560801b610ba4565b6001600160a01b0316633af2888b6040518163ffffffff1660e01b815260040160206040518083038186803b1580156109a857600080fd5b505afa1580156109bc573d6000803e3d6000fd5b505050506040513d601f19601f820116820180604052508101906109e091906142d7565b6040516001600160e01b031960e088901b1681529415156004860152602485019390935260448401919091526064830152608482015260a40160206040518083038186803b158015610a3157600080fd5b505afa158015610a45573d6000803e3d6000fd5b505050506040513d601f19601f82011682018060405250810190610a6991906142d7565b610a739190614306565b610a7d919061433b565b949350505050565b60608160008111610ab15760405162461bcd60e51b8152600401610aa89061434f565b60405180910390fd5b6000838152600b602090815260409182902080548351818402810184019094528084529091830182828015610b0557602002820191906000526020600020905b815481526020019060010190808311610af1575b5050505050915050919050565b6000610b2f6e476f686d50726963654f7261636c6560881b610ba4565b6001600160a01b031663e1aa60366040518163ffffffff1660e01b815260040160206040518083038186803b158015610b6757600080fd5b505afa158015610b7b573d6000803e3d6000fd5b505050506040513d601f19601f82011682018060405250810190610b9f91906142d7565b905090565b6000908152600760205260409020546001600160a01b031690565b6002546000906001600160a01b03163314610bec5760405162461bcd60e51b8152600401610aa89061436c565b60058290556040518281527f88c8f67db38a241af42dba37213346faea29bb6f89bce646dbcd9f99ee352690906020015b60405180910390a15060015b919050565b6000610c4669476f7665726e616e636560b01b610ba4565b6001600160a01b0316336001600160a01b031614610c765760405162461bcd60e51b8152600401610aa8906143a1565b610c7e6130f7565b50600190565b610c8c613eaf565b60005460ff1615610caf5760405162461bcd60e51b8152600401610aa8906143be565b60026001541415610cd25760405162461bcd60e51b8152600401610aa8906143e8565b6002600155333b15610d0d573360009081526003602052604090205460ff16610d0d5760405162461bcd60e51b8152600401610aa89061441f565b60008381526009602052604090205460ff16610d515760405162461bcd60e51b815260206004820152600360248201526245313760e81b6044820152606401610aa8565b6000838152600b60205260409020548210610d7e5760405162461bcd60e51b8152600401610aa89061446e565b6000838152600b60205260408120805484908110610d9e57610d9e61448b565b906000526020600020015490508060001415610dcc5760405162461bcd60e51b8152600401610aa8906144a1565b60003382604051602001610de19291906144be565b60408051601f1981840301815291815281516020928301206000888152600f845282812082825290935291205490915080610e445760405162461bcd60e51b815260206004820152600360248201526208a62760eb1b6044820152606401610aa8565b6000868152600d6020908152604080832086845282528083205489845260108352818420878552909252822054610e7c908490614306565b610e86919061433b565b6000888152600f602090815260408083208784529091528120559050610ec73382610eb763674f484d60e01b610ba4565b6001600160a01b0316919061318a565b60408051888152602081018690523381830152606081018490526080810183905290517fbe7586dfb192ca07af28bcc9fc95e78619abff84853e614ba95a4864e955c5929181900360a00190a16040805160208101909152908152600180559695505050505050565b6002546000906001600160a01b03163314610f5d5760405162461bcd60e51b8152600401610aa89061436c565b838214610f915760405162461bcd60e51b8152602060048201526002602482015261229960f11b6044820152606401610aa8565b60005b8481101561104d576000868683818110610fb057610fb061448b565b9050602002013590506000858584818110610fcd57610fcd61448b565b9050602002016020810190610fe29190613fc3565b60008381526007602052604080822080546001600160a01b0319166001600160a01b03851690811790915590519293509184917fb37614c7d254ea8d16eb81fa11dddaeb266aa8ba4917980859c7740aff30c69191a350508080611045906144e0565b915050610f94565b50600195945050505050565b6000805460ff161561107d5760405162461bcd60e51b8152600401610aa8906143be565b600260015414156110a05760405162461bcd60e51b8152600401610aa8906143e8565b6002600155333b156110db573360009081526003602052604090205460ff166110db5760405162461bcd60e51b8152600401610aa89061441f565b60008281526009602052604090205460ff1661111f5760405162461bcd60e51b815260206004820152600360248201526245313760e81b6044820152606401610aa8565b6000828152600b6020526040902054841061114c5760405162461bcd60e51b8152600401610aa89061446e565b6000831161116c5760405162461bcd60e51b8152600401610aa8906144fb565b6000828152600b6020526040812080548690811061118c5761118c61448b565b9060005260206000200154905080600014156111ba5760405162461bcd60e51b8152600401610aa8906144a1565b6000838152600c60209081526040808320848452909152908190205490516370a0823160e01b815233600482015285916001600160a01b0316906370a082319060240160206040518083038186803b15801561121557600080fd5b505afa158015611229573d6000803e3d6000fd5b505050506040513d601f19601f8201168201806040525081019061124d91906142d7565b10156112815760405162461bcd60e51b815260206004820152600360248201526222989b60e91b6044820152606401610aa8565b60008381526015602052604090205461129b908286611c9c565b9150600082116112d35760405162461bcd60e51b815260206004820152600360248201526245313560e81b6044820152606401610aa8565b6000838152600c602090815260408083208484529091529081902054905163079cc67960e41b8152336004820152602481018690526001600160a01b03909116906379cc679090604401600060405180830381600087803b15801561133757600080fd5b505af115801561134b573d6000803e3d6000fd5b505050506113643383610eb763674f484d60e01b610ba4565b60408051848152602081018390523381830152606081018690526080810184905290517f170d93e3a85ba1c08f72d2c0ebd8835178a9b9f444c318ab404506c743d925bd9181900360a00190a150600180559392505050565b6000806402540be400836005546113d49190614306565b6113de919061433b565b9050838510156114325760006064866113f78783614306565b611401919061433b565b61140b9190614518565b61141690606461452f565b905060646114248383614306565b61142e919061433b565b9150505b90505b9392505050565b6060826000811161145f5760405162461bcd60e51b8152600401610aa89061434f565b6000848152600b602052604081205490816001600160401b038111156114875761148761411e565b6040519080825280602002602001820160405280156114b0578160200160208202803683370190505b50905060005b82811015611566576000878152600b602052604081208054839081106114de576114de61448b565b90600052602060002001549050600087826040516020016115009291906144be565b60408051601f19818403018152918152815160209283012060008c8152601484528281208282529093529120548551919250908590859081106115455761154561448b565b6020026020010181815250505050808061155e906144e0565b9150506114b6565b5095945050505050565b606082600081116115935760405162461bcd60e51b8152600401610aa89061434f565b6000848152600b602052604081205490816001600160401b038111156115bb576115bb61411e565b6040519080825280602002602001820160405280156115e4578160200160208202803683370190505b50905060005b82811015611566576000878152600b602052604081208054839081106116125761161261448b565b90600052602060002001549050600087826040516020016116349291906144be565b60408051601f19818403018152918152815160209283012060008c8152600f84528281208282529093529120548551919250908590859081106116795761167961448b565b60200260200101818152505050508080611692906144e0565b9150506115ea565b606081600081116116bd5760405162461bcd60e51b8152600401610aa89061434f565b6000838152600b602052604081205490816001600160401b038111156116e5576116e561411e565b60405190808252806020026020018201604052801561170e578160200160208202803683370190505b50905060005b82811015611792576000868152601160209081526040808320600b90925282208054919291849081106117495761174961448b565b90600052602060002001548152602001908152602001600020548282815181106117755761177561448b565b60209081029190910101528061178a816144e0565b915050611714565b50949350505050565b6000805460ff16156117bf5760405162461bcd60e51b8152600401610aa8906143be565b600260015414156117e25760405162461bcd60e51b8152600401610aa8906143e8565b600260015560045460009081526009602052604090205460ff161561182e5760405162461bcd60e51b8152602060048201526002602482015261453360f01b6044820152606401610aa8565b600061183b600454611945565b915050804210156118735760405162461bcd60e51b8152602060048201526002602482015261114d60f21b6044820152606401610aa8565b600654611880908261452f565b4211156118b55760405162461bcd60e51b815260206004820152600360248201526245323360e81b6044820152606401610aa8565b6118bd610b12565b6004546000908152601560205260409020556118d960016131f2565b600480546000908152600960209081526040808320805460ff1916600117905592548083526015825291839020548351928352908201527fef3f0fea137368a87ff5898a72bbc4bd0d247388011343dd0c2f8763873429f1910160405180910390a15050600180805590565b60008082600081116119695760405162461bcd60e51b8152600401610aa89061434f565b60008481526008602052604090205461198181611d24565b9250925050915091565b6002546001600160a01b031633146119b55760405162461bcd60e51b8152600401610aa89061436c565b6119bf6000613415565b565b600b60205281600052604060002081815481106119dd57600080fd5b90600052602060002001600091509150505481565b600060026001541415611a175760405162461bcd60e51b8152600401610aa8906143e8565b60026001558251845114611a525760405162461bcd60e51b8152602060048201526002602482015261229960f11b6044820152606401610aa8565b6000805b8451811015611a9857848181518110611a7157611a7161448b565b602002602001015182611a84919061452f565b915080611a90816144e0565b915050611a56565b5060005b8551811015611af457611ae2868281518110611aba57611aba61448b565b6020026020010151868381518110611ad457611ad461448b565b602002602001015186613467565b80611aec816144e0565b915050611a9c565b50611b1c333083611b0b63674f484d60e01b610ba4565b6001600160a01b03169291906136e3565b505060018080559392505050565b60608160008111611b4d5760405162461bcd60e51b8152600401610aa89061434f565b6000838152600b602052604081205490816001600160401b03811115611b7557611b7561411e565b604051908082528060200260200182016040528015611b9e578160200160208202803683370190505b50905060005b82811015611792576000868152600c60209081526040808320600b9092528220805491929184908110611bd957611bd961448b565b9060005260206000200154815260200190815260200160002060009054906101000a90046001600160a01b0316828281518110611c1857611c1861448b565b6001600160a01b039092166020928302919091019091015280611c3a816144e0565b915050611ba4565b6000611c5a69476f7665726e616e636560b01b610ba4565b6001600160a01b0316336001600160a01b031614611c8a5760405162461bcd60e51b8152600401610aa8906143a1565b611c92613721565b610c7e60006131f2565b6000828411611cac576000611432565b8382611cb88583614518565b611cc29190614306565b611432919061433b565b600060026001541415611cf15760405162461bcd60e51b8152600401610aa8906143e8565b6002600155611d01848484613467565b611d17333085611b0b63674f484d60e01b610ba4565b5060018080559392505050565b600080611d4e611d3384613779565b611d3c85613799565b611d4790600161452f565b60006137b3565b90506005611d5b826137ce565b1015611d9357611d90611d6d82613779565b611d7683613799565b6007611d8185613802565b611d8b9190614518565b6137b3565b90505b6000611ddb611da183613779565b611daa84613799565b611db3856137ce565b611dbc86613802565b611dc790600561452f565b611dd19190614518565b6008600080613814565b9050838111611435576000611e06611df286613779565b611dfb87613799565b611d4790600261452f565b90506005611e13826137ce565b1015611e2857611e25611d6d82613779565b90505b611e4f611e3482613779565b611e3d83613799565b611e46846137ce565b611dbc85613802565b95945050505050565b6000611e7069476f7665726e616e636560b01b610ba4565b6001600160a01b0316336001600160a01b031614611ea05760405162461bcd60e51b8152600401610aa8906143a1565b60068290556040518281527f5259439c9ac2029585dd4a349897aa1e8298d26537c3b57453f275126db9191890602001610c1d565b6002546000906001600160a01b03163314611f025760405162461bcd60e51b8152600401610aa89061436c565b813b611f6e5760405162461bcd60e51b815260206004820152603560248201527f436f6e747261637457686974656c6973743a2041646472657373206d757374206044820152746265206120636f6e7472616374206164647265737360581b6064820152608401610aa8565b6001600160a01b03821660009081526003602052604090205460ff1615611fef5760405162461bcd60e51b815260206004820152602f60248201527f436f6e747261637457686974656c6973743a20436f6e747261637420616c726560448201526e18591e481dda1a5d195b1a5cdd1959608a1b6064820152608401610aa8565b6001600160a01b038216600081815260036020526040808220805460ff19166001179055517ffbd3cde7ff522a917e485c8ed2a6e87590887ab399f5ac312307903f498543079190a2506001919050565b606081600081116120635760405162461bcd60e51b8152600401610aa89061434f565b6000838152600b602052604081205490816001600160401b0381111561208b5761208b61411e565b6040519080825280602002602001820160405280156120b4578160200160208202803683370190505b50905060005b82811015611792576000868152600d60209081526040808320600b90925282208054919291849081106120ef576120ef61448b565b906000526020600020015481526020019081526020016000205482828151811061211b5761211b61448b565b602090810291909101015280612130816144e0565b9150506120ba565b6001600160a01b03811660009081526003602052604081205460ff166121b45760405162461bcd60e51b815260206004820152602b60248201527f436f6e747261637457686974656c6973743a20436f6e7472616374206e6f742060448201526a1dda1a5d195b1a5cdd195960aa1b6064820152608401610aa8565b6001600160a01b038216600081815260036020526040808220805460ff19169055517f8e81447740597754af5db3e176253a36f7981a9549f48ace3f0cb233913f9d859190a2506001919050565b606081600081116122255760405162461bcd60e51b8152600401610aa89061434f565b6000838152600b602052604081205490816001600160401b0381111561224d5761224d61411e565b604051908082528060200260200182016040528015612276578160200160208202803683370190505b50905060005b82811015611792576000868152601360209081526040808320600b90925282208054919291849081106122b1576122b161448b565b90600052602060002001548152602001908152602001600020548282815181106122dd576122dd61448b565b6020908102919091010152806122f2816144e0565b91505061227c565b6002546000906001600160a01b031633146123275760405162461bcd60e51b8152600401610aa89061436c565b60005460ff161561234a5760405162461bcd60e51b8152600401610aa8906143be565b6000600454600161235b919061452f565b6000818152600e60205260409020549091501561239f5760405162461bcd60e51b815260206004820152600260248201526108a760f31b6044820152606401610aa8565b600454156123ed5760006123b4600454611945565b9150508042116123eb5760405162461bcd60e51b8152602060048201526002602482015261453960f01b6044820152606401610aa8565b505b6000818152600b60209081526040909120845161240c92860190613ecd565b5060008181526008602052604081204290555b8351811015612495577f5185be10ef2a03e926961817be495a630ded54bceffb3ba11f6af477c9c766828285838151811061245c5761245c61448b565b602002602001015160405161247b929190918252602082015260400190565b60405180910390a18061248d816144e0565b91505061241f565b5060019392505050565b60006124b769476f7665726e616e636560b01b610ba4565b6001600160a01b0316336001600160a01b0316146124e75760405162461bcd60e51b8152600401610aa8906143a1565b60005460ff166125305760405162461bcd60e51b815260206004820152601460248201527314185d5cd8589b194e881b9bdd081c185d5cd95960621b6044820152606401610aa8565b600061254263674f484d60e01b610ba4565b6040516370a0823160e01b81523060048201529091506000906001600160a01b038316906370a082319060240160206040518083038186803b15801561258757600080fd5b505afa15801561259b573d6000803e3d6000fd5b505050506040513d601f19601f820116820180604052508101906125bf91906142d7565b90506125d56001600160a01b038316338361318a565b60408051338152602081018390527f5fafa99d0643513820be26656b45130b01e1c03062e1266bf36f88cbd3bd9695910160405180910390a160019250505090565b60008061262660005460ff1690565b156126435760405162461bcd60e51b8152600401610aa8906143be565b600260015414156126665760405162461bcd60e51b8152600401610aa8906143e8565b6002600155333b156126a1573360009081526003602052604090205460ff166126a15760405162461bcd60e51b8152600401610aa89061441f565b60006126ae600454611945565b9150508042106126e65760405162461bcd60e51b8152602060048201526003602482015262114c8d60ea1b6044820152606401610aa8565b6004546000908152600a602052604090205460ff1661272d5760405162461bcd60e51b815260206004820152600360248201526204532360ec1b6044820152606401610aa8565b6004546000908152600b6020526040902054861061275d5760405162461bcd60e51b8152600401610aa89061446e565b6000851161277d5760405162461bcd60e51b8152600401610aa8906144fb565b6004546000908152600b602052604081208054889081106127a0576127a061448b565b9060005260206000200154905080600014156127ce5760405162461bcd60e51b8152600401610aa8906144a1565b600085826040516020016127e39291906144be565b6040516020818303038152906040528051906020012090506000612805610b12565b90506000612813848a610911565b9050600061282283868c6113bd565b90506000612830828461452f565b60045460009081526011602090815260408083208a8452909152812080549293508d9290919061286190849061452f565b90915550506004546000908152601260209081526040808320888452909152812080548d929061289290849061452f565b90915550506004546000908152601360209081526040808320898452909152812080548592906128c390849061452f565b90915550506004546000908152601460209081526040808320888452909152812080548592906128f490849061452f565b909155506129109050333083611b0b63674f484d60e01b610ba4565b61293e61292d6d2332b2a234b9ba3934b13aba37b960911b610ba4565b83610eb763674f484d60e01b610ba4565b6004546000908152600c6020908152604080832089845290915290205461296f906001600160a01b03168b8d61318a565b600454604080519182526020820188905281018c905260608101849052608081018390526001600160a01b038b1660a08201523360c08201527f78de8c82973d11415ea2004f458680aa6d5826c3e8a798496a61db56fa66417b9060e00160405180910390a15060018055909a909950975050505050505050565b60608260008111612a0d5760405162461bcd60e51b8152600401610aa89061434f565b6000848152600b602052604081205490816001600160401b03811115612a3557612a3561411e565b604051908082528060200260200182016040528015612a5e578160200160208202803683370190505b50905060005b82811015611566576000878152600b60205260408120805483908110612a8c57612a8c61448b565b9060005260206000200154905060008782604051602001612aae9291906144be565b60408051601f19818403018152918152815160209283012060008c815260128452828120828252909352912054855191925090859085908110612af357612af361448b565b60200260200101818152505050508080612b0c906144e0565b915050612a64565b6002546001600160a01b03163314612b3e5760405162461bcd60e51b8152600401610aa89061436c565b6001600160a01b038116612ba35760405162461bcd60e51b815260206004820152602660248201527f4f776e61626c653a206e6577206f776e657220697320746865207a65726f206160448201526564647265737360d01b6064820152608401610aa8565b612bac81613415565b50565b6000805460ff1615612bd35760405162461bcd60e51b8152600401610aa8906143be565b60026001541415612bf65760405162461bcd60e51b8152600401610aa8906143e8565b6002600155612c1169476f7665726e616e636560b01b610ba4565b6001600160a01b0316336001600160a01b031614612c415760405162461bcd60e51b8152600401610aa8906143a1565b60045460009081526009602052604090205460ff1615612c885760405162461bcd60e51b8152602060048201526002602482015261453360f01b6044820152606401610aa8565b6000612c95600454611945565b91505060065481612ca6919061452f565b4211612cd95760405162461bcd60e51b8152602060048201526002602482015261114d60f21b6044820152606401610aa8565b6004546000908152601560205260409020839055612cf760016131f2565b600480546000908152600960209081526040808320805460ff1916600117905592548083526015825291839020548351928352908201527fef3f0fea137368a87ff5898a72bbc4bd0d247388011343dd0c2f8763873429f1910160405180910390a150506001808055919050565b6002546000906001600160a01b03163314612d925760405162461bcd60e51b8152600401610aa89061436c565b60005460ff1615612db55760405162461bcd60e51b8152600401610aa8906143be565b60006004546001612dc6919061452f565b6000818152600a602052604090205490915060ff1615612e0d5760405162461bcd60e51b8152602060048201526002602482015261453560f01b6044820152606401610aa8565b6000818152600b6020526040902054612e4d5760405162461bcd60e51b8152602060048201526002602482015261229b60f11b6044820152606401610aa8565b60045415612e9b5760045460009081526009602052604090205460ff16612e9b5760405162461bcd60e51b8152602060048201526002602482015261453760f01b6044820152606401610aa8565b60005b6000828152600b6020526040902054811015613096576000828152600b60205260408120805483908110612ed457612ed461448b565b906000526020600020015490506000612f166040518060400160405280600981526020016819d3d2134b50d0531360ba1b815250612f1184613870565b61396d565b9050612f4181604051806040016040528060078152602001662d45504f43482d60c81b81525061396d565b9050612f5081612f1186613870565b90506000612f7d7f0000000000000000000000000000000000000000000000000000000000000000613999565b60405163266c45bb60e11b81529091506001600160a01b03821690634cd88b7690612fae908590819060040161459f565b600060405180830381600087803b158015612fc857600080fd5b505af1158015612fdc573d6000803e3d6000fd5b5050506000868152600c60209081526040808320878452825280832080546001600160a01b0319166001600160a01b038716908117909155898452600d8352818420888552909252918290205491516340c10f1960e01b8152306004820152602481019290925291506340c10f1990604401600060405180830381600087803b15801561306857600080fd5b505af115801561307c573d6000803e3d6000fd5b50505050505050808061308e906144e0565b915050612e9e565b506000818152600a602052604090819020805460ff191660011790556004829055517fb5ca1ca1b7b47549eb8af476f3ef702fc63bcd8b8c01dc163b009bb818f97997906130e79083815260200190565b60405180910390a1600191505090565b60005460ff166131405760405162461bcd60e51b815260206004820152601460248201527314185d5cd8589b194e881b9bdd081c185d5cd95960621b6044820152606401610aa8565b6000805460ff191690557f5db9ee0a495bf2e6ff9c91a7834c1ba4fdd244a5e8aa4e537bd38aeae4b073aa335b6040516001600160a01b03909116815260200160405180910390a1565b6040516001600160a01b0383166024820152604481018290526131ed90849063a9059cbb60e01b906064015b60408051601f198184030181529190526020810180516001600160e01b03166001600160e01b031990931692909217909152613a31565b505050565b6004546000908152600b602090815260408083208054825181850281018501909352808352919290919083018282801561324b57602002820191906000526020600020905b815481526020019060010190808311613237575b5050505050905060005b81518110156131ed5760006132d86015600060045481526020019081526020016000205484848151811061328b5761328b61448b565b602002602001015160116000600454815260200190815260200160002060008787815181106132bc576132bc61448b565b6020026020010151815260200190815260200160002054611c9c565b905080600d6000600454815260200190815260200160002060008585815181106133045761330461448b565b60200260200101518152602001908152602001600020546133259190614518565b601060006004548152602001908152602001600020600085858151811061334e5761334e61448b565b602002602001015181526020019081526020016000208190555083156134025760136000600454815260200190815260200160002060008484815181106133975761339761448b565b602002602001015181526020019081526020016000205460106000600454815260200190815260200160002060008585815181106133d7576133d761448b565b6020026020010151815260200190815260200160002060008282546133fc919061452f565b90915550505b508061340d816144e0565b915050613255565b600280546001600160a01b038381166001600160a01b0319831681179093556040519116919082907f8be0079c531659141344cd1fd0a4f28419497f9722a3daafe3b4186f6b6457e090600090a35050565b60005460ff161561348a5760405162461bcd60e51b8152600401610aa8906143be565b333b156134c0573360009081526003602052604090205460ff166134c05760405162461bcd60e51b8152600401610aa89061441f565b600060045460016134d1919061452f565b6004549091501561353e5760045460009081526009602052604090205460ff16801561350c57506000818152600a602052604090205460ff16155b61353e5760405162461bcd60e51b815260206004820152600360248201526245313960e81b6044820152606401610aa8565b6000818152600b6020526040902054841061356b5760405162461bcd60e51b8152600401610aa89061446e565b6000831161358b5760405162461bcd60e51b8152600401610aa8906144fb565b6000818152600b602052604081208054869081106135ab576135ab61448b565b9060005260206000200154905080600014156135d95760405162461bcd60e51b8152600401610aa8906144a1565b600083826040516020016135ee9291906144be565b60408051601f1981840301815291815281516020928301206000868152600f845282812082825290935290822080549193508792909161362f90849061452f565b90915550506000838152600d602090815260408083208584529091528120805487929061365d90849061452f565b90915550506000838152600e60205260408120805487929061368090849061452f565b909155505060408051848152602081018490529081018690526001600160a01b03851660608201523360808201527fcaa9001342572663a8f7c22e7c6f0331a45254407418d9f993ed2d1485adc2059060a00160405180910390a1505050505050565b6040516001600160a01b038085166024830152831660448201526064810182905261371b9085906323b872dd60e01b906084016131b6565b50505050565b60005460ff16156137445760405162461bcd60e51b8152600401610aa8906143be565b6000805460ff191660011790557f62e78cea01bee320cd4e420270b5ea74000d11b0c9f74754ebdbfc544b05a25861316d3390565b600061379061378b620151808461433b565b613b03565b50909392505050565b60006137ab61378b620151808461433b565b509392505050565b6000620151806137c4858585613c77565b6114329190614306565b6000806137de620151808461433b565b905060076137ed82600361452f565b6137f791906145c4565b61143590600161452f565b6000610a7d61378b620151808461433b565b600081613822603c85614306565b61382e610e1087614306565b6201518061383d8b8b8b613c77565b6138479190614306565b613851919061452f565b61385b919061452f565b613865919061452f565b979650505050505050565b6060816138945750506040805180820190915260018152600360fc1b602082015290565b8160005b81156138be57806138a8816144e0565b91506138b79050600a8361433b565b9150613898565b6000816001600160401b038111156138d8576138d861411e565b6040519080825280601f01601f191660200182016040528015613902576020820181803683370190505b5090505b8415610a7d57613917600183614518565b9150613924600a866145c4565b61392f90603061452f565b60f81b8183815181106139445761394461448b565b60200101906001600160f81b031916908160001a905350613966600a8661433b565b9450613906565b606082826040516020016139829291906145d8565b604051602081830303815290604052905092915050565b6000604051733d602d80600a3d3981f3363d3d373d3d3d363d7360601b81528260601b60148201526e5af43d82803e903d91602b57fd5bf360881b60288201526037816000f09150506001600160a01b038116610c295760405162461bcd60e51b8152602060048201526016602482015275115490cc4c4d8dce8818dc99585d194819985a5b195960521b6044820152606401610aa8565b6000613a86826040518060400160405280602081526020017f5361666545524332303a206c6f772d6c6576656c2063616c6c206661696c6564815250856001600160a01b0316613db49092919063ffffffff16565b8051909150156131ed5780806020019051810190613aa49190614607565b6131ed5760405162461bcd60e51b815260206004820152602a60248201527f5361666545524332303a204552433230206f7065726174696f6e20646964206e6044820152691bdd081cdd58d8d9595960b21b6064820152608401610aa8565b60008080838162253d8c613b1a8362010bd9614629565b613b249190614629565b9050600062023ab1613b3783600461466a565b613b4191906146ef565b90506004613b528262023ab161466a565b613b5d906003614629565b613b6791906146ef565b613b71908361471d565b9150600062164b09613b84846001614629565b613b9090610fa061466a565b613b9a91906146ef565b90506004613baa826105b561466a565b613bb491906146ef565b613bbe908461471d565b613bc990601f614629565b9250600061098f613bdb85605061466a565b613be591906146ef565b905060006050613bf78361098f61466a565b613c0191906146ef565b613c0b908661471d565b9050613c18600b836146ef565b9450613c2585600c61466a565b613c30836002614629565b613c3a919061471d565b91508483613c4960318761471d565b613c5490606461466a565b613c5e9190614629565b613c689190614629565b9a919950975095505050505050565b60006107b2841015613c8857600080fd5b838383600062253d8c60046064600c613ca2600e8861471d565b613cac91906146ef565b613cb888611324614629565b613cc29190614629565b613ccc91906146ef565b613cd790600361466a565b613ce191906146ef565b600c80613cef600e8861471d565b613cf991906146ef565b613d0490600c61466a565b613d0f60028861471d565b613d19919061471d565b613d259061016f61466a565b613d2f91906146ef565b6004600c613d3e600e8961471d565b613d4891906146ef565b613d54896112c0614629565b613d5e9190614629565b613d6a906105b561466a565b613d7491906146ef565b613d80617d4b8761471d565b613d8a9190614629565b613d949190614629565b613d9e919061471d565b613da8919061471d565b98975050505050505050565b6060611432848460008585843b613e0d5760405162461bcd60e51b815260206004820152601d60248201527f416464726573733a2063616c6c20746f206e6f6e2d636f6e74726163740000006044820152606401610aa8565b600080866001600160a01b03168587604051613e29919061475c565b60006040518083038185875af1925050503d8060008114613e66576040519150601f19603f3d011682016040523d82523d6000602084013e613e6b565b606091505b509150915061386582828660608315613e85575081611435565b825115613e955782518084602001fd5b8160405162461bcd60e51b8152600401610aa89190614778565b60405180602001604052806001906020820280368337509192915050565b828054828255906000526020600020908101928215613f08579160200282015b82811115613f08578251825591602001919060010190613eed565b50613f14929150613f18565b5090565b5b80821115613f145760008155600101613f19565b60008060408385031215613f4057600080fd5b50508035926020909101359150565b600060208284031215613f6157600080fd5b5035919050565b6020808252825182820181905260009190848201906040850190845b81811015613fa057835183529284019291840191600101613f84565b50909695505050505050565b80356001600160a01b0381168114610c2957600080fd5b600060208284031215613fd557600080fd5b61143582613fac565b602081810190828460005b600181101561400657815183529183019190830190600101613fe9565b5050505092915050565b60008083601f84011261402257600080fd5b5081356001600160401b0381111561403957600080fd5b6020830191508360208260051b850101111561405457600080fd5b9250929050565b6000806000806040858703121561407157600080fd5b84356001600160401b038082111561408857600080fd5b61409488838901614010565b909650945060208701359150808211156140ad57600080fd5b506140ba87828801614010565b95989497509550505050565b6000806000606084860312156140db57600080fd5b505081359360208301359350604090920135919050565b6000806040838503121561410557600080fd5b8235915061411560208401613fac565b90509250929050565b634e487b7160e01b600052604160045260246000fd5b600082601f83011261414557600080fd5b813560206001600160401b03808311156141615761416161411e565b8260051b604051601f19603f830116810181811084821117156141865761418661411e565b6040529384528581018301938381019250878511156141a457600080fd5b83870191505b84821015613865578135835291830191908301906141aa565b6000806000606084860312156141d857600080fd5b83356001600160401b03808211156141ef57600080fd5b6141fb87838801614134565b9450602086013591508082111561421157600080fd5b5061421e86828701614134565b92505061422d60408501613fac565b90509250925092565b6020808252825182820181905260009190848201906040850190845b81811015613fa05783516001600160a01b031683529284019291840191600101614252565b60008060006060848603121561428c57600080fd5b833592506020840135915061422d60408501613fac565b6000602082840312156142b557600080fd5b81356001600160401b038111156142cb57600080fd5b610a7d84828501614134565b6000602082840312156142e957600080fd5b5051919050565b634e487b7160e01b600052601160045260246000fd5b6000816000190483118215151615614320576143206142f0565b500290565b634e487b7160e01b600052601260045260246000fd5b60008261434a5761434a614325565b500490565b60208082526003908201526245313360e81b604082015260600190565b6020808252818101527f4f776e61626c653a2063616c6c6572206973206e6f7420746865206f776e6572604082015260600190565b60208082526003908201526222991960e91b604082015260600190565b60208082526010908201526f14185d5cd8589b194e881c185d5cd95960821b604082015260600190565b6020808252601f908201527f5265656e7472616e637947756172643a207265656e7472616e742063616c6c00604082015260600190565b6020808252602f908201527f436f6e747261637457686974656c6973743a20436f6e7472616374206d75737460408201526e081899481dda1a5d195b1a5cdd1959608a1b606082015260800190565b60208082526003908201526204531360ec1b604082015260600190565b634e487b7160e01b600052603260045260246000fd5b60208082526003908201526222989960e91b604082015260600190565b60609290921b6bffffffffffffffffffffffff19168252601482015260340190565b60006000198214156144f4576144f46142f0565b5060010190565b60208082526003908201526245313160e81b604082015260600190565b60008282101561452a5761452a6142f0565b500390565b60008219821115614542576145426142f0565b500190565b60005b8381101561456257818101518382015260200161454a565b8381111561371b5750506000910152565b6000815180845261458b816020860160208601614547565b601f01601f19169290920160200192915050565b6040815260006145b26040830185614573565b8281036020840152611e4f8185614573565b6000826145d3576145d3614325565b500690565b600083516145ea818460208801614547565b8351908301906145fe818360208801614547565b01949350505050565b60006020828403121561461957600080fd5b8151801515811461143557600080fd5b600080821280156001600160ff1b038490038513161561464b5761464b6142f0565b600160ff1b8390038412811615614664576146646142f0565b50500190565b60006001600160ff1b0381841382841380821686840486111615614690576146906142f0565b600160ff1b60008712828116878305891216156146af576146af6142f0565b600087129250878205871284841616156146cb576146cb6142f0565b878505871281841616156146e1576146e16142f0565b505050929093029392505050565b6000826146fe576146fe614325565b600160ff1b821460001984141615614718576147186142f0565b500590565b60008083128015600160ff1b85018412161561473b5761473b6142f0565b6001600160ff1b0384018313811615614756576147566142f0565b50500390565b6000825161476e818460208701614547565b9190910192915050565b602081526000611435602083018461457356fea2646970667358221220ecf3ee157ddc22254025e57d54a5cbe329856beb053c2ae5a26cde0035d65bbb64736f6c63430008090033608060405234801561001057600080fd5b50611eb6806100206000396000f3fe608060405234801561001057600080fd5b50600436106101cf5760003560e01c80635c975abb11610104578063a217fddf116100a2578063d539139311610071578063d5391393146103ce578063d547741f146103f5578063dd62ed3e14610408578063e63ab1e91461044157600080fd5b8063a217fddf1461038d578063a457c2d714610395578063a9059cbb146103a8578063ca15c873146103bb57600080fd5b80638456cb59116100de5780638456cb591461033f5780639010d07c1461034757806391d148541461037257806395d89b411461038557600080fd5b80635c975abb146102f757806370a082311461030357806379cc67901461032c57600080fd5b8063313ce567116101715780633f4ba83a1161014b5780633f4ba83a146102b657806340c10f19146102be57806342966c68146102d15780634cd88b76146102e457600080fd5b8063313ce5671461028157806336568abe1461029057806339509351146102a357600080fd5b806318160ddd116101ad57806318160ddd1461022457806323b872dd14610236578063248a9ca3146102495780632f2ff15d1461026c57600080fd5b806301ffc9a7146101d457806306fdde03146101fc578063095ea7b314610211575b600080fd5b6101e76101e23660046119fd565b610456565b60405190151581526020015b60405180910390f35b610204610481565b6040516101f39190611a53565b6101e761021f366004611aa2565b610513565b60cb545b6040519081526020016101f3565b6101e7610244366004611acc565b610529565b610228610257366004611b08565b60009081526065602052604090206001015490565b61027f61027a366004611b21565b6105d8565b005b604051601281526020016101f3565b61027f61029e366004611b21565b610603565b6101e76102b1366004611aa2565b610681565b61027f6106bd565b61027f6102cc366004611aa2565b610751565b61027f6102df366004611b08565b6107f0565b61027f6102f2366004611bf0565b6107fd565b61012d5460ff166101e7565b610228610311366004611c54565b6001600160a01b0316600090815260c9602052604090205490565b61027f61033a366004611aa2565b610874565b61027f6108f5565b61035a610355366004611c6f565b610987565b6040516001600160a01b0390911681526020016101f3565b6101e7610380366004611b21565b6109a6565b6102046109d1565b610228600081565b6101e76103a3366004611aa2565b6109e0565b6101e76103b6366004611aa2565b610a79565b6102286103c9366004611b08565b610a86565b6102287f9f2df0fed2c77648de5860a4cc508cd0818c85b8b8a1ab4ceeef8d981c8956a681565b61027f610403366004611b21565b610a9d565b610228610416366004611c91565b6001600160a01b03918216600090815260ca6020908152604080832093909416825291909152205490565b610228600080516020611e6183398151915281565b60006001600160e01b03198216635a05180f60e01b148061047b575061047b82610ac3565b92915050565b606060cc805461049090611cbb565b80601f01602080910402602001604051908101604052809291908181526020018280546104bc90611cbb565b80156105095780601f106104de57610100808354040283529160200191610509565b820191906000526020600020905b8154815290600101906020018083116104ec57829003601f168201915b5050505050905090565b6000610520338484610af8565b50600192915050565b6000610536848484610c1c565b6001600160a01b038416600090815260ca60209081526040808320338452909152902054828110156105c05760405162461bcd60e51b815260206004820152602860248201527f45524332303a207472616e7366657220616d6f756e74206578636565647320616044820152676c6c6f77616e636560c01b60648201526084015b60405180910390fd5b6105cd8533858403610af8565b506001949350505050565b6000828152606560205260409020600101546105f48133610df7565b6105fe8383610e5b565b505050565b6001600160a01b03811633146106735760405162461bcd60e51b815260206004820152602f60248201527f416363657373436f6e74726f6c3a2063616e206f6e6c792072656e6f756e636560448201526e103937b632b9903337b91039b2b63360891b60648201526084016105b7565b61067d8282610e7d565b5050565b33600081815260ca602090815260408083206001600160a01b038716845290915281205490916105209185906106b8908690611d0c565b610af8565b6106d5600080516020611e61833981519152336109a6565b6107475760405162461bcd60e51b815260206004820152603960248201527f45524332305072657365744d696e7465725061757365723a206d75737420686160448201527f76652070617573657220726f6c6520746f20756e70617573650000000000000060648201526084016105b7565b61074f610e9f565b565b61077b7f9f2df0fed2c77648de5860a4cc508cd0818c85b8b8a1ab4ceeef8d981c8956a6336109a6565b6107e65760405162461bcd60e51b815260206004820152603660248201527f45524332305072657365744d696e7465725061757365723a206d7573742068616044820152751d99481b5a5b9d195c881c9bdb19481d1bc81b5a5b9d60521b60648201526084016105b7565b61067d8282610f34565b6107fa338261101f565b50565b600054610100900460ff1680610816575060005460ff16155b6108325760405162461bcd60e51b81526004016105b790611d24565b600054610100900460ff16158015610854576000805461ffff19166101011790555b61085e8383611179565b80156105fe576000805461ff0019169055505050565b60006108808333610416565b9050818110156108de5760405162461bcd60e51b8152602060048201526024808201527f45524332303a206275726e20616d6f756e74206578636565647320616c6c6f77604482015263616e636560e01b60648201526084016105b7565b6108eb8333848403610af8565b6105fe838361101f565b61090d600080516020611e61833981519152336109a6565b61097f5760405162461bcd60e51b815260206004820152603760248201527f45524332305072657365744d696e7465725061757365723a206d75737420686160448201527f76652070617573657220726f6c6520746f20706175736500000000000000000060648201526084016105b7565b61074f61121c565b600082815260976020526040812061099f9083611299565b9392505050565b60009182526065602090815260408084206001600160a01b0393909316845291905290205460ff1690565b606060cd805461049090611cbb565b33600090815260ca602090815260408083206001600160a01b038616845290915281205482811015610a625760405162461bcd60e51b815260206004820152602560248201527f45524332303a2064656372656173656420616c6c6f77616e63652062656c6f77604482015264207a65726f60d81b60648201526084016105b7565b610a6f3385858403610af8565b5060019392505050565b6000610520338484610c1c565b600081815260976020526040812061047b906112a5565b600082815260656020526040902060010154610ab98133610df7565b6105fe8383610e7d565b60006001600160e01b03198216637965db0b60e01b148061047b57506301ffc9a760e01b6001600160e01b031983161461047b565b6001600160a01b038316610b5a5760405162461bcd60e51b8152602060048201526024808201527f45524332303a20617070726f76652066726f6d20746865207a65726f206164646044820152637265737360e01b60648201526084016105b7565b6001600160a01b038216610bbb5760405162461bcd60e51b815260206004820152602260248201527f45524332303a20617070726f766520746f20746865207a65726f206164647265604482015261737360f01b60648201526084016105b7565b6001600160a01b03838116600081815260ca602090815260408083209487168084529482529182902085905590518481527f8c5be1e5ebec7d5bd14f71427d1e84f3dd0314c0f7b2291e5b200ac8c7c3b925910160405180910390a3505050565b6001600160a01b038316610c805760405162461bcd60e51b815260206004820152602560248201527f45524332303a207472616e736665722066726f6d20746865207a65726f206164604482015264647265737360d81b60648201526084016105b7565b6001600160a01b038216610ce25760405162461bcd60e51b815260206004820152602360248201527f45524332303a207472616e7366657220746f20746865207a65726f206164647260448201526265737360e81b60648201526084016105b7565b610ced8383836112af565b6001600160a01b038316600090815260c9602052604090205481811015610d655760405162461bcd60e51b815260206004820152602660248201527f45524332303a207472616e7366657220616d6f756e7420657863656564732062604482015265616c616e636560d01b60648201526084016105b7565b6001600160a01b03808516600090815260c96020526040808220858503905591851681529081208054849290610d9c908490611d0c565b92505081905550826001600160a01b0316846001600160a01b03167fddf252ad1be2c89b69c2b068fc378daa952ba7f163c4a11628f55a4df523b3ef84604051610de891815260200190565b60405180910390a35b50505050565b610e0182826109a6565b61067d57610e19816001600160a01b031660146112ba565b610e248360206112ba565b604051602001610e35929190611d72565b60408051601f198184030181529082905262461bcd60e51b82526105b791600401611a53565b610e658282611456565b60008281526097602052604090206105fe90826114dc565b610e8782826114f1565b60008281526097602052604090206105fe9082611558565b61012d5460ff16610ee95760405162461bcd60e51b815260206004820152601460248201527314185d5cd8589b194e881b9bdd081c185d5cd95960621b60448201526064016105b7565b61012d805460ff191690557f5db9ee0a495bf2e6ff9c91a7834c1ba4fdd244a5e8aa4e537bd38aeae4b073aa335b6040516001600160a01b03909116815260200160405180910390a1565b6001600160a01b038216610f8a5760405162461bcd60e51b815260206004820152601f60248201527f45524332303a206d696e7420746f20746865207a65726f20616464726573730060448201526064016105b7565b610f96600083836112af565b8060cb6000828254610fa89190611d0c565b90915550506001600160a01b038216600090815260c9602052604081208054839290610fd5908490611d0c565b90915550506040518181526001600160a01b038316906000907fddf252ad1be2c89b69c2b068fc378daa952ba7f163c4a11628f55a4df523b3ef9060200160405180910390a35050565b6001600160a01b03821661107f5760405162461bcd60e51b815260206004820152602160248201527f45524332303a206275726e2066726f6d20746865207a65726f206164647265736044820152607360f81b60648201526084016105b7565b61108b826000836112af565b6001600160a01b038216600090815260c96020526040902054818110156110ff5760405162461bcd60e51b815260206004820152602260248201527f45524332303a206275726e20616d6f756e7420657863656564732062616c616e604482015261636560f01b60648201526084016105b7565b6001600160a01b038316600090815260c960205260408120838303905560cb805484929061112e908490611de7565b90915550506040518281526000906001600160a01b038516907fddf252ad1be2c89b69c2b068fc378daa952ba7f163c4a11628f55a4df523b3ef9060200160405180910390a3505050565b600054610100900460ff1680611192575060005460ff16155b6111ae5760405162461bcd60e51b81526004016105b790611d24565b600054610100900460ff161580156111d0576000805461ffff19166101011790555b6111d861156d565b6111e061156d565b6111e861156d565b6111f061156d565b6111fa83836115d8565b61120261156d565b61120a61166d565b61121261156d565b61085e83836116e3565b61012d5460ff16156112635760405162461bcd60e51b815260206004820152601060248201526f14185d5cd8589b194e881c185d5cd95960821b60448201526064016105b7565b61012d805460ff191660011790557f62e78cea01bee320cd4e420270b5ea74000d11b0c9f74754ebdbfc544b05a258610f173390565b600061099f8383611787565b600061047b825490565b6105fe8383836117b1565b606060006112c9836002611dfe565b6112d4906002611d0c565b67ffffffffffffffff8111156112ec576112ec611b4d565b6040519080825280601f01601f191660200182016040528015611316576020820181803683370190505b509050600360fc1b8160008151811061133157611331611e1d565b60200101906001600160f81b031916908160001a905350600f60fb1b8160018151811061136057611360611e1d565b60200101906001600160f81b031916908160001a9053506000611384846002611dfe565b61138f906001611d0c565b90505b6001811115611407576f181899199a1a9b1b9c1cb0b131b232b360811b85600f16601081106113c3576113c3611e1d565b1a60f81b8282815181106113d9576113d9611e1d565b60200101906001600160f81b031916908160001a90535060049490941c9361140081611e33565b9050611392565b50831561099f5760405162461bcd60e51b815260206004820181905260248201527f537472696e67733a20686578206c656e67746820696e73756666696369656e7460448201526064016105b7565b61146082826109a6565b61067d5760008281526065602090815260408083206001600160a01b03851684529091529020805460ff191660011790556114983390565b6001600160a01b0316816001600160a01b0316837f2f8788117e7eff1d82e926ec794901d17c78024a50270940304540a733656f0d60405160405180910390a45050565b600061099f836001600160a01b038416611818565b6114fb82826109a6565b1561067d5760008281526065602090815260408083206001600160a01b0385168085529252808320805460ff1916905551339285917ff6391f5c32d9c69d2a47ea670b442974b53935d1edc7fd64eb21e047a839171b9190a45050565b600061099f836001600160a01b038416611867565b600054610100900460ff1680611586575060005460ff16155b6115a25760405162461bcd60e51b81526004016105b790611d24565b600054610100900460ff161580156115c4576000805461ffff19166101011790555b80156107fa576000805461ff001916905550565b600054610100900460ff16806115f1575060005460ff16155b61160d5760405162461bcd60e51b81526004016105b790611d24565b600054610100900460ff1615801561162f576000805461ffff19166101011790555b82516116429060cc906020860190611964565b5081516116569060cd906020850190611964565b5080156105fe576000805461ff0019169055505050565b600054610100900460ff1680611686575060005460ff16155b6116a25760405162461bcd60e51b81526004016105b790611d24565b600054610100900460ff161580156116c4576000805461ffff19166101011790555b61012d805460ff1916905580156107fa576000805461ff001916905550565b600054610100900460ff16806116fc575060005460ff16155b6117185760405162461bcd60e51b81526004016105b790611d24565b600054610100900460ff1615801561173a576000805461ffff19166101011790555b61174560003361195a565b61176f7f9f2df0fed2c77648de5860a4cc508cd0818c85b8b8a1ab4ceeef8d981c8956a63361195a565b61085e600080516020611e618339815191523361195a565b600082600001828154811061179e5761179e611e1d565b9060005260206000200154905092915050565b61012d5460ff16156105fe5760405162461bcd60e51b815260206004820152602a60248201527f45524332305061757361626c653a20746f6b656e207472616e736665722077686044820152691a5b19481c185d5cd95960b21b60648201526084016105b7565b600081815260018301602052604081205461185f5750815460018181018455600084815260208082209093018490558454848252828601909352604090209190915561047b565b50600061047b565b6000818152600183016020526040812054801561195057600061188b600183611de7565b855490915060009061189f90600190611de7565b90508181146119045760008660000182815481106118bf576118bf611e1d565b90600052602060002001549050808760000184815481106118e2576118e2611e1d565b6000918252602080832090910192909255918252600188019052604090208390555b855486908061191557611915611e4a565b60019003818190600052602060002001600090559055856001016000868152602001908152602001600020600090556001935050505061047b565b600091505061047b565b61067d8282610e5b565b82805461197090611cbb565b90600052602060002090601f01602090048101928261199257600085556119d8565b82601f106119ab57805160ff19168380011785556119d8565b828001600101855582156119d8579182015b828111156119d85782518255916020019190600101906119bd565b506119e49291506119e8565b5090565b5b808211156119e457600081556001016119e9565b600060208284031215611a0f57600080fd5b81356001600160e01b03198116811461099f57600080fd5b60005b83811015611a42578181015183820152602001611a2a565b83811115610df15750506000910152565b6020815260008251806020840152611a72816040850160208701611a27565b601f01601f19169190910160400192915050565b80356001600160a01b0381168114611a9d57600080fd5b919050565b60008060408385031215611ab557600080fd5b611abe83611a86565b946020939093013593505050565b600080600060608486031215611ae157600080fd5b611aea84611a86565b9250611af860208501611a86565b9150604084013590509250925092565b600060208284031215611b1a57600080fd5b5035919050565b60008060408385031215611b3457600080fd5b82359150611b4460208401611a86565b90509250929050565b634e487b7160e01b600052604160045260246000fd5b600082601f830112611b7457600080fd5b813567ffffffffffffffff80821115611b8f57611b8f611b4d565b604051601f8301601f19908116603f01168101908282118183101715611bb757611bb7611b4d565b81604052838152866020858801011115611bd057600080fd5b836020870160208301376000602085830101528094505050505092915050565b60008060408385031215611c0357600080fd5b823567ffffffffffffffff80821115611c1b57600080fd5b611c2786838701611b63565b93506020850135915080821115611c3d57600080fd5b50611c4a85828601611b63565b9150509250929050565b600060208284031215611c6657600080fd5b61099f82611a86565b60008060408385031215611c8257600080fd5b50508035926020909101359150565b60008060408385031215611ca457600080fd5b611cad83611a86565b9150611b4460208401611a86565b600181811c90821680611ccf57607f821691505b60208210811415611cf057634e487b7160e01b600052602260045260246000fd5b50919050565b634e487b7160e01b600052601160045260246000fd5b60008219821115611d1f57611d1f611cf6565b500190565b6020808252602e908201527f496e697469616c697a61626c653a20636f6e747261637420697320616c72656160408201526d191e481a5b9a5d1a585b1a5e995960921b606082015260800190565b7f416363657373436f6e74726f6c3a206163636f756e7420000000000000000000815260008351611daa816017850160208801611a27565b7001034b99036b4b9b9b4b733903937b6329607d1b6017918401918201528351611ddb816028840160208801611a27565b01602801949350505050565b600082821015611df957611df9611cf6565b500390565b6000816000190483118215151615611e1857611e18611cf6565b500290565b634e487b7160e01b600052603260045260246000fd5b600081611e4257611e42611cf6565b506000190190565b634e487b7160e01b600052603160045260246000fdfe65d7a28e3265b37a6474929f336521b332c1681b933f6cb9f3376673440d862aa26469706673582212201e8e71d04321c61cbea798e0c220b88d5e37b921bdfb67b7e07db65b7fd1d00064736f6c63430008090033",
  "devdoc": {
    "kind": "dev",
    "methods": {
      "addToContractWhitelist(address)": {
        "details": "add to the contract whitelist",
        "params": {
          "_contract": "the address of the contract to add to the contract whitelist"
        },
        "returns": {
          "_0": "whether the contract was successfully added to the whitelist"
        }
      },
      "bootstrap()": {
        "returns": {
          "_0": "Whether bootstrap was successful"
        }
      },
      "calculateFees(uint256,uint256,uint256)": {
        "params": {
          "amount": "amount of options being bought",
          "price": "price of gOHM",
          "strike": "strike price of the the gOHM option"
        }
      },
      "calculatePnl(uint256,uint256,uint256)": {
        "params": {
          "amount": "amount of options",
          "price": "price of gOHM",
          "strike": "strike price of the the gOHM option"
        }
      },
      "calculatePremium(uint256,uint256)": {
        "params": {
          "_amount": "Amount of options",
          "_strike": "Strike price of the option"
        }
      },
      "deposit(uint256,uint256,address)": {
        "params": {
          "strikeIndex": "Index of strike",
          "user": "Address of the user to deposit for"
        },
        "returns": {
          "_0": "Whether deposit was successful"
        }
      },
      "depositMultiple(uint256[],uint256[],address)": {
        "params": {
          "amounts": "Amount of gOHM to deposit into each strike index",
          "strikeIndices": "Indices of strikes to deposit into",
          "user": "Address of the user to deposit for"
        },
        "returns": {
          "_0": "Whether deposits went through successfully"
        }
      },
      "emergencyWithdraw()": {
        "details": "Can only be called by governance",
        "returns": {
          "_0": "Whether emergency withdraw was successful"
        }
      },
      "expireEpoch()": {
        "returns": {
          "_0": "Whether expire was successful"
        }
      },
      "expireEpoch(uint256)": {
        "details": "Only callable by governace in case the delay tolerance was exceeded",
        "params": {
          "settlementPrice": "The settlement price"
        },
        "returns": {
          "_0": "Whether expire was successful"
        }
      },
      "getAddress(bytes32)": {
        "params": {
          "name": "Name of the contract"
        },
        "returns": {
          "_0": "The address of the contract"
        }
      },
      "getEpochStrikeTokens(uint256)": {
        "params": {
          "epoch": "Target epoch"
        }
      },
      "getEpochStrikes(uint256)": {
        "params": {
          "epoch": "Target epoch"
        }
      },
      "getEpochTimes(uint256)": {
        "params": {
          "epoch": "Target epoch"
        }
      },
      "getMonthlyExpiryFromTimestamp(uint256)": {
        "params": {
          "timestamp": "Timestamp from which the monthly expiry is to be calculated"
        },
        "returns": {
          "_0": "The monthly expiry"
        }
      },
      "getTotalEpochCallsPurchased(uint256)": {
        "params": {
          "epoch": "Target epoch"
        }
      },
      "getTotalEpochPremium(uint256)": {
        "params": {
          "epoch": "Target epoch"
        }
      },
      "getTotalEpochStrikeDeposits(uint256)": {
        "params": {
          "epoch": "Target epoch"
        }
      },
      "getUserEpochCallsPurchased(uint256,address)": {
        "params": {
          "epoch": "Target epoch",
          "user": "Address of the user"
        }
      },
      "getUserEpochDeposits(uint256,address)": {
        "params": {
          "epoch": "Target epoch",
          "user": "Address of the user"
        }
      },
      "getUserEpochPremium(uint256,address)": {
        "params": {
          "epoch": "Target epoch",
          "user": "Address of the user"
        }
      },
      "isContract(address)": {
        "details": "checks for contract or eoa addresses",
        "params": {
          "addr": "the address to check"
        },
        "returns": {
          "_0": "whether the passed address is a contract address"
        }
      },
      "owner()": {
        "details": "Returns the address of the current owner."
      },
      "pause()": {
        "details": "Can only be called by governance",
        "returns": {
          "_0": "Whether it was successfully paused"
        }
      },
      "paused()": {
        "details": "Returns true if the contract is paused, and false otherwise."
      },
      "purchase(uint256,uint256,address)": {
        "params": {
          "amount": "Amount of calls to purchase",
          "strikeIndex": "Strike index for current epoch",
          "user": "User to purchase options for"
        },
        "returns": {
          "_0": "Whether purchase was successful"
        }
      },
      "removeFromContractWhitelist(address)": {
        "details": "remove from  the contract whitelist",
        "params": {
          "_contract": "the address of the contract to remove from the contract whitelist"
        },
        "returns": {
          "_0": "whether the contract was successfully removed from the whitelist"
        }
      },
      "renounceOwnership()": {
        "details": "Leaves the contract without owner. It will not be possible to call `onlyOwner` functions anymore. Can only be called by the current owner. NOTE: Renouncing ownership will leave the contract without an owner, thereby removing any functionality that is only available to the owner."
      },
      "setAddresses(bytes32[],address[])": {
        "params": {
          "destinations": "Addresses of the contract",
          "names": "Names of the contracts"
        },
        "returns": {
          "_0": "Whether the addresses were set"
        }
      },
      "setStrikes(uint256[])": {
        "params": {
          "strikes": "Strikes to set for next epoch"
        },
        "returns": {
          "_0": "Whether strikes were set"
        }
      },
      "settle(uint256,uint256,uint256)": {
        "params": {
          "amount": "Amount of calls to exercise",
          "strikeIndex": "Strike index for current epoch"
        },
        "returns": {
          "pnl": "pnl"
        }
      },
      "transferOwnership(address)": {
        "details": "Transfers ownership of the contract to a new account (`newOwner`). Can only be called by the current owner."
      },
      "unpause()": {
        "details": "Can only be called by governance",
        "returns": {
          "_0": "Whether it was successfully unpaused"
        }
      },
      "updateExpireDelayTolerance(uint256)": {
        "details": "Can only be called by governance",
        "returns": {
          "_0": "Whether it was successfully updated"
        }
      },
      "updatePurchaseFeePercentage(uint256)": {
        "details": "Can only be called by owner",
        "params": {
          "_purchaseFeePercentage": "The new fee"
        },
        "returns": {
          "_0": "Whether it was successfully updated"
        }
      },
      "withdraw(uint256,uint256)": {
        "params": {
          "strikeIndex": "Index of strike",
          "withdrawEpoch": "Epoch to withdraw from"
        },
        "returns": {
          "_0": "gOHM withdrawn"
        }
      }
    },
    "stateVariables": {
      "addresses": {
        "details": "The list of contract addresses the contract uses"
      },
      "currentEpoch": {
        "details": "Current epoch for ssov"
      },
      "epochStartTimes": {
        "details": "epoch => the epoch start time"
      },
      "epochStrikeTokens": {
        "details": "Mapping of (epoch => (strike => tokens))"
      },
      "epochStrikes": {
        "details": "Mapping of strikes for each epoch"
      },
      "erc20Implementation": {
        "details": "ERC20PresetMinterPauserUpgradeable implementation address"
      },
      "expireDelayTolerance": {
        "details": "Expire delay tolerance"
      },
      "isEpochExpired": {
        "details": "epoch => whether the epoch is expired"
      },
      "isVaultReady": {
        "details": "epoch => whether the vault is ready (boostrapped)"
      },
      "purchaseFeePercentage": {
        "details": "Purchase Fee: x% of the price of the underlying asset * the amount of options being bought * OTM Fee Multiplier"
      },
      "settlementPrices": {
        "details": "epoch => settlement price"
      },
      "totalEpochCallsPurchased": {
        "details": "mapping (epoch => (strike => calls purchased))"
      },
      "totalEpochDeposits": {
        "details": "mapping (epoch => deposits)"
      },
      "totalEpochPremium": {
        "details": "mapping (epoch => (strike => premium))"
      },
      "totalEpochStrikeDeposits": {
        "details": "mapping (epoch => (strike => deposits))"
      },
      "totalEpochStrikeGohmBalance": {
        "details": "mapping (epoch => (strike => balance))"
      },
      "userEpochCallsPurchased": {
        "details": "mapping (epoch => (abi.encodePacked(user, strike) => user calls purchased))"
      },
      "userEpochDeposits": {
        "details": "mapping (epoch => (abi.encodePacked(user, strike) => user deposits))"
      },
      "userEpochPremium": {
        "details": "mapping (epoch => (abi.encodePacked(user, strike) => user premium))"
      }
    },
    "version": 1
  },
  "userdoc": {
    "kind": "user",
    "methods": {
      "bootstrap()": {
        "notice": "Bootstraps a new epoch and mints option tokens equivalent to user deposits for the epoch"
      },
      "calculateFees(uint256,uint256,uint256)": {
        "notice": "Calculate Fees"
      },
      "calculatePnl(uint256,uint256,uint256)": {
        "notice": "Calculate Pnl"
      },
      "calculatePremium(uint256,uint256)": {
        "notice": "Calculate premium for an option"
      },
      "deposit(uint256,uint256,address)": {
        "notice": "Deposits gOHM into the ssov to mint options in the next epoch for selected strikes"
      },
      "depositMultiple(uint256[],uint256[],address)": {
        "notice": "Deposit gOHM multiple times into different strike"
      },
      "emergencyWithdraw()": {
        "notice": "Transfers all funds to msg.sender"
      },
      "expireEpoch()": {
        "notice": "Sets the current epoch as expired."
      },
      "expireEpoch(uint256)": {
        "notice": "Sets the current epoch as expired."
      },
      "getAddress(bytes32)": {
        "notice": "Gets the address of a set contract"
      },
      "getEpochStrikeTokens(uint256)": {
        "notice": "Returns epoch strike tokens array for an epoch"
      },
      "getEpochStrikes(uint256)": {
        "notice": "Returns epoch strikes array for an epoch"
      },
      "getEpochTimes(uint256)": {
        "notice": "Returns start and end times for an epoch"
      },
      "getMonthlyExpiryFromTimestamp(uint256)": {
        "notice": "Calculates the monthly expiry from a solidity date"
      },
      "getTotalEpochCallsPurchased(uint256)": {
        "notice": "Returns total epoch calls purchased array for an epoch"
      },
      "getTotalEpochPremium(uint256)": {
        "notice": "Returns total epoch premium array for an epoch"
      },
      "getTotalEpochStrikeDeposits(uint256)": {
        "notice": "Returns total epoch strike deposits array for an epoch"
      },
      "getUsdPrice()": {
        "notice": "Returns gOHM price in USD in 1e8"
      },
      "getUserEpochCallsPurchased(uint256,address)": {
        "notice": "Returns user epoch calls purchased array for an epoch"
      },
      "getUserEpochDeposits(uint256,address)": {
        "notice": "Returns user epoch deposits array for an epoch"
      },
      "getUserEpochPremium(uint256,address)": {
        "notice": "Returns user epoch premium array for an epoch"
      },
      "isEpochExpired(uint256)": {
        "notice": "Is epoch expired"
      },
      "isVaultReady(uint256)": {
        "notice": "Is vault ready for next epoch"
      },
      "pause()": {
        "notice": "Pauses the vault for emergency cases"
      },
      "purchase(uint256,uint256,address)": {
        "notice": "Purchases calls for the current epoch"
      },
      "setAddresses(bytes32[],address[])": {
        "notice": "Sets (adds) a list of addresses to the address list"
      },
      "setStrikes(uint256[])": {
        "notice": "Sets strikes for next epoch"
      },
      "settle(uint256,uint256,uint256)": {
        "notice": "Settle calculates the PnL for the user with the settlement price and withdraws the PnL in gOHM to the user. Will also the burn the option tokens from the user."
      },
      "totalEpochDeposits(uint256)": {
        "notice": "Total epoch deposits across all strikes"
      },
      "totalEpochPremium(uint256,uint256)": {
        "notice": "Premium collected per strike for an epoch"
      },
      "totalEpochStrikeDeposits(uint256,uint256)": {
        "notice": "Total epoch deposits for specific strikes"
      },
      "totalEpochStrikeGohmBalance(uint256,uint256)": {
        "notice": "Epoch gOHM balance per strike after accounting for rewards"
      },
      "unpause()": {
        "notice": "Unpauses the vault"
      },
      "updateExpireDelayTolerance(uint256)": {
        "notice": "Updates the delay tolerance for the expiry epoch function"
      },
      "updatePurchaseFeePercentage(uint256)": {
        "notice": "Update the purchase fee percentage"
      },
      "userEpochCallsPurchased(uint256,bytes32)": {
        "notice": "Calls purchased by user for each strike"
      },
      "userEpochDeposits(uint256,bytes32)": {
        "notice": "Epoch deposits by user for each strike"
      },
      "userEpochPremium(uint256,bytes32)": {
        "notice": "User premium collected per strike for an epoch"
      },
      "withdraw(uint256,uint256)": {
        "notice": "Withdraws balances for a strike in a completed epoch"
      }
    },
    "version": 1
  },
  "storageLayout": {
    "storage": [
      {
        "astId": 3585,
        "contract": "contracts/SSOV/GohmSSOV.sol:GohmSSOV",
        "label": "_paused",
        "offset": 0,
        "slot": "0",
        "type": "t_bool"
      },
      {
        "astId": 3670,
        "contract": "contracts/SSOV/GohmSSOV.sol:GohmSSOV",
        "label": "_status",
        "offset": 0,
        "slot": "1",
        "type": "t_uint256"
      },
      {
        "astId": 3344,
        "contract": "contracts/SSOV/GohmSSOV.sol:GohmSSOV",
        "label": "_owner",
        "offset": 0,
        "slot": "2",
        "type": "t_address"
      },
      {
        "astId": 35380,
        "contract": "contracts/SSOV/GohmSSOV.sol:GohmSSOV",
        "label": "whitelistedContracts",
        "offset": 0,
        "slot": "3",
        "type": "t_mapping(t_address,t_bool)"
      },
      {
        "astId": 16758,
        "contract": "contracts/SSOV/GohmSSOV.sol:GohmSSOV",
        "label": "currentEpoch",
        "offset": 0,
        "slot": "4",
        "type": "t_uint256"
      },
      {
        "astId": 16764,
        "contract": "contracts/SSOV/GohmSSOV.sol:GohmSSOV",
        "label": "purchaseFeePercentage",
        "offset": 0,
        "slot": "5",
        "type": "t_uint256"
      },
      {
        "astId": 16768,
        "contract": "contracts/SSOV/GohmSSOV.sol:GohmSSOV",
        "label": "expireDelayTolerance",
        "offset": 0,
        "slot": "6",
        "type": "t_uint256"
      },
      {
        "astId": 16773,
        "contract": "contracts/SSOV/GohmSSOV.sol:GohmSSOV",
        "label": "addresses",
        "offset": 0,
        "slot": "7",
        "type": "t_mapping(t_bytes32,t_address)"
      },
      {
        "astId": 16778,
        "contract": "contracts/SSOV/GohmSSOV.sol:GohmSSOV",
        "label": "epochStartTimes",
        "offset": 0,
        "slot": "8",
        "type": "t_mapping(t_uint256,t_uint256)"
      },
      {
        "astId": 16783,
        "contract": "contracts/SSOV/GohmSSOV.sol:GohmSSOV",
        "label": "isEpochExpired",
        "offset": 0,
        "slot": "9",
        "type": "t_mapping(t_uint256,t_bool)"
      },
      {
        "astId": 16788,
        "contract": "contracts/SSOV/GohmSSOV.sol:GohmSSOV",
        "label": "isVaultReady",
        "offset": 0,
        "slot": "10",
        "type": "t_mapping(t_uint256,t_bool)"
      },
      {
        "astId": 16795,
        "contract": "contracts/SSOV/GohmSSOV.sol:GohmSSOV",
        "label": "epochStrikes",
        "offset": 0,
        "slot": "11",
        "type": "t_mapping(t_uint256,t_array(t_uint256)dyn_storage)"
      },
      {
        "astId": 16803,
        "contract": "contracts/SSOV/GohmSSOV.sol:GohmSSOV",
        "label": "epochStrikeTokens",
        "offset": 0,
        "slot": "12",
        "type": "t_mapping(t_uint256,t_mapping(t_uint256,t_address))"
      },
      {
        "astId": 16810,
        "contract": "contracts/SSOV/GohmSSOV.sol:GohmSSOV",
        "label": "totalEpochStrikeDeposits",
        "offset": 0,
        "slot": "13",
        "type": "t_mapping(t_uint256,t_mapping(t_uint256,t_uint256))"
      },
      {
        "astId": 16815,
        "contract": "contracts/SSOV/GohmSSOV.sol:GohmSSOV",
        "label": "totalEpochDeposits",
        "offset": 0,
        "slot": "14",
        "type": "t_mapping(t_uint256,t_uint256)"
      },
      {
        "astId": 16822,
        "contract": "contracts/SSOV/GohmSSOV.sol:GohmSSOV",
        "label": "userEpochDeposits",
        "offset": 0,
        "slot": "15",
        "type": "t_mapping(t_uint256,t_mapping(t_bytes32,t_uint256))"
      },
      {
        "astId": 16829,
        "contract": "contracts/SSOV/GohmSSOV.sol:GohmSSOV",
        "label": "totalEpochStrikeGohmBalance",
        "offset": 0,
        "slot": "16",
        "type": "t_mapping(t_uint256,t_mapping(t_uint256,t_uint256))"
      },
      {
        "astId": 16836,
        "contract": "contracts/SSOV/GohmSSOV.sol:GohmSSOV",
        "label": "totalEpochCallsPurchased",
        "offset": 0,
        "slot": "17",
        "type": "t_mapping(t_uint256,t_mapping(t_uint256,t_uint256))"
      },
      {
        "astId": 16843,
        "contract": "contracts/SSOV/GohmSSOV.sol:GohmSSOV",
        "label": "userEpochCallsPurchased",
        "offset": 0,
        "slot": "18",
        "type": "t_mapping(t_uint256,t_mapping(t_bytes32,t_uint256))"
      },
      {
        "astId": 16850,
        "contract": "contracts/SSOV/GohmSSOV.sol:GohmSSOV",
        "label": "totalEpochPremium",
        "offset": 0,
        "slot": "19",
        "type": "t_mapping(t_uint256,t_mapping(t_uint256,t_uint256))"
      },
      {
        "astId": 16857,
        "contract": "contracts/SSOV/GohmSSOV.sol:GohmSSOV",
        "label": "userEpochPremium",
        "offset": 0,
        "slot": "20",
        "type": "t_mapping(t_uint256,t_mapping(t_bytes32,t_uint256))"
      },
      {
        "astId": 16862,
        "contract": "contracts/SSOV/GohmSSOV.sol:GohmSSOV",
        "label": "settlementPrices",
        "offset": 0,
        "slot": "21",
        "type": "t_mapping(t_uint256,t_uint256)"
      }
    ],
    "types": {
      "t_address": {
        "encoding": "inplace",
        "label": "address",
        "numberOfBytes": "20"
      },
      "t_array(t_uint256)dyn_storage": {
        "base": "t_uint256",
        "encoding": "dynamic_array",
        "label": "uint256[]",
        "numberOfBytes": "32"
      },
      "t_bool": {
        "encoding": "inplace",
        "label": "bool",
        "numberOfBytes": "1"
      },
      "t_bytes32": {
        "encoding": "inplace",
        "label": "bytes32",
        "numberOfBytes": "32"
      },
      "t_mapping(t_address,t_bool)": {
        "encoding": "mapping",
        "key": "t_address",
        "label": "mapping(address => bool)",
        "numberOfBytes": "32",
        "value": "t_bool"
      },
      "t_mapping(t_bytes32,t_address)": {
        "encoding": "mapping",
        "key": "t_bytes32",
        "label": "mapping(bytes32 => address)",
        "numberOfBytes": "32",
        "value": "t_address"
      },
      "t_mapping(t_bytes32,t_uint256)": {
        "encoding": "mapping",
        "key": "t_bytes32",
        "label": "mapping(bytes32 => uint256)",
        "numberOfBytes": "32",
        "value": "t_uint256"
      },
      "t_mapping(t_uint256,t_address)": {
        "encoding": "mapping",
        "key": "t_uint256",
        "label": "mapping(uint256 => address)",
        "numberOfBytes": "32",
        "value": "t_address"
      },
      "t_mapping(t_uint256,t_array(t_uint256)dyn_storage)": {
        "encoding": "mapping",
        "key": "t_uint256",
        "label": "mapping(uint256 => uint256[])",
        "numberOfBytes": "32",
        "value": "t_array(t_uint256)dyn_storage"
      },
      "t_mapping(t_uint256,t_bool)": {
        "encoding": "mapping",
        "key": "t_uint256",
        "label": "mapping(uint256 => bool)",
        "numberOfBytes": "32",
        "value": "t_bool"
      },
      "t_mapping(t_uint256,t_mapping(t_bytes32,t_uint256))": {
        "encoding": "mapping",
        "key": "t_uint256",
        "label": "mapping(uint256 => mapping(bytes32 => uint256))",
        "numberOfBytes": "32",
        "value": "t_mapping(t_bytes32,t_uint256)"
      },
      "t_mapping(t_uint256,t_mapping(t_uint256,t_address))": {
        "encoding": "mapping",
        "key": "t_uint256",
        "label": "mapping(uint256 => mapping(uint256 => address))",
        "numberOfBytes": "32",
        "value": "t_mapping(t_uint256,t_address)"
      },
      "t_mapping(t_uint256,t_mapping(t_uint256,t_uint256))": {
        "encoding": "mapping",
        "key": "t_uint256",
        "label": "mapping(uint256 => mapping(uint256 => uint256))",
        "numberOfBytes": "32",
        "value": "t_mapping(t_uint256,t_uint256)"
      },
      "t_mapping(t_uint256,t_uint256)": {
        "encoding": "mapping",
        "key": "t_uint256",
        "label": "mapping(uint256 => uint256)",
        "numberOfBytes": "32",
        "value": "t_uint256"
      },
      "t_uint256": {
        "encoding": "inplace",
        "label": "uint256",
        "numberOfBytes": "32"
      }
    }
  }
}