{
  "address": "0x2b99e3D67dAD973c1B9747Da742B7E26c8Bdd67B",
  "abi": [
    {
      "inputs": [
        {
          "internalType": "uint256",
          "name": "_volatilityCap",
          "type": "uint256"
        },
        {
          "internalType": "uint256",
          "name": "_minOptionPricePercentage",
          "type": "uint256"
        }
      ],
      "stateMutability": "nonpayable",
      "type": "constructor"
    },
    {
      "anonymous": false,
      "inputs": [
        {
          "indexed": true,
          "internalType": "address",
          "name": "previousOwner",
          "type": "address"
        },
        {
          "indexed": true,
          "internalType": "address",
          "name": "newOwner",
          "type": "address"
        }
      ],
      "name": "OwnershipTransferred",
      "type": "event"
    },
    {
      "inputs": [
        {
          "internalType": "bool",
          "name": "isPut",
          "type": "bool"
        },
        {
          "internalType": "uint256",
          "name": "expiry",
          "type": "uint256"
        },
        {
          "internalType": "uint256",
          "name": "strike",
          "type": "uint256"
        },
        {
          "internalType": "uint256",
          "name": "lastPrice",
          "type": "uint256"
        },
        {
          "internalType": "uint256",
          "name": "volatility",
          "type": "uint256"
        }
      ],
      "name": "getOptionPrice",
      "outputs": [
        {
          "internalType": "uint256",
          "name": "",
          "type": "uint256"
        }
      ],
      "stateMutability": "view",
      "type": "function"
    },
    {
      "inputs": [],
      "name": "minOptionPricePercentage",
      "outputs": [
        {
          "internalType": "uint256",
          "name": "",
          "type": "uint256"
        }
      ],
      "stateMutability": "view",
      "type": "function"
    },
    {
      "inputs": [],
      "name": "owner",
      "outputs": [
        {
          "internalType": "address",
          "name": "",
          "type": "address"
        }
      ],
      "stateMutability": "view",
      "type": "function"
    },
    {
      "inputs": [],
      "name": "renounceOwnership",
      "outputs": [],
      "stateMutability": "nonpayable",
      "type": "function"
    },
    {
      "inputs": [
        {
          "internalType": "address",
          "name": "newOwner",
          "type": "address"
        }
      ],
      "name": "transferOwnership",
      "outputs": [],
      "stateMutability": "nonpayable",
      "type": "function"
    },
    {
      "inputs": [
        {
          "internalType": "uint256",
          "name": "_minOptionPricePercentage",
          "type": "uint256"
        }
      ],
      "name": "updateMinOptionPricePercentage",
      "outputs": [
        {
          "internalType": "bool",
          "name": "",
          "type": "bool"
        }
      ],
      "stateMutability": "nonpayable",
      "type": "function"
    },
    {
      "inputs": [
        {
          "internalType": "uint256",
          "name": "_volatilityCap",
          "type": "uint256"
        }
      ],
      "name": "updateVolatilityCap",
      "outputs": [
        {
          "internalType": "bool",
          "name": "",
          "type": "bool"
        }
      ],
      "stateMutability": "nonpayable",
      "type": "function"
    },
    {
      "inputs": [],
      "name": "volatilityCap",
      "outputs": [
        {
          "internalType": "uint256",
          "name": "",
          "type": "uint256"
        }
      ],
      "stateMutability": "view",
      "type": "function"
    }
  ],
  "transactionHash": "0xa9f3f14c58878b7e5b1bcde06fa1cca345df77d280b188945205af02eec80b69",
  "args": [
    "1000",
    "1"
  ],
  "solcInputHash": "13251561be0841762d466ec3898cf295",
  "bytecode": "0x60806040523480156200001157600080fd5b5060405162002c0a38038062002c0a833981016040819052620000349162000084565b600080546001600160a01b031916339081178255604051909182917f8be0079c531659141344cd1fd0a4f28419497f9722a3daafe3b4186f6b6457e0908290a350600191909155600255620000a8565b6000806040838503121562000097578182fd5b505080516020909101519092909150565b612b5280620000b86000396000f3fe608060405234801561001057600080fd5b50600436106100885760003560e01c8063715018a61161005b578063715018a6146100e85780638da5cb5b146100f2578063ad1ad5dc1461010d578063f2fde38b1461012057600080fd5b806305e927df1461008d57806325b2a93b146100a9578063326611f8146100b25780635b7b6d88146100d5575b600080fd5b61009660015481565b6040519081526020015b60405180910390f35b61009660025481565b6100c56100c0366004612a63565b610133565b60405190151581526020016100a0565b6100966100e3366004612a1c565b610170565b6100f06101f9565b005b6000546040516001600160a01b0390911681526020016100a0565b6100c561011b366004612a63565b61026d565b6100f061012e3660046129f5565b6102a1565b600080546001600160a01b031633146101675760405162461bcd60e51b815260040161015e90612a7b565b60405180910390fd5b50600255600190565b600080610189610360610183884261038b565b906103a0565b905060006101b5662386f26fc100006101838a6101a75760006101aa565b60015b888a8760008b6103ac565b905060006101d76402540be400610183600254896104fd90919063ffffffff16565b9050818111156101eb5792506101f0915050565b509150505b95945050505050565b6000546001600160a01b031633146102235760405162461bcd60e51b815260040161015e90612a7b565b600080546040516001600160a01b03909116907f8be0079c531659141344cd1fd0a4f28419497f9722a3daafe3b4186f6b6457e0908390a3600080546001600160a01b0319169055565b600080546001600160a01b031633146102985760405162461bcd60e51b815260040161015e90612a7b565b50600190815590565b6000546001600160a01b031633146102cb5760405162461bcd60e51b815260040161015e90612a7b565b6001600160a01b0381166103305760405162461bcd60e51b815260206004820152602660248201527f4f776e61626c653a206e6577206f776e657220697320746865207a65726f206160448201526564647265737360d01b606482015260840161015e565b600080546040516001600160a01b03808516939216917f8be0079c531659141344cd1fd0a4f28419497f9722a3daafe3b4186f6b6457e091a3600080546001600160a01b0319166001600160a01b0392909216919091179055565b60006103978284612aef565b90505b92915050565b60006103978284612ab0565b6000806103b887610509565b905060006103c587610509565b905060006103e56103d588610509565b6103e0618e94610509565b61056d565b905060006104006103f588610509565b6103e0612710610509565b9050600061041a61041088610509565b6103e06064610509565b9050600061046c61045f610436610431898961056d565b610841565b610454610459876104548861044f8a6103e06002610509565b610864565b610abf565b88610864565b6103e08461044f88610e7f565b90506000610486826104818561044f89610e7f565b6110b3565b905060ff8e166104c7576104b96104b46104a489858a898b886110c5565b61044f662386f26fc10000610509565b61110a565b9750505050505050506104f3565b60ff8e16600114156104e7576104b96104b46104a4888789868d8961118e565b60009750505050505050505b9695505050505050565b60006103978284612ad0565b60008161051857506000919050565b816000610524826111ed565b9050607081101561053d578060700382901b9150610550565b6070811115610550576070810382901c91505b613fff0160701b6001600160701b03919091161760801b92915050565b6000617fff60f084811c8216919084901c8116908214156105b35780617fff14156105a2575061ffff60ef1b915061039a9050565b505050600160ff1b8116821861039a565b80617fff14156105f7576dffffffffffffffffffffffffffff60801b8416156105e6575061ffff60ef1b915061039a9050565b505050808218600160ff1b1661039a565b600160801b600160ff1b03841661064157600160801b600160ff1b038516610629575061ffff60ef1b915061039a9050565b505050808218600160ff1b16617fff60f01b1761039a565b6001600160701b03608085901c168161065d5760019150610664565b600160701b175b6001600160701b03608087901c16836106a357801561069e576000610688826111ed565b6001955060e20393840160711901939190911b90505b6106ad565b600160701b1760721b5b8181816106ca57634e487b7160e01b600052601260045260246000fd5b049050806106f757600160ff1b878718166106e65760006106ec565b600160ff1b5b94505050505061039a565b6001606c1b81101561071957634e487b7160e01b600052600160045260246000fd5b6000600160731b82101561075857600160721b82101561074d57600160711b821015610746576070610750565b6071610750565b60725b60ff16610761565b610761826111ed565b90508361407101818601111561077f57617fff945060009150610812565b83818601613ffc01101561079a576000945060009150610812565b83818601613f8c0110156107e7578385613ffc0111156107c5578385613ffc010382901b91506107de565b8385613ffc0110156107de57613ffc8585030382901c91505b60009450610812565b60708111156107fa576070810382901c91505b6001600160701b038216915083818601613f8d010394505b81607086901b888a186001607f1b60801b1660801c6001600160801b0316171760801b9550505050505061039a565b600061039a61084f8361128b565b6f3ffe62e42fefa39ef35793c7673007e560801b5b6000617fff60f084811c8216919084901c8116908214156109035780617fff14156108e2576001600160801b031985811690851614156108af57505050600160ff1b8116821861039a565b600160ff1b6001600160801b03198686181614156108d25750505081811761039a565b5061ffff60ef1b915061039a9050565b600160801b600160ff1b0384166105a2575061ffff60ef1b915061039a9050565b80617fff141561093f57600160801b600160ff1b03851661092e575061ffff60ef1b915061039a9050565b505050600160ff1b8216811861039a565b6001600160701b03608086901c168261095b5760019250610962565b600160701b175b6001600160701b03608086901c168261097e5760019250610985565b600160701b175b90810290816109a257600160ff1b878718166106e65760006106ec565b928201926000600160e11b8310156109d557600160e01b8310156109ce576109c9836111ed565b6109d8565b60e06109d8565b60e15b905061407081860110156109f3576000945060009250610a90565b6140e08186011015610a3657614070851015610a1857846140700383901c9250610a2d565b614070851115610a2d57614070850383901b92505b60009450610a90565b61c0dd8186011115610a5057617fff945060009250610a90565b6070811115610a67576070810383901c9250610a7a565b6070811015610a7a578060700383901b92505b6001600160701b03831692506140df8186010394505b82607086901b888a186001607f1b60801b1660801c6001600160801b0316171760801b9550505050505061039a565b6000617fff60f084811c8216919084901c811690821415610b0d5780617fff1415610b03576001600160801b031985811690851614156108d257849250505061039a565b849250505061039a565b80617fff1415610b2157839250505061039a565b6001607f1b608086901c90811015906001600160701b031683610b475760019350610b4e565b600160701b175b6001607f1b608087901c90811015906001600160701b031684610b745760019450610b7b565b600160701b175b82610bab576001600160801b03198816600160ff1b14610b9b5787610b9e565b60005b965050505050505061039a565b80610bcb576001600160801b03198916600160ff1b14610b9b5788610b9e565b8486038415158315151415610cd6576070811315610bf2578997505050505050505061039a565b6000811315610c045790811c90610c33565b606f19811215610c1d578897505050505050505061039a565b6000811215610c33578060000384901c93508596505b92810192600160711b8410610c4e576001968701969390931c925b86617fff1415610c805784610c6857617fff60f01b610c72565b6001600160f01b03195b97505050505050505061039a565b600160701b841015610c955760009650610ca2565b6001600160701b03841693505b83607088901b86610cb4576000610cba565b6001607f1b5b6001600160801b0316171760801b97505050505050505061039a565b6000811315610cf157600184901b9350600187039650610d08565b6000811215610d0857600182901b91506001860396505b6070811315610d1a5760019150610d67565b6001811315610d37576001810360018303901c6001019150610d67565b606f19811215610d4a5760019350610d67565b600019811215610d67576001816000030360018503901c60010193505b818410610d78578184039350610d81565b83820393508294505b83610d9757506000965061039a95505050505050565b6000610da2856111ed565b90508060711415610dc857600185901c6001600160701b03169450600188019750610e17565b6070811015610e0a57607081900380891115610df7578086901b6001600160701b031695508089039850610e04565b600098600019019590951b945b50610e17565b6001600160701b03851694505b87617fff1415610e4a5785610e3157617fff60f01b610e3b565b6001600160f01b03195b9850505050505050505061039a565b84607089901b87610e5c576000610e62565b6001607f1b5b6001600160801b0316171760801b9850505050505050505061039a565b60006001607f1b608083901c1115610e9d575061ffff60ef1b919050565b617fff60f083901c811690811415610eb6575090919050565b6001600160701b03608084901c1681610ed25760019150610ed9565b600160701b175b80610ee8575060009392505050565b613fff8201600190811c9216158015610f3a57600160701b8210610f1257607182901b9150610f75565b6000610f1d836111ed565b60e20360fe16606f19810160011c909403939290921b9150610f75565b600160701b8210610f5157607082901b9150610f75565b6000610f5c836111ed565b60e10360fe16606f19810160011c909403939290921b91505b600160701b80830401600190811c90818481610fa157634e487b7160e01b600052601260045260246000fd5b048201901c90506001818481610fc757634e487b7160e01b600052601260045260246000fd5b048201901c90506001818481610fed57634e487b7160e01b600052601260045260246000fd5b048201901c9050600181848161101357634e487b7160e01b600052601260045260246000fd5b048201901c9050600181848161103957634e487b7160e01b600052601260045260246000fd5b048201901c9050600181848161105f57634e487b7160e01b600052601260045260246000fd5b048201901c9050600081848161108557634e487b7160e01b600052601260045260246000fd5b04905081811015611094578091505b816001600160701b0316607086901b1760801b95505050505050919050565b600061039783600160ff1b8418610abf565b60006110ff6110d78861044f8961143b565b6104816110f68861044f6110f1600160ff1b8b188a610864565b6114d6565b61044f8661143b565b979650505050505050565b6000617fff60f083901c16613fff8110156111285750600092915050565b6001607f1b608084901c1061113c57600080fd5b6140fe81111561114b57600080fd5b600160701b6001600160701b03608085901c161761406f8210156111755761406f8290031c611187565b61406f8211156111875761406e1982011b5b9392505050565b6000806111ba6111ab8961044f6110f1600160ff1b8c188b610864565b61044f600160ff1b881861143b565b905060006111d18561044f600160ff1b871861143b565b905060006111df83836110b3565b9a9950505050505050505050565b60008082116111fb57600080fd5b6000600160801b831061121057608092831c92015b600160401b831061122357604092831c92015b640100000000831061123757602092831c92015b62010000831061124957601092831c92015b610100831061125a57600892831c92015b6010831061126a57600492831c92015b6004831061127a57600292831c92015b6002831061039a5760010192915050565b60006001607f1b608083901c11156112a9575061ffff60ef1b919050565b613fff60f01b6001600160801b0319831614156112c857506000919050565b617fff60f083901c8116908114156112e1575090919050565b6001600160701b03608084901c16816112fd5760019150611304565b600160701b175b8061131a57506001600160f01b03199392505050565b600061406f81613fff85106113405750600f9290921b9160009150613ffe19840161137f565b60019250600160701b84106113625784613ffe039050600f84901b935061137f565b600061136d856111ed565b607f8190039590951b9461406d039150505b836001607f1b14156113b3578215611395576001015b60006113a0826111ed565b60700392839003929190911b9050611401565b6000836113c15760006113c4565b60015b60ff1690505b600160701b8210156113ff5793800260ff81901c607f81019190911c94600019939093019260019290921b90821801906113ca565b505b806001600160701b0316607083901b8461141c576000611422565b6001607f1b5b6001600160801b0316171760801b979650505050505050565b600080611447836114fd565b12156114695761039a61145a6001610509565b610481600160ff1b851861143b565b60006114ab6114786001610509565b6103e06114856001610509565b61045461045961149b66083ac553a55e00610509565b6103e0662386f26fc10000610509565b905060006114b982856115a4565b90506114ce6114c86001610509565b826110b3565b949350505050565b600061039a6114f8836f1fffb8aa3b295c17f0bbbe87fed0691d60811b610864565b6115bb565b6000617fff60f083901c166140fe81111561151757600080fd5b613fff81101561152a5750600092915050565b600160701b6001600160701b03608085901c161761406f8210156115545761406f8290031c611566565b61406f8211156115665761406e1982011b5b6001607f1b608085901c1061159057600160ff1b81111561158657600080fd5b6000039392505050565b6001600160ff1b0381111561118757600080fd5b60006103976115b28361290d565b61044f85612955565b60006001607f1b608083901c90811190617fff60f085901c8116916001600160701b031690821480156115ed57508015155b15611601575061ffff60ef1b949350505050565b61400d821115611626578261161b57617fff60f01b6101f0565b600095945050505050565b613f7f82101561163f5750613fff60f01b949350505050565b8161164d5760019150611654565b600160701b175b613fef82111561166a57613fee1982011b61167c565b613fef82101561167c57613fef8290031c5b82801561168d575061203760811b81115b1561169d57506000949350505050565b821580156116bc5750713fffffffffffffffffffffffffffffffffff81115b156116d05750617fff60f01b949350505050565b6001600160801b0381169060801c8380156116ea57508115155b156116f6579019906001015b6001607f1b8281161561171a5770016a09e667f3bcc908b2fb1366ea957d3e0260801c5b6001607e1b83161561173d577001306fe0a31b7152de8d5a46305c85edec0260801c5b6001607d1b831615611760577001172b83c7d517adcdf7c8c50eb14a791f0260801c5b6001607c1b8316156117835770010b5586cf9890f6298b92b71842a983630260801c5b6001607b1b8316156117a6577001059b0d31585743ae7c548eb68ca417fd0260801c5b6001607a1b8316156117c957700102c9a3e778060ee6f7caca4f7a29bde80260801c5b600160791b8316156117ec5770010163da9fb33356d84a66ae336dcdfa3f0260801c5b600160781b83161561180f57700100b1afa5abcbed6129ab13ec11dc95430260801c5b600160771b8316156118325770010058c86da1c09ea1ff19d294cf2f679b0260801c5b600160761b831615611855577001002c605e2e8cec506d21bfc89a23a00f0260801c5b600160751b83161561187857700100162f3904051fa128bca9c55c31e5df0260801c5b600160741b83161561189b577001000b175effdc76ba38e31671ca9397250260801c5b600160731b8316156118be57700100058ba01fb9f96d6cacd4b180917c3d0260801c5b600160721b8316156118e15770010002c5cc37da9491d0985c348c68e7b30260801c5b600160711b831615611904577001000162e525ee054754457d59952920260260801c5b600160701b8316156119275770010000b17255775c040618bf4a4ade83fc0260801c5b6001606f1b83161561194a577001000058b91b5bc9ae2eed81e9b7d4cfab0260801c5b6001606e1b83161561196d57700100002c5c89d5ec6ca4d7c8acc017b7c90260801c5b6001606d1b8316156119905770010000162e43f4f831060e02d839a9d16d0260801c5b6001606c1b8316156119b357700100000b1721bcfc99d9f890ea069117630260801c5b6001606b1b8316156119d65770010000058b90cf1e6d97f9ca14dbcc16280260801c5b6001606a1b8316156119f9577001000002c5c863b73f016468f6bac5ca2b0260801c5b600160691b831615611a1c57700100000162e430e5a18f6119e3c02282a50260801c5b600160681b831615611a3f577001000000b1721835514b86e6d96efd1bfe0260801c5b600160671b831615611a6257700100000058b90c0b48c6be5df846c5b2ef0260801c5b600160661b831615611a855770010000002c5c8601cc6b9e94213c72737a0260801c5b600160651b831615611aa8577001000000162e42fff037df38aa2b219f060260801c5b600160641b831615611acb5770010000000b17217fba9c739aa5819f44f90260801c5b600160631b831615611aee577001000000058b90bfcdee5acd3c1cedc8230260801c5b600160621b831615611b1157700100000002c5c85fe31f35a6a30da1be500260801c5b600160611b831615611b345770010000000162e42ff0999ce3541b9fffcf0260801c5b600160601b831615611b5757700100000000b17217f80f4ef5aadda455540260801c5b6001605f1b831615611b7a5770010000000058b90bfbf8479bd5a81b51ad0260801c5b6001605e1b831615611b9d577001000000002c5c85fdf84bd62ae30a74cc0260801c5b6001605d1b831615611bc057700100000000162e42fefb2fed257559bdaa0260801c5b6001605c1b831615611be3577001000000000b17217f7d5a7716bba4a9ae0260801c5b6001605b1b831615611c0657700100000000058b90bfbe9ddbac5e109cce0260801c5b6001605a1b831615611c295770010000000002c5c85fdf4b15de6f17eb0d0260801c5b600160591b831615611c4c577001000000000162e42fefa494f1478fde050260801c5b600160581b831615611c6f5770010000000000b17217f7d20cf927c8e94c0260801c5b600160571b831615611c92577001000000000058b90bfbe8f71cb4e4b33d0260801c5b600160561b831615611cb557700100000000002c5c85fdf477b662b269450260801c5b600160551b831615611cd85770010000000000162e42fefa3ae53369388c0260801c5b600160541b831615611cfb57700100000000000b17217f7d1d351a389d400260801c5b600160531b831615611d1e5770010000000000058b90bfbe8e8b2d3d4ede0260801c5b600160521b831615611d41577001000000000002c5c85fdf4741bea6e77e0260801c5b600160511b831615611d6457700100000000000162e42fefa39fe95583c20260801c5b600160501b831615611d87577001000000000000b17217f7d1cfb72b45e10260801c5b6980000000000000000000831615611db057700100000000000058b90bfbe8e7cc35c3f00260801c5b6940000000000000000000831615611dd95770010000000000002c5c85fdf473e242ea380260801c5b6920000000000000000000831615611e02577001000000000000162e42fefa39f02b772c0260801c5b6910000000000000000000831615611e2b5770010000000000000b17217f7d1cf7d83c1a0260801c5b6908000000000000000000831615611e54577001000000000000058b90bfbe8e7bdcbe2e0260801c5b6904000000000000000000831615611e7d57700100000000000002c5c85fdf473dea871f0260801c5b6902000000000000000000831615611ea65770010000000000000162e42fefa39ef44d910260801c5b6901000000000000000000831615611ecf57700100000000000000b17217f7d1cf79e9490260801c5b68800000000000000000831615611ef75770010000000000000058b90bfbe8e7bce5440260801c5b68400000000000000000831615611f1f577001000000000000002c5c85fdf473de6eca0260801c5b68200000000000000000831615611f4757700100000000000000162e42fefa39ef366f0260801c5b68100000000000000000831615611f6f577001000000000000000b17217f7d1cf79afa0260801c5b68080000000000000000831615611f9757700100000000000000058b90bfbe8e7bcd6d0260801c5b68040000000000000000831615611fbf5770010000000000000002c5c85fdf473de6b20260801c5b68020000000000000000831615611fe7577001000000000000000162e42fefa39ef3580260801c5b600160401b83161561200a5770010000000000000000b17217f7d1cf79ab0260801c5b678000000000000000831615612031577001000000000000000058b90bfbe8e7bcd50260801c5b67400000000000000083161561205857700100000000000000002c5c85fdf473de6a0260801c5b67200000000000000083161561207f5770010000000000000000162e42fefa39ef340260801c5b6710000000000000008316156120a657700100000000000000000b17217f7d1cf7990260801c5b6708000000000000008316156120cd5770010000000000000000058b90bfbe8e7bcc0260801c5b6704000000000000008316156120f4577001000000000000000002c5c85fdf473de50260801c5b67020000000000000083161561211b57700100000000000000000162e42fefa39ef20260801c5b670100000000000000831615612142577001000000000000000000b17217f7d1cf780260801c5b668000000000000083161561216857700100000000000000000058b90bfbe8e7bb0260801c5b664000000000000083161561218e5770010000000000000000002c5c85fdf473dd0260801c5b66200000000000008316156121b4577001000000000000000000162e42fefa39ee0260801c5b66100000000000008316156121da5770010000000000000000000b17217f7d1cf60260801c5b6608000000000000831615612200577001000000000000000000058b90bfbe8e7a0260801c5b660400000000000083161561222657700100000000000000000002c5c85fdf473c0260801c5b660200000000000083161561224c5770010000000000000000000162e42fefa39d0260801c5b660100000000000083161561227257700100000000000000000000b17217f7d1ce0260801c5b658000000000008316156122975770010000000000000000000058b90bfbe8e60260801c5b654000000000008316156122bc577001000000000000000000002c5c85fdf4720260801c5b652000000000008316156122e157700100000000000000000000162e42fefa380260801c5b65100000000000831615612306577001000000000000000000000b17217f7d1b0260801c5b6508000000000083161561232b57700100000000000000000000058b90bfbe8d0260801c5b650400000000008316156123505770010000000000000000000002c5c85fdf460260801c5b65020000000000831615612375577001000000000000000000000162e42fefa20260801c5b6501000000000083161561239a5770010000000000000000000000b17217f7d00260801c5b6480000000008316156123be577001000000000000000000000058b90bfbe70260801c5b6440000000008316156123e257700100000000000000000000002c5c85fdf30260801c5b6420000000008316156124065770010000000000000000000000162e42fef90260801c5b64100000000083161561242a57700100000000000000000000000b17217f7c0260801c5b64080000000083161561244e5770010000000000000000000000058b90bfbd0260801c5b640400000000831615612472577001000000000000000000000002c5c85fde0260801c5b64020000000083161561249657700100000000000000000000000162e42fee0260801c5b6401000000008316156124ba577001000000000000000000000000b17217f60260801c5b63800000008316156124dd57700100000000000000000000000058b90bfa0260801c5b63400000008316156125005770010000000000000000000000002c5c85fc0260801c5b6320000000831615612523577001000000000000000000000000162e42fd0260801c5b63100000008316156125465770010000000000000000000000000b17217e0260801c5b6308000000831615612569577001000000000000000000000000058b90be0260801c5b630400000083161561258c57700100000000000000000000000002c5c85e0260801c5b63020000008316156125af5770010000000000000000000000000162e42e0260801c5b63010000008316156125d257700100000000000000000000000000b172160260801c5b628000008316156125f45770010000000000000000000000000058b90a0260801c5b62400000831615612616577001000000000000000000000000002c5c840260801c5b6220000083161561263857700100000000000000000000000000162e410260801c5b6210000083161561265a577001000000000000000000000000000b17200260801c5b6208000083161561267c57700100000000000000000000000000058b8f0260801c5b6204000083161561269e5770010000000000000000000000000002c5c70260801c5b620200008316156126c0577001000000000000000000000000000162e30260801c5b620100008316156126e25770010000000000000000000000000000b1710260801c5b618000831615612703577001000000000000000000000000000058b80260801c5b61400083161561272457700100000000000000000000000000002c5b0260801c5b6120008316156127455770010000000000000000000000000000162d0260801c5b61100083161561276657700100000000000000000000000000000b160260801c5b6108008316156127875770010000000000000000000000000000058a0260801c5b6104008316156127a8577001000000000000000000000000000002c40260801c5b6102008316156127c9577001000000000000000000000000000001610260801c5b6101008316156127ea577001000000000000000000000000000000b00260801c5b608083161561280a577001000000000000000000000000000000570260801c5b604083161561282a5770010000000000000000000000000000002b0260801c5b602083161561284a577001000000000000000000000000000000150260801c5b601083161561286a5770010000000000000000000000000000000a0260801c5b600883161561288a577001000000000000000000000000000000040260801c5b60048316156128aa577001000000000000000000000000000000010260801c5b846128cb57600f81901c6001600160701b03169050613fff820191506128fa565b613ffe82116128f057600f81901c6001600160701b0316905081613fff0391506128fa565b600091613fee19011c5b60709190911b1760801b95945050505050565b600061039a61292d6110f1600160ff1b851861044f866103e06002610509565b6103e061295061293d6002610509565b61044f61149b666f9c9e651c4480610509565b610e7f565b600061039a6129b961297061149b660b58c2126f4900610509565b6104548561044f61299661298d61149b660caaedbfa8a700610509565b600160ff1b1890565b6104548961044f6129b061149b663f4a728c19ce80610509565b6104548d6129bf565b83610864565b600061039a8261044f6129de61298d61149b6640b43a04233100610509565b6104548661044f61149b662f42c683f17c80610509565b600060208284031215612a06578081fd5b81356001600160a01b0381168114611187578182fd5b600080600080600060a08688031215612a33578081fd5b85358015158114612a42578182fd5b97602087013597506040870135966060810135965060800135945092505050565b600060208284031215612a74578081fd5b5035919050565b6020808252818101527f4f776e61626c653a2063616c6c6572206973206e6f7420746865206f776e6572604082015260600190565b600082612acb57634e487b7160e01b81526012600452602481fd5b500490565b6000816000190483118215151615612aea57612aea612b06565b500290565b600082821015612b0157612b01612b06565b500390565b634e487b7160e01b600052601160045260246000fdfea26469706673582212201231c078f4e9ca7177d1e208bb6bf3581273fe0bc414e3b381ba057fdcd32ae864736f6c63430008040033",
  "devdoc": {
    "kind": "dev",
    "methods": {
      "getOptionPrice(bool,uint256,uint256,uint256,uint256)": {
        "params": {
          "expiry": "expiry timestamp",
          "isPut": "is put option",
          "lastPrice": "current price",
          "strike": "strike price",
          "volatility": "volatility"
        }
      },
      "owner()": {
        "details": "Returns the address of the current owner."
      },
      "renounceOwnership()": {
        "details": "Leaves the contract without owner. It will not be possible to call `onlyOwner` functions anymore. Can only be called by the current owner. NOTE: Renouncing ownership will leave the contract without an owner, thereby removing any functionality that is only available to the owner."
      },
      "transferOwnership(address)": {
        "details": "Transfers ownership of the contract to a new account (`newOwner`). Can only be called by the current owner."
      },
      "updateMinOptionPricePercentage(uint256)": {
        "params": {
          "_minOptionPricePercentage": "the new %"
        },
        "returns": {
          "_0": "whether % was updated"
        }
      },
      "updateVolatilityCap(uint256)": {
        "params": {
          "_volatilityCap": "the new volatility cap"
        },
        "returns": {
          "_0": "whether volatility cap was updated"
        }
      }
    },
    "version": 1
  },
  "userdoc": {
    "kind": "user",
    "methods": {
      "getOptionPrice(bool,uint256,uint256,uint256,uint256)": {
        "notice": "computes the option price (with liquidity multiplier)"
      },
      "updateMinOptionPricePercentage(uint256)": {
        "notice": "updates % of the price of asset which is the minimum option price possible"
      },
      "updateVolatilityCap(uint256)": {
        "notice": "updates volatility cap for an option pool"
      }
    },
    "version": 1
  },
  "storageLayout": {
    "storage": [
      {
        "astId": 3145,
        "contract": "contracts/pricing/OptionPricingSimple.sol:OptionPricingSimple",
        "label": "_owner",
        "offset": 0,
        "slot": "0",
        "type": "t_address"
      },
      {
        "astId": 22507,
        "contract": "contracts/pricing/OptionPricingSimple.sol:OptionPricingSimple",
        "label": "volatilityCap",
        "offset": 0,
        "slot": "1",
        "type": "t_uint256"
      },
      {
        "astId": 22509,
        "contract": "contracts/pricing/OptionPricingSimple.sol:OptionPricingSimple",
        "label": "minOptionPricePercentage",
        "offset": 0,
        "slot": "2",
        "type": "t_uint256"
      }
    ],
    "types": {
      "t_address": {
        "encoding": "inplace",
        "label": "address",
        "numberOfBytes": "20"
      },
      "t_uint256": {
        "encoding": "inplace",
        "label": "uint256",
        "numberOfBytes": "32"
      }
    }
  }
}