{
  "address": "0x3E0215c1D639280e13B46e3aF94Fb5630d1b3212",
  "abi": [
    {
      "anonymous": false,
      "inputs": [
        {
          "indexed": true,
          "internalType": "address",
          "name": "previousOwner",
          "type": "address"
        },
        {
          "indexed": true,
          "internalType": "address",
          "name": "newOwner",
          "type": "address"
        }
      ],
      "name": "OwnershipTransferred",
      "type": "event"
    },
    {
      "inputs": [],
      "name": "getVolatility",
      "outputs": [
        {
          "internalType": "uint256",
          "name": "",
          "type": "uint256"
        }
      ],
      "stateMutability": "view",
      "type": "function"
    },
    {
      "inputs": [],
      "name": "lastVolatility",
      "outputs": [
        {
          "internalType": "uint256",
          "name": "",
          "type": "uint256"
        }
      ],
      "stateMutability": "view",
      "type": "function"
    },
    {
      "inputs": [],
      "name": "owner",
      "outputs": [
        {
          "internalType": "address",
          "name": "",
          "type": "address"
        }
      ],
      "stateMutability": "view",
      "type": "function"
    },
    {
      "inputs": [],
      "name": "renounceOwnership",
      "outputs": [],
      "stateMutability": "nonpayable",
      "type": "function"
    },
    {
      "inputs": [
        {
          "internalType": "address",
          "name": "newOwner",
          "type": "address"
        }
      ],
      "name": "transferOwnership",
      "outputs": [],
      "stateMutability": "nonpayable",
      "type": "function"
    },
    {
      "inputs": [
        {
          "internalType": "uint256",
          "name": "v",
          "type": "uint256"
        }
      ],
      "name": "updateVolatility",
      "outputs": [
        {
          "internalType": "uint256",
          "name": "",
          "type": "uint256"
        }
      ],
      "stateMutability": "nonpayable",
      "type": "function"
    }
  ],
  "transactionHash": "0xc5cc51cd4b92228c46a32c690c2afa6f55ab4b248cb561db568572c8d1ea28b4",
  "args": [],
  "solcInputHash": "6217be701d0b41649bcf348bd7a0d02c",
  "bytecode": "0x608060405234801561001057600080fd5b50600080546001600160a01b031916339081178255604051909182917f8be0079c531659141344cd1fd0a4f28419497f9722a3daafe3b4186f6b6457e0908290a3506103eb806100616000396000f3fe608060405234801561001057600080fd5b50600436106100625760003560e01c80632834a7c8146100675780633af2888b1461008d578063715018a6146100955780638843be741461009f5780638da5cb5b146100a8578063f2fde38b146100c3575b600080fd5b61007a610075366004610368565b6100d6565b6040519081526020015b60405180910390f35b61007a610171565b61009d6101dc565b005b61007a60015481565b6000546040516001600160a01b039091168152602001610084565b61009d6100d136600461033a565b610250565b600080546001600160a01b0316331461010a5760405162461bcd60e51b815260040161010190610380565b60405180910390fd5b816101685760405162461bcd60e51b815260206004820152602860248201527f566f6c6174696c6974794f7261636c653a20566f6c6174696c6974792063616e60448201526706e6f7420626520360c41b6064820152608401610101565b50600181905590565b6000600154600014156101d55760405162461bcd60e51b815260206004820152602660248201527f566f6c6174696c6974794f7261636c653a204c61737420766f6c6174696c6974604482015265079203d3d20360d41b6064820152608401610101565b5060015490565b6000546001600160a01b031633146102065760405162461bcd60e51b815260040161010190610380565b600080546040516001600160a01b03909116907f8be0079c531659141344cd1fd0a4f28419497f9722a3daafe3b4186f6b6457e0908390a3600080546001600160a01b0319169055565b6000546001600160a01b0316331461027a5760405162461bcd60e51b815260040161010190610380565b6001600160a01b0381166102df5760405162461bcd60e51b815260206004820152602660248201527f4f776e61626c653a206e6577206f776e657220697320746865207a65726f206160448201526564647265737360d01b6064820152608401610101565b600080546040516001600160a01b03808516939216917f8be0079c531659141344cd1fd0a4f28419497f9722a3daafe3b4186f6b6457e091a3600080546001600160a01b0319166001600160a01b0392909216919091179055565b60006020828403121561034b578081fd5b81356001600160a01b0381168114610361578182fd5b9392505050565b600060208284031215610379578081fd5b5035919050565b6020808252818101527f4f776e61626c653a2063616c6c6572206973206e6f7420746865206f776e657260408201526060019056fea2646970667358221220ebd61f1ddc5c0a3f82ad2dbd591e3c58b374911f8c6407015c0970f94424ab6a64736f6c63430008040033",
  "devdoc": {
    "kind": "dev",
    "methods": {
      "getVolatility()": {
        "returns": {
          "_0": "volatility"
        }
      },
      "owner()": {
        "details": "Returns the address of the current owner."
      },
      "renounceOwnership()": {
        "details": "Leaves the contract without owner. It will not be possible to call `onlyOwner` functions anymore. Can only be called by the current owner. NOTE: Renouncing ownership will leave the contract without an owner, thereby removing any functionality that is only available to the owner."
      },
      "transferOwnership(address)": {
        "details": "Transfers ownership of the contract to a new account (`newOwner`). Can only be called by the current owner."
      },
      "updateVolatility(uint256)": {
        "params": {
          "v": "volatility"
        },
        "returns": {
          "_0": "volatility of rdpx"
        }
      }
    },
    "version": 1
  },
  "userdoc": {
    "kind": "user",
    "methods": {
      "getVolatility()": {
        "notice": "Gets the volatility of rdpx"
      },
      "updateVolatility(uint256)": {
        "notice": "Updates the last volatility for rdpx"
      }
    },
    "version": 1
  },
  "storageLayout": {
    "storage": [
      {
        "astId": 3276,
        "contract": "contracts/oracle/RdpxVolatilityOracle.sol:RdpxVolatilityOracle",
        "label": "_owner",
        "offset": 0,
        "slot": "0",
        "type": "t_address"
      },
      {
        "astId": 25816,
        "contract": "contracts/oracle/RdpxVolatilityOracle.sol:RdpxVolatilityOracle",
        "label": "lastVolatility",
        "offset": 0,
        "slot": "1",
        "type": "t_uint256"
      }
    ],
    "types": {
      "t_address": {
        "encoding": "inplace",
        "label": "address",
        "numberOfBytes": "20"
      },
      "t_uint256": {
        "encoding": "inplace",
        "label": "uint256",
        "numberOfBytes": "32"
      }
    }
  }
}