{
  "address": "0xd4cAfE592Be189aeB7826ee5062B29405ee63488",
  "abi": [
    {
      "inputs": [
        {
          "internalType": "address",
          "name": "_dpx",
          "type": "address"
        },
        {
          "internalType": "address",
          "name": "_rdpx",
          "type": "address"
        },
        {
          "internalType": "address",
          "name": "_stakingRewards",
          "type": "address"
        },
        {
          "internalType": "address",
          "name": "_optionPricing",
          "type": "address"
        },
        {
          "internalType": "address",
          "name": "_rdpxPriceOracle",
          "type": "address"
        },
        {
          "internalType": "address",
          "name": "_volatilityOracle",
          "type": "address"
        },
        {
          "internalType": "address",
          "name": "_feeDistributor",
          "type": "address"
        },
        {
          "internalType": "address",
          "name": "_feeStrategy",
          "type": "address"
        }
      ],
      "stateMutability": "nonpayable",
      "type": "constructor"
    },
    {
      "anonymous": false,
      "inputs": [
        {
          "indexed": true,
          "internalType": "address",
          "name": "_contract",
          "type": "address"
        }
      ],
      "name": "AddToContractWhitelist",
      "type": "event"
    },
    {
      "anonymous": false,
      "inputs": [
        {
          "indexed": true,
          "internalType": "bytes32",
          "name": "name",
          "type": "bytes32"
        },
        {
          "indexed": true,
          "internalType": "address",
          "name": "destination",
          "type": "address"
        }
      ],
      "name": "AddressSet",
      "type": "event"
    },
    {
      "anonymous": false,
      "inputs": [
        {
          "indexed": false,
          "internalType": "uint256",
          "name": "epoch",
          "type": "uint256"
        }
      ],
      "name": "Bootstrap",
      "type": "event"
    },
    {
      "anonymous": false,
      "inputs": [
        {
          "indexed": false,
          "internalType": "uint256",
          "name": "epoch",
          "type": "uint256"
        },
        {
          "indexed": false,
          "internalType": "uint256",
          "name": "rewards",
          "type": "uint256"
        },
        {
          "indexed": false,
          "internalType": "uint256",
          "name": "oldBalance",
          "type": "uint256"
        },
        {
          "indexed": false,
          "internalType": "uint256",
          "name": "newBalance",
          "type": "uint256"
        }
      ],
      "name": "Compound",
      "type": "event"
    },
    {
      "anonymous": false,
      "inputs": [
        {
          "indexed": false,
          "internalType": "address",
          "name": "sender",
          "type": "address"
        },
        {
          "indexed": false,
          "internalType": "uint256",
          "name": "dpxWithdrawn",
          "type": "uint256"
        },
        {
          "indexed": false,
          "internalType": "uint256",
          "name": "rdpxWithdrawn",
          "type": "uint256"
        }
      ],
      "name": "EmergencyWithdraw",
      "type": "event"
    },
    {
      "anonymous": false,
      "inputs": [
        {
          "indexed": false,
          "internalType": "uint256",
          "name": "expireDelayTolerance",
          "type": "uint256"
        }
      ],
      "name": "ExpireDelayToleranceUpdate",
      "type": "event"
    },
    {
      "anonymous": false,
      "inputs": [
        {
          "indexed": false,
          "internalType": "uint256",
          "name": "epoch",
          "type": "uint256"
        },
        {
          "indexed": false,
          "internalType": "uint256",
          "name": "strike",
          "type": "uint256"
        },
        {
          "indexed": false,
          "internalType": "uint256",
          "name": "amount",
          "type": "uint256"
        },
        {
          "indexed": false,
          "internalType": "address",
          "name": "user",
          "type": "address"
        },
        {
          "indexed": false,
          "internalType": "address",
          "name": "sender",
          "type": "address"
        }
      ],
      "name": "NewDeposit",
      "type": "event"
    },
    {
      "anonymous": false,
      "inputs": [
        {
          "indexed": false,
          "internalType": "uint256",
          "name": "epoch",
          "type": "uint256"
        },
        {
          "indexed": false,
          "internalType": "uint256",
          "name": "strike",
          "type": "uint256"
        },
        {
          "indexed": false,
          "internalType": "uint256",
          "name": "amount",
          "type": "uint256"
        },
        {
          "indexed": false,
          "internalType": "uint256",
          "name": "premium",
          "type": "uint256"
        },
        {
          "indexed": false,
          "internalType": "uint256",
          "name": "fee",
          "type": "uint256"
        },
        {
          "indexed": false,
          "internalType": "address",
          "name": "user",
          "type": "address"
        },
        {
          "indexed": false,
          "internalType": "address",
          "name": "sender",
          "type": "address"
        }
      ],
      "name": "NewPurchase",
      "type": "event"
    },
    {
      "anonymous": false,
      "inputs": [
        {
          "indexed": false,
          "internalType": "uint256",
          "name": "epoch",
          "type": "uint256"
        },
        {
          "indexed": false,
          "internalType": "uint256",
          "name": "strike",
          "type": "uint256"
        },
        {
          "indexed": false,
          "internalType": "address",
          "name": "user",
          "type": "address"
        },
        {
          "indexed": false,
          "internalType": "uint256",
          "name": "amount",
          "type": "uint256"
        },
        {
          "indexed": false,
          "internalType": "uint256",
          "name": "pnl",
          "type": "uint256"
        }
      ],
      "name": "NewSettle",
      "type": "event"
    },
    {
      "anonymous": false,
      "inputs": [
        {
          "indexed": false,
          "internalType": "uint256",
          "name": "epoch",
          "type": "uint256"
        },
        {
          "indexed": false,
          "internalType": "uint256",
          "name": "strike",
          "type": "uint256"
        }
      ],
      "name": "NewStrike",
      "type": "event"
    },
    {
      "anonymous": false,
      "inputs": [
        {
          "indexed": false,
          "internalType": "uint256",
          "name": "epoch",
          "type": "uint256"
        },
        {
          "indexed": false,
          "internalType": "uint256",
          "name": "strike",
          "type": "uint256"
        },
        {
          "indexed": false,
          "internalType": "address",
          "name": "user",
          "type": "address"
        },
        {
          "indexed": false,
          "internalType": "uint256",
          "name": "amount",
          "type": "uint256"
        },
        {
          "indexed": false,
          "internalType": "uint256",
          "name": "rdpxAmount",
          "type": "uint256"
        }
      ],
      "name": "NewWithdraw",
      "type": "event"
    },
    {
      "anonymous": false,
      "inputs": [
        {
          "indexed": true,
          "internalType": "address",
          "name": "previousOwner",
          "type": "address"
        },
        {
          "indexed": true,
          "internalType": "address",
          "name": "newOwner",
          "type": "address"
        }
      ],
      "name": "OwnershipTransferred",
      "type": "event"
    },
    {
      "anonymous": false,
      "inputs": [
        {
          "indexed": false,
          "internalType": "address",
          "name": "account",
          "type": "address"
        }
      ],
      "name": "Paused",
      "type": "event"
    },
    {
      "anonymous": false,
      "inputs": [
        {
          "indexed": true,
          "internalType": "address",
          "name": "_contract",
          "type": "address"
        }
      ],
      "name": "RemoveFromContractWhitelist",
      "type": "event"
    },
    {
      "anonymous": false,
      "inputs": [
        {
          "indexed": false,
          "internalType": "address",
          "name": "account",
          "type": "address"
        }
      ],
      "name": "Unpaused",
      "type": "event"
    },
    {
      "inputs": [
        {
          "internalType": "address",
          "name": "_contract",
          "type": "address"
        }
      ],
      "name": "addToContractWhitelist",
      "outputs": [
        {
          "internalType": "bool",
          "name": "",
          "type": "bool"
        }
      ],
      "stateMutability": "nonpayable",
      "type": "function"
    },
    {
      "inputs": [
        {
          "internalType": "bytes32",
          "name": "",
          "type": "bytes32"
        }
      ],
      "name": "addresses",
      "outputs": [
        {
          "internalType": "address",
          "name": "",
          "type": "address"
        }
      ],
      "stateMutability": "view",
      "type": "function"
    },
    {
      "inputs": [],
      "name": "bootstrap",
      "outputs": [
        {
          "internalType": "bool",
          "name": "",
          "type": "bool"
        }
      ],
      "stateMutability": "nonpayable",
      "type": "function"
    },
    {
      "inputs": [
        {
          "internalType": "uint256",
          "name": "price",
          "type": "uint256"
        },
        {
          "internalType": "uint256",
          "name": "strike",
          "type": "uint256"
        },
        {
          "internalType": "uint256",
          "name": "amount",
          "type": "uint256"
        }
      ],
      "name": "calculatePnl",
      "outputs": [
        {
          "internalType": "uint256",
          "name": "",
          "type": "uint256"
        }
      ],
      "stateMutability": "pure",
      "type": "function"
    },
    {
      "inputs": [
        {
          "internalType": "uint256",
          "name": "_strike",
          "type": "uint256"
        },
        {
          "internalType": "uint256",
          "name": "_amount",
          "type": "uint256"
        }
      ],
      "name": "calculatePremium",
      "outputs": [
        {
          "internalType": "uint256",
          "name": "premium",
          "type": "uint256"
        }
      ],
      "stateMutability": "view",
      "type": "function"
    },
    {
      "inputs": [
        {
          "internalType": "uint256",
          "name": "price",
          "type": "uint256"
        },
        {
          "internalType": "uint256",
          "name": "strike",
          "type": "uint256"
        },
        {
          "internalType": "uint256",
          "name": "amount",
          "type": "uint256"
        }
      ],
      "name": "calculatePurchaseFees",
      "outputs": [
        {
          "internalType": "uint256",
          "name": "",
          "type": "uint256"
        }
      ],
      "stateMutability": "view",
      "type": "function"
    },
    {
      "inputs": [
        {
          "internalType": "uint256",
          "name": "settlementPrice",
          "type": "uint256"
        },
        {
          "internalType": "uint256",
          "name": "pnl",
          "type": "uint256"
        },
        {
          "internalType": "uint256",
          "name": "amount",
          "type": "uint256"
        }
      ],
      "name": "calculateSettlementFees",
      "outputs": [
        {
          "internalType": "uint256",
          "name": "",
          "type": "uint256"
        }
      ],
      "stateMutability": "view",
      "type": "function"
    },
    {
      "inputs": [],
      "name": "compound",
      "outputs": [
        {
          "internalType": "bool",
          "name": "",
          "type": "bool"
        }
      ],
      "stateMutability": "nonpayable",
      "type": "function"
    },
    {
      "inputs": [],
      "name": "currentEpoch",
      "outputs": [
        {
          "internalType": "uint256",
          "name": "",
          "type": "uint256"
        }
      ],
      "stateMutability": "view",
      "type": "function"
    },
    {
      "inputs": [
        {
          "internalType": "uint256",
          "name": "strikeIndex",
          "type": "uint256"
        },
        {
          "internalType": "uint256",
          "name": "amount",
          "type": "uint256"
        },
        {
          "internalType": "address",
          "name": "user",
          "type": "address"
        }
      ],
      "name": "deposit",
      "outputs": [
        {
          "internalType": "bool",
          "name": "",
          "type": "bool"
        }
      ],
      "stateMutability": "nonpayable",
      "type": "function"
    },
    {
      "inputs": [
        {
          "internalType": "uint256[]",
          "name": "strikeIndices",
          "type": "uint256[]"
        },
        {
          "internalType": "uint256[]",
          "name": "amounts",
          "type": "uint256[]"
        },
        {
          "internalType": "address",
          "name": "user",
          "type": "address"
        }
      ],
      "name": "depositMultiple",
      "outputs": [
        {
          "internalType": "bool",
          "name": "",
          "type": "bool"
        }
      ],
      "stateMutability": "nonpayable",
      "type": "function"
    },
    {
      "inputs": [],
      "name": "emergencyWithdraw",
      "outputs": [
        {
          "internalType": "bool",
          "name": "",
          "type": "bool"
        }
      ],
      "stateMutability": "nonpayable",
      "type": "function"
    },
    {
      "inputs": [
        {
          "internalType": "uint256",
          "name": "",
          "type": "uint256"
        }
      ],
      "name": "epochStartTimes",
      "outputs": [
        {
          "internalType": "uint256",
          "name": "",
          "type": "uint256"
        }
      ],
      "stateMutability": "view",
      "type": "function"
    },
    {
      "inputs": [
        {
          "internalType": "uint256",
          "name": "",
          "type": "uint256"
        },
        {
          "internalType": "uint256",
          "name": "",
          "type": "uint256"
        }
      ],
      "name": "epochStrikeTokens",
      "outputs": [
        {
          "internalType": "address",
          "name": "",
          "type": "address"
        }
      ],
      "stateMutability": "view",
      "type": "function"
    },
    {
      "inputs": [
        {
          "internalType": "uint256",
          "name": "",
          "type": "uint256"
        },
        {
          "internalType": "uint256",
          "name": "",
          "type": "uint256"
        }
      ],
      "name": "epochStrikes",
      "outputs": [
        {
          "internalType": "uint256",
          "name": "",
          "type": "uint256"
        }
      ],
      "stateMutability": "view",
      "type": "function"
    },
    {
      "inputs": [],
      "name": "erc20Implementation",
      "outputs": [
        {
          "internalType": "address",
          "name": "",
          "type": "address"
        }
      ],
      "stateMutability": "view",
      "type": "function"
    },
    {
      "inputs": [],
      "name": "expireDelayTolerance",
      "outputs": [
        {
          "internalType": "uint256",
          "name": "",
          "type": "uint256"
        }
      ],
      "stateMutability": "view",
      "type": "function"
    },
    {
      "inputs": [],
      "name": "expireEpoch",
      "outputs": [
        {
          "internalType": "bool",
          "name": "",
          "type": "bool"
        }
      ],
      "stateMutability": "nonpayable",
      "type": "function"
    },
    {
      "inputs": [
        {
          "internalType": "uint256",
          "name": "settlementPrice",
          "type": "uint256"
        }
      ],
      "name": "expireEpoch",
      "outputs": [
        {
          "internalType": "bool",
          "name": "",
          "type": "bool"
        }
      ],
      "stateMutability": "nonpayable",
      "type": "function"
    },
    {
      "inputs": [
        {
          "internalType": "bytes32",
          "name": "name",
          "type": "bytes32"
        }
      ],
      "name": "getAddress",
      "outputs": [
        {
          "internalType": "address",
          "name": "",
          "type": "address"
        }
      ],
      "stateMutability": "view",
      "type": "function"
    },
    {
      "inputs": [
        {
          "internalType": "uint256",
          "name": "epoch",
          "type": "uint256"
        }
      ],
      "name": "getEpochStrikeTokens",
      "outputs": [
        {
          "internalType": "address[]",
          "name": "",
          "type": "address[]"
        }
      ],
      "stateMutability": "view",
      "type": "function"
    },
    {
      "inputs": [
        {
          "internalType": "uint256",
          "name": "epoch",
          "type": "uint256"
        }
      ],
      "name": "getEpochStrikes",
      "outputs": [
        {
          "internalType": "uint256[]",
          "name": "",
          "type": "uint256[]"
        }
      ],
      "stateMutability": "view",
      "type": "function"
    },
    {
      "inputs": [
        {
          "internalType": "uint256",
          "name": "epoch",
          "type": "uint256"
        }
      ],
      "name": "getEpochTimes",
      "outputs": [
        {
          "internalType": "uint256",
          "name": "start",
          "type": "uint256"
        },
        {
          "internalType": "uint256",
          "name": "end",
          "type": "uint256"
        }
      ],
      "stateMutability": "view",
      "type": "function"
    },
    {
      "inputs": [
        {
          "internalType": "uint256",
          "name": "timestamp",
          "type": "uint256"
        }
      ],
      "name": "getMonthlyExpiryFromTimestamp",
      "outputs": [
        {
          "internalType": "uint256",
          "name": "",
          "type": "uint256"
        }
      ],
      "stateMutability": "pure",
      "type": "function"
    },
    {
      "inputs": [
        {
          "internalType": "uint256",
          "name": "epoch",
          "type": "uint256"
        }
      ],
      "name": "getTotalEpochCallsPurchased",
      "outputs": [
        {
          "internalType": "uint256[]",
          "name": "",
          "type": "uint256[]"
        }
      ],
      "stateMutability": "view",
      "type": "function"
    },
    {
      "inputs": [
        {
          "internalType": "uint256",
          "name": "epoch",
          "type": "uint256"
        }
      ],
      "name": "getTotalEpochPremium",
      "outputs": [
        {
          "internalType": "uint256[]",
          "name": "",
          "type": "uint256[]"
        }
      ],
      "stateMutability": "view",
      "type": "function"
    },
    {
      "inputs": [
        {
          "internalType": "uint256",
          "name": "epoch",
          "type": "uint256"
        }
      ],
      "name": "getTotalEpochStrikeDeposits",
      "outputs": [
        {
          "internalType": "uint256[]",
          "name": "",
          "type": "uint256[]"
        }
      ],
      "stateMutability": "view",
      "type": "function"
    },
    {
      "inputs": [],
      "name": "getUsdPrice",
      "outputs": [
        {
          "internalType": "uint256",
          "name": "",
          "type": "uint256"
        }
      ],
      "stateMutability": "view",
      "type": "function"
    },
    {
      "inputs": [
        {
          "internalType": "uint256",
          "name": "epoch",
          "type": "uint256"
        },
        {
          "internalType": "address",
          "name": "user",
          "type": "address"
        }
      ],
      "name": "getUserEpochCallsPurchased",
      "outputs": [
        {
          "internalType": "uint256[]",
          "name": "",
          "type": "uint256[]"
        }
      ],
      "stateMutability": "view",
      "type": "function"
    },
    {
      "inputs": [
        {
          "internalType": "uint256",
          "name": "epoch",
          "type": "uint256"
        },
        {
          "internalType": "address",
          "name": "user",
          "type": "address"
        }
      ],
      "name": "getUserEpochDeposits",
      "outputs": [
        {
          "internalType": "uint256[]",
          "name": "",
          "type": "uint256[]"
        }
      ],
      "stateMutability": "view",
      "type": "function"
    },
    {
      "inputs": [
        {
          "internalType": "uint256",
          "name": "epoch",
          "type": "uint256"
        },
        {
          "internalType": "address",
          "name": "user",
          "type": "address"
        }
      ],
      "name": "getUserEpochPremium",
      "outputs": [
        {
          "internalType": "uint256[]",
          "name": "",
          "type": "uint256[]"
        }
      ],
      "stateMutability": "view",
      "type": "function"
    },
    {
      "inputs": [
        {
          "internalType": "address",
          "name": "addr",
          "type": "address"
        }
      ],
      "name": "isContract",
      "outputs": [
        {
          "internalType": "bool",
          "name": "",
          "type": "bool"
        }
      ],
      "stateMutability": "view",
      "type": "function"
    },
    {
      "inputs": [
        {
          "internalType": "uint256",
          "name": "",
          "type": "uint256"
        }
      ],
      "name": "isEpochExpired",
      "outputs": [
        {
          "internalType": "bool",
          "name": "",
          "type": "bool"
        }
      ],
      "stateMutability": "view",
      "type": "function"
    },
    {
      "inputs": [
        {
          "internalType": "uint256",
          "name": "",
          "type": "uint256"
        }
      ],
      "name": "isVaultReady",
      "outputs": [
        {
          "internalType": "bool",
          "name": "",
          "type": "bool"
        }
      ],
      "stateMutability": "view",
      "type": "function"
    },
    {
      "inputs": [],
      "name": "owner",
      "outputs": [
        {
          "internalType": "address",
          "name": "",
          "type": "address"
        }
      ],
      "stateMutability": "view",
      "type": "function"
    },
    {
      "inputs": [],
      "name": "pause",
      "outputs": [
        {
          "internalType": "bool",
          "name": "",
          "type": "bool"
        }
      ],
      "stateMutability": "nonpayable",
      "type": "function"
    },
    {
      "inputs": [],
      "name": "paused",
      "outputs": [
        {
          "internalType": "bool",
          "name": "",
          "type": "bool"
        }
      ],
      "stateMutability": "view",
      "type": "function"
    },
    {
      "inputs": [
        {
          "internalType": "uint256",
          "name": "strikeIndex",
          "type": "uint256"
        },
        {
          "internalType": "uint256",
          "name": "amount",
          "type": "uint256"
        },
        {
          "internalType": "address",
          "name": "user",
          "type": "address"
        }
      ],
      "name": "purchase",
      "outputs": [
        {
          "internalType": "uint256",
          "name": "",
          "type": "uint256"
        },
        {
          "internalType": "uint256",
          "name": "",
          "type": "uint256"
        }
      ],
      "stateMutability": "nonpayable",
      "type": "function"
    },
    {
      "inputs": [
        {
          "internalType": "address",
          "name": "_contract",
          "type": "address"
        }
      ],
      "name": "removeFromContractWhitelist",
      "outputs": [
        {
          "internalType": "bool",
          "name": "",
          "type": "bool"
        }
      ],
      "stateMutability": "nonpayable",
      "type": "function"
    },
    {
      "inputs": [],
      "name": "renounceOwnership",
      "outputs": [],
      "stateMutability": "nonpayable",
      "type": "function"
    },
    {
      "inputs": [
        {
          "internalType": "bytes32[]",
          "name": "names",
          "type": "bytes32[]"
        },
        {
          "internalType": "address[]",
          "name": "destinations",
          "type": "address[]"
        }
      ],
      "name": "setAddresses",
      "outputs": [
        {
          "internalType": "bool",
          "name": "",
          "type": "bool"
        }
      ],
      "stateMutability": "nonpayable",
      "type": "function"
    },
    {
      "inputs": [
        {
          "internalType": "uint256[]",
          "name": "strikes",
          "type": "uint256[]"
        }
      ],
      "name": "setStrikes",
      "outputs": [
        {
          "internalType": "bool",
          "name": "",
          "type": "bool"
        }
      ],
      "stateMutability": "nonpayable",
      "type": "function"
    },
    {
      "inputs": [
        {
          "internalType": "uint256",
          "name": "strikeIndex",
          "type": "uint256"
        },
        {
          "internalType": "uint256",
          "name": "amount",
          "type": "uint256"
        },
        {
          "internalType": "uint256",
          "name": "epoch",
          "type": "uint256"
        }
      ],
      "name": "settle",
      "outputs": [
        {
          "internalType": "uint256",
          "name": "pnl",
          "type": "uint256"
        }
      ],
      "stateMutability": "nonpayable",
      "type": "function"
    },
    {
      "inputs": [
        {
          "internalType": "uint256",
          "name": "",
          "type": "uint256"
        }
      ],
      "name": "settlementPrices",
      "outputs": [
        {
          "internalType": "uint256",
          "name": "",
          "type": "uint256"
        }
      ],
      "stateMutability": "view",
      "type": "function"
    },
    {
      "inputs": [
        {
          "internalType": "uint256",
          "name": "",
          "type": "uint256"
        }
      ],
      "name": "totalEpochBalance",
      "outputs": [
        {
          "internalType": "uint256",
          "name": "",
          "type": "uint256"
        }
      ],
      "stateMutability": "view",
      "type": "function"
    },
    {
      "inputs": [
        {
          "internalType": "uint256",
          "name": "",
          "type": "uint256"
        },
        {
          "internalType": "uint256",
          "name": "",
          "type": "uint256"
        }
      ],
      "name": "totalEpochCallsPurchased",
      "outputs": [
        {
          "internalType": "uint256",
          "name": "",
          "type": "uint256"
        }
      ],
      "stateMutability": "view",
      "type": "function"
    },
    {
      "inputs": [
        {
          "internalType": "uint256",
          "name": "",
          "type": "uint256"
        }
      ],
      "name": "totalEpochDeposits",
      "outputs": [
        {
          "internalType": "uint256",
          "name": "",
          "type": "uint256"
        }
      ],
      "stateMutability": "view",
      "type": "function"
    },
    {
      "inputs": [
        {
          "internalType": "uint256",
          "name": "",
          "type": "uint256"
        },
        {
          "internalType": "uint256",
          "name": "",
          "type": "uint256"
        }
      ],
      "name": "totalEpochPremium",
      "outputs": [
        {
          "internalType": "uint256",
          "name": "",
          "type": "uint256"
        }
      ],
      "stateMutability": "view",
      "type": "function"
    },
    {
      "inputs": [
        {
          "internalType": "uint256",
          "name": "",
          "type": "uint256"
        },
        {
          "internalType": "uint256",
          "name": "",
          "type": "uint256"
        }
      ],
      "name": "totalEpochStrikeBalance",
      "outputs": [
        {
          "internalType": "uint256",
          "name": "",
          "type": "uint256"
        }
      ],
      "stateMutability": "view",
      "type": "function"
    },
    {
      "inputs": [
        {
          "internalType": "uint256",
          "name": "",
          "type": "uint256"
        },
        {
          "internalType": "uint256",
          "name": "",
          "type": "uint256"
        }
      ],
      "name": "totalEpochStrikeDeposits",
      "outputs": [
        {
          "internalType": "uint256",
          "name": "",
          "type": "uint256"
        }
      ],
      "stateMutability": "view",
      "type": "function"
    },
    {
      "inputs": [
        {
          "internalType": "uint256",
          "name": "",
          "type": "uint256"
        },
        {
          "internalType": "uint256",
          "name": "",
          "type": "uint256"
        }
      ],
      "name": "totalEpochStrikeDpxBalance",
      "outputs": [
        {
          "internalType": "uint256",
          "name": "",
          "type": "uint256"
        }
      ],
      "stateMutability": "view",
      "type": "function"
    },
    {
      "inputs": [
        {
          "internalType": "uint256",
          "name": "",
          "type": "uint256"
        },
        {
          "internalType": "uint256",
          "name": "",
          "type": "uint256"
        }
      ],
      "name": "totalEpochStrikeRdpxBalance",
      "outputs": [
        {
          "internalType": "uint256",
          "name": "",
          "type": "uint256"
        }
      ],
      "stateMutability": "view",
      "type": "function"
    },
    {
      "inputs": [
        {
          "internalType": "address",
          "name": "newOwner",
          "type": "address"
        }
      ],
      "name": "transferOwnership",
      "outputs": [],
      "stateMutability": "nonpayable",
      "type": "function"
    },
    {
      "inputs": [],
      "name": "unpause",
      "outputs": [
        {
          "internalType": "bool",
          "name": "",
          "type": "bool"
        }
      ],
      "stateMutability": "nonpayable",
      "type": "function"
    },
    {
      "inputs": [
        {
          "internalType": "uint256",
          "name": "_expireDelayTolerance",
          "type": "uint256"
        }
      ],
      "name": "updateExpireDelayTolerance",
      "outputs": [
        {
          "internalType": "bool",
          "name": "",
          "type": "bool"
        }
      ],
      "stateMutability": "nonpayable",
      "type": "function"
    },
    {
      "inputs": [
        {
          "internalType": "uint256",
          "name": "",
          "type": "uint256"
        },
        {
          "internalType": "bytes32",
          "name": "",
          "type": "bytes32"
        }
      ],
      "name": "userEpochCallsPurchased",
      "outputs": [
        {
          "internalType": "uint256",
          "name": "",
          "type": "uint256"
        }
      ],
      "stateMutability": "view",
      "type": "function"
    },
    {
      "inputs": [
        {
          "internalType": "uint256",
          "name": "",
          "type": "uint256"
        },
        {
          "internalType": "bytes32",
          "name": "",
          "type": "bytes32"
        }
      ],
      "name": "userEpochDeposits",
      "outputs": [
        {
          "internalType": "uint256",
          "name": "",
          "type": "uint256"
        }
      ],
      "stateMutability": "view",
      "type": "function"
    },
    {
      "inputs": [
        {
          "internalType": "uint256",
          "name": "",
          "type": "uint256"
        },
        {
          "internalType": "bytes32",
          "name": "",
          "type": "bytes32"
        }
      ],
      "name": "userEpochPremium",
      "outputs": [
        {
          "internalType": "uint256",
          "name": "",
          "type": "uint256"
        }
      ],
      "stateMutability": "view",
      "type": "function"
    },
    {
      "inputs": [
        {
          "internalType": "address",
          "name": "",
          "type": "address"
        }
      ],
      "name": "whitelistedContracts",
      "outputs": [
        {
          "internalType": "bool",
          "name": "",
          "type": "bool"
        }
      ],
      "stateMutability": "view",
      "type": "function"
    },
    {
      "inputs": [
        {
          "internalType": "uint256",
          "name": "withdrawEpoch",
          "type": "uint256"
        },
        {
          "internalType": "uint256",
          "name": "strikeIndex",
          "type": "uint256"
        }
      ],
      "name": "withdraw",
      "outputs": [
        {
          "internalType": "uint256[2]",
          "name": "",
          "type": "uint256[2]"
        }
      ],
      "stateMutability": "nonpayable",
      "type": "function"
    }
  ],
  "transactionHash": "0x755edae0f207b3913541a315403d13945d7302465dfbf647f14a8bb8b0a8e07c",
  "args": [
    "0x6c2c06790b3e3e3c38e12ee22f8183b37a13ee55",
    "0x32eb7902d4134bf98a28b963d26de779af92a212",
    "0x8d481245801907b45823Fb032E6848d0D3c29AE5",
    "0x2b99e3d67dad973c1b9747da742b7e26c8bdd67b",
    "0xC0cdD1176aA1624b89B7476142b41C04414afaa0",
    "0x3E0215c1D639280e13B46e3aF94Fb5630d1b3212",
    "0x55594cCe8cC0014eA08C49fd820D731308f204c1",
    "0x3F3c58CCb0655Fa9161D0B4B49B217b3f6478D5A"
  ],
  "numDeployments": 1,
  "solcInputHash": "118674dca89dafb49c04a85e5dbb593b",
  "bytecode": "0x60a060405261012c6004553480156200001757600080fd5b5060405162007db538038062007db58339810160408190526200003a9162000832565b6200004533620003ee565b6002805460ff191690556001600160a01b038816620000905760405162461bcd60e51b8152602060048201526002602482015261453160f01b60448201526064015b60405180910390fd5b6001600160a01b038716620000cd5760405162461bcd60e51b8152602060048201526002602482015261453160f01b604482015260640162000087565b6001600160a01b0386166200010a5760405162461bcd60e51b8152602060048201526002602482015261453160f01b604482015260640162000087565b6001600160a01b038516620001475760405162461bcd60e51b8152602060048201526002602482015261453160f01b604482015260640162000087565b6001600160a01b038416620001845760405162461bcd60e51b8152602060048201526002602482015261453160f01b604482015260640162000087565b6001600160a01b038116620001c15760405162461bcd60e51b8152602060048201526002602482015261453160f01b604482015260640162000087565b60056020527fccc88b330c22465d54da85345ca7fd42d1073ea97c5696e33432b63c081923d980546001600160a01b03199081166001600160a01b03858116919091179092557f7fb289d74e89aa951d6df036f505e04569b46feac2c37a0db801b8f4a2d8c930805482168b841617905560008051602062007d75833981519152805482168a841617905560008051602062007d95833981519152805482168984161790557fa34895bf08a03c19903f153b83bd840ec96aae5ac855d19e36ace94ce537d650805482168884161790557f20c17b37c5ab78def72d8ce7ce366f23eec10bf6eeb6bc6d80495dfa53ea5057805482168784161790557f6c8d5cbdd8e467916e2737c29f79ca89a665f8bae1b1f2a63b3c4bff7df8a435805482168684161790557fc1b1ed1d0373551f5ac3de995f6231e27485d5ffed3b3270cbdd6ba32f9ee874805482169284169290921790915569476f7665726e616e636560b01b6000527fa3c20e4cfcdbe0796697a05f5cc56e3d568bc2f08a21308461ccefe56b2fecb58054339216919091179055604051620003619062000807565b604051809103906000f0801580156200037e573d6000803e3d6000fd5b506001600160a01b039081166080526005602090815260008051602062007d9583398151915254630e488a0b60e31b60005260008051602062007d7583398151915254620003e0939081169291169060001990620039c46200043e821b17901c565b50505050505050506200099e565b600080546001600160a01b038381166001600160a01b0319831681178455604051919092169283917f8be0079c531659141344cd1fd0a4f28419497f9722a3daafe3b4186f6b6457e09190a35050565b801580620004cc5750604051636eb1769f60e11b81523060048201526001600160a01b03838116602483015284169063dd62ed3e9060440160206040518083038186803b1580156200048f57600080fd5b505afa158015620004a4573d6000803e3d6000fd5b505050506040513d601f19601f82011682018060405250810190620004ca9190620008da565b155b620005405760405162461bcd60e51b815260206004820152603660248201527f5361666545524332303a20617070726f76652066726f6d206e6f6e2d7a65726f60448201527f20746f206e6f6e2d7a65726f20616c6c6f77616e636500000000000000000000606482015260840162000087565b604080516001600160a01b038416602482015260448082018490528251808303909101815260649091019091526020810180516001600160e01b0390811663095ea7b360e01b17909152620005989185916200059d16565b505050565b6000620005f9826040518060400160405280602081526020017f5361666545524332303a206c6f772d6c6576656c2063616c6c206661696c6564815250856001600160a01b03166200067b60201b62003b20179092919060201c565b8051909150156200059857808060200190518101906200061a9190620008f4565b620005985760405162461bcd60e51b815260206004820152602a60248201527f5361666545524332303a204552433230206f7065726174696f6e20646964206e6044820152691bdd081cdd58d8d9595960b21b606482015260840162000087565b60606200068c848460008562000696565b90505b9392505050565b606082471015620006f95760405162461bcd60e51b815260206004820152602660248201527f416464726573733a20696e73756666696369656e742062616c616e636520666f6044820152651c8818d85b1b60d21b606482015260840162000087565b843b620007495760405162461bcd60e51b815260206004820152601d60248201527f416464726573733a2063616c6c20746f206e6f6e2d636f6e7472616374000000604482015260640162000087565b600080866001600160a01b031685876040516200076791906200094b565b60006040518083038185875af1925050503d8060008114620007a6576040519150601f19603f3d011682016040523d82523d6000602084013e620007ab565b606091505b509092509050620007be828286620007c9565b979650505050505050565b60608315620007da5750816200068f565b825115620007eb5782518084602001fd5b8160405162461bcd60e51b815260040162000087919062000969565b611ed68062005e9f83390190565b80516001600160a01b03811681146200082d57600080fd5b919050565b600080600080600080600080610100898b0312156200085057600080fd5b6200085b8962000815565b97506200086b60208a0162000815565b96506200087b60408a0162000815565b95506200088b60608a0162000815565b94506200089b60808a0162000815565b9350620008ab60a08a0162000815565b9250620008bb60c08a0162000815565b9150620008cb60e08a0162000815565b90509295985092959890939650565b600060208284031215620008ed57600080fd5b5051919050565b6000602082840312156200090757600080fd5b815180151581146200068f57600080fd5b60005b83811015620009355781810151838201526020016200091b565b8381111562000945576000848401525b50505050565b600082516200095f81846020870162000918565b9190910192915050565b60208152600082518060208401526200098a81604085016020870162000918565b601f01601f19169190910160400192915050565b6080516154de620009c16000396000818161075a015261382601526154de6000f3fe608060405234801561001057600080fd5b50600436106103a35760003560e01c80638456cb59116101e9578063c300fd641161010f578063ea3bd5df116100ad578063f69e20461161007c578063f69e204614610971578063f6ac848814610979578063f72bf8fe1461098c578063fb969b0a1461099f57600080fd5b8063ea3bd5df1461090d578063ec85681614610920578063f2fde38b14610933578063f306694a1461094657600080fd5b8063d3e3e352116100e9578063d3e3e352146108bf578063d7e15131146108d2578063db2e21bc146108f2578063e8468ee4146108fa57600080fd5b8063c300fd6414610886578063c3d9ed3914610899578063cd653df6146108ac57600080fd5b806393c82c7511610187578063acc3a00611610156578063acc3a006146107f2578063b0f48cf714610805578063b12daf6914610830578063bf434b7a1461085b57600080fd5b806393c82c751461077c5780639bbce4781461079f578063a6fe2b9e146107bf578063ab2150cf146107df57600080fd5b80638da5cb5b116101c35780638da5cb5b1461071e5780638dbdbe6d1461072f5780638e143ccb14610742578063901be0411461075557600080fd5b80638456cb59146106d857806388e18e13146106e05780638990d045146106f357600080fd5b80635ba0bee1116102ce5780636db29f6d1161026c578063781ed9781161023b578063781ed978146106675780637e36701f146106925780638144eeba146106a5578063823c1512146106b857600080fd5b80636db29f6d146106245780636f56f56f1461062c578063715018a614610654578063766718081461065e57600080fd5b806361644373116102a857806361644373146105cc5780636274d49d146105d5578063699f200f146105e85780636a7784541461061157600080fd5b80635ba0bee1146105835780635c975abb146105ae57806361560c99146105b957600080fd5b8063344afb5f11610346578063441a3e7011610315578063441a3e7014610509578063470f4224146105295780634ab01f5b1461055d578063574cdded1461057057600080fd5b8063344afb5f1461049b578063391feebb146104bb5780633f4ba83a146104de5780633f83b8a5146104e657600080fd5b80631acf5582116103825780631acf55821461041257806321f8a7211461041a5780632807b9a8146104455780632dc96c8e1461047057600080fd5b806212100c146103a857806315943b99146103ce57806316279055146103ee575b600080fd5b6103bb6103b6366004614c42565b6109a7565b6040519081526020015b60405180910390f35b6103e16103dc366004614c64565b610b1b565b6040516103c59190614c7d565b6104026103fc366004614cd8565b3b151590565b60405190151581526020016103c5565b6103bb610ba8565b61042d610428366004614c64565b610c3a565b6040516001600160a01b0390911681526020016103c5565b6103bb610453366004614c42565b601360209081526000928352604080842090915290825290205481565b6103bb61047e366004614c42565b601060209081526000928352604080842090915290825290205481565b6103bb6104a9366004614c64565b600e6020526000908152604090205481565b6104026104c9366004614cd8565b60016020526000908152604090205460ff1681565b610402610c55565b6104026104f4366004614c64565b60086020526000908152604090205460ff1681565b61051c610517366004614c42565b610cab565b6040516103c59190614cf3565b61042d610537366004614c42565b600a6020908152600092835260408084209091529082529020546001600160a01b031681565b61040261056b366004614d6f565b610fa5565b6103bb61057e366004614dda565b6110cc565b6103bb610591366004614c42565b601560209081526000928352604080842090915290825290205481565b60025460ff16610402565b6103e16105c7366004614e06565b611480565b6103bb60045481565b6103e16105e3366004614e06565b6115b4565b61042d6105f6366004614c64565b6005602052600090815260409020546001600160a01b031681565b6103e161061f366004614c64565b6116de565b6104026117df565b61063f61063a366004614c64565b611941565b604080519283526020830191909152016103c5565b61065c611987565b005b6103bb60035481565b6103bb610675366004614c42565b601160209081526000928352604080842090915290825290205481565b6103bb6106a0366004614c42565b6119bd565b6104026106b3366004614ed7565b6119ee565b6106cb6106c6366004614c64565b611ab8565b6040516103c59190614f4a565b610402611bd0565b6103bb6106ee366004614dda565b611c2a565b6103bb610701366004614c42565b600f60209081526000928352604080842090915290825290205481565b6000546001600160a01b031661042d565b61040261073d366004614f8b565b611c46565b6103bb610750366004614c64565b611fc2565b61042d7f000000000000000000000000000000000000000000000000000000000000000081565b61040261078a366004614c64565b60076020526000908152604090205460ff1681565b6103bb6107ad366004614c64565b60166020526000908152604090205481565b6103bb6107cd366004614c64565b60066020526000908152604090205481565b6104026107ed366004614c64565b6120f6565b610402610800366004614cd8565b61217f565b6103bb610813366004614c42565b601460209081526000928352604080842090915290825290205481565b6103bb61083e366004614c42565b600b60209081526000928352604080842090915290825290205481565b6103bb610869366004614c42565b601260209081526000928352604080842090915290825290205481565b6103e1610894366004614c64565b6122eb565b6104026108a7366004614cd8565b6123e3565b6103e16108ba366004614c64565b6124ad565b6104026108cd366004614fb7565b6125a5565b6103bb6108e0366004614c64565b600c6020526000908152604090205481565b610402612748565b6103bb610908366004614dda565b61296f565b61063f61091b366004614f8b565b612a11565b6103e161092e366004614e06565b612e64565b61065c610941366004614cd8565b612f8e565b6103bb610954366004614c42565b600d60209081526000928352604080842090915290825290205481565b610402613029565b610402610987366004614c64565b6134ac565b6103bb61099a366004614dda565b6135de565b610402613634565b6000806109b2610ba8565b905080836109cf6c4f7074696f6e50726963696e6760981b610c3a565b6001600160a01b0316635b7b6d8860006109e842611fc2565b8987610a066f566f6c6174696c6974794f7261636c6560801b610c3a565b6001600160a01b0316633af2888b6040518163ffffffff1660e01b815260040160206040518083038186803b158015610a3e57600080fd5b505afa158015610a52573d6000803e3d6000fd5b505050506040513d601f19601f82011682018060405250810190610a769190614feb565b6040516001600160e01b031960e088901b1681529415156004860152602485019390935260448401919091526064830152608482015260a40160206040518083038186803b158015610ac757600080fd5b505afa158015610adb573d6000803e3d6000fd5b505050506040513d601f19601f82011682018060405250810190610aff9190614feb565b610b09919061501a565b610b13919061504f565b949350505050565b60608160008111610b475760405162461bcd60e51b8152600401610b3e90615063565b60405180910390fd5b60008381526009602090815260409182902080548351818402810184019094528084529091830182828015610b9b57602002820191906000526020600020905b815481526020019060010190808311610b87575b5050505050915050919050565b6000610bc56e5264707850726963654f7261636c6560881b610c3a565b6001600160a01b031663e1aa60366040518163ffffffff1660e01b815260040160206040518083038186803b158015610bfd57600080fd5b505afa158015610c11573d6000803e3d6000fd5b505050506040513d601f19601f82011682018060405250810190610c359190614feb565b905090565b6000908152600560205260409020546001600160a01b031690565b6000610c6d69476f7665726e616e636560b01b610c3a565b6001600160a01b0316336001600160a01b031614610c9d5760405162461bcd60e51b8152600401610b3e90615080565b610ca5613b2f565b50600190565b610cb3614bc4565b60025460ff1615610cd65760405162461bcd60e51b8152600401610b3e9061509d565b333b15610d0c573360009081526001602052604090205460ff16610d0c5760405162461bcd60e51b8152600401610b3e906150c7565b60008381526007602052604090205460ff16610d505760405162461bcd60e51b815260206004820152600360248201526245313760e81b6044820152606401610b3e565b6000838152600960205260409020548210610d7d5760405162461bcd60e51b8152600401610b3e90615116565b6000838152600960205260408120805484908110610d9d57610d9d615133565b906000526020600020015490508060001415610dcb5760405162461bcd60e51b8152600401610b3e90615149565b60003382604051602001610de0929190615166565b60408051601f1981840301815291815281516020928301206000888152600f845282812082825290935291205490915080610e435760405162461bcd60e51b815260206004820152600360248201526208a62760eb1b6044820152606401610b3e565b6000610e55630e488a0b60e31b610c3a565b6000888152600b602090815260408083208884528252808320548b8452601083528184208985529092528220549293509091610e9290859061501a565b610e9c919061504f565b90506000610eaf62088a0b60eb1b610c3a565b60008a8152600b602090815260408083208a84528252808320548d8452601183528184208b85529092528220549293509091610eec90879061501a565b610ef6919061504f565b60008b8152600f602090815260408083208a84529091528120559050610f266001600160a01b0385163385613bc2565b610f3a6001600160a01b0383163383613bc2565b604080518b8152602081018990523381830152606081018790526080810185905290517fbe7586dfb192ca07af28bcc9fc95e78619abff84853e614ba95a4864e955c5929181900360a00190a160408051808201909152928352602083015250979650505050505050565b600080546001600160a01b03163314610fd05760405162461bcd60e51b8152600401610b3e90615188565b8382146110045760405162461bcd60e51b8152602060048201526002602482015261229960f11b6044820152606401610b3e565b60005b848110156110c057600086868381811061102357611023615133565b905060200201359050600085858481811061104057611040615133565b90506020020160208101906110559190614cd8565b60008381526005602052604080822080546001600160a01b0319166001600160a01b03851690811790915590519293509184917fb37614c7d254ea8d16eb81fa11dddaeb266aa8ba4917980859c7740aff30c69191a3505080806110b8906151bd565b915050611007565b50600195945050505050565b60006110da60025460ff1690565b156110f75760405162461bcd60e51b8152600401610b3e9061509d565b333b1561112d573360009081526001602052604090205460ff1661112d5760405162461bcd60e51b8152600401610b3e906150c7565b60008281526007602052604090205460ff166111715760405162461bcd60e51b815260206004820152600360248201526245313760e81b6044820152606401610b3e565b600082815260096020526040902054841061119e5760405162461bcd60e51b8152600401610b3e90615116565b600083116111be5760405162461bcd60e51b8152600401610b3e906151d8565b60008281526009602052604081208054869081106111de576111de615133565b90600052602060002001549050806000141561120c5760405162461bcd60e51b8152600401610b3e90615149565b6000838152600a60209081526040808320848452909152908190205490516370a0823160e01b815233600482015285916001600160a01b0316906370a082319060240160206040518083038186803b15801561126757600080fd5b505afa15801561127b573d6000803e3d6000fd5b505050506040513d601f19601f8201168201806040525081019061129f9190614feb565b10156112d35760405162461bcd60e51b815260206004820152600360248201526222989b60e91b6044820152606401610b3e565b6000838152601660205260409020546112ed908286611c2a565b6000848152601660205260408120549193509061130b9084876135de565b9050600061131f630e488a0b60e31b610c3a565b9050600084116113575760405162461bcd60e51b815260206004820152600360248201526245313560e81b6044820152606401610b3e565b6000858152600a602090815260408083208684529091529081902054905163079cc67960e41b8152336004820152602481018890526001600160a01b03909116906379cc679090604401600060405180830381600087803b1580156113bb57600080fd5b505af11580156113cf573d6000803e3d6000fd5b50505050600082111561140a5761140a6113f96d2332b2a234b9ba3934b13aba37b960911b610c3a565b6001600160a01b0383169084613bc2565b6114293361141884876151f5565b6001600160a01b0384169190613bc2565b60408051868152602081018590523381830152606081018890526080810186905290517f170d93e3a85ba1c08f72d2c0ebd8835178a9b9f444c318ab404506c743d925bd9181900360a00190a15050509392505050565b606082600081116114a35760405162461bcd60e51b8152600401610b3e90615063565b60008481526009602052604081205490816001600160401b038111156114cb576114cb614e32565b6040519080825280602002602001820160405280156114f4578160200160208202803683370190505b50905060005b828110156115aa57600087815260096020526040812080548390811061152257611522615133565b9060005260206000200154905060008782604051602001611544929190615166565b60408051601f19818403018152918152815160209283012060008c81526015845282812082825290935291205485519192509085908590811061158957611589615133565b602002602001018181525050505080806115a2906151bd565b9150506114fa565b5095945050505050565b606082600081116115d75760405162461bcd60e51b8152600401610b3e90615063565b60008481526009602052604081205490816001600160401b038111156115ff576115ff614e32565b604051908082528060200260200182016040528015611628578160200160208202803683370190505b50905060005b828110156115aa57600087815260096020526040812080548390811061165657611656615133565b9060005260206000200154905060008782604051602001611678929190615166565b60408051601f19818403018152918152815160209283012060008c8152600f84528281208282529093529120548551919250908590859081106116bd576116bd615133565b602002602001018181525050505080806116d6906151bd565b91505061162e565b606081600081116117015760405162461bcd60e51b8152600401610b3e90615063565b60008381526009602052604081205490816001600160401b0381111561172957611729614e32565b604051908082528060200260200182016040528015611752578160200160208202803683370190505b50905060005b828110156117d65760008681526012602090815260408083206009909252822080549192918490811061178d5761178d615133565b90600052602060002001548152602001908152602001600020548282815181106117b9576117b9615133565b6020908102919091010152806117ce816151bd565b915050611758565b50949350505050565b60006117ed60025460ff1690565b1561180a5760405162461bcd60e51b8152600401610b3e9061509d565b333b15611840573360009081526001602052604090205460ff166118405760405162461bcd60e51b8152600401610b3e906150c7565b60035460009081526007602052604090205460ff16156118725760405162461bcd60e51b8152600401610b3e9061520c565b600061187f600354611941565b915050804210156118b75760405162461bcd60e51b8152602060048201526002602482015261114d60f21b6044820152606401610b3e565b6004546118c49082615228565b4211156118f95760405162461bcd60e51b815260206004820152600360248201526245323360e81b6044820152606401610b3e565b611901610ba8565b60035460009081526016602052604090205561191d6001613bf2565b50506003546000908152600760205260409020805460ff1916600190811790915590565b60008082600081116119655760405162461bcd60e51b8152600401610b3e90615063565b60008481526006602052604090205461197d81611fc2565b9250925050915091565b6000546001600160a01b031633146119b15760405162461bcd60e51b8152600401610b3e90615188565b6119bb600061434d565b565b600960205281600052604060002081815481106119d957600080fd5b90600052602060002001600091509150505481565b60006119fc60025460ff1690565b15611a195760405162461bcd60e51b8152600401610b3e9061509d565b8251845114611a4f5760405162461bcd60e51b8152602060048201526002602482015261229960f11b6044820152606401610b3e565b60005b8451811015611aab57611a98858281518110611a7057611a70615133565b6020026020010151858381518110611a8a57611a8a615133565b602002602001015185611c46565b5080611aa3816151bd565b915050611a52565b50600190505b9392505050565b60608160008111611adb5760405162461bcd60e51b8152600401610b3e90615063565b60008381526009602052604081205490816001600160401b03811115611b0357611b03614e32565b604051908082528060200260200182016040528015611b2c578160200160208202803683370190505b50905060005b828110156117d6576000868152600a6020908152604080832060099092528220805491929184908110611b6757611b67615133565b9060005260206000200154815260200190815260200160002060009054906101000a90046001600160a01b0316828281518110611ba657611ba6615133565b6001600160a01b039092166020928302919091019091015280611bc8816151bd565b915050611b32565b6000611be869476f7665726e616e636560b01b610c3a565b6001600160a01b0316336001600160a01b031614611c185760405162461bcd60e51b8152600401610b3e90615080565b611c2061439d565b610ca56000613bf2565b6000828411611c3a576000610b13565b8382610aff85836151f5565b6000611c5460025460ff1690565b15611c715760405162461bcd60e51b8152600401610b3e9061509d565b333b15611ca7573360009081526001602052604090205460ff16611ca75760405162461bcd60e51b8152600401610b3e906150c7565b60006003546001611cb89190615228565b60035490915015611d255760035460009081526007602052604090205460ff168015611cf3575060008181526008602052604090205460ff16155b611d255760405162461bcd60e51b815260206004820152600360248201526245313960e81b6044820152606401610b3e565b6000818152600960205260409020548510611d525760405162461bcd60e51b8152600401610b3e90615116565b60008411611d725760405162461bcd60e51b8152600401610b3e906151d8565b6000818152600960205260408120805487908110611d9257611d92615133565b906000526020600020015490508060001415611dc05760405162461bcd60e51b8152600401610b3e90615149565b60008482604051602001611dd5929190615166565b604051602081830303815290604052805190602001209050611e14333088611e03630e488a0b60e31b610c3a565b6001600160a01b03169291906143f5565b6000838152600f6020908152604080832084845290915281208054889290611e3d908490615228565b90915550506000838152600b6020908152604080832085845290915281208054889290611e6b908490615228565b90915550506000838152600c602052604081208054889290611e8e908490615228565b90915550506000838152600d6020908152604080832085845290915281208054889290611ebc908490615228565b90915550506000838152600e602052604081208054889290611edf908490615228565b90915550611eff90506d5374616b696e675265776172647360901b610c3a565b6001600160a01b031663a694fc3a876040518263ffffffff1660e01b8152600401611f2c91815260200190565b600060405180830381600087803b158015611f4657600080fd5b505af1158015611f5a573d6000803e3d6000fd5b505060408051868152602081018690529081018990526001600160a01b03881660608201523360808201527fcaa9001342572663a8f7c22e7c6f0331a45254407418d9f993ed2d1485adc205925060a001905060405180910390a15060019695505050505050565b600080611fec611fd184614433565b611fda85614453565b611fe5906001615228565b600061446d565b90506005611ff982614488565b10156120315761202e61200b82614433565b61201483614453565b600761201f856144bc565b61202991906151f5565b61446d565b90505b600061207961203f83614433565b61204884614453565b61205185614488565b61205a866144bc565b612065906005615228565b61206f91906151f5565b60086000806144ce565b9050838111611ab15760006120a461209086614433565b61209987614453565b611fe5906002615228565b905060056120b182614488565b10156120c6576120c361200b82614433565b90505b6120ed6120d282614433565b6120db83614453565b6120e484614488565b61205a856144bc565b95945050505050565b600061210e69476f7665726e616e636560b01b610c3a565b6001600160a01b0316336001600160a01b03161461213e5760405162461bcd60e51b8152600401610b3e90615080565b60048290556040518281527f5259439c9ac2029585dd4a349897aa1e8298d26537c3b57453f275126db919189060200160405180910390a15060015b919050565b600080546001600160a01b031633146121aa5760405162461bcd60e51b8152600401610b3e90615188565b813b6122165760405162461bcd60e51b815260206004820152603560248201527f436f6e747261637457686974656c6973743a2041646472657373206d757374206044820152746265206120636f6e7472616374206164647265737360581b6064820152608401610b3e565b6001600160a01b03821660009081526001602052604090205460ff16156122975760405162461bcd60e51b815260206004820152602f60248201527f436f6e747261637457686974656c6973743a20436f6e747261637420616c726560448201526e18591e481dda1a5d195b1a5cdd1959608a1b6064820152608401610b3e565b6001600160a01b0382166000818152600160208190526040808320805460ff1916909217909155517ffbd3cde7ff522a917e485c8ed2a6e87590887ab399f5ac312307903f498543079190a2506001919050565b6060816000811161230e5760405162461bcd60e51b8152600401610b3e90615063565b60008381526009602052604081205490816001600160401b0381111561233657612336614e32565b60405190808252806020026020018201604052801561235f578160200160208202803683370190505b50905060005b828110156117d6576000868152600b602090815260408083206009909252822080549192918490811061239a5761239a615133565b90600052602060002001548152602001908152602001600020548282815181106123c6576123c6615133565b6020908102919091010152806123db816151bd565b915050612365565b6001600160a01b03811660009081526001602052604081205460ff1661245f5760405162461bcd60e51b815260206004820152602b60248201527f436f6e747261637457686974656c6973743a20436f6e7472616374206e6f742060448201526a1dda1a5d195b1a5cdd195960aa1b6064820152608401610b3e565b6001600160a01b038216600081815260016020526040808220805460ff19169055517f8e81447740597754af5db3e176253a36f7981a9549f48ace3f0cb233913f9d859190a2506001919050565b606081600081116124d05760405162461bcd60e51b8152600401610b3e90615063565b60008381526009602052604081205490816001600160401b038111156124f8576124f8614e32565b604051908082528060200260200182016040528015612521578160200160208202803683370190505b50905060005b828110156117d65760008681526014602090815260408083206009909252822080549192918490811061255c5761255c615133565b906000526020600020015481526020019081526020016000205482828151811061258857612588615133565b60209081029190910101528061259d816151bd565b915050612527565b600080546001600160a01b031633146125d05760405162461bcd60e51b8152600401610b3e90615188565b60025460ff16156125f35760405162461bcd60e51b8152600401610b3e9061509d565b600060035460016126049190615228565b6000818152600c6020526040902054909150156126485760405162461bcd60e51b815260206004820152600260248201526108a760f31b6044820152606401610b3e565b6003541561269657600061265d600354611941565b9150508042116126945760405162461bcd60e51b8152602060048201526002602482015261453960f01b6044820152606401610b3e565b505b600081815260096020908152604090912084516126b592860190614be2565b5060008181526006602052604081204290555b835181101561273e577f5185be10ef2a03e926961817be495a630ded54bceffb3ba11f6af477c9c766828285838151811061270557612705615133565b6020026020010151604051612724929190918252602082015260400190565b60405180910390a180612736816151bd565b9150506126c8565b5060019392505050565b600061276069476f7665726e616e636560b01b610c3a565b6001600160a01b0316336001600160a01b0316146127905760405162461bcd60e51b8152600401610b3e90615080565b60025460ff166127d95760405162461bcd60e51b815260206004820152601460248201527314185d5cd8589b194e881b9bdd081c185d5cd95960621b6044820152606401610b3e565b60006127ea62088a0b60eb1b610c3a565b905060006127fe630e488a0b60e31b610c3a565b6040516370a0823160e01b81523060048201529091506000906001600160a01b038416906370a082319060240160206040518083038186803b15801561284357600080fd5b505afa158015612857573d6000803e3d6000fd5b505050506040513d601f19601f8201168201806040525081019061287b9190614feb565b6040516370a0823160e01b81523060048201529091506000906001600160a01b038416906370a082319060240160206040518083038186803b1580156128c057600080fd5b505afa1580156128d4573d6000803e3d6000fd5b505050506040513d601f19601f820116820180604052508101906128f89190614feb565b905061290e6001600160a01b0385163384613bc2565b6129226001600160a01b0384163383613bc2565b60408051338152602081018490529081018290527fbb757047c2b5f3974fe26b7c10f732e7bce710b0952a71082702781e62ae0595906060015b60405180910390a1600194505050505090565b60006129886a466565537472617465677960a81b610c3a565b604051633a11a3b960e21b81526004810186905260248101859052604481018490526001600160a01b03919091169063e8468ee4906064015b60206040518083038186803b1580156129d957600080fd5b505afa1580156129ed573d6000803e3d6000fd5b505050506040513d601f19601f82011682018060405250810190610b139190614feb565b600080612a2060025460ff1690565b15612a3d5760405162461bcd60e51b8152600401610b3e9061509d565b333b15612a73573360009081526001602052604090205460ff16612a735760405162461bcd60e51b8152600401610b3e906150c7565b60035460009081526008602052604090205460ff16612aba5760405162461bcd60e51b815260206004820152600360248201526204532360ec1b6044820152606401610b3e565b6003546000908152600960205260409020548510612aea5760405162461bcd60e51b8152600401610b3e90615116565b60008411612b0a5760405162461bcd60e51b8152600401610b3e906151d8565b6003546000908152600960205260408120805487908110612b2d57612b2d615133565b906000526020600020015490508060001415612b5b5760405162461bcd60e51b8152600401610b3e90615149565b60008482604051602001612b70929190615166565b6040516020818303038152906040528051906020012090506000612b9a630e488a0b60e31b610c3a565b90506000612ba6610ba8565b90506000612bb4858a6109a7565b90506000612bc383878c61296f565b60035460009081526012602090815260408083208a8452909152812080549293508c92909190612bf4908490615228565b90915550506003546000908152601360209081526040808320888452909152812080548c9290612c25908490615228565b9091555050600354600090815260146020908152604080832089845290915281208054849290612c56908490615228565b9091555050600354600090815260156020908152604080832088845290915281208054849290612c87908490615228565b90915550612c959050613029565b506003546000908152600d6020908152604080832089845290915281208054849290612cc2908490615228565b90915550506003546000908152600e602052604081208054849290612ce8908490615228565b90915550612d0f90503330612cfd8486615228565b6001600160a01b0388169291906143f5565b8015612d4357612d43612d326d2332b2a234b9ba3934b13aba37b960911b610c3a565b6001600160a01b0386169083613bc2565b6003546000908152600a60209081526040808320898452909152902054612d74906001600160a01b03168a8c613bc2565b612d8e6d5374616b696e675265776172647360901b610c3a565b6001600160a01b031663a694fc3a836040518263ffffffff1660e01b8152600401612dbb91815260200190565b600060405180830381600087803b158015612dd557600080fd5b505af1158015612de9573d6000803e3d6000fd5b505060035460408051918252602082018a905281018d905260608101859052608081018490526001600160a01b038c1660a08201523360c08201527f78de8c82973d11415ea2004f458680aa6d5826c3e8a798496a61db56fa66417b925060e001905060405180910390a1909a909950975050505050505050565b60608260008111612e875760405162461bcd60e51b8152600401610b3e90615063565b60008481526009602052604081205490816001600160401b03811115612eaf57612eaf614e32565b604051908082528060200260200182016040528015612ed8578160200160208202803683370190505b50905060005b828110156115aa576000878152600960205260408120805483908110612f0657612f06615133565b9060005260206000200154905060008782604051602001612f28929190615166565b60408051601f19818403018152918152815160209283012060008c815260138452828120828252909352912054855191925090859085908110612f6d57612f6d615133565b60200260200101818152505050508080612f86906151bd565b915050612ede565b6000546001600160a01b03163314612fb85760405162461bcd60e51b8152600401610b3e90615188565b6001600160a01b03811661301d5760405162461bcd60e51b815260206004820152602660248201527f4f776e61626c653a206e6577206f776e657220697320746865207a65726f206160448201526564647265737360d01b6064820152608401610b3e565b6130268161434d565b50565b600061303760025460ff1690565b156130545760405162461bcd60e51b8152600401610b3e9061509d565b60035460009081526007602052604090205460ff16156130865760405162461bcd60e51b8152600401610b3e9061520c565b60035460009081526008602052604090205460ff166130cd5760405162461bcd60e51b815260206004820152600360248201526204532360ec1b6044820152606401610b3e565b60006130e96d5374616b696e675265776172647360901b610c3a565b6040516370a0823160e01b81523060048201529091506000906001600160a01b038316906370a082319060240160206040518083038186803b15801561312e57600080fd5b505afa158015613142573d6000803e3d6000fd5b505050506040513d601f19601f820116820180604052508101906131669190614feb565b6040516246613160e11b81523060048201529091506000906001600160a01b03841690628cc26290602401604080518083038186803b1580156131a857600080fd5b505afa1580156131bc573d6000803e3d6000fd5b505050506040513d601f19601f820116820180604052508101906131e09190615240565b60035460009081526009602090815260408083208054825181850281018501909352808352949650929450929083018282801561323c57602002820191906000526020600020905b815481526020019060010190808311613228575b5050505050905060005b815181101561336a576003546000908152600e6020908152604080832054600d90925282208451839086908690811061328157613281615133565b6020026020010151815260200190815260200160002054856132a3919061501a565b6132ad919061504f565b90508060106000600354815260200190815260200160002060008585815181106132d9576132d9615133565b6020026020010151815260200190815260200160002060008282546132fe9190615228565b90915550506003546000908152600d60205260408120845183929086908690811061332b5761332b615133565b6020026020010151815260200190815260200160002060008282546133509190615228565b909155508291506133629050816151bd565b915050613246565b506003546000908152600e60205260408120805484929061338c908490615228565b909155505081156133eb57836001600160a01b031663f69e20466040518163ffffffff1660e01b8152600401600060405180830381600087803b1580156133d257600080fd5b505af11580156133e6573d6000803e3d6000fd5b505050505b6003546040516370a0823160e01b81523060048201527f5af10a4040aa7915142a090ccc9255ef57ae8241526de1c25a8cc33e473956b09190849086906001600160a01b038916906370a082319060240160206040518083038186803b15801561345457600080fd5b505afa158015613468573d6000803e3d6000fd5b505050506040513d601f19601f8201168201806040525081019061348c9190614feb565b60408051948552602085019390935291830152606082015260800161295c565b60006134c469476f7665726e616e636560b01b610c3a565b6001600160a01b0316336001600160a01b0316146134f45760405162461bcd60e51b8152600401610b3e90615080565b60025460ff16156135175760405162461bcd60e51b8152600401610b3e9061509d565b60035460009081526007602052604090205460ff16156135495760405162461bcd60e51b8152600401610b3e9061520c565b6000613556600354611941565b915050600454816135679190615228565b421161359a5760405162461bcd60e51b8152602060048201526002602482015261114d60f21b6044820152606401610b3e565b60035460009081526016602052604090208390556135b86001613bf2565b50506003546000908152600760205260409020805460ff19166001908117909155919050565b60006135f76a466565537472617465677960a81b610c3a565b604051637b95fc7f60e11b81526004810186905260248101859052604481018490526001600160a01b03919091169063f72bf8fe906064016129c1565b600080546001600160a01b0316331461365f5760405162461bcd60e51b8152600401610b3e90615188565b60025460ff16156136825760405162461bcd60e51b8152600401610b3e9061509d565b600060035460016136939190615228565b60008181526008602052604090205490915060ff16156136da5760405162461bcd60e51b8152602060048201526002602482015261453560f01b6044820152606401610b3e565b60008181526009602052604090205461371a5760405162461bcd60e51b8152602060048201526002602482015261229b60f11b6044820152606401610b3e565b600354156137685760035460009081526007602052604090205460ff166137685760405162461bcd60e51b8152602060048201526002602482015261453760f01b6044820152606401610b3e565b60005b6000828152600960205260409020548110156139635760008281526009602052604081208054839081106137a1576137a1615133565b9060005260206000200154905060006137e3604051806040016040528060098152602001681c9114160b50d0531360ba1b8152506137de8461452a565b614627565b905061380e81604051806040016040528060078152602001662d45504f43482d60c81b815250614627565b905061381d816137de8661452a565b9050600061384a7f0000000000000000000000000000000000000000000000000000000000000000614653565b60405163266c45bb60e11b81529091506001600160a01b03821690634cd88b769061387b90859081906004016152bc565b600060405180830381600087803b15801561389557600080fd5b505af11580156138a9573d6000803e3d6000fd5b5050506000868152600a60209081526040808320878452825280832080546001600160a01b0319166001600160a01b038716908117909155898452600b8352818420888552909252918290205491516340c10f1960e01b8152306004820152602481019290925291506340c10f1990604401600060405180830381600087803b15801561393557600080fd5b505af1158015613949573d6000803e3d6000fd5b50505050505050808061395b906151bd565b91505061376b565b5060008181526008602052604090819020805460ff191660011790556003829055517fb5ca1ca1b7b47549eb8af476f3ef702fc63bcd8b8c01dc163b009bb818f97997906139b49083815260200190565b60405180910390a1600191505090565b801580613a4d5750604051636eb1769f60e11b81523060048201526001600160a01b03838116602483015284169063dd62ed3e9060440160206040518083038186803b158015613a1357600080fd5b505afa158015613a27573d6000803e3d6000fd5b505050506040513d601f19601f82011682018060405250810190613a4b9190614feb565b155b613ab85760405162461bcd60e51b815260206004820152603660248201527f5361666545524332303a20617070726f76652066726f6d206e6f6e2d7a65726f60448201527520746f206e6f6e2d7a65726f20616c6c6f77616e636560501b6064820152608401610b3e565b6040516001600160a01b038316602482015260448101829052613b1b90849063095ea7b360e01b906064015b60408051601f198184030181529190526020810180516001600160e01b03166001600160e01b0319909316929092179091526146eb565b505050565b6060610b1384846000856147bd565b60025460ff16613b785760405162461bcd60e51b815260206004820152601460248201527314185d5cd8589b194e881b9bdd081c185d5cd95960621b6044820152606401610b3e565b6002805460ff191690557f5db9ee0a495bf2e6ff9c91a7834c1ba4fdd244a5e8aa4e537bd38aeae4b073aa335b6040516001600160a01b03909116815260200160405180910390a1565b6040516001600160a01b038316602482015260448101829052613b1b90849063a9059cbb60e01b90606401613ae4565b6000613c0e6d5374616b696e675265776172647360901b610c3a565b90506000613c2162088a0b60eb1b610c3a565b90506000613c35630e488a0b60e31b610c3a565b6040516370a0823160e01b81523060048201529091506000906001600160a01b038516906370a082319060240160206040518083038186803b158015613c7a57600080fd5b505afa158015613c8e573d6000803e3d6000fd5b505050506040513d601f19601f82011682018060405250810190613cb29190614feb565b1115613d88576040516370a0823160e01b81523060048201526001600160a01b03841690632e1a7d4d9082906370a082319060240160206040518083038186803b158015613cff57600080fd5b505afa158015613d13573d6000803e3d6000fd5b505050506040513d601f19601f82011682018060405250810190613d379190614feb565b6040518263ffffffff1660e01b8152600401613d5591815260200190565b600060405180830381600087803b158015613d6f57600080fd5b505af1158015613d83573d6000803e3d6000fd5b505050505b6040516370a0823160e01b81523060048201526000906001600160a01b038416906370a082319060240160206040518083038186803b158015613dca57600080fd5b505afa158015613dde573d6000803e3d6000fd5b505050506040513d601f19601f82011682018060405250810190613e029190614feb565b6040516370a0823160e01b81523060048201529091506000906001600160a01b038416906370a082319060240160206040518083038186803b158015613e4757600080fd5b505afa158015613e5b573d6000803e3d6000fd5b505050506040513d601f19601f82011682018060405250810190613e7f9190614feb565b604051631c4b774b60e01b8152600260048201529091506001600160a01b03861690631c4b774b90602401600060405180830381600087803b158015613ec457600080fd5b505af1158015613ed8573d6000803e3d6000fd5b50506040516370a0823160e01b81523060048201528492506001600160a01b03871691506370a082319060240160206040518083038186803b158015613f1d57600080fd5b505afa158015613f31573d6000803e3d6000fd5b505050506040513d601f19601f82011682018060405250810190613f559190614feb565b613f5f91906151f5565b6040516370a0823160e01b815230600482015290925081906001600160a01b038516906370a082319060240160206040518083038186803b158015613fa357600080fd5b505afa158015613fb7573d6000803e3d6000fd5b505050506040513d601f19601f82011682018060405250810190613fdb9190614feb565b613fe591906151f5565b6003546000908152600e6020526040902054909150156143455760035460009081526009602090815260408083208054825181850281018501909352808352919290919083018282801561405857602002820191906000526020600020905b815481526020019060010190808311614044575b5050505050905060005b8151811015614342576003546000908152600e6020908152604080832054600d90925282208451839086908690811061409d5761409d615133565b6020026020010151815260200190815260200160002054856140bf919061501a565b6140c9919061504f565b90506000614145601660006003548152602001908152602001600020548585815181106140f8576140f8615133565b6020026020010151601260006003548152602001908152602001600020600088888151811061412957614129615133565b6020026020010151815260200190815260200160002054611c2a565b90508082600b60006003548152602001908152602001600020600087878151811061417257614172615133565b60200260200101518152602001908152602001600020546141939190615228565b61419d91906151f5565b60106000600354815260200190815260200160002060008686815181106141c6576141c6615133565b6020026020010151815260200190815260200160002060008282546141eb9190615228565b9091555050891561428a57601460006003548152602001908152602001600020600085858151811061421f5761421f615133565b6020026020010151815260200190815260200160002054601060006003548152602001908152602001600020600086868151811061425f5761425f615133565b6020026020010151815260200190815260200160002060008282546142849190615228565b90915550505b6003546000908152600e6020908152604080832054600d90925282208651919290918790879081106142be576142be615133565b6020026020010151815260200190815260200160002054876142e0919061501a565b6142ea919061504f565b601160006003548152602001908152602001600020600086868151811061431357614313615133565b60200260200101518152602001908152602001600020819055505050808061433a906151bd565b915050614062565b50505b505050505050565b600080546001600160a01b038381166001600160a01b0319831681178455604051919092169283917f8be0079c531659141344cd1fd0a4f28419497f9722a3daafe3b4186f6b6457e09190a35050565b60025460ff16156143c05760405162461bcd60e51b8152600401610b3e9061509d565b6002805460ff191660011790557f62e78cea01bee320cd4e420270b5ea74000d11b0c9f74754ebdbfc544b05a258613ba53390565b6040516001600160a01b038085166024830152831660448201526064810182905261442d9085906323b872dd60e01b90608401613ae4565b50505050565b600061444a614445620151808461504f565b6148da565b50909392505050565b6000614465614445620151808461504f565b509392505050565b60006201518061447e858585614a4e565b610b13919061501a565b600080614498620151808461504f565b905060076144a7826003615228565b6144b191906152e1565b611ab1906001615228565b6000610b13614445620151808461504f565b6000816144dc603c8561501a565b6144e8610e108761501a565b620151806144f78b8b8b614a4e565b614501919061501a565b61450b9190615228565b6145159190615228565b61451f9190615228565b979650505050505050565b60608161454e5750506040805180820190915260018152600360fc1b602082015290565b8160005b81156145785780614562816151bd565b91506145719050600a8361504f565b9150614552565b6000816001600160401b0381111561459257614592614e32565b6040519080825280601f01601f1916602001820160405280156145bc576020820181803683370190505b5090505b8415610b13576145d16001836151f5565b91506145de600a866152e1565b6145e9906030615228565b60f81b8183815181106145fe576145fe615133565b60200101906001600160f81b031916908160001a905350614620600a8661504f565b94506145c0565b6060828260405160200161463c9291906152f5565b604051602081830303815290604052905092915050565b6000604051733d602d80600a3d3981f3363d3d373d3d3d363d7360601b81528260601b60148201526e5af43d82803e903d91602b57fd5bf360881b60288201526037816000f09150506001600160a01b03811661217a5760405162461bcd60e51b8152602060048201526016602482015275115490cc4c4d8dce8818dc99585d194819985a5b195960521b6044820152606401610b3e565b6000614740826040518060400160405280602081526020017f5361666545524332303a206c6f772d6c6576656c2063616c6c206661696c6564815250856001600160a01b0316613b209092919063ffffffff16565b805190915015613b1b578080602001905181019061475e9190615324565b613b1b5760405162461bcd60e51b815260206004820152602a60248201527f5361666545524332303a204552433230206f7065726174696f6e20646964206e6044820152691bdd081cdd58d8d9595960b21b6064820152608401610b3e565b60608247101561481e5760405162461bcd60e51b815260206004820152602660248201527f416464726573733a20696e73756666696369656e742062616c616e636520666f6044820152651c8818d85b1b60d21b6064820152608401610b3e565b843b61486c5760405162461bcd60e51b815260206004820152601d60248201527f416464726573733a2063616c6c20746f206e6f6e2d636f6e74726163740000006044820152606401610b3e565b600080866001600160a01b031685876040516148889190615346565b60006040518083038185875af1925050503d80600081146148c5576040519150601f19603f3d011682016040523d82523d6000602084013e6148ca565b606091505b509150915061451f828286614b8b565b60008080838162253d8c6148f18362010bd9615362565b6148fb9190615362565b9050600062023ab161490e8360046153a3565b6149189190615428565b905060046149298262023ab16153a3565b614934906003615362565b61493e9190615428565b6149489083615456565b9150600062164b0961495b846001615362565b61496790610fa06153a3565b6149719190615428565b90506004614981826105b56153a3565b61498b9190615428565b6149959084615456565b6149a090601f615362565b9250600061098f6149b28560506153a3565b6149bc9190615428565b9050600060506149ce8361098f6153a3565b6149d89190615428565b6149e29086615456565b90506149ef600b83615428565b94506149fc85600c6153a3565b614a07836002615362565b614a119190615456565b91508483614a20603187615456565b614a2b9060646153a3565b614a359190615362565b614a3f9190615362565b9a919950975095505050505050565b60006107b2841015614a5f57600080fd5b838383600062253d8c60046064600c614a79600e88615456565b614a839190615428565b614a8f88611324615362565b614a999190615362565b614aa39190615428565b614aae9060036153a3565b614ab89190615428565b600c80614ac6600e88615456565b614ad09190615428565b614adb90600c6153a3565b614ae6600288615456565b614af09190615456565b614afc9061016f6153a3565b614b069190615428565b6004600c614b15600e89615456565b614b1f9190615428565b614b2b896112c0615362565b614b359190615362565b614b41906105b56153a3565b614b4b9190615428565b614b57617d4b87615456565b614b619190615362565b614b6b9190615362565b614b759190615456565b614b7f9190615456565b98975050505050505050565b60608315614b9a575081611ab1565b825115614baa5782518084602001fd5b8160405162461bcd60e51b8152600401610b3e9190615495565b60405180604001604052806002906020820280368337509192915050565b828054828255906000526020600020908101928215614c1d579160200282015b82811115614c1d578251825591602001919060010190614c02565b50614c29929150614c2d565b5090565b5b80821115614c295760008155600101614c2e565b60008060408385031215614c5557600080fd5b50508035926020909101359150565b600060208284031215614c7657600080fd5b5035919050565b6020808252825182820181905260009190848201906040850190845b81811015614cb557835183529284019291840191600101614c99565b50909695505050505050565b80356001600160a01b038116811461217a57600080fd5b600060208284031215614cea57600080fd5b611ab182614cc1565b60408101818360005b6002811015614d1b578151835260209283019290910190600101614cfc565b50505092915050565b60008083601f840112614d3657600080fd5b5081356001600160401b03811115614d4d57600080fd5b6020830191508360208260051b8501011115614d6857600080fd5b9250929050565b60008060008060408587031215614d8557600080fd5b84356001600160401b0380821115614d9c57600080fd5b614da888838901614d24565b90965094506020870135915080821115614dc157600080fd5b50614dce87828801614d24565b95989497509550505050565b600080600060608486031215614def57600080fd5b505081359360208301359350604090920135919050565b60008060408385031215614e1957600080fd5b82359150614e2960208401614cc1565b90509250929050565b634e487b7160e01b600052604160045260246000fd5b600082601f830112614e5957600080fd5b813560206001600160401b0380831115614e7557614e75614e32565b8260051b604051601f19603f83011681018181108482111715614e9a57614e9a614e32565b604052938452858101830193838101925087851115614eb857600080fd5b83870191505b8482101561451f57813583529183019190830190614ebe565b600080600060608486031215614eec57600080fd5b83356001600160401b0380821115614f0357600080fd5b614f0f87838801614e48565b94506020860135915080821115614f2557600080fd5b50614f3286828701614e48565b925050614f4160408501614cc1565b90509250925092565b6020808252825182820181905260009190848201906040850190845b81811015614cb55783516001600160a01b031683529284019291840191600101614f66565b600080600060608486031215614fa057600080fd5b8335925060208401359150614f4160408501614cc1565b600060208284031215614fc957600080fd5b81356001600160401b03811115614fdf57600080fd5b610b1384828501614e48565b600060208284031215614ffd57600080fd5b5051919050565b634e487b7160e01b600052601160045260246000fd5b600081600019048311821515161561503457615034615004565b500290565b634e487b7160e01b600052601260045260246000fd5b60008261505e5761505e615039565b500490565b60208082526003908201526245313360e81b604082015260600190565b60208082526003908201526222991960e91b604082015260600190565b60208082526010908201526f14185d5cd8589b194e881c185d5cd95960821b604082015260600190565b6020808252602f908201527f436f6e747261637457686974656c6973743a20436f6e7472616374206d75737460408201526e081899481dda1a5d195b1a5cdd1959608a1b606082015260800190565b60208082526003908201526204531360ec1b604082015260600190565b634e487b7160e01b600052603260045260246000fd5b60208082526003908201526222989960e91b604082015260600190565b60609290921b6bffffffffffffffffffffffff19168252601482015260340190565b6020808252818101527f4f776e61626c653a2063616c6c6572206973206e6f7420746865206f776e6572604082015260600190565b60006000198214156151d1576151d1615004565b5060010190565b60208082526003908201526245313160e81b604082015260600190565b60008282101561520757615207615004565b500390565b602080825260029082015261453360f01b604082015260600190565b6000821982111561523b5761523b615004565b500190565b6000806040838503121561525357600080fd5b505080516020909101519092909150565b60005b8381101561527f578181015183820152602001615267565b8381111561442d5750506000910152565b600081518084526152a8816020860160208601615264565b601f01601f19169290920160200192915050565b6040815260006152cf6040830185615290565b82810360208401526120ed8185615290565b6000826152f0576152f0615039565b500690565b60008351615307818460208801615264565b83519083019061531b818360208801615264565b01949350505050565b60006020828403121561533657600080fd5b81518015158114611ab157600080fd5b60008251615358818460208701615264565b9190910192915050565b600080821280156001600160ff1b038490038513161561538457615384615004565b600160ff1b839003841281161561539d5761539d615004565b50500190565b60006001600160ff1b03818413828413808216868404861116156153c9576153c9615004565b600160ff1b60008712828116878305891216156153e8576153e8615004565b6000871292508782058712848416161561540457615404615004565b8785058712818416161561541a5761541a615004565b505050929093029392505050565b60008261543757615437615039565b600160ff1b82146000198414161561545157615451615004565b500590565b60008083128015600160ff1b85018412161561547457615474615004565b6001600160ff1b038401831381161561548f5761548f615004565b50500390565b602081526000611ab1602083018461529056fea26469706673582212207745511da782dbd342b5459b05c2e5ad76000f6b7240f49a30aac355cb0602a564736f6c63430008090033608060405234801561001057600080fd5b50611eb6806100206000396000f3fe608060405234801561001057600080fd5b50600436106101cf5760003560e01c80635c975abb11610104578063a217fddf116100a2578063d539139311610071578063d5391393146103ce578063d547741f146103f5578063dd62ed3e14610408578063e63ab1e91461044157600080fd5b8063a217fddf1461038d578063a457c2d714610395578063a9059cbb146103a8578063ca15c873146103bb57600080fd5b80638456cb59116100de5780638456cb591461033f5780639010d07c1461034757806391d148541461037257806395d89b411461038557600080fd5b80635c975abb146102f757806370a082311461030357806379cc67901461032c57600080fd5b8063313ce567116101715780633f4ba83a1161014b5780633f4ba83a146102b657806340c10f19146102be57806342966c68146102d15780634cd88b76146102e457600080fd5b8063313ce5671461028157806336568abe1461029057806339509351146102a357600080fd5b806318160ddd116101ad57806318160ddd1461022457806323b872dd14610236578063248a9ca3146102495780632f2ff15d1461026c57600080fd5b806301ffc9a7146101d457806306fdde03146101fc578063095ea7b314610211575b600080fd5b6101e76101e23660046119fd565b610456565b60405190151581526020015b60405180910390f35b610204610481565b6040516101f39190611a53565b6101e761021f366004611aa2565b610513565b60cb545b6040519081526020016101f3565b6101e7610244366004611acc565b610529565b610228610257366004611b08565b60009081526065602052604090206001015490565b61027f61027a366004611b21565b6105d8565b005b604051601281526020016101f3565b61027f61029e366004611b21565b610603565b6101e76102b1366004611aa2565b610681565b61027f6106bd565b61027f6102cc366004611aa2565b610751565b61027f6102df366004611b08565b6107f0565b61027f6102f2366004611bf0565b6107fd565b61012d5460ff166101e7565b610228610311366004611c54565b6001600160a01b0316600090815260c9602052604090205490565b61027f61033a366004611aa2565b610874565b61027f6108f5565b61035a610355366004611c6f565b610987565b6040516001600160a01b0390911681526020016101f3565b6101e7610380366004611b21565b6109a6565b6102046109d1565b610228600081565b6101e76103a3366004611aa2565b6109e0565b6101e76103b6366004611aa2565b610a79565b6102286103c9366004611b08565b610a86565b6102287f9f2df0fed2c77648de5860a4cc508cd0818c85b8b8a1ab4ceeef8d981c8956a681565b61027f610403366004611b21565b610a9d565b610228610416366004611c91565b6001600160a01b03918216600090815260ca6020908152604080832093909416825291909152205490565b610228600080516020611e6183398151915281565b60006001600160e01b03198216635a05180f60e01b148061047b575061047b82610ac3565b92915050565b606060cc805461049090611cbb565b80601f01602080910402602001604051908101604052809291908181526020018280546104bc90611cbb565b80156105095780601f106104de57610100808354040283529160200191610509565b820191906000526020600020905b8154815290600101906020018083116104ec57829003601f168201915b5050505050905090565b6000610520338484610af8565b50600192915050565b6000610536848484610c1c565b6001600160a01b038416600090815260ca60209081526040808320338452909152902054828110156105c05760405162461bcd60e51b815260206004820152602860248201527f45524332303a207472616e7366657220616d6f756e74206578636565647320616044820152676c6c6f77616e636560c01b60648201526084015b60405180910390fd5b6105cd8533858403610af8565b506001949350505050565b6000828152606560205260409020600101546105f48133610df7565b6105fe8383610e5b565b505050565b6001600160a01b03811633146106735760405162461bcd60e51b815260206004820152602f60248201527f416363657373436f6e74726f6c3a2063616e206f6e6c792072656e6f756e636560448201526e103937b632b9903337b91039b2b63360891b60648201526084016105b7565b61067d8282610e7d565b5050565b33600081815260ca602090815260408083206001600160a01b038716845290915281205490916105209185906106b8908690611d0c565b610af8565b6106d5600080516020611e61833981519152336109a6565b6107475760405162461bcd60e51b815260206004820152603960248201527f45524332305072657365744d696e7465725061757365723a206d75737420686160448201527f76652070617573657220726f6c6520746f20756e70617573650000000000000060648201526084016105b7565b61074f610e9f565b565b61077b7f9f2df0fed2c77648de5860a4cc508cd0818c85b8b8a1ab4ceeef8d981c8956a6336109a6565b6107e65760405162461bcd60e51b815260206004820152603660248201527f45524332305072657365744d696e7465725061757365723a206d7573742068616044820152751d99481b5a5b9d195c881c9bdb19481d1bc81b5a5b9d60521b60648201526084016105b7565b61067d8282610f34565b6107fa338261101f565b50565b600054610100900460ff1680610816575060005460ff16155b6108325760405162461bcd60e51b81526004016105b790611d24565b600054610100900460ff16158015610854576000805461ffff19166101011790555b61085e8383611179565b80156105fe576000805461ff0019169055505050565b60006108808333610416565b9050818110156108de5760405162461bcd60e51b8152602060048201526024808201527f45524332303a206275726e20616d6f756e74206578636565647320616c6c6f77604482015263616e636560e01b60648201526084016105b7565b6108eb8333848403610af8565b6105fe838361101f565b61090d600080516020611e61833981519152336109a6565b61097f5760405162461bcd60e51b815260206004820152603760248201527f45524332305072657365744d696e7465725061757365723a206d75737420686160448201527f76652070617573657220726f6c6520746f20706175736500000000000000000060648201526084016105b7565b61074f61121c565b600082815260976020526040812061099f9083611299565b9392505050565b60009182526065602090815260408084206001600160a01b0393909316845291905290205460ff1690565b606060cd805461049090611cbb565b33600090815260ca602090815260408083206001600160a01b038616845290915281205482811015610a625760405162461bcd60e51b815260206004820152602560248201527f45524332303a2064656372656173656420616c6c6f77616e63652062656c6f77604482015264207a65726f60d81b60648201526084016105b7565b610a6f3385858403610af8565b5060019392505050565b6000610520338484610c1c565b600081815260976020526040812061047b906112a5565b600082815260656020526040902060010154610ab98133610df7565b6105fe8383610e7d565b60006001600160e01b03198216637965db0b60e01b148061047b57506301ffc9a760e01b6001600160e01b031983161461047b565b6001600160a01b038316610b5a5760405162461bcd60e51b8152602060048201526024808201527f45524332303a20617070726f76652066726f6d20746865207a65726f206164646044820152637265737360e01b60648201526084016105b7565b6001600160a01b038216610bbb5760405162461bcd60e51b815260206004820152602260248201527f45524332303a20617070726f766520746f20746865207a65726f206164647265604482015261737360f01b60648201526084016105b7565b6001600160a01b03838116600081815260ca602090815260408083209487168084529482529182902085905590518481527f8c5be1e5ebec7d5bd14f71427d1e84f3dd0314c0f7b2291e5b200ac8c7c3b925910160405180910390a3505050565b6001600160a01b038316610c805760405162461bcd60e51b815260206004820152602560248201527f45524332303a207472616e736665722066726f6d20746865207a65726f206164604482015264647265737360d81b60648201526084016105b7565b6001600160a01b038216610ce25760405162461bcd60e51b815260206004820152602360248201527f45524332303a207472616e7366657220746f20746865207a65726f206164647260448201526265737360e81b60648201526084016105b7565b610ced8383836112af565b6001600160a01b038316600090815260c9602052604090205481811015610d655760405162461bcd60e51b815260206004820152602660248201527f45524332303a207472616e7366657220616d6f756e7420657863656564732062604482015265616c616e636560d01b60648201526084016105b7565b6001600160a01b03808516600090815260c96020526040808220858503905591851681529081208054849290610d9c908490611d0c565b92505081905550826001600160a01b0316846001600160a01b03167fddf252ad1be2c89b69c2b068fc378daa952ba7f163c4a11628f55a4df523b3ef84604051610de891815260200190565b60405180910390a35b50505050565b610e0182826109a6565b61067d57610e19816001600160a01b031660146112ba565b610e248360206112ba565b604051602001610e35929190611d72565b60408051601f198184030181529082905262461bcd60e51b82526105b791600401611a53565b610e658282611456565b60008281526097602052604090206105fe90826114dc565b610e8782826114f1565b60008281526097602052604090206105fe9082611558565b61012d5460ff16610ee95760405162461bcd60e51b815260206004820152601460248201527314185d5cd8589b194e881b9bdd081c185d5cd95960621b60448201526064016105b7565b61012d805460ff191690557f5db9ee0a495bf2e6ff9c91a7834c1ba4fdd244a5e8aa4e537bd38aeae4b073aa335b6040516001600160a01b03909116815260200160405180910390a1565b6001600160a01b038216610f8a5760405162461bcd60e51b815260206004820152601f60248201527f45524332303a206d696e7420746f20746865207a65726f20616464726573730060448201526064016105b7565b610f96600083836112af565b8060cb6000828254610fa89190611d0c565b90915550506001600160a01b038216600090815260c9602052604081208054839290610fd5908490611d0c565b90915550506040518181526001600160a01b038316906000907fddf252ad1be2c89b69c2b068fc378daa952ba7f163c4a11628f55a4df523b3ef9060200160405180910390a35050565b6001600160a01b03821661107f5760405162461bcd60e51b815260206004820152602160248201527f45524332303a206275726e2066726f6d20746865207a65726f206164647265736044820152607360f81b60648201526084016105b7565b61108b826000836112af565b6001600160a01b038216600090815260c96020526040902054818110156110ff5760405162461bcd60e51b815260206004820152602260248201527f45524332303a206275726e20616d6f756e7420657863656564732062616c616e604482015261636560f01b60648201526084016105b7565b6001600160a01b038316600090815260c960205260408120838303905560cb805484929061112e908490611de7565b90915550506040518281526000906001600160a01b038516907fddf252ad1be2c89b69c2b068fc378daa952ba7f163c4a11628f55a4df523b3ef9060200160405180910390a3505050565b600054610100900460ff1680611192575060005460ff16155b6111ae5760405162461bcd60e51b81526004016105b790611d24565b600054610100900460ff161580156111d0576000805461ffff19166101011790555b6111d861156d565b6111e061156d565b6111e861156d565b6111f061156d565b6111fa83836115d8565b61120261156d565b61120a61166d565b61121261156d565b61085e83836116e3565b61012d5460ff16156112635760405162461bcd60e51b815260206004820152601060248201526f14185d5cd8589b194e881c185d5cd95960821b60448201526064016105b7565b61012d805460ff191660011790557f62e78cea01bee320cd4e420270b5ea74000d11b0c9f74754ebdbfc544b05a258610f173390565b600061099f8383611787565b600061047b825490565b6105fe8383836117b1565b606060006112c9836002611dfe565b6112d4906002611d0c565b67ffffffffffffffff8111156112ec576112ec611b4d565b6040519080825280601f01601f191660200182016040528015611316576020820181803683370190505b509050600360fc1b8160008151811061133157611331611e1d565b60200101906001600160f81b031916908160001a905350600f60fb1b8160018151811061136057611360611e1d565b60200101906001600160f81b031916908160001a9053506000611384846002611dfe565b61138f906001611d0c565b90505b6001811115611407576f181899199a1a9b1b9c1cb0b131b232b360811b85600f16601081106113c3576113c3611e1d565b1a60f81b8282815181106113d9576113d9611e1d565b60200101906001600160f81b031916908160001a90535060049490941c9361140081611e33565b9050611392565b50831561099f5760405162461bcd60e51b815260206004820181905260248201527f537472696e67733a20686578206c656e67746820696e73756666696369656e7460448201526064016105b7565b61146082826109a6565b61067d5760008281526065602090815260408083206001600160a01b03851684529091529020805460ff191660011790556114983390565b6001600160a01b0316816001600160a01b0316837f2f8788117e7eff1d82e926ec794901d17c78024a50270940304540a733656f0d60405160405180910390a45050565b600061099f836001600160a01b038416611818565b6114fb82826109a6565b1561067d5760008281526065602090815260408083206001600160a01b0385168085529252808320805460ff1916905551339285917ff6391f5c32d9c69d2a47ea670b442974b53935d1edc7fd64eb21e047a839171b9190a45050565b600061099f836001600160a01b038416611867565b600054610100900460ff1680611586575060005460ff16155b6115a25760405162461bcd60e51b81526004016105b790611d24565b600054610100900460ff161580156115c4576000805461ffff19166101011790555b80156107fa576000805461ff001916905550565b600054610100900460ff16806115f1575060005460ff16155b61160d5760405162461bcd60e51b81526004016105b790611d24565b600054610100900460ff1615801561162f576000805461ffff19166101011790555b82516116429060cc906020860190611964565b5081516116569060cd906020850190611964565b5080156105fe576000805461ff0019169055505050565b600054610100900460ff1680611686575060005460ff16155b6116a25760405162461bcd60e51b81526004016105b790611d24565b600054610100900460ff161580156116c4576000805461ffff19166101011790555b61012d805460ff1916905580156107fa576000805461ff001916905550565b600054610100900460ff16806116fc575060005460ff16155b6117185760405162461bcd60e51b81526004016105b790611d24565b600054610100900460ff1615801561173a576000805461ffff19166101011790555b61174560003361195a565b61176f7f9f2df0fed2c77648de5860a4cc508cd0818c85b8b8a1ab4ceeef8d981c8956a63361195a565b61085e600080516020611e618339815191523361195a565b600082600001828154811061179e5761179e611e1d565b9060005260206000200154905092915050565b61012d5460ff16156105fe5760405162461bcd60e51b815260206004820152602a60248201527f45524332305061757361626c653a20746f6b656e207472616e736665722077686044820152691a5b19481c185d5cd95960b21b60648201526084016105b7565b600081815260018301602052604081205461185f5750815460018181018455600084815260208082209093018490558454848252828601909352604090209190915561047b565b50600061047b565b6000818152600183016020526040812054801561195057600061188b600183611de7565b855490915060009061189f90600190611de7565b90508181146119045760008660000182815481106118bf576118bf611e1d565b90600052602060002001549050808760000184815481106118e2576118e2611e1d565b6000918252602080832090910192909255918252600188019052604090208390555b855486908061191557611915611e4a565b60019003818190600052602060002001600090559055856001016000868152602001908152602001600020600090556001935050505061047b565b600091505061047b565b61067d8282610e5b565b82805461197090611cbb565b90600052602060002090601f01602090048101928261199257600085556119d8565b82601f106119ab57805160ff19168380011785556119d8565b828001600101855582156119d8579182015b828111156119d85782518255916020019190600101906119bd565b506119e49291506119e8565b5090565b5b808211156119e457600081556001016119e9565b600060208284031215611a0f57600080fd5b81356001600160e01b03198116811461099f57600080fd5b60005b83811015611a42578181015183820152602001611a2a565b83811115610df15750506000910152565b6020815260008251806020840152611a72816040850160208701611a27565b601f01601f19169190910160400192915050565b80356001600160a01b0381168114611a9d57600080fd5b919050565b60008060408385031215611ab557600080fd5b611abe83611a86565b946020939093013593505050565b600080600060608486031215611ae157600080fd5b611aea84611a86565b9250611af860208501611a86565b9150604084013590509250925092565b600060208284031215611b1a57600080fd5b5035919050565b60008060408385031215611b3457600080fd5b82359150611b4460208401611a86565b90509250929050565b634e487b7160e01b600052604160045260246000fd5b600082601f830112611b7457600080fd5b813567ffffffffffffffff80821115611b8f57611b8f611b4d565b604051601f8301601f19908116603f01168101908282118183101715611bb757611bb7611b4d565b81604052838152866020858801011115611bd057600080fd5b836020870160208301376000602085830101528094505050505092915050565b60008060408385031215611c0357600080fd5b823567ffffffffffffffff80821115611c1b57600080fd5b611c2786838701611b63565b93506020850135915080821115611c3d57600080fd5b50611c4a85828601611b63565b9150509250929050565b600060208284031215611c6657600080fd5b61099f82611a86565b60008060408385031215611c8257600080fd5b50508035926020909101359150565b60008060408385031215611ca457600080fd5b611cad83611a86565b9150611b4460208401611a86565b600181811c90821680611ccf57607f821691505b60208210811415611cf057634e487b7160e01b600052602260045260246000fd5b50919050565b634e487b7160e01b600052601160045260246000fd5b60008219821115611d1f57611d1f611cf6565b500190565b6020808252602e908201527f496e697469616c697a61626c653a20636f6e747261637420697320616c72656160408201526d191e481a5b9a5d1a585b1a5e995960921b606082015260800190565b7f416363657373436f6e74726f6c3a206163636f756e7420000000000000000000815260008351611daa816017850160208801611a27565b7001034b99036b4b9b9b4b733903937b6329607d1b6017918401918201528351611ddb816028840160208801611a27565b01602801949350505050565b600082821015611df957611df9611cf6565b500390565b6000816000190483118215151615611e1857611e18611cf6565b500290565b634e487b7160e01b600052603260045260246000fd5b600081611e4257611e42611cf6565b506000190190565b634e487b7160e01b600052603160045260246000fdfe65d7a28e3265b37a6474929f336521b332c1681b933f6cb9f3376673440d862aa26469706673582212201e8e71d04321c61cbea798e0c220b88d5e37b921bdfb67b7e07db65b7fd1d00064736f6c6343000809003376418bd9033fcb3d7cf104f4b8a0c7f3193da6e5dec806b4a1fe6a5457c27bcdc40232d6f4f9db98646b81c9aad97cdb6e05b0eadb60d604217501b86e93e87a",
  "devdoc": {
    "kind": "dev",
    "methods": {
      "addToContractWhitelist(address)": {
        "details": "add to the contract whitelist",
        "params": {
          "_contract": "the address of the contract to add to the contract whitelist"
        },
        "returns": {
          "_0": "whether the contract was successfully added to the whitelist"
        }
      },
      "bootstrap()": {
        "returns": {
          "_0": "Whether bootstrap was successful"
        }
      },
      "calculatePnl(uint256,uint256,uint256)": {
        "params": {
          "amount": "amount of options",
          "price": "price of rDPX",
          "strike": "strike price of the the rDPX option"
        }
      },
      "calculatePremium(uint256,uint256)": {
        "params": {
          "_amount": "Amount of options",
          "_strike": "Strike price of the option"
        }
      },
      "calculatePurchaseFees(uint256,uint256,uint256)": {
        "params": {
          "amount": "amount of options being bought",
          "price": "price of DPX",
          "strike": "strike price of the the DPX option"
        }
      },
      "calculateSettlementFees(uint256,uint256,uint256)": {
        "params": {
          "amount": "amount of options being settled",
          "pnl": "total pnl",
          "settlementPrice": "settlement price of DPX"
        }
      },
      "compound()": {
        "returns": {
          "_0": "Whether compound was successful"
        }
      },
      "deposit(uint256,uint256,address)": {
        "params": {
          "amount": "Amout of rDPX to deposit",
          "strikeIndex": "Index of strike",
          "user": "Address of the user to deposit for"
        },
        "returns": {
          "_0": "Whether deposit was successful"
        }
      },
      "depositMultiple(uint256[],uint256[],address)": {
        "params": {
          "amounts": "Amount of rDPX to deposit into each strike index",
          "strikeIndices": "Indices of strikes to deposit into",
          "user": "Address of the user to deposit for"
        },
        "returns": {
          "_0": "Whether deposits went through successfully"
        }
      },
      "emergencyWithdraw()": {
        "details": "Can only be called by governance",
        "returns": {
          "_0": "Whether emergency withdraw was successful"
        }
      },
      "expireEpoch()": {
        "returns": {
          "_0": "Whether expire was successful"
        }
      },
      "expireEpoch(uint256)": {
        "returns": {
          "_0": "Whether expire was successful"
        }
      },
      "getAddress(bytes32)": {
        "params": {
          "name": "Name of the contract"
        },
        "returns": {
          "_0": "The address of the contract"
        }
      },
      "getEpochStrikeTokens(uint256)": {
        "params": {
          "epoch": "Target epoch"
        }
      },
      "getEpochStrikes(uint256)": {
        "params": {
          "epoch": "Target epoch"
        }
      },
      "getEpochTimes(uint256)": {
        "params": {
          "epoch": "Target epoch"
        }
      },
      "getMonthlyExpiryFromTimestamp(uint256)": {
        "params": {
          "timestamp": "Timestamp from which the monthly expiry is to be calculated"
        },
        "returns": {
          "_0": "The monthly expiry"
        }
      },
      "getTotalEpochCallsPurchased(uint256)": {
        "params": {
          "epoch": "Target epoch"
        }
      },
      "getTotalEpochPremium(uint256)": {
        "params": {
          "epoch": "Target epoch"
        }
      },
      "getTotalEpochStrikeDeposits(uint256)": {
        "params": {
          "epoch": "Target epoch"
        }
      },
      "getUserEpochCallsPurchased(uint256,address)": {
        "params": {
          "epoch": "Target epoch",
          "user": "Address of the user"
        }
      },
      "getUserEpochDeposits(uint256,address)": {
        "params": {
          "epoch": "Target epoch",
          "user": "Address of the user"
        }
      },
      "getUserEpochPremium(uint256,address)": {
        "params": {
          "epoch": "Target epoch",
          "user": "Address of the user"
        }
      },
      "isContract(address)": {
        "details": "checks for contract or eoa addresses",
        "params": {
          "addr": "the address to check"
        },
        "returns": {
          "_0": "whether the passed address is a contract address"
        }
      },
      "owner()": {
        "details": "Returns the address of the current owner."
      },
      "pause()": {
        "details": "Can only be called by governance",
        "returns": {
          "_0": "Whether it was successfully paused"
        }
      },
      "paused()": {
        "details": "Returns true if the contract is paused, and false otherwise."
      },
      "purchase(uint256,uint256,address)": {
        "params": {
          "amount": "Amount of calls to purchase",
          "strikeIndex": "Strike index for current epoch",
          "user": "User to purchase options for"
        },
        "returns": {
          "_0": "Whether purchase was successful"
        }
      },
      "removeFromContractWhitelist(address)": {
        "details": "remove from  the contract whitelist",
        "params": {
          "_contract": "the address of the contract to remove from the contract whitelist"
        },
        "returns": {
          "_0": "whether the contract was successfully removed from the whitelist"
        }
      },
      "renounceOwnership()": {
        "details": "Leaves the contract without owner. It will not be possible to call `onlyOwner` functions anymore. Can only be called by the current owner. NOTE: Renouncing ownership will leave the contract without an owner, thereby removing any functionality that is only available to the owner."
      },
      "setAddresses(bytes32[],address[])": {
        "params": {
          "destinations": "Addresses of the contract",
          "names": "Names of the contracts"
        },
        "returns": {
          "_0": "Whether the addresses were set"
        }
      },
      "setStrikes(uint256[])": {
        "params": {
          "strikes": "Strikes to set for next epoch"
        },
        "returns": {
          "_0": "Whether strikes were set"
        }
      },
      "settle(uint256,uint256,uint256)": {
        "params": {
          "amount": "Amount of options",
          "epoch": "Epoch",
          "strikeIndex": "Strike index"
        },
        "returns": {
          "pnl": "pnl"
        }
      },
      "transferOwnership(address)": {
        "details": "Transfers ownership of the contract to a new account (`newOwner`). Can only be called by the current owner."
      },
      "unpause()": {
        "details": "Can only be called by governance",
        "returns": {
          "_0": "Whether it was successfully unpaused"
        }
      },
      "updateExpireDelayTolerance(uint256)": {
        "details": "Can only be called by governance",
        "returns": {
          "_0": "Whether it was successfully updated"
        }
      },
      "withdraw(uint256,uint256)": {
        "params": {
          "strikeIndex": "Index of strike",
          "withdrawEpoch": "Epoch to withdraw from"
        },
        "returns": {
          "_0": "DPX and rDPX withdrawn"
        }
      }
    },
    "stateVariables": {
      "addresses": {
        "details": "The list of contract addresses the contract uses"
      },
      "currentEpoch": {
        "details": "Current epoch for ssov"
      },
      "epochStartTimes": {
        "details": "epoch => the epoch start time"
      },
      "epochStrikeTokens": {
        "details": "Mapping of (epoch => (strike => tokens))"
      },
      "epochStrikes": {
        "details": "Mapping of strikes for each epoch"
      },
      "erc20Implementation": {
        "details": "ERC20PresetMinterPauserUpgradeable implementation address"
      },
      "expireDelayTolerance": {
        "details": "Expire delay tolerance"
      },
      "isEpochExpired": {
        "details": "epoch => whether the epoch is expired"
      },
      "isVaultReady": {
        "details": "epoch => whether the vault is ready (boostrapped)"
      },
      "settlementPrices": {
        "details": "epoch => settlement price"
      },
      "totalEpochBalance": {
        "details": "mapping (epoch => deposits)"
      },
      "totalEpochCallsPurchased": {
        "details": "mapping (epoch => (strike => calls purchased))"
      },
      "totalEpochDeposits": {
        "details": "mapping (epoch => deposits)"
      },
      "totalEpochPremium": {
        "details": "mapping (epoch => (strike => premium))"
      },
      "totalEpochStrikeBalance": {
        "details": "mapping (epoch => (strike => deposits))"
      },
      "totalEpochStrikeDeposits": {
        "details": "mapping (epoch => (strike => deposits))"
      },
      "totalEpochStrikeDpxBalance": {
        "details": "mapping (epoch => (strike => balance))"
      },
      "totalEpochStrikeRdpxBalance": {
        "details": "mapping (epoch => (strike => balance))"
      },
      "userEpochCallsPurchased": {
        "details": "mapping (epoch => (abi.encodePacked(user, strike) => user calls purchased))"
      },
      "userEpochDeposits": {
        "details": "mapping (epoch => (abi.encodePacked(user, strike) => user deposits))"
      },
      "userEpochPremium": {
        "details": "mapping (epoch => (abi.encodePacked(user, strike) => user premium))"
      }
    },
    "version": 1
  },
  "userdoc": {
    "kind": "user",
    "methods": {
      "bootstrap()": {
        "notice": "Bootstraps a new epoch and mints option tokens equivalent to user deposits for the epoch"
      },
      "calculatePnl(uint256,uint256,uint256)": {
        "notice": "Calculate Pnl"
      },
      "calculatePremium(uint256,uint256)": {
        "notice": "Calculate premium for an option"
      },
      "calculatePurchaseFees(uint256,uint256,uint256)": {
        "notice": "Calculate Fees for purchase"
      },
      "calculateSettlementFees(uint256,uint256,uint256)": {
        "notice": "Calculate Fees for settlement"
      },
      "compound()": {
        "notice": "Allows anyone to call compound()"
      },
      "deposit(uint256,uint256,address)": {
        "notice": "Deposits rdpx into the ssov to mint options in the next epoch for selected strikes"
      },
      "depositMultiple(uint256[],uint256[],address)": {
        "notice": "Deposit rDPX multiple times"
      },
      "emergencyWithdraw()": {
        "notice": "Transfers all funds to msg.sender"
      },
      "expireEpoch()": {
        "notice": "Sets the current epoch as expired."
      },
      "expireEpoch(uint256)": {
        "notice": "Sets the current epoch as expired."
      },
      "getAddress(bytes32)": {
        "notice": "Gets the address of a set contract"
      },
      "getEpochStrikeTokens(uint256)": {
        "notice": "Returns epoch strike tokens array for an epoch"
      },
      "getEpochStrikes(uint256)": {
        "notice": "Returns epoch strikes array for an epoch"
      },
      "getEpochTimes(uint256)": {
        "notice": "Returns start and end times for an epoch"
      },
      "getMonthlyExpiryFromTimestamp(uint256)": {
        "notice": "Calculates the monthly expiry from a solidity date"
      },
      "getTotalEpochCallsPurchased(uint256)": {
        "notice": "Returns total epoch calls purchased array for an epoch"
      },
      "getTotalEpochPremium(uint256)": {
        "notice": "Returns total epoch premium array for an epoch"
      },
      "getTotalEpochStrikeDeposits(uint256)": {
        "notice": "Returns total epoch strike deposits array for an epoch"
      },
      "getUsdPrice()": {
        "notice": "Returns rDPX price in USD"
      },
      "getUserEpochCallsPurchased(uint256,address)": {
        "notice": "Returns user epoch calls purchased array for an epoch"
      },
      "getUserEpochDeposits(uint256,address)": {
        "notice": "Returns user epoch deposits array for an epoch"
      },
      "getUserEpochPremium(uint256,address)": {
        "notice": "Returns user epoch premium array for an epoch"
      },
      "isEpochExpired(uint256)": {
        "notice": "Is epoch expired"
      },
      "isVaultReady(uint256)": {
        "notice": "Is vault ready for next epoch"
      },
      "pause()": {
        "notice": "Pauses the vault for emergency cases"
      },
      "purchase(uint256,uint256,address)": {
        "notice": "Purchases calls for the current epoch"
      },
      "setAddresses(bytes32[],address[])": {
        "notice": "Sets (adds) a list of addresses to the address list"
      },
      "setStrikes(uint256[])": {
        "notice": "Sets strikes for next epoch"
      },
      "settle(uint256,uint256,uint256)": {
        "notice": "Settle calculates the PnL for the user and withdraws the PnL in rDPX to the user. Will also the burn the option tokens from the user."
      },
      "totalEpochBalance(uint256)": {
        "notice": "Total epoch deposits across all strikes including premiums and rewards"
      },
      "totalEpochDeposits(uint256)": {
        "notice": "Total epoch deposits across all strikes"
      },
      "totalEpochPremium(uint256,uint256)": {
        "notice": "Premium collected per strike for an epoch"
      },
      "totalEpochStrikeBalance(uint256,uint256)": {
        "notice": "Total epoch deposits for specific strikes including premiums and rewards"
      },
      "totalEpochStrikeDeposits(uint256,uint256)": {
        "notice": "Total epoch deposits for specific strikes"
      },
      "totalEpochStrikeDpxBalance(uint256,uint256)": {
        "notice": "Epoch DPX balance per strike after accounting for rewards"
      },
      "totalEpochStrikeRdpxBalance(uint256,uint256)": {
        "notice": "Epoch rDPX balance per strike after accounting for rewards"
      },
      "unpause()": {
        "notice": "Unpauses the vault"
      },
      "updateExpireDelayTolerance(uint256)": {
        "notice": "Updates the delay tolerance for the expiry epoch function"
      },
      "userEpochCallsPurchased(uint256,bytes32)": {
        "notice": "Calls purchased by user for each strike"
      },
      "userEpochDeposits(uint256,bytes32)": {
        "notice": "Epoch deposits by user for each strike"
      },
      "userEpochPremium(uint256,bytes32)": {
        "notice": "User premium collected per strike for an epoch"
      },
      "withdraw(uint256,uint256)": {
        "notice": "Withdraws balances for a strike in a completed epoch"
      }
    },
    "version": 1
  },
  "storageLayout": {
    "storage": [
      {
        "astId": 3344,
        "contract": "contracts/SSOV/v2/RdpxSSOVV2.sol:RdpxSSOVV2",
        "label": "_owner",
        "offset": 0,
        "slot": "0",
        "type": "t_address"
      },
      {
        "astId": 43959,
        "contract": "contracts/SSOV/v2/RdpxSSOVV2.sol:RdpxSSOVV2",
        "label": "whitelistedContracts",
        "offset": 0,
        "slot": "1",
        "type": "t_mapping(t_address,t_bool)"
      },
      {
        "astId": 3585,
        "contract": "contracts/SSOV/v2/RdpxSSOVV2.sol:RdpxSSOVV2",
        "label": "_paused",
        "offset": 0,
        "slot": "2",
        "type": "t_bool"
      },
      {
        "astId": 30271,
        "contract": "contracts/SSOV/v2/RdpxSSOVV2.sol:RdpxSSOVV2",
        "label": "currentEpoch",
        "offset": 0,
        "slot": "3",
        "type": "t_uint256"
      },
      {
        "astId": 30275,
        "contract": "contracts/SSOV/v2/RdpxSSOVV2.sol:RdpxSSOVV2",
        "label": "expireDelayTolerance",
        "offset": 0,
        "slot": "4",
        "type": "t_uint256"
      },
      {
        "astId": 30280,
        "contract": "contracts/SSOV/v2/RdpxSSOVV2.sol:RdpxSSOVV2",
        "label": "addresses",
        "offset": 0,
        "slot": "5",
        "type": "t_mapping(t_bytes32,t_address)"
      },
      {
        "astId": 30285,
        "contract": "contracts/SSOV/v2/RdpxSSOVV2.sol:RdpxSSOVV2",
        "label": "epochStartTimes",
        "offset": 0,
        "slot": "6",
        "type": "t_mapping(t_uint256,t_uint256)"
      },
      {
        "astId": 30290,
        "contract": "contracts/SSOV/v2/RdpxSSOVV2.sol:RdpxSSOVV2",
        "label": "isEpochExpired",
        "offset": 0,
        "slot": "7",
        "type": "t_mapping(t_uint256,t_bool)"
      },
      {
        "astId": 30295,
        "contract": "contracts/SSOV/v2/RdpxSSOVV2.sol:RdpxSSOVV2",
        "label": "isVaultReady",
        "offset": 0,
        "slot": "8",
        "type": "t_mapping(t_uint256,t_bool)"
      },
      {
        "astId": 30301,
        "contract": "contracts/SSOV/v2/RdpxSSOVV2.sol:RdpxSSOVV2",
        "label": "epochStrikes",
        "offset": 0,
        "slot": "9",
        "type": "t_mapping(t_uint256,t_array(t_uint256)dyn_storage)"
      },
      {
        "astId": 30308,
        "contract": "contracts/SSOV/v2/RdpxSSOVV2.sol:RdpxSSOVV2",
        "label": "epochStrikeTokens",
        "offset": 0,
        "slot": "10",
        "type": "t_mapping(t_uint256,t_mapping(t_uint256,t_address))"
      },
      {
        "astId": 30315,
        "contract": "contracts/SSOV/v2/RdpxSSOVV2.sol:RdpxSSOVV2",
        "label": "totalEpochStrikeDeposits",
        "offset": 0,
        "slot": "11",
        "type": "t_mapping(t_uint256,t_mapping(t_uint256,t_uint256))"
      },
      {
        "astId": 30320,
        "contract": "contracts/SSOV/v2/RdpxSSOVV2.sol:RdpxSSOVV2",
        "label": "totalEpochDeposits",
        "offset": 0,
        "slot": "12",
        "type": "t_mapping(t_uint256,t_uint256)"
      },
      {
        "astId": 30327,
        "contract": "contracts/SSOV/v2/RdpxSSOVV2.sol:RdpxSSOVV2",
        "label": "totalEpochStrikeBalance",
        "offset": 0,
        "slot": "13",
        "type": "t_mapping(t_uint256,t_mapping(t_uint256,t_uint256))"
      },
      {
        "astId": 30332,
        "contract": "contracts/SSOV/v2/RdpxSSOVV2.sol:RdpxSSOVV2",
        "label": "totalEpochBalance",
        "offset": 0,
        "slot": "14",
        "type": "t_mapping(t_uint256,t_uint256)"
      },
      {
        "astId": 30339,
        "contract": "contracts/SSOV/v2/RdpxSSOVV2.sol:RdpxSSOVV2",
        "label": "userEpochDeposits",
        "offset": 0,
        "slot": "15",
        "type": "t_mapping(t_uint256,t_mapping(t_bytes32,t_uint256))"
      },
      {
        "astId": 30346,
        "contract": "contracts/SSOV/v2/RdpxSSOVV2.sol:RdpxSSOVV2",
        "label": "totalEpochStrikeRdpxBalance",
        "offset": 0,
        "slot": "16",
        "type": "t_mapping(t_uint256,t_mapping(t_uint256,t_uint256))"
      },
      {
        "astId": 30353,
        "contract": "contracts/SSOV/v2/RdpxSSOVV2.sol:RdpxSSOVV2",
        "label": "totalEpochStrikeDpxBalance",
        "offset": 0,
        "slot": "17",
        "type": "t_mapping(t_uint256,t_mapping(t_uint256,t_uint256))"
      },
      {
        "astId": 30360,
        "contract": "contracts/SSOV/v2/RdpxSSOVV2.sol:RdpxSSOVV2",
        "label": "totalEpochCallsPurchased",
        "offset": 0,
        "slot": "18",
        "type": "t_mapping(t_uint256,t_mapping(t_uint256,t_uint256))"
      },
      {
        "astId": 30367,
        "contract": "contracts/SSOV/v2/RdpxSSOVV2.sol:RdpxSSOVV2",
        "label": "userEpochCallsPurchased",
        "offset": 0,
        "slot": "19",
        "type": "t_mapping(t_uint256,t_mapping(t_bytes32,t_uint256))"
      },
      {
        "astId": 30374,
        "contract": "contracts/SSOV/v2/RdpxSSOVV2.sol:RdpxSSOVV2",
        "label": "totalEpochPremium",
        "offset": 0,
        "slot": "20",
        "type": "t_mapping(t_uint256,t_mapping(t_uint256,t_uint256))"
      },
      {
        "astId": 30381,
        "contract": "contracts/SSOV/v2/RdpxSSOVV2.sol:RdpxSSOVV2",
        "label": "userEpochPremium",
        "offset": 0,
        "slot": "21",
        "type": "t_mapping(t_uint256,t_mapping(t_bytes32,t_uint256))"
      },
      {
        "astId": 30386,
        "contract": "contracts/SSOV/v2/RdpxSSOVV2.sol:RdpxSSOVV2",
        "label": "settlementPrices",
        "offset": 0,
        "slot": "22",
        "type": "t_mapping(t_uint256,t_uint256)"
      }
    ],
    "types": {
      "t_address": {
        "encoding": "inplace",
        "label": "address",
        "numberOfBytes": "20"
      },
      "t_array(t_uint256)dyn_storage": {
        "base": "t_uint256",
        "encoding": "dynamic_array",
        "label": "uint256[]",
        "numberOfBytes": "32"
      },
      "t_bool": {
        "encoding": "inplace",
        "label": "bool",
        "numberOfBytes": "1"
      },
      "t_bytes32": {
        "encoding": "inplace",
        "label": "bytes32",
        "numberOfBytes": "32"
      },
      "t_mapping(t_address,t_bool)": {
        "encoding": "mapping",
        "key": "t_address",
        "label": "mapping(address => bool)",
        "numberOfBytes": "32",
        "value": "t_bool"
      },
      "t_mapping(t_bytes32,t_address)": {
        "encoding": "mapping",
        "key": "t_bytes32",
        "label": "mapping(bytes32 => address)",
        "numberOfBytes": "32",
        "value": "t_address"
      },
      "t_mapping(t_bytes32,t_uint256)": {
        "encoding": "mapping",
        "key": "t_bytes32",
        "label": "mapping(bytes32 => uint256)",
        "numberOfBytes": "32",
        "value": "t_uint256"
      },
      "t_mapping(t_uint256,t_address)": {
        "encoding": "mapping",
        "key": "t_uint256",
        "label": "mapping(uint256 => address)",
        "numberOfBytes": "32",
        "value": "t_address"
      },
      "t_mapping(t_uint256,t_array(t_uint256)dyn_storage)": {
        "encoding": "mapping",
        "key": "t_uint256",
        "label": "mapping(uint256 => uint256[])",
        "numberOfBytes": "32",
        "value": "t_array(t_uint256)dyn_storage"
      },
      "t_mapping(t_uint256,t_bool)": {
        "encoding": "mapping",
        "key": "t_uint256",
        "label": "mapping(uint256 => bool)",
        "numberOfBytes": "32",
        "value": "t_bool"
      },
      "t_mapping(t_uint256,t_mapping(t_bytes32,t_uint256))": {
        "encoding": "mapping",
        "key": "t_uint256",
        "label": "mapping(uint256 => mapping(bytes32 => uint256))",
        "numberOfBytes": "32",
        "value": "t_mapping(t_bytes32,t_uint256)"
      },
      "t_mapping(t_uint256,t_mapping(t_uint256,t_address))": {
        "encoding": "mapping",
        "key": "t_uint256",
        "label": "mapping(uint256 => mapping(uint256 => address))",
        "numberOfBytes": "32",
        "value": "t_mapping(t_uint256,t_address)"
      },
      "t_mapping(t_uint256,t_mapping(t_uint256,t_uint256))": {
        "encoding": "mapping",
        "key": "t_uint256",
        "label": "mapping(uint256 => mapping(uint256 => uint256))",
        "numberOfBytes": "32",
        "value": "t_mapping(t_uint256,t_uint256)"
      },
      "t_mapping(t_uint256,t_uint256)": {
        "encoding": "mapping",
        "key": "t_uint256",
        "label": "mapping(uint256 => uint256)",
        "numberOfBytes": "32",
        "value": "t_uint256"
      },
      "t_uint256": {
        "encoding": "inplace",
        "label": "uint256",
        "numberOfBytes": "32"
      }
    }
  }
}