{
  "address": "0xc4e63f3bE080d932f6d2d1ba1936Be72b37Fc134",
  "abi": [
    {
      "inputs": [
        {
          "internalType": "address",
          "name": "_ethSsov",
          "type": "address"
        },
        {
          "internalType": "address",
          "name": "_dpxSsov",
          "type": "address"
        },
        {
          "internalType": "address",
          "name": "_dpx",
          "type": "address"
        },
        {
          "internalType": "address",
          "name": "_rdpx",
          "type": "address"
        }
      ],
      "stateMutability": "nonpayable",
      "type": "constructor"
    },
    {
      "anonymous": false,
      "inputs": [
        {
          "indexed": true,
          "internalType": "address",
          "name": "previousOwner",
          "type": "address"
        },
        {
          "indexed": true,
          "internalType": "address",
          "name": "newOwner",
          "type": "address"
        }
      ],
      "name": "OwnershipTransferred",
      "type": "event"
    },
    {
      "inputs": [
        {
          "internalType": "uint256",
          "name": "strikeIndex",
          "type": "uint256"
        },
        {
          "internalType": "uint256",
          "name": "amount",
          "type": "uint256"
        }
      ],
      "name": "deposit",
      "outputs": [],
      "stateMutability": "nonpayable",
      "type": "function"
    },
    {
      "inputs": [],
      "name": "dpx",
      "outputs": [
        {
          "internalType": "contract IERC20",
          "name": "",
          "type": "address"
        }
      ],
      "stateMutability": "view",
      "type": "function"
    },
    {
      "inputs": [
        {
          "internalType": "uint256",
          "name": "",
          "type": "uint256"
        }
      ],
      "name": "dpxReceived",
      "outputs": [
        {
          "internalType": "uint256",
          "name": "",
          "type": "uint256"
        }
      ],
      "stateMutability": "view",
      "type": "function"
    },
    {
      "inputs": [],
      "name": "dpxSsov",
      "outputs": [
        {
          "internalType": "contract ISSOV",
          "name": "",
          "type": "address"
        }
      ],
      "stateMutability": "view",
      "type": "function"
    },
    {
      "inputs": [],
      "name": "ethSsov",
      "outputs": [
        {
          "internalType": "address",
          "name": "",
          "type": "address"
        }
      ],
      "stateMutability": "view",
      "type": "function"
    },
    {
      "inputs": [],
      "name": "owner",
      "outputs": [
        {
          "internalType": "address",
          "name": "",
          "type": "address"
        }
      ],
      "stateMutability": "view",
      "type": "function"
    },
    {
      "inputs": [
        {
          "internalType": "uint256",
          "name": "epoch",
          "type": "uint256"
        },
        {
          "internalType": "uint256",
          "name": "userDeposit",
          "type": "uint256"
        },
        {
          "internalType": "uint256",
          "name": "totalDeposit",
          "type": "uint256"
        },
        {
          "internalType": "address",
          "name": "user",
          "type": "address"
        }
      ],
      "name": "pull",
      "outputs": [
        {
          "internalType": "uint256",
          "name": "dpxRewards",
          "type": "uint256"
        },
        {
          "internalType": "uint256",
          "name": "rdpxRewards",
          "type": "uint256"
        }
      ],
      "stateMutability": "nonpayable",
      "type": "function"
    },
    {
      "inputs": [],
      "name": "rdpx",
      "outputs": [
        {
          "internalType": "contract IERC20",
          "name": "",
          "type": "address"
        }
      ],
      "stateMutability": "view",
      "type": "function"
    },
    {
      "inputs": [
        {
          "internalType": "uint256",
          "name": "",
          "type": "uint256"
        }
      ],
      "name": "rdpxReceived",
      "outputs": [
        {
          "internalType": "uint256",
          "name": "",
          "type": "uint256"
        }
      ],
      "stateMutability": "view",
      "type": "function"
    },
    {
      "inputs": [],
      "name": "renounceOwnership",
      "outputs": [],
      "stateMutability": "nonpayable",
      "type": "function"
    },
    {
      "inputs": [],
      "name": "stop",
      "outputs": [],
      "stateMutability": "nonpayable",
      "type": "function"
    },
    {
      "inputs": [
        {
          "internalType": "address",
          "name": "newOwner",
          "type": "address"
        }
      ],
      "name": "transferOwnership",
      "outputs": [],
      "stateMutability": "nonpayable",
      "type": "function"
    },
    {
      "inputs": [
        {
          "internalType": "uint256",
          "name": "dpxEpoch",
          "type": "uint256"
        },
        {
          "internalType": "uint256",
          "name": "ethEpoch",
          "type": "uint256"
        },
        {
          "internalType": "uint256",
          "name": "strikeIndex",
          "type": "uint256"
        }
      ],
      "name": "withdraw",
      "outputs": [],
      "stateMutability": "nonpayable",
      "type": "function"
    }
  ],
  "transactionHash": "0xffb0f2b18373154323694e238e4c16fdcf7a26f13f29ac39926bc49cae335d56",
  "args": [
    "0x711Da677a0D61Ee855DAd4241B552A706F529C70",
    "0x48252eDBFCc8A27390827950ccFc1c00152894E3",
    "0x6c2c06790b3e3e3c38e12ee22f8183b37a13ee55",
    "0x32eb7902d4134bf98a28b963d26de779af92a212"
  ],
  "numDeployments": 1,
  "solcInputHash": "74a09ca61ff4aeb2ed6cd5e5f46cd5e4",
  "bytecode": "0x6101006040523480156200001257600080fd5b5060405162001259380380620012598339810160408190526200003591620000d0565b620000403362000063565b6001600160a01b0393841660805291831660a052821660c0521660e0526200012d565b600080546001600160a01b038381166001600160a01b0319831681178455604051919092169283917f8be0079c531659141344cd1fd0a4f28419497f9722a3daafe3b4186f6b6457e09190a35050565b80516001600160a01b0381168114620000cb57600080fd5b919050565b60008060008060808587031215620000e757600080fd5b620000f285620000b3565b93506200010260208601620000b3565b92506200011260408601620000b3565b91506200012260608601620000b3565b905092959194509250565b60805160a05160c05160e051611097620001c2600039600081816101100152818161038301528181610407015261060201526000818161014f015281816102b501528181610339015281816105ce0152818161079801526107cd0152600081816101d0015281816106b2015281816107ef01526108370152600081816101f70152818161043201526104ee01526110976000f3fe608060405234801561001057600080fd5b50600436106100cf5760003560e01c806390ba19601161008c578063d16e75f811610066578063d16e75f8146101f2578063e2bbb15814610219578063e2fd47cb1461022c578063f2fde38b1461024c57600080fd5b806390ba19601461018a578063a41fe49f146101b8578063bc8b750d146101cb57600080fd5b806307da68f5146100d45780630a62eadc146100de5780631f9902f51461010b57806343365f8c1461014a578063715018a6146101715780638da5cb5b14610179575b600080fd5b6100dc61025f565b005b6100f16100ec366004610dd8565b6104e0565b604080519283526020830191909152015b60405180910390f35b6101327f000000000000000000000000000000000000000000000000000000000000000081565b6040516001600160a01b039091168152602001610102565b6101327f000000000000000000000000000000000000000000000000000000000000000081565b6100dc610632565b6000546001600160a01b0316610132565b6101aa610198366004610e17565b60016020526000908152604090205481565b604051908152602001610102565b6100dc6101c6366004610e30565b610668565b6101327f000000000000000000000000000000000000000000000000000000000000000081565b6101327f000000000000000000000000000000000000000000000000000000000000000081565b6100dc610227366004610e5c565b610761565b6101aa61023a366004610e17565b60026020526000908152604090205481565b6100dc61025a366004610e7e565b6108c0565b6000546001600160a01b031633146102925760405162461bcd60e51b815260040161028990610e99565b60405180910390fd5b6040516370a0823160e01b81523060048201526103609033906001600160a01b037f000000000000000000000000000000000000000000000000000000000000000016906370a082319060240160206040518083038186803b1580156102f757600080fd5b505afa15801561030b573d6000803e3d6000fd5b505050506040513d601f19601f8201168201806040525081019061032f9190610ece565b6001600160a01b037f000000000000000000000000000000000000000000000000000000000000000016919061095b565b6040516370a0823160e01b815230600482015261042e9033906001600160a01b037f000000000000000000000000000000000000000000000000000000000000000016906370a082319060240160206040518083038186803b1580156103c557600080fd5b505afa1580156103d9573d6000803e3d6000fd5b505050506040513d601f19601f820116820180604052508101906103fd9190610ece565b6001600160a01b037f000000000000000000000000000000000000000000000000000000000000000016919061095b565b60007f00000000000000000000000000000000000000000000000000000000000000006001600160a01b031663766718086040518163ffffffff1660e01b815260040160206040518083038186803b15801561048957600080fd5b505afa15801561049d573d6000803e3d6000fd5b505050506040513d601f19601f820116820180604052508101906104c19190610ece565b6000908152600160209081526040808320839055600290915281205550565b600080336001600160a01b037f000000000000000000000000000000000000000000000000000000000000000016146105705760405162461bcd60e51b815260206004820152602c60248201527f52657761726473446973747269627574696f6e3a2043616c6c6572206d75737460448201526b1031329022aa241029a9a7ab60a11b6064820152608401610289565b600086815260016020526040902054849061058c908790610ee7565b6105969190610f14565b60008781526002602052604090205490925084906105b5908790610ee7565b6105bf9190610f14565b90506105f56001600160a01b037f000000000000000000000000000000000000000000000000000000000000000016848461095b565b6106296001600160a01b037f000000000000000000000000000000000000000000000000000000000000000016848361095b565b94509492505050565b6000546001600160a01b0316331461065c5760405162461bcd60e51b815260040161028990610e99565b61066660006109be565b565b6000546001600160a01b031633146106925760405162461bcd60e51b815260040161028990610e99565b604051630441a3e760e41b815260048101849052602481018290526000907f00000000000000000000000000000000000000000000000000000000000000006001600160a01b03169063441a3e70906044016040805180830381600087803b1580156106fd57600080fd5b505af1158015610711573d6000803e3d6000fd5b505050506040513d601f19601f820116820180604052508101906107359190610f36565b805160009485526001602090815260408087209290925591820151600290925290932092909255505050565b6000546001600160a01b0316331461078b5760405162461bcd60e51b815260040161028990610e99565b6107c06001600160a01b037f000000000000000000000000000000000000000000000000000000000000000016333084610a0e565b6108146001600160a01b037f0000000000000000000000000000000000000000000000000000000000000000167f000000000000000000000000000000000000000000000000000000000000000083610a4c565b604051638dbdbe6d60e01b815260048101839052602481018290523060448201527f00000000000000000000000000000000000000000000000000000000000000006001600160a01b031690638dbdbe6d90606401602060405180830381600087803b15801561088357600080fd5b505af1158015610897573d6000803e3d6000fd5b505050506040513d601f19601f820116820180604052508101906108bb9190610fc4565b505050565b6000546001600160a01b031633146108ea5760405162461bcd60e51b815260040161028990610e99565b6001600160a01b03811661094f5760405162461bcd60e51b815260206004820152602660248201527f4f776e61626c653a206e6577206f776e657220697320746865207a65726f206160448201526564647265737360d01b6064820152608401610289565b610958816109be565b50565b6040516001600160a01b0383166024820152604481018290526108bb90849063a9059cbb60e01b906064015b60408051601f198184030181529190526020810180516001600160e01b03166001600160e01b031990931692909217909152610b70565b600080546001600160a01b038381166001600160a01b0319831681178455604051919092169283917f8be0079c531659141344cd1fd0a4f28419497f9722a3daafe3b4186f6b6457e09190a35050565b6040516001600160a01b0380851660248301528316604482015260648101829052610a469085906323b872dd60e01b90608401610987565b50505050565b801580610ad55750604051636eb1769f60e11b81523060048201526001600160a01b03838116602483015284169063dd62ed3e9060440160206040518083038186803b158015610a9b57600080fd5b505afa158015610aaf573d6000803e3d6000fd5b505050506040513d601f19601f82011682018060405250810190610ad39190610ece565b155b610b405760405162461bcd60e51b815260206004820152603660248201527f5361666545524332303a20617070726f76652066726f6d206e6f6e2d7a65726f60448201527520746f206e6f6e2d7a65726f20616c6c6f77616e636560501b6064820152608401610289565b6040516001600160a01b0383166024820152604481018290526108bb90849063095ea7b360e01b90606401610987565b6000610bc5826040518060400160405280602081526020017f5361666545524332303a206c6f772d6c6576656c2063616c6c206661696c6564815250856001600160a01b0316610c429092919063ffffffff16565b8051909150156108bb5780806020019051810190610be39190610fc4565b6108bb5760405162461bcd60e51b815260206004820152602a60248201527f5361666545524332303a204552433230206f7065726174696f6e20646964206e6044820152691bdd081cdd58d8d9595960b21b6064820152608401610289565b6060610c518484600085610c5b565b90505b9392505050565b606082471015610cbc5760405162461bcd60e51b815260206004820152602660248201527f416464726573733a20696e73756666696369656e742062616c616e636520666f6044820152651c8818d85b1b60d21b6064820152608401610289565b843b610d0a5760405162461bcd60e51b815260206004820152601d60248201527f416464726573733a2063616c6c20746f206e6f6e2d636f6e74726163740000006044820152606401610289565b600080866001600160a01b03168587604051610d269190611012565b60006040518083038185875af1925050503d8060008114610d63576040519150601f19603f3d011682016040523d82523d6000602084013e610d68565b606091505b5091509150610d78828286610d83565b979650505050505050565b60608315610d92575081610c54565b825115610da25782518084602001fd5b8160405162461bcd60e51b8152600401610289919061102e565b80356001600160a01b0381168114610dd357600080fd5b919050565b60008060008060808587031215610dee57600080fd5b843593506020850135925060408501359150610e0c60608601610dbc565b905092959194509250565b600060208284031215610e2957600080fd5b5035919050565b600080600060608486031215610e4557600080fd5b505081359360208301359350604090920135919050565b60008060408385031215610e6f57600080fd5b50508035926020909101359150565b600060208284031215610e9057600080fd5b610c5482610dbc565b6020808252818101527f4f776e61626c653a2063616c6c6572206973206e6f7420746865206f776e6572604082015260600190565b600060208284031215610ee057600080fd5b5051919050565b6000816000190483118215151615610f0f57634e487b7160e01b600052601160045260246000fd5b500290565b600082610f3157634e487b7160e01b600052601260045260246000fd5b500490565b600060408284031215610f4857600080fd5b82601f830112610f5757600080fd5b6040516040810181811067ffffffffffffffff82111715610f8857634e487b7160e01b600052604160045260246000fd5b8060405250806040840185811115610f9f57600080fd5b845b81811015610fb9578051835260209283019201610fa1565b509195945050505050565b600060208284031215610fd657600080fd5b81518015158114610c5457600080fd5b60005b83811015611001578181015183820152602001610fe9565b83811115610a465750506000910152565b60008251611024818460208701610fe6565b9190910192915050565b602081526000825180602084015261104d816040850160208701610fe6565b601f01601f1916919091016040019291505056fea26469706673582212205d11bfd09abf343266fe46637c202888cc3f3fe9b18f2ec9bf212561e071a54964736f6c63430008090033",
  "devdoc": {
    "kind": "dev",
    "methods": {
      "constructor": {
        "params": {
          "_dpx": "DPX token address",
          "_dpxSsov": "DPX SSOV address",
          "_ethSsov": "ETH SSOV address",
          "_rdpx": "rDPX token address"
        }
      },
      "deposit(uint256,uint256)": {
        "params": {
          "amount": "Amount of DPX rewards",
          "strikeIndex": "Strike index in the DPX ssov to deposit in"
        }
      },
      "owner()": {
        "details": "Returns the address of the current owner."
      },
      "pull(uint256,uint256,uint256,address)": {
        "params": {
          "epoch": "Epoch"
        }
      },
      "renounceOwnership()": {
        "details": "Leaves the contract without owner. It will not be possible to call `onlyOwner` functions anymore. Can only be called by the current owner. NOTE: Renouncing ownership will leave the contract without an owner, thereby removing any functionality that is only available to the owner."
      },
      "transferOwnership(address)": {
        "details": "Transfers ownership of the contract to a new account (`newOwner`). Can only be called by the current owner."
      },
      "withdraw(uint256,uint256,uint256)": {
        "params": {
          "dpxEpoch": "Epoch to withdraw from in DPX SSOV",
          "ethEpoch": "Epoch to store rewards for ETH SSOV",
          "strikeIndex": "Strike Index to withdraw from"
        }
      }
    },
    "stateVariables": {
      "dpx": {
        "details": "DPX token contract"
      },
      "dpxReceived": {
        "details": "epoch => amount"
      },
      "dpxSsov": {
        "details": "DPX SSOV contract"
      },
      "ethSsov": {
        "details": "ETH SSOV address"
      },
      "rdpx": {
        "details": "rDPX token contract"
      },
      "rdpxReceived": {
        "details": "epoch => amount"
      }
    },
    "version": 1
  },
  "userdoc": {
    "kind": "user",
    "methods": {
      "deposit(uint256,uint256)": {
        "notice": "Transfer rewards and deposit to DPX SSOV"
      },
      "pull(uint256,uint256,uint256,address)": {
        "notice": "Let ETH SSOV pull rewards DPX (and rDPX) rewards"
      },
      "stop()": {
        "notice": "Stop rewards"
      },
      "withdraw(uint256,uint256,uint256)": {
        "notice": "Withdraw rewards from DPX SSOV"
      }
    },
    "version": 1
  },
  "storageLayout": {
    "storage": [
      {
        "astId": 3344,
        "contract": "contracts/rewards/RewardsDistributionV2.sol:RewardsDistributionV2",
        "label": "_owner",
        "offset": 0,
        "slot": "0",
        "type": "t_address"
      },
      {
        "astId": 48643,
        "contract": "contracts/rewards/RewardsDistributionV2.sol:RewardsDistributionV2",
        "label": "dpxReceived",
        "offset": 0,
        "slot": "1",
        "type": "t_mapping(t_uint256,t_uint256)"
      },
      {
        "astId": 48648,
        "contract": "contracts/rewards/RewardsDistributionV2.sol:RewardsDistributionV2",
        "label": "rdpxReceived",
        "offset": 0,
        "slot": "2",
        "type": "t_mapping(t_uint256,t_uint256)"
      }
    ],
    "types": {
      "t_address": {
        "encoding": "inplace",
        "label": "address",
        "numberOfBytes": "20"
      },
      "t_mapping(t_uint256,t_uint256)": {
        "encoding": "mapping",
        "key": "t_uint256",
        "label": "mapping(uint256 => uint256)",
        "numberOfBytes": "32",
        "value": "t_uint256"
      },
      "t_uint256": {
        "encoding": "inplace",
        "label": "uint256",
        "numberOfBytes": "32"
      }
    }
  }
}