{
  "address": "0xFC240385B257DaC2600e7fD643090E02bDC314D0",
  "abi": [
    {
      "inputs": [],
      "stateMutability": "nonpayable",
      "type": "constructor"
    },
    {
      "anonymous": false,
      "inputs": [
        {
          "indexed": true,
          "internalType": "address",
          "name": "previousOwner",
          "type": "address"
        },
        {
          "indexed": true,
          "internalType": "address",
          "name": "newOwner",
          "type": "address"
        }
      ],
      "name": "OwnershipTransferred",
      "type": "event"
    },
    {
      "anonymous": false,
      "inputs": [
        {
          "indexed": false,
          "internalType": "address",
          "name": "_ssov",
          "type": "address"
        },
        {
          "indexed": false,
          "internalType": "address",
          "name": "_ssovToken",
          "type": "address"
        },
        {
          "indexed": false,
          "internalType": "uint256",
          "name": "_exerciseFee",
          "type": "uint256"
        },
        {
          "indexed": false,
          "internalType": "uint256",
          "name": "_exerciseFeeCap",
          "type": "uint256"
        }
      ],
      "name": "SSOVDelegatorCreated",
      "type": "event"
    },
    {
      "inputs": [
        {
          "internalType": "address",
          "name": "_ssov",
          "type": "address"
        },
        {
          "internalType": "address",
          "name": "_ssovToken",
          "type": "address"
        },
        {
          "internalType": "uint256",
          "name": "_exerciseFee",
          "type": "uint256"
        },
        {
          "internalType": "uint256",
          "name": "_exerciseFeeCap",
          "type": "uint256"
        }
      ],
      "name": "create",
      "outputs": [
        {
          "internalType": "address",
          "name": "",
          "type": "address"
        }
      ],
      "stateMutability": "nonpayable",
      "type": "function"
    },
    {
      "inputs": [],
      "name": "implementationAddress",
      "outputs": [
        {
          "internalType": "address",
          "name": "",
          "type": "address"
        }
      ],
      "stateMutability": "view",
      "type": "function"
    },
    {
      "inputs": [],
      "name": "owner",
      "outputs": [
        {
          "internalType": "address",
          "name": "",
          "type": "address"
        }
      ],
      "stateMutability": "view",
      "type": "function"
    },
    {
      "inputs": [],
      "name": "renounceOwnership",
      "outputs": [],
      "stateMutability": "nonpayable",
      "type": "function"
    },
    {
      "inputs": [
        {
          "internalType": "address",
          "name": "",
          "type": "address"
        }
      ],
      "name": "ssovDelegators",
      "outputs": [
        {
          "internalType": "address",
          "name": "",
          "type": "address"
        }
      ],
      "stateMutability": "view",
      "type": "function"
    },
    {
      "inputs": [
        {
          "internalType": "address",
          "name": "newOwner",
          "type": "address"
        }
      ],
      "name": "transferOwnership",
      "outputs": [],
      "stateMutability": "nonpayable",
      "type": "function"
    }
  ],
  "transactionHash": "0x732316bc70a5ad11337cfabc80a6ba1206bf962f96163ec9034defca16d773aa",
  "args": [],
  "solcInputHash": "efcec16eb5d64fbd6d708197f9b5b2f0",
  "bytecode": "0x60a060405234801561001057600080fd5b50600080546001600160a01b031916339081178255604051909182917f8be0079c531659141344cd1fd0a4f28419497f9722a3daafe3b4186f6b6457e0908290a35060405161005e90610090565b604051809103906000f08015801561007a573d6000803e3d6000fd5b5060601b6001600160601b03191660805261009d565b611aa58061066283390190565b60805160601c6105a16100c16000396000818160cc01526101c301526105a16000f3fe608060405234801561001057600080fd5b50600436106100625760003560e01c806367a10cb714610067578063715018a6146100ac5780638da5cb5b146100b6578063b97a2319146100c7578063d5c44c69146100ee578063f2fde38b14610101575b600080fd5b6100906100753660046104d4565b6001602052600090815260409020546001600160a01b031681565b6040516001600160a01b03909116815260200160405180910390f35b6100b4610114565b005b6000546001600160a01b0316610090565b6100907f000000000000000000000000000000000000000000000000000000000000000081565b6100906100fc3660046104f5565b610191565b6100b461010f3660046104d4565b610336565b6000546001600160a01b031633146101475760405162461bcd60e51b815260040161013e90610536565b60405180910390fd5b600080546040516001600160a01b03909116907f8be0079c531659141344cd1fd0a4f28419497f9722a3daafe3b4186f6b6457e0908390a3600080546001600160a01b0319169055565b600080546001600160a01b031633146101bc5760405162461bcd60e51b815260040161013e90610536565b60006101e77f0000000000000000000000000000000000000000000000000000000000000000610420565b60405163eb990c5960e01b81526001600160a01b038881166004830152878116602483015260448201879052606482018690529192509082169063eb990c5990608401600060405180830381600087803b15801561024457600080fd5b505af1158015610258573d6000803e3d6000fd5b505060405163f2fde38b60e01b81523360048201526001600160a01b038416925063f2fde38b9150602401600060405180830381600087803b15801561029d57600080fd5b505af11580156102b1573d6000803e3d6000fd5b505050506001600160a01b0385811660008181526001602090815260409182902080546001600160a01b0319168686161790558151938a16845283019190915281018590526060810184905281907f8e1ced756f4356fda19a20f79b7aead2adfdbc4c6c8f63f6c301aa25200230679060800160405180910390a19695505050505050565b6000546001600160a01b031633146103605760405162461bcd60e51b815260040161013e90610536565b6001600160a01b0381166103c55760405162461bcd60e51b815260206004820152602660248201527f4f776e61626c653a206e6577206f776e657220697320746865207a65726f206160448201526564647265737360d01b606482015260840161013e565b600080546040516001600160a01b03808516939216917f8be0079c531659141344cd1fd0a4f28419497f9722a3daafe3b4186f6b6457e091a3600080546001600160a01b0319166001600160a01b0392909216919091179055565b6000604051733d602d80600a3d3981f3363d3d373d3d3d363d7360601b81528260601b60148201526e5af43d82803e903d91602b57fd5bf360881b60288201526037816000f09150506001600160a01b0381166104b85760405162461bcd60e51b8152602060048201526016602482015275115490cc4c4d8dce8818dc99585d194819985a5b195960521b604482015260640161013e565b919050565b80356001600160a01b03811681146104b857600080fd5b6000602082840312156104e5578081fd5b6104ee826104bd565b9392505050565b6000806000806080858703121561050a578283fd5b610513856104bd565b9350610521602086016104bd565b93969395505050506040820135916060013590565b6020808252818101527f4f776e61626c653a2063616c6c6572206973206e6f7420746865206f776e657260408201526060019056fea2646970667358221220c8c282ca3e2bb446f47a7744e308e88a4debd71b77df0ec7efc24470a8ea150f64736f6c63430008040033608060405234801561001057600080fd5b50611a85806100206000396000f3fe608060405234801561001057600080fd5b50600436106101205760003560e01c8063a41fe49f116100ad578063d67c38ac11610071578063d67c38ac1461027c578063e82b47b51461028f578063eb990c59146102a2578063f24bcd0d146102b5578063f2fde38b146102d857600080fd5b8063a41fe49f14610231578063aa50bec114610244578063ac44ff3114610257578063c447d84b1461026a578063d1c699aa1461027357600080fd5b80638355fc54116100f45780638355fc54146101ab5780638da5cb5b146101be57806390c1b98f146101cf57806396ce0795146101fa578063997a63921461020657600080fd5b8062489c341461012557806315ddd4ff146101555780635f9c58121461018e578063715018a6146101a3575b600080fd5b606854610138906001600160a01b031681565b6040516001600160a01b0390911681526020015b60405180910390f35b61018061016336600461177f565b606a60209081526000928352604080842090915290825290205481565b60405190815260200161014c565b6101a161019c3660046117a0565b6102eb565b005b6101a16103b4565b606754610138906001600160a01b031681565b6033546001600160a01b0316610138565b6101806101dd36600461177f565b606960209081526000928352604080842090915290825290205481565b6101806402540be40081565b61018061021436600461177f565b606b60209081526000928352604080842090915290825290205481565b61018061023f36600461182b565b610428565b61018061025236600461182b565b6105f7565b6101806102653660046117f3565b610a4f565b61018060665481565b61018060655481565b61018061028a3660046117f3565b610b61565b6101a161029d3660046117a0565b610c03565b6101a16102b036600461171a565b610c68565b6102c86102c3366004611856565b610e34565b604051901515815260200161014c565b6101a16102e63660046116e2565b61104f565b6033546001600160a01b0316331461031e5760405162461bcd60e51b815260040161031590611955565b60405180910390fd5b6402540be40081106103725760405162461bcd60e51b815260206004820152601f60248201527f44656c656761746f723a20496e76616c696420657865726369736520666565006044820152606401610315565b606581905560408051338152602081018390527ff54ce02488e18342ce4f252dcf19ed3d3bc6cc3a6827bac2b5388b3619093ce391015b60405180910390a150565b6033546001600160a01b031633146103de5760405162461bcd60e51b815260040161031590611955565b6033546040516000916001600160a01b0316907f8be0079c531659141344cd1fd0a4f28419497f9722a3daafe3b4186f6b6457e0908390a3603380546001600160a01b0319169055565b6000838152606960209081526040808320858452909152812054156104a15760405162461bcd60e51b815260206004820152602960248201527f44656c656761746f723a2043616e6e6f7420776974686472617720616674657260448201526820657865726369736560b81b6064820152608401610315565b600033846040516020016104b6929190611896565b60408051601f1981840301815291815281516020928301206000818152606b84528281208982529093529120549091506104f19084906119e1565b6000828152606b60209081526040808320898452909152908190209190915560675490516311c3d08960e21b815260048101879052602481018690526105a891339186916001600160a01b03169063470f42249060440160206040518083038186803b15801561056057600080fd5b505afa158015610574573d6000803e3d6000fd5b505050506040513d601f19601f8201168201806040525081019061059891906116fe565b6001600160a01b0316919061113a565b604080518681526020810186905290810184905233907f650fdf669e93aa6c8ff3defe2da9c12b64f1548e5e1e54e803f4c1beb6466c8e9060600160405180910390a2829150505b9392505050565b6000838152606960209081526040808320858452909152812054156106705760405162461bcd60e51b815260206004820152602960248201527f44656c656761746f723a2043616e6e6f74206578657263697365206d6f7265206044820152687468616e206f6e636560b81b6064820152608401610315565b6067546040516311c3d08960e21b815260048101869052602481018590526000916001600160a01b03169063470f42249060440160206040518083038186803b1580156106bc57600080fd5b505afa1580156106d0573d6000803e3d6000fd5b505050506040513d601f19601f820116820180604052508101906106f491906116fe565b6040516370a0823160e01b81523060048201529091506000906001600160a01b038316906370a082319060240160206040518083038186803b15801561073957600080fd5b505afa15801561074d573d6000803e3d6000fd5b505050506040513d601f19601f8201168201806040525081019061077191906117b8565b9050600081116107c35760405162461bcd60e51b815260206004820152601e60248201527f44656c656761746f723a2042616c616e63652063616e6e6f74206265203000006044820152606401610315565b600086815260696020908152604080832088845290915290208190556067546107f9906001600160a01b038481169116836111a2565b6068546040516370a0823160e01b81523060048201526000916001600160a01b0316906370a082319060240160206040518083038186803b15801561083d57600080fd5b505afa158015610851573d6000803e3d6000fd5b505050506040513d601f19601f8201168201806040525081019061087591906117b8565b606754604051636b1bcdb960e11b815260048101889052602481018590523060448201529192506001600160a01b03169063d6379b72906064016040805180830381600087803b1580156108c857600080fd5b505af11580156108dc573d6000803e3d6000fd5b505050506040513d601f19601f8201168201806040525081019061090091906117d0565b50506068546040516370a0823160e01b815230600482015282916001600160a01b0316906370a082319060240160206040518083038186803b15801561094557600080fd5b505afa158015610959573d6000803e3d6000fd5b505050506040513d601f19601f8201168201806040525081019061097d91906117b8565b61098791906119e1565b905060006402540be4006065548361099f91906119c2565b6109a991906119a2565b90506066548111156109ba57506066545b6109c481836119e1565b6000898152606a602090815260408083208b845290915290208190556068549092506109fa906001600160a01b0316338361113a565b60408051898152602081018990529081018390526060810182905233907f31939b125e073bbdbf69ac6eb0cb59489894a9bea509d658589af5917b53cca19060800160405180910390a2509695505050505050565b600080610a5d858585610b61565b905060008385604051602001610a74929190611896565b60405160208183030381529060405280519060200120905060008211610adc5760405162461bcd60e51b815260206004820152601a60248201527f44656c656761746f723a20416c726561647920636c61696d65640000000000006044820152606401610315565b6000818152606b60209081526040808320898452909152812055606854610b0d906001600160a01b0316858461113a565b604080518781523360208201529081018390526001600160a01b038516907fad03f837a9207e368d73ec028e1f54428184da8cfea258cc116da2225f3ac5eb9060600160405180910390a250949350505050565b6000808284604051602001610b77929190611896565b60408051601f19818403018152918152815160209283012060008881526069845282812088825290935291205490915080610bb7576000925050506105f0565b6000868152606a60209081526040808320888452825280832054858452606b83528184208a8552909252909120548291610bf0916119c2565b610bfa91906119a2565b925050506105f0565b6033546001600160a01b03163314610c2d5760405162461bcd60e51b815260040161031590611955565b606681905560408051338152602081018390527f47b60b56964d195f09d61464c4ce5ebb5c3fef7d9574145f33867910e173c74b91016103a9565b6001600160a01b038416610cbe5760405162461bcd60e51b815260206004820152601f60248201527f44656c656761746f723a20496e76616c69642053534f562061646472657373006044820152606401610315565b6001600160a01b038316610d225760405162461bcd60e51b815260206004820152602560248201527f44656c656761746f723a20496e76616c69642053534f5620546f6b656e206164604482015264647265737360d81b6064820152608401610315565b6402540be4008210610d765760405162461bcd60e51b815260206004820152601f60248201527f44656c656761746f723a20496e76616c696420657865726369736520666565006044820152606401610315565b606780546001600160a01b038087166001600160a01b031992831617909255606880549286169290911691909117905560658290556066819055610db86112c6565b6065546040805133815260208101929092527ff54ce02488e18342ce4f252dcf19ed3d3bc6cc3a6827bac2b5388b3619093ce3910160405180910390a160408051338152602081018390527f47b60b56964d195f09d61464c4ce5ebb5c3fef7d9574145f33867910e173c74b910160405180910390a150505050565b60006001600160a01b038216610e8c5760405162461bcd60e51b815260206004820152601e60248201527f44656c656761746f723a20557365722063616e6e6f74206265207a65726f00006044820152606401610315565b60008285604051602001610ea1929190611896565b60408051601f19818403018152918152815160209283012060008981526069845282812089825290935291205490915015610f2f5760405162461bcd60e51b815260206004820152602860248201527f44656c656761746f723a2043616e6e6f74206465706f73697420616674657220604482015267657865726369736560c01b6064820152608401610315565b6000818152606b6020908152604080832089845290915281208054869290610f5890849061198a565b90915550506067546040516311c3d08960e21b81526004810188905260248101879052610ffb913391309188916001600160a01b039091169063470f42249060440160206040518083038186803b158015610fb257600080fd5b505afa158015610fc6573d6000803e3d6000fd5b505050506040513d601f19601f82011682018060405250810190610fea91906116fe565b6001600160a01b0316929190611342565b6040805186815260208101869052879133916001600160a01b038716917f48c2d99ec24bee249c45b67efa518660715ea887d96c02b9987ab1d52ecda6cf910160405180910390a450600195945050505050565b6033546001600160a01b031633146110795760405162461bcd60e51b815260040161031590611955565b6001600160a01b0381166110de5760405162461bcd60e51b815260206004820152602660248201527f4f776e61626c653a206e6577206f776e657220697320746865207a65726f206160448201526564647265737360d01b6064820152608401610315565b6033546040516001600160a01b038084169216907f8be0079c531659141344cd1fd0a4f28419497f9722a3daafe3b4186f6b6457e090600090a3603380546001600160a01b0319166001600160a01b0392909216919091179055565b6040516001600160a01b03831660248201526044810182905261119d90849063a9059cbb60e01b906064015b60408051601f198184030181529190526020810180516001600160e01b03166001600160e01b031990931692909217909152611380565b505050565b80158061122b5750604051636eb1769f60e11b81523060048201526001600160a01b03838116602483015284169063dd62ed3e9060440160206040518083038186803b1580156111f157600080fd5b505afa158015611205573d6000803e3d6000fd5b505050506040513d601f19601f8201168201806040525081019061122991906117b8565b155b6112965760405162461bcd60e51b815260206004820152603660248201527f5361666545524332303a20617070726f76652066726f6d206e6f6e2d7a65726f60448201527520746f206e6f6e2d7a65726f20616c6c6f77616e636560501b6064820152608401610315565b6040516001600160a01b03831660248201526044810182905261119d90849063095ea7b360e01b90606401611166565b600054610100900460ff16806112df575060005460ff16155b6112fb5760405162461bcd60e51b815260040161031590611907565b600054610100900460ff1615801561131d576000805461ffff19166101011790555b611325611452565b61132d6114bc565b801561133f576000805461ff00191690555b50565b6040516001600160a01b038085166024830152831660448201526064810182905261137a9085906323b872dd60e01b90608401611166565b50505050565b60006113d5826040518060400160405280602081526020017f5361666545524332303a206c6f772d6c6576656c2063616c6c206661696c6564815250856001600160a01b031661156a9092919063ffffffff16565b80519091501561119d57808060200190518101906113f3919061175f565b61119d5760405162461bcd60e51b815260206004820152602a60248201527f5361666545524332303a204552433230206f7065726174696f6e20646964206e6044820152691bdd081cdd58d8d9595960b21b6064820152608401610315565b600054610100900460ff168061146b575060005460ff16155b6114875760405162461bcd60e51b815260040161031590611907565b600054610100900460ff1615801561132d576000805461ffff1916610101179055801561133f576000805461ff001916905550565b600054610100900460ff16806114d5575060005460ff16155b6114f15760405162461bcd60e51b815260040161031590611907565b600054610100900460ff16158015611513576000805461ffff19166101011790555b603380546001600160a01b0319163390811790915560405181906000907f8be0079c531659141344cd1fd0a4f28419497f9722a3daafe3b4186f6b6457e0908290a350801561133f576000805461ff001916905550565b60606115798484600085611581565b949350505050565b6060824710156115e25760405162461bcd60e51b815260206004820152602660248201527f416464726573733a20696e73756666696369656e742062616c616e636520666f6044820152651c8818d85b1b60d21b6064820152608401610315565b843b6116305760405162461bcd60e51b815260206004820152601d60248201527f416464726573733a2063616c6c20746f206e6f6e2d636f6e74726163740000006044820152606401610315565b600080866001600160a01b0316858760405161164c91906118b8565b60006040518083038185875af1925050503d8060008114611689576040519150601f19603f3d011682016040523d82523d6000602084013e61168e565b606091505b509150915061169e8282866116a9565b979650505050505050565b606083156116b85750816105f0565b8251156116c85782518084602001fd5b8160405162461bcd60e51b815260040161031591906118d4565b6000602082840312156116f3578081fd5b81356105f081611a3a565b60006020828403121561170f578081fd5b81516105f081611a3a565b6000806000806080858703121561172f578283fd5b843561173a81611a3a565b9350602085013561174a81611a3a565b93969395505050506040820135916060013590565b600060208284031215611770578081fd5b815180151581146105f0578182fd5b60008060408385031215611791578182fd5b50508035926020909101359150565b6000602082840312156117b1578081fd5b5035919050565b6000602082840312156117c9578081fd5b5051919050565b600080604083850312156117e2578182fd5b505080516020909101519092909150565b600080600060608486031215611807578283fd5b8335925060208401359150604084013561182081611a3a565b809150509250925092565b60008060006060848603121561183f578283fd5b505081359360208301359350604090920135919050565b6000806000806080858703121561186b578384fd5b843593506020850135925060408501359150606085013561188b81611a3a565b939692955090935050565b60609290921b6bffffffffffffffffffffffff19168252601482015260340190565b600082516118ca8184602087016119f8565b9190910192915050565b60208152600082518060208401526118f38160408501602087016119f8565b601f01601f19169190910160400192915050565b6020808252602e908201527f496e697469616c697a61626c653a20636f6e747261637420697320616c72656160408201526d191e481a5b9a5d1a585b1a5e995960921b606082015260800190565b6020808252818101527f4f776e61626c653a2063616c6c6572206973206e6f7420746865206f776e6572604082015260600190565b6000821982111561199d5761199d611a24565b500190565b6000826119bd57634e487b7160e01b81526012600452602481fd5b500490565b60008160001904831182151516156119dc576119dc611a24565b500290565b6000828210156119f3576119f3611a24565b500390565b60005b83811015611a135781810151838201526020016119fb565b8381111561137a5750506000910152565b634e487b7160e01b600052601160045260246000fd5b6001600160a01b038116811461133f57600080fdfea2646970667358221220bc427a92d509e695244cc0a135e406ff60ee5dd7e27b6bebc95f2e0666bc053064736f6c63430008040033",
  "devdoc": {
    "kind": "dev",
    "methods": {
      "create(address,address,uint256,uint256)": {
        "details": "Creates the SSOV Delegator for an SSOV",
        "params": {
          "_exerciseFee": "exercise fee for the user calling exercise",
          "_exerciseFeeCap": "max fee the user calling exercise can receive",
          "_ssov": "address of SSOV",
          "_ssovToken": "address of the token of the SSOV"
        }
      },
      "owner()": {
        "details": "Returns the address of the current owner."
      },
      "renounceOwnership()": {
        "details": "Leaves the contract without owner. It will not be possible to call `onlyOwner` functions anymore. Can only be called by the current owner. NOTE: Renouncing ownership will leave the contract without an owner, thereby removing any functionality that is only available to the owner."
      },
      "transferOwnership(address)": {
        "details": "Transfers ownership of the contract to a new account (`newOwner`). Can only be called by the current owner."
      }
    },
    "stateVariables": {
      "implementationAddress": {
        "details": "implementation address of the ssov delegator"
      },
      "ssovDelegators": {
        "details": "ssov token address => ssov delegator address"
      }
    },
    "version": 1
  },
  "userdoc": {
    "kind": "user",
    "methods": {},
    "version": 1
  },
  "storageLayout": {
    "storage": [
      {
        "astId": 3276,
        "contract": "contracts/delegator/SSOVDelegatorFactory.sol:SSOVDelegatorFactory",
        "label": "_owner",
        "offset": 0,
        "slot": "0",
        "type": "t_address"
      },
      {
        "astId": 13061,
        "contract": "contracts/delegator/SSOVDelegatorFactory.sol:SSOVDelegatorFactory",
        "label": "ssovDelegators",
        "offset": 0,
        "slot": "1",
        "type": "t_mapping(t_address,t_address)"
      }
    ],
    "types": {
      "t_address": {
        "encoding": "inplace",
        "label": "address",
        "numberOfBytes": "20"
      },
      "t_mapping(t_address,t_address)": {
        "encoding": "mapping",
        "key": "t_address",
        "label": "mapping(address => address)",
        "numberOfBytes": "32",
        "value": "t_address"
      }
    }
  }
}